{"contracts/CuyCollectionNft.sol":{"CuyCollectionNft":{"abi":[{"anonymous":false,"inputs":[{"indexed":false,"internalType":"address","name":"previousAdmin","type":"address"},{"indexed":false,"internalType":"address","name":"newAdmin","type":"address"}],"name":"AdminChanged","type":"event"},{"anonymous":false,"inputs":[{"indexed":true,"internalType":"address","name":"owner","type":"address"},{"indexed":true,"internalType":"address","name":"approved","type":"address"},{"indexed":true,"internalType":"uint256","name":"tokenId","type":"uint256"}],"name":"Approval","type":"event"},{"anonymous":false,"inputs":[{"indexed":true,"internalType":"address","name":"owner","type":"address"},{"indexed":true,"internalType":"address","name":"operator","type":"address"},{"indexed":false,"internalType":"bool","name":"approved","type":"bool"}],"name":"ApprovalForAll","type":"event"},{"anonymous":false,"inputs":[{"indexed":true,"internalType":"address","name":"beacon","type":"address"}],"name":"BeaconUpgraded","type":"event"},{"anonymous":false,"inputs":[{"indexed":false,"internalType":"address","name":"account","type":"address"},{"indexed":false,"internalType":"uint256","name":"id","type":"uint256"}],"name":"Burn","type":"event"},{"anonymous":false,"inputs":[{"indexed":false,"internalType":"uint8","name":"version","type":"uint8"}],"name":"Initialized","type":"event"},{"anonymous":false,"inputs":[{"indexed":false,"internalType":"address","name":"account","type":"address"}],"name":"Paused","type":"event"},{"anonymous":false,"inputs":[{"indexed":true,"internalType":"bytes32","name":"role","type":"bytes32"},{"indexed":true,"internalType":"bytes32","name":"previousAdminRole","type":"bytes32"},{"indexed":true,"internalType":"bytes32","name":"newAdminRole","type":"bytes32"}],"name":"RoleAdminChanged","type":"event"},{"anonymous":false,"inputs":[{"indexed":true,"internalType":"bytes32","name":"role","type":"bytes32"},{"indexed":true,"internalType":"address","name":"account","type":"address"},{"indexed":true,"internalType":"address","name":"sender","type":"address"}],"name":"RoleGranted","type":"event"},{"anonymous":false,"inputs":[{"indexed":true,"internalType":"bytes32","name":"role","type":"bytes32"},{"indexed":true,"internalType":"address","name":"account","type":"address"},{"indexed":true,"internalType":"address","name":"sender","type":"address"}],"name":"RoleRevoked","type":"event"},{"anonymous":false,"inputs":[{"indexed":true,"internalType":"address","name":"from","type":"address"},{"indexed":true,"internalType":"address","name":"to","type":"address"},{"indexed":true,"internalType":"uint256","name":"tokenId","type":"uint256"}],"name":"Transfer","type":"event"},{"anonymous":false,"inputs":[{"indexed":false,"internalType":"address","name":"account","type":"address"}],"name":"Unpaused","type":"event"},{"anonymous":false,"inputs":[{"indexed":true,"internalType":"address","name":"implementation","type":"address"}],"name":"Upgraded","type":"event"},{"inputs":[],"name":"DEFAULT_ADMIN_ROLE","outputs":[{"internalType":"bytes32","name":"","type":"bytes32"}],"stateMutability":"view","type":"function"},{"inputs":[],"name":"MINTER_ROLE","outputs":[{"internalType":"bytes32","name":"","type":"bytes32"}],"stateMutability":"view","type":"function"},{"inputs":[],"name":"PAUSER_ROLE","outputs":[{"internalType":"bytes32","name":"","type":"bytes32"}],"stateMutability":"view","type":"function"},{"inputs":[{"internalType":"address","name":"to","type":"address"},{"internalType":"uint256","name":"tokenId","type":"uint256"}],"name":"approve","outputs":[],"stateMutability":"nonpayable","type":"function"},{"inputs":[{"internalType":"address","name":"owner","type":"address"}],"name":"balanceOf","outputs":[{"internalType":"uint256","name":"","type":"uint256"}],"stateMutability":"view","type":"function"},{"inputs":[{"internalType":"uint256","name":"tokenId","type":"uint256"}],"name":"burn","outputs":[],"stateMutability":"nonpayable","type":"function"},{"inputs":[{"internalType":"uint256","name":"id","type":"uint256"}],"name":"buyBack","outputs":[],"stateMutability":"nonpayable","type":"function"},{"inputs":[{"internalType":"uint256","name":"tokenId","type":"uint256"}],"name":"getApproved","outputs":[{"internalType":"address","name":"","type":"address"}],"stateMutability":"view","type":"function"},{"inputs":[{"internalType":"bytes32","name":"role","type":"bytes32"}],"name":"getRoleAdmin","outputs":[{"internalType":"bytes32","name":"","type":"bytes32"}],"stateMutability":"view","type":"function"},{"inputs":[{"internalType":"bytes32","name":"role","type":"bytes32"},{"internalType":"address","name":"account","type":"address"}],"name":"grantRole","outputs":[],"stateMutability":"nonpayable","type":"function"},{"inputs":[{"internalType":"bytes32","name":"role","type":"bytes32"},{"internalType":"address","name":"account","type":"address"}],"name":"hasRole","outputs":[{"internalType":"bool","name":"","type":"bool"}],"stateMutability":"view","type":"function"},{"inputs":[{"internalType":"string","name":"_name","type":"string"},{"internalType":"string","name":"_symbol","type":"string"}],"name":"initialize","outputs":[],"stateMutability":"nonpayable","type":"function"},{"inputs":[{"internalType":"address","name":"owner","type":"address"},{"internalType":"address","name":"operator","type":"address"}],"name":"isApprovedForAll","outputs":[{"internalType":"bool","name":"","type":"bool"}],"stateMutability":"view","type":"function"},{"inputs":[],"name":"name","outputs":[{"internalType":"string","name":"","type":"string"}],"stateMutability":"view","type":"function"},{"inputs":[{"internalType":"uint256","name":"tokenId","type":"uint256"}],"name":"ownerOf","outputs":[{"internalType":"address","name":"","type":"address"}],"stateMutability":"view","type":"function"},{"inputs":[],"name":"pause","outputs":[],"stateMutability":"nonpayable","type":"function"},{"inputs":[],"name":"paused","outputs":[{"internalType":"bool","name":"","type":"bool"}],"stateMutability":"view","type":"function"},{"inputs":[],"name":"proxiableUUID","outputs":[{"internalType":"bytes32","name":"","type":"bytes32"}],"stateMutability":"view","type":"function"},{"inputs":[{"internalType":"bytes32","name":"role","type":"bytes32"},{"internalType":"address","name":"account","type":"address"}],"name":"renounceRole","outputs":[],"stateMutability":"nonpayable","type":"function"},{"inputs":[{"internalType":"bytes32","name":"role","type":"bytes32"},{"internalType":"address","name":"account","type":"address"}],"name":"revokeRole","outputs":[],"stateMutability":"nonpayable","type":"function"},{"inputs":[],"name":"root","outputs":[{"internalType":"bytes32","name":"","type":"bytes32"}],"stateMutability":"view","type":"function"},{"inputs":[{"internalType":"address","name":"to","type":"address"},{"internalType":"uint256","name":"tokenId","type":"uint256"}],"name":"safeMint","outputs":[],"stateMutability":"nonpayable","type":"function"},{"inputs":[{"internalType":"address","name":"to","type":"address"},{"internalType":"uint256","name":"tokenId","type":"uint256"},{"internalType":"bytes32[]","name":"proofs","type":"bytes32[]"}],"name":"safeMintWhiteList","outputs":[],"stateMutability":"nonpayable","type":"function"},{"inputs":[{"internalType":"address","name":"from","type":"address"},{"internalType":"address","name":"to","type":"address"},{"internalType":"uint256","name":"tokenId","type":"uint256"}],"name":"safeTransferFrom","outputs":[],"stateMutability":"nonpayable","type":"function"},{"inputs":[{"internalType":"address","name":"from","type":"address"},{"internalType":"address","name":"to","type":"address"},{"internalType":"uint256","name":"tokenId","type":"uint256"},{"internalType":"bytes","name":"data","type":"bytes"}],"name":"safeTransferFrom","outputs":[],"stateMutability":"nonpayable","type":"function"},{"inputs":[{"internalType":"address","name":"operator","type":"address"},{"internalType":"bool","name":"approved","type":"bool"}],"name":"setApprovalForAll","outputs":[],"stateMutability":"nonpayable","type":"function"},{"inputs":[{"internalType":"bytes4","name":"interfaceId","type":"bytes4"}],"name":"supportsInterface","outputs":[{"internalType":"bool","name":"","type":"bool"}],"stateMutability":"view","type":"function"},{"inputs":[],"name":"symbol","outputs":[{"internalType":"string","name":"","type":"string"}],"stateMutability":"view","type":"function"},{"inputs":[{"internalType":"uint256","name":"index","type":"uint256"}],"name":"tokenByIndex","outputs":[{"internalType":"uint256","name":"","type":"uint256"}],"stateMutability":"view","type":"function"},{"inputs":[{"internalType":"address","name":"owner","type":"address"},{"internalType":"uint256","name":"index","type":"uint256"}],"name":"tokenOfOwnerByIndex","outputs":[{"internalType":"uint256","name":"","type":"uint256"}],"stateMutability":"view","type":"function"},{"inputs":[{"internalType":"uint256","name":"tokenId","type":"uint256"}],"name":"tokenURI","outputs":[{"internalType":"string","name":"","type":"string"}],"stateMutability":"view","type":"function"},{"inputs":[],"name":"totalSupply","outputs":[{"internalType":"uint256","name":"","type":"uint256"}],"stateMutability":"view","type":"function"},{"inputs":[{"internalType":"address","name":"from","type":"address"},{"internalType":"address","name":"to","type":"address"},{"internalType":"uint256","name":"tokenId","type":"uint256"}],"name":"transferFrom","outputs":[],"stateMutability":"nonpayable","type":"function"},{"inputs":[],"name":"unpause","outputs":[],"stateMutability":"nonpayable","type":"function"},{"inputs":[{"internalType":"address","name":"newImplementation","type":"address"}],"name":"upgradeTo","outputs":[],"stateMutability":"nonpayable","type":"function"},{"inputs":[{"internalType":"address","name":"newImplementation","type":"address"},{"internalType":"bytes","name":"data","type":"bytes"}],"name":"upgradeToAndCall","outputs":[],"stateMutability":"payable","type":"function"}],"evm":{"bytecode":{"linkReferences":{},"object":"60a06040523060805234801561001457600080fd5b5060805161336161004c60003960008181610b1c01528181610b5c01528181610dfd01528181610e3d0152610f5f01526133616000f3fe60806040526004361061020f5760003560e01c806352d1902d11610118578063a217fddf116100a0578063d53913931161006f578063d5391393146105e8578063d547741f1461061c578063e63ab1e91461063c578063e985e9c51461065e578063ebf0c717146106a757600080fd5b8063a217fddf14610573578063a22cb46514610588578063b88d4fde146105a8578063c87b56dd146105c857600080fd5b806370a08231116100e757806370a08231146104e95780638456cb591461050957806391d148541461051e57806395d89b411461053e578063a14481941461055357600080fd5b806352d1902d1461047c5780635c975abb146104915780636352211e146104a9578063662c2d96146104c957600080fd5b80632f745c591161019b57806342842e0e1161016a57806342842e0e146103e957806342966c68146104095780634cd88b76146104295780634f1ef286146104495780634f6ccce71461045c57600080fd5b80632f745c591461037457806336568abe146103945780633659cfe6146103b45780633f4ba83a146103d457600080fd5b8063095ea7b3116101e2578063095ea7b3146102c557806318160ddd146102e557806323b872dd14610304578063248a9ca3146103245780632f2ff15d1461035457600080fd5b806301ffc9a714610214578063053f90401461024957806306fdde031461026b578063081812fc1461028d575b600080fd5b34801561022057600080fd5b5061023461022f3660046129a2565b6106be565b60405190151581526020015b60405180910390f35b34801561025557600080fd5b506102696102643660046129bf565b6106cf565b005b34801561027757600080fd5b506102806107da565b6040516102409190612a28565b34801561029957600080fd5b506102ad6102a83660046129bf565b61086c565b6040516001600160a01b039091168152602001610240565b3480156102d157600080fd5b506102696102e0366004612a57565b610893565b3480156102f157600080fd5b506099545b604051908152602001610240565b34801561031057600080fd5b5061026961031f366004612a81565b6109a8565b34801561033057600080fd5b506102f661033f3660046129bf565b600090815260fb602052604090206001015490565b34801561036057600080fd5b5061026961036f366004612abd565b6109d9565b34801561038057600080fd5b506102f661038f366004612a57565b6109fe565b3480156103a057600080fd5b506102696103af366004612abd565b610a94565b3480156103c057600080fd5b506102696103cf366004612ae9565b610b12565b3480156103e057600080fd5b50610269610bf1565b3480156103f557600080fd5b50610269610404366004612a81565b610c11565b34801561041557600080fd5b506102696104243660046129bf565b610c2c565b34801561043557600080fd5b50610269610444366004612ba7565b610c7a565b610269610457366004612c0b565b610df3565b34801561046857600080fd5b506102f66104773660046129bf565b610ebf565b34801561048857600080fd5b506102f6610f52565b34801561049d57600080fd5b5060c95460ff16610234565b3480156104b557600080fd5b506102ad6104c43660046129bf565b611005565b3480156104d557600080fd5b506102696104e4366004612c4f565b611065565b3480156104f557600080fd5b506102f6610504366004612ae9565b6111ce565b34801561051557600080fd5b50610269611254565b34801561052a57600080fd5b50610234610539366004612abd565b611274565b34801561054a57600080fd5b5061028061129f565b34801561055f57600080fd5b5061026961056e366004612a57565b6112ae565b34801561057f57600080fd5b506102f6600081565b34801561059457600080fd5b506102696105a3366004612cd9565b61132c565b3480156105b457600080fd5b506102696105c3366004612d15565b611337565b3480156105d457600080fd5b506102806105e33660046129bf565b611369565b3480156105f457600080fd5b506102f67f9f2df0fed2c77648de5860a4cc508cd0818c85b8b8a1ab4ceeef8d981c8956a681565b34801561062857600080fd5b50610269610637366004612abd565b6113d0565b34801561064857600080fd5b506102f66000805160206132e583398151915281565b34801561066a57600080fd5b50610234610679366004612d7d565b6001600160a01b039182166000908152606a6020908152604080832093909416825291909152205460ff1690565b3480156106b357600080fd5b506102f66101925481565b60006106c9826113f5565b92915050565b6106d761141a565b6103e881101580156106eb57506107cf8111155b6107355760405162461bcd60e51b8152602060048201526016602482015275496e76616c696420494420666f72206275796261636b60501b60448201526064015b60405180910390fd5b3361073f82611005565b6001600160a01b0316146107955760405162461bcd60e51b815260206004820152601760248201527f596f7520646f206e6f74206f776e2074686973204e4654000000000000000000604482015260640161072c565b61079e81611462565b60408051338152602081018390527fcc16f5dbb4873280815c1ee09dbd06736cffcc184412cf7a71a0fdb75d397ca5910160405180910390a150565b6060606580546107e990612da7565b80601f016020809104026020016040519081016040528092919081815260200182805461081590612da7565b80156108625780601f1061083757610100808354040283529160200191610862565b820191906000526020600020905b81548152906001019060200180831161084557829003601f168201915b5050505050905090565b600061087782611505565b506000908152606960205260409020546001600160a01b031690565b600061089e82611005565b9050806001600160a01b0316836001600160a01b03160361090b5760405162461bcd60e51b815260206004820152602160248201527f4552433732313a20617070726f76616c20746f2063757272656e74206f776e656044820152603960f91b606482015260840161072c565b336001600160a01b038216148061092757506109278133610679565b6109995760405162461bcd60e51b815260206004820152603d60248201527f4552433732313a20617070726f76652063616c6c6572206973206e6f7420746f60448201527f6b656e206f776e6572206f7220617070726f76656420666f7220616c6c000000606482015260840161072c565b6109a38383611564565b505050565b6109b233826115d2565b6109ce5760405162461bcd60e51b815260040161072c90612de1565b6109a3838383611651565b600082815260fb60205260409020600101546109f4816117c2565b6109a383836117cc565b6000610a09836111ce565b8210610a6b5760405162461bcd60e51b815260206004820152602b60248201527f455243373231456e756d657261626c653a206f776e657220696e646578206f7560448201526a74206f6620626f756e647360a81b606482015260840161072c565b506001600160a01b03919091166000908152609760209081526040808320938352929052205490565b6001600160a01b0381163314610b045760405162461bcd60e51b815260206004820152602f60248201527f416363657373436f6e74726f6c3a2063616e206f6e6c792072656e6f756e636560448201526e103937b632b9903337b91039b2b63360891b606482015260840161072c565b610b0e8282611852565b5050565b6001600160a01b037f0000000000000000000000000000000000000000000000000000000000000000163003610b5a5760405162461bcd60e51b815260040161072c90612e2e565b7f00000000000000000000000000000000000000000000000000000000000000006001600160a01b0316610ba36000805160206132c5833981519152546001600160a01b031690565b6001600160a01b031614610bc95760405162461bcd60e51b815260040161072c90612e7a565b610bd2816118b9565b60408051600080825260208201909252610bee918391906118c4565b50565b6000805160206132e5833981519152610c09816117c2565b610bee611a2f565b6109a383838360405180602001604052806000815250611337565b610c3633826115d2565b610c715760405162461bcd60e51b815260206004820152600c60248201526b139bdd08185c1c1c9bdd995960a21b604482015260640161072c565b610bee81611462565b600054610100900460ff1615808015610c9a5750600054600160ff909116105b80610cb45750303b158015610cb4575060005460ff166001145b610d175760405162461bcd60e51b815260206004820152602e60248201527f496e697469616c697a61626c653a20636f6e747261637420697320616c72656160448201526d191e481a5b9a5d1a585b1a5e995960921b606482015260840161072c565b6000805460ff191660011790558015610d3a576000805461ff0019166101001790555b610d448383611a81565b610d4c611ab2565b610d54611ae1565b610d5c611ae1565b610d67600033611b08565b610d7f6000805160206132e583398151915233611b08565b610da97f9f2df0fed2c77648de5860a4cc508cd0818c85b8b8a1ab4ceeef8d981c8956a633611b08565b80156109a3576000805461ff0019169055604051600181527f7f26b83ff96e1f2b6a682f133852f6798a09c465da95921460cefb38474024989060200160405180910390a1505050565b6001600160a01b037f0000000000000000000000000000000000000000000000000000000000000000163003610e3b5760405162461bcd60e51b815260040161072c90612e2e565b7f00000000000000000000000000000000000000000000000000000000000000006001600160a01b0316610e846000805160206132c5833981519152546001600160a01b031690565b6001600160a01b031614610eaa5760405162461bcd60e51b815260040161072c90612e7a565b610eb3826118b9565b610b0e828260016118c4565b6000610eca60995490565b8210610f2d5760405162461bcd60e51b815260206004820152602c60248201527f455243373231456e756d657261626c653a20676c6f62616c20696e646578206f60448201526b7574206f6620626f756e647360a01b606482015260840161072c565b60998281548110610f4057610f40612ec6565b90600052602060002001549050919050565b6000306001600160a01b037f00000000000000000000000000000000000000000000000000000000000000001614610ff25760405162461bcd60e51b815260206004820152603860248201527f555550535570677261646561626c653a206d757374206e6f742062652063616c60448201527f6c6564207468726f7567682064656c656761746563616c6c0000000000000000606482015260840161072c565b506000805160206132c583398151915290565b6000818152606760205260408120546001600160a01b0316806106c95760405162461bcd60e51b8152602060048201526018602482015277115490cdcc8c4e881a5b9d985b1a59081d1bdad95b88125160421b604482015260640161072c565b61106d61141a565b6103e78311156110b75760405162461bcd60e51b8152602060048201526015602482015274546f6b656e204944206f7574206f662072616e676560581b604482015260640161072c565b806111045760405162461bcd60e51b815260206004820152601c60248201527f50726f6f66732061727261792063616e6e6f7420626520656d70747900000000604482015260640161072c565b61118282828080602002602001604051908101604052809392919081815260200183836020028082843760009201919091525050610192546040516bffffffffffffffffffffffff1960608b901b16602082015260348101899052909250605401905060405160208183030381529060405280519060200120611b12565b6111be5760405162461bcd60e51b815260206004820152600d60248201526c24b73b30b634b210383937b7b360991b604482015260640161072c565b6111c88484611b28565b50505050565b60006001600160a01b0382166112385760405162461bcd60e51b815260206004820152602960248201527f4552433732313a2061646472657373207a65726f206973206e6f7420612076616044820152683634b21037bbb732b960b91b606482015260840161072c565b506001600160a01b031660009081526068602052604090205490565b6000805160206132e583398151915261126c816117c2565b610bee611b42565b600091825260fb602090815260408084206001600160a01b0393909316845291905290205460ff1690565b6060606680546107e990612da7565b7f9f2df0fed2c77648de5860a4cc508cd0818c85b8b8a1ab4ceeef8d981c8956a66112d8816117c2565b6103e78211156113225760405162461bcd60e51b8152602060048201526015602482015274546f6b656e204944206f7574206f662072616e676560581b604482015260640161072c565b6109a38383611b28565b610b0e338383611b7f565b61134133836115d2565b61135d5760405162461bcd60e51b815260040161072c90612de1565b6111c884848484611c4d565b606061137482611505565b600061137e611c80565b9050600081511161139e57604051806020016040528060008152506113c9565b806113a884611ca0565b6040516020016113b9929190612edc565b6040516020818303038152906040525b9392505050565b600082815260fb60205260409020600101546113eb816117c2565b6109a38383611852565b60006001600160e01b03198216637965db0b60e01b14806106c957506106c982611d33565b60c95460ff16156114605760405162461bcd60e51b815260206004820152601060248201526f14185d5cd8589b194e881c185d5cd95960821b604482015260640161072c565b565b600061146d82611005565b905061147d816000846001611d58565b61148682611005565b600083815260696020908152604080832080546001600160a01b03199081169091556001600160a01b0385168085526068845282852080546000190190558785526067909352818420805490911690555192935084927fddf252ad1be2c89b69c2b068fc378daa952ba7f163c4a11628f55a4df523b3ef908390a45050565b6000818152606760205260409020546001600160a01b0316610bee5760405162461bcd60e51b8152602060048201526018602482015277115490cdcc8c4e881a5b9d985b1a59081d1bdad95b88125160421b604482015260640161072c565b600081815260696020526040902080546001600160a01b0319166001600160a01b038416908117909155819061159982611005565b6001600160a01b03167f8c5be1e5ebec7d5bd14f71427d1e84f3dd0314c0f7b2291e5b200ac8c7c3b92560405160405180910390a45050565b6000806115de83611005565b9050806001600160a01b0316846001600160a01b0316148061162557506001600160a01b038082166000908152606a602090815260408083209388168352929052205460ff165b806116495750836001600160a01b031661163e8461086c565b6001600160a01b0316145b949350505050565b826001600160a01b031661166482611005565b6001600160a01b03161461168a5760405162461bcd60e51b815260040161072c90612f0b565b6001600160a01b0382166116ec5760405162461bcd60e51b8152602060048201526024808201527f4552433732313a207472616e7366657220746f20746865207a65726f206164646044820152637265737360e01b606482015260840161072c565b6116f98383836001611d58565b826001600160a01b031661170c82611005565b6001600160a01b0316146117325760405162461bcd60e51b815260040161072c90612f0b565b600081815260696020908152604080832080546001600160a01b03199081169091556001600160a01b0387811680865260688552838620805460001901905590871680865283862080546001019055868652606790945282852080549092168417909155905184937fddf252ad1be2c89b69c2b068fc378daa952ba7f163c4a11628f55a4df523b3ef91a4505050565b610bee8133611e8c565b6117d68282611274565b610b0e57600082815260fb602090815260408083206001600160a01b03851684529091529020805460ff1916600117905561180e3390565b6001600160a01b0316816001600160a01b0316837f2f8788117e7eff1d82e926ec794901d17c78024a50270940304540a733656f0d60405160405180910390a45050565b61185c8282611274565b15610b0e57600082815260fb602090815260408083206001600160a01b0385168085529252808320805460ff1916905551339285917ff6391f5c32d9c69d2a47ea670b442974b53935d1edc7fd64eb21e047a839171b9190a45050565b6000610b0e816117c2565b7f4910fdfa16fed3260ed0e7147f7cc6da11a60208b5b9406d12a635614ffd91435460ff16156118f7576109a383611ee5565b826001600160a01b03166352d1902d6040518163ffffffff1660e01b8152600401602060405180830381865afa925050508015611951575060408051601f3d908101601f1916820190925261194e91810190612f50565b60015b6119b45760405162461bcd60e51b815260206004820152602e60248201527f45524331393637557067726164653a206e657720696d706c656d656e7461746960448201526d6f6e206973206e6f74205555505360901b606482015260840161072c565b6000805160206132c58339815191528114611a235760405162461bcd60e51b815260206004820152602960248201527f45524331393637557067726164653a20756e737570706f727465642070726f786044820152681a58589b195555525160ba1b606482015260840161072c565b506109a3838383611f81565b611a37611fa6565b60c9805460ff191690557f5db9ee0a495bf2e6ff9c91a7834c1ba4fdd244a5e8aa4e537bd38aeae4b073aa335b6040516001600160a01b03909116815260200160405180910390a1565b600054610100900460ff16611aa85760405162461bcd60e51b815260040161072c90612f69565b610b0e8282611fef565b600054610100900460ff16611ad95760405162461bcd60e51b815260040161072c90612f69565b61146061202f565b600054610100900460ff166114605760405162461bcd60e51b815260040161072c90612f69565b610b0e82826117cc565b600082611b1f8584612062565b14949350505050565b610b0e8282604051806020016040528060008152506120af565b611b4a61141a565b60c9805460ff191660011790557f62e78cea01bee320cd4e420270b5ea74000d11b0c9f74754ebdbfc544b05a258611a643390565b816001600160a01b0316836001600160a01b031603611be05760405162461bcd60e51b815260206004820152601960248201527f4552433732313a20617070726f766520746f2063616c6c657200000000000000604482015260640161072c565b6001600160a01b038381166000818152606a6020908152604080832094871680845294825291829020805460ff191686151590811790915591519182527f17307eab39ab6107e8899845ad3d59bd9653f200f220920489ca2b5937696c31910160405180910390a3505050565b611c58848484611651565b611c64848484846120e2565b6111c85760405162461bcd60e51b815260040161072c90612fb4565b606060405180606001604052806036815260200161328f60369139905090565b60606000611cad836121e3565b600101905060008167ffffffffffffffff811115611ccd57611ccd612b04565b6040519080825280601f01601f191660200182016040528015611cf7576020820181803683370190505b5090508181016020015b600019016f181899199a1a9b1b9c1cb0b131b232b360811b600a86061a8153600a8504945084611d0157509392505050565b60006001600160e01b0319821663780e9d6360e01b14806106c957506106c9826122bb565b6001811115611dc75760405162461bcd60e51b815260206004820152603560248201527f455243373231456e756d657261626c653a20636f6e7365637574697665207472604482015274185b9cd9995c9cc81b9bdd081cdd5c1c1bdc9d1959605a1b606482015260840161072c565b816001600160a01b038516611e2357611e1e81609980546000838152609a60205260408120829055600182018355919091527f72a152ddfb8e864297c917af52ea6c1c68aead0fee1a62673fcc7e0c94979d000155565b611e46565b836001600160a01b0316856001600160a01b031614611e4657611e46858261230b565b6001600160a01b038416611e6257611e5d816123a8565b611e85565b846001600160a01b0316846001600160a01b031614611e8557611e858482612457565b5050505050565b611e968282611274565b610b0e57611ea38161249b565b611eae8360206124ad565b604051602001611ebf929190613006565b60408051601f198184030181529082905262461bcd60e51b825261072c91600401612a28565b6001600160a01b0381163b611f525760405162461bcd60e51b815260206004820152602d60248201527f455243313936373a206e657720696d706c656d656e746174696f6e206973206e60448201526c1bdd08184818dbdb9d1c9858dd609a1b606482015260840161072c565b6000805160206132c583398151915280546001600160a01b0319166001600160a01b0392909216919091179055565b611f8a83612649565b600082511180611f975750805b156109a3576111c88383612689565b60c95460ff166114605760405162461bcd60e51b815260206004820152601460248201527314185d5cd8589b194e881b9bdd081c185d5cd95960621b604482015260640161072c565b600054610100900460ff166120165760405162461bcd60e51b815260040161072c90612f69565b606561202283826130c9565b5060666109a382826130c9565b600054610100900460ff166120565760405162461bcd60e51b815260040161072c90612f69565b60c9805460ff19169055565b600081815b84518110156120a7576120938286838151811061208657612086612ec6565b60200260200101516126ae565b91508061209f8161319f565b915050612067565b509392505050565b6120b983836126dd565b6120c660008484846120e2565b6109a35760405162461bcd60e51b815260040161072c90612fb4565b60006001600160a01b0384163b156121d857604051630a85bd0160e11b81526001600160a01b0385169063150b7a02906121269033908990889088906004016131b8565b6020604051808303816000875af1925050508015612161575060408051601f3d908101601f1916820190925261215e918101906131eb565b60015b6121be573d80801561218f576040519150601f19603f3d011682016040523d82523d6000602084013e612194565b606091505b5080516000036121b65760405162461bcd60e51b815260040161072c90612fb4565b805181602001fd5b6001600160e01b031916630a85bd0160e11b149050611649565b506001949350505050565b60008072184f03e93ff9f4daa797ed6e38ed64bf6a1f0160401b83106122225772184f03e93ff9f4daa797ed6e38ed64bf6a1f0160401b830492506040015b6d04ee2d6d415b85acef8100000000831061224e576d04ee2d6d415b85acef8100000000830492506020015b662386f26fc10000831061226c57662386f26fc10000830492506010015b6305f5e1008310612284576305f5e100830492506008015b612710831061229857612710830492506004015b606483106122aa576064830492506002015b600a83106106c95760010192915050565b60006001600160e01b031982166380ac58cd60e01b14806122ec57506001600160e01b03198216635b5e139f60e01b145b806106c957506301ffc9a760e01b6001600160e01b03198316146106c9565b60006001612318846111ce565b6123229190613208565b600083815260986020526040902054909150808214612375576001600160a01b03841660009081526097602090815260408083208584528252808320548484528184208190558352609890915290208190555b5060009182526098602090815260408084208490556001600160a01b039094168352609781528383209183525290812055565b6099546000906123ba90600190613208565b6000838152609a6020526040812054609980549394509092849081106123e2576123e2612ec6565b90600052602060002001549050806099838154811061240357612403612ec6565b6000918252602080832090910192909255828152609a9091526040808220849055858252812055609980548061243b5761243b61321b565b6001900381819060005260206000200160009055905550505050565b6000612462836111ce565b6001600160a01b039093166000908152609760209081526040808320868452825280832085905593825260989052919091209190915550565b60606106c96001600160a01b03831660145b606060006124bc836002613231565b6124c7906002613248565b67ffffffffffffffff8111156124df576124df612b04565b6040519080825280601f01601f191660200182016040528015612509576020820181803683370190505b509050600360fc1b8160008151811061252457612524612ec6565b60200101906001600160f81b031916908160001a905350600f60fb1b8160018151811061255357612553612ec6565b60200101906001600160f81b031916908160001a9053506000612577846002613231565b612582906001613248565b90505b60018111156125fa576f181899199a1a9b1b9c1cb0b131b232b360811b85600f16601081106125b6576125b6612ec6565b1a60f81b8282815181106125cc576125cc612ec6565b60200101906001600160f81b031916908160001a90535060049490941c936125f38161325b565b9050612585565b5083156113c95760405162461bcd60e51b815260206004820181905260248201527f537472696e67733a20686578206c656e67746820696e73756666696369656e74604482015260640161072c565b61265281611ee5565b6040516001600160a01b038216907fbc7cd75a20ee27fd9adebab32041f755214dbc6bffa90cc0225b39da2e5c2d3b90600090a250565b60606113c9838360405180606001604052806027815260200161330560279139612876565b60008183106126ca5760008281526020849052604090206113c9565b60008381526020839052604090206113c9565b6001600160a01b0382166127335760405162461bcd60e51b815260206004820181905260248201527f4552433732313a206d696e7420746f20746865207a65726f2061646472657373604482015260640161072c565b6000818152606760205260409020546001600160a01b0316156127985760405162461bcd60e51b815260206004820152601c60248201527f4552433732313a20746f6b656e20616c7265616479206d696e74656400000000604482015260640161072c565b6127a6600083836001611d58565b6000818152606760205260409020546001600160a01b03161561280b5760405162461bcd60e51b815260206004820152601c60248201527f4552433732313a20746f6b656e20616c7265616479206d696e74656400000000604482015260640161072c565b6001600160a01b038216600081815260686020908152604080832080546001019055848352606790915280822080546001600160a01b0319168417905551839291907fddf252ad1be2c89b69c2b068fc378daa952ba7f163c4a11628f55a4df523b3ef908290a45050565b6060600080856001600160a01b0316856040516128939190613272565b600060405180830381855af49150503d80600081146128ce576040519150601f19603f3d011682016040523d82523d6000602084013e6128d3565b606091505b50915091506128e4868383876128ee565b9695505050505050565b6060831561295d578251600003612956576001600160a01b0385163b6129565760405162461bcd60e51b815260206004820152601d60248201527f416464726573733a2063616c6c20746f206e6f6e2d636f6e7472616374000000604482015260640161072c565b5081611649565b61164983838151156129725781518083602001fd5b8060405162461bcd60e51b815260040161072c9190612a28565b6001600160e01b031981168114610bee57600080fd5b6000602082840312156129b457600080fd5b81356113c98161298c565b6000602082840312156129d157600080fd5b5035919050565b60005b838110156129f35781810151838201526020016129db565b50506000910152565b60008151808452612a148160208601602086016129d8565b601f01601f19169290920160200192915050565b6020815260006113c960208301846129fc565b80356001600160a01b0381168114612a5257600080fd5b919050565b60008060408385031215612a6a57600080fd5b612a7383612a3b565b946020939093013593505050565b600080600060608486031215612a9657600080fd5b612a9f84612a3b565b9250612aad60208501612a3b565b9150604084013590509250925092565b60008060408385031215612ad057600080fd5b82359150612ae060208401612a3b565b90509250929050565b600060208284031215612afb57600080fd5b6113c982612a3b565b634e487b7160e01b600052604160045260246000fd5b600082601f830112612b2b57600080fd5b813567ffffffffffffffff80821115612b4657612b46612b04565b604051601f8301601f19908116603f01168101908282118183101715612b6e57612b6e612b04565b81604052838152866020858801011115612b8757600080fd5b836020870160208301376000602085830101528094505050505092915050565b60008060408385031215612bba57600080fd5b823567ffffffffffffffff80821115612bd257600080fd5b612bde86838701612b1a565b93506020850135915080821115612bf457600080fd5b50612c0185828601612b1a565b9150509250929050565b60008060408385031215612c1e57600080fd5b612c2783612a3b565b9150602083013567ffffffffffffffff811115612c4357600080fd5b612c0185828601612b1a565b60008060008060608587031215612c6557600080fd5b612c6e85612a3b565b935060208501359250604085013567ffffffffffffffff80821115612c9257600080fd5b818701915087601f830112612ca657600080fd5b813581811115612cb557600080fd5b8860208260051b8501011115612cca57600080fd5b95989497505060200194505050565b60008060408385031215612cec57600080fd5b612cf583612a3b565b915060208301358015158114612d0a57600080fd5b809150509250929050565b60008060008060808587031215612d2b57600080fd5b612d3485612a3b565b9350612d4260208601612a3b565b925060408501359150606085013567ffffffffffffffff811115612d6557600080fd5b612d7187828801612b1a565b91505092959194509250565b60008060408385031215612d9057600080fd5b612d9983612a3b565b9150612ae060208401612a3b565b600181811c90821680612dbb57607f821691505b602082108103612ddb57634e487b7160e01b600052602260045260246000fd5b50919050565b6020808252602d908201527f4552433732313a2063616c6c6572206973206e6f7420746f6b656e206f776e6560408201526c1c881bdc88185c1c1c9bdd9959609a1b606082015260800190565b6020808252602c908201527f46756e6374696f6e206d7573742062652063616c6c6564207468726f7567682060408201526b19195b1959d85d1958d85b1b60a21b606082015260800190565b6020808252602c908201527f46756e6374696f6e206d7573742062652063616c6c6564207468726f7567682060408201526b6163746976652070726f787960a01b606082015260800190565b634e487b7160e01b600052603260045260246000fd5b60008351612eee8184602088016129d8565b835190830190612f028183602088016129d8565b01949350505050565b60208082526025908201527f4552433732313a207472616e736665722066726f6d20696e636f72726563742060408201526437bbb732b960d91b606082015260800190565b600060208284031215612f6257600080fd5b5051919050565b6020808252602b908201527f496e697469616c697a61626c653a20636f6e7472616374206973206e6f74206960408201526a6e697469616c697a696e6760a81b606082015260800190565b60208082526032908201527f4552433732313a207472616e7366657220746f206e6f6e20455243373231526560408201527131b2b4bb32b91034b6b83632b6b2b73a32b960711b606082015260800190565b7f416363657373436f6e74726f6c3a206163636f756e742000000000000000000081526000835161303e8160178501602088016129d8565b7001034b99036b4b9b9b4b733903937b6329607d1b601791840191820152835161306f8160288401602088016129d8565b01602801949350505050565b601f8211156109a357600081815260208120601f850160051c810160208610156130a25750805b601f850160051c820191505b818110156130c1578281556001016130ae565b505050505050565b815167ffffffffffffffff8111156130e3576130e3612b04565b6130f7816130f18454612da7565b8461307b565b602080601f83116001811461312c57600084156131145750858301515b600019600386901b1c1916600185901b1785556130c1565b600085815260208120601f198616915b8281101561315b5788860151825594840194600190910190840161313c565b50858210156131795787850151600019600388901b60f8161c191681555b5050505050600190811b01905550565b634e487b7160e01b600052601160045260246000fd5b6000600182016131b1576131b1613189565b5060010190565b6001600160a01b03858116825284166020820152604081018390526080606082018190526000906128e4908301846129fc565b6000602082840312156131fd57600080fd5b81516113c98161298c565b818103818111156106c9576106c9613189565b634e487b7160e01b600052603160045260246000fd5b80820281158282048414176106c9576106c9613189565b808201808211156106c9576106c9613189565b60008161326a5761326a613189565b506000190190565b600082516132848184602087016129d8565b919091019291505056fe697066733a2f2f516d5457766d35357a6e5458364e6d676f706455704a5838434a734e7a68474a5934624a566d4d766f4a503568412f360894a13ba1a3210667c828492db98dca3e2076cc3735a920a3ca505d382bbc65d7a28e3265b37a6474929f336521b332c1681b933f6cb9f3376673440d862a416464726573733a206c6f772d6c6576656c2064656c65676174652063616c6c206661696c6564a26469706673582212203a93c637a07ebf683973f9cba61e02fcc06b4b2f1e4b0f07b000ae115bdb52c864736f6c63430008130033","opcodes":"PUSH1 0xA0 PUSH1 0x40 MSTORE ADDRESS PUSH1 0x80 MSTORE CALLVALUE DUP1 ISZERO PUSH2 0x14 JUMPI PUSH1 0x0 DUP1 REVERT JUMPDEST POP PUSH1 0x80 MLOAD PUSH2 0x3361 PUSH2 0x4C PUSH1 0x0 CODECOPY PUSH1 0x0 DUP2 DUP2 PUSH2 0xB1C ADD MSTORE DUP2 DUP2 PUSH2 0xB5C ADD MSTORE DUP2 DUP2 PUSH2 0xDFD ADD MSTORE DUP2 DUP2 PUSH2 0xE3D ADD MSTORE PUSH2 0xF5F ADD MSTORE PUSH2 0x3361 PUSH1 0x0 RETURN INVALID PUSH1 0x80 PUSH1 0x40 MSTORE PUSH1 0x4 CALLDATASIZE LT PUSH2 0x20F JUMPI PUSH1 0x0 CALLDATALOAD PUSH1 0xE0 SHR DUP1 PUSH4 0x52D1902D GT PUSH2 0x118 JUMPI DUP1 PUSH4 0xA217FDDF GT PUSH2 0xA0 JUMPI DUP1 PUSH4 0xD5391393 GT PUSH2 0x6F JUMPI DUP1 PUSH4 0xD5391393 EQ PUSH2 0x5E8 JUMPI DUP1 PUSH4 0xD547741F EQ PUSH2 0x61C JUMPI DUP1 PUSH4 0xE63AB1E9 EQ PUSH2 0x63C JUMPI DUP1 PUSH4 0xE985E9C5 EQ PUSH2 0x65E JUMPI DUP1 PUSH4 0xEBF0C717 EQ PUSH2 0x6A7 JUMPI PUSH1 0x0 DUP1 REVERT JUMPDEST DUP1 PUSH4 0xA217FDDF EQ PUSH2 0x573 JUMPI DUP1 PUSH4 0xA22CB465 EQ PUSH2 0x588 JUMPI DUP1 PUSH4 0xB88D4FDE EQ PUSH2 0x5A8 JUMPI DUP1 PUSH4 0xC87B56DD EQ PUSH2 0x5C8 JUMPI PUSH1 0x0 DUP1 REVERT JUMPDEST DUP1 PUSH4 0x70A08231 GT PUSH2 0xE7 JUMPI DUP1 PUSH4 0x70A08231 EQ PUSH2 0x4E9 JUMPI DUP1 PUSH4 0x8456CB59 EQ PUSH2 0x509 JUMPI DUP1 PUSH4 0x91D14854 EQ PUSH2 0x51E JUMPI DUP1 PUSH4 0x95D89B41 EQ PUSH2 0x53E JUMPI DUP1 PUSH4 0xA1448194 EQ PUSH2 0x553 JUMPI PUSH1 0x0 DUP1 REVERT JUMPDEST DUP1 PUSH4 0x52D1902D EQ PUSH2 0x47C JUMPI DUP1 PUSH4 0x5C975ABB EQ PUSH2 0x491 JUMPI DUP1 PUSH4 0x6352211E EQ PUSH2 0x4A9 JUMPI DUP1 PUSH4 0x662C2D96 EQ PUSH2 0x4C9 JUMPI PUSH1 0x0 DUP1 REVERT JUMPDEST DUP1 PUSH4 0x2F745C59 GT PUSH2 0x19B JUMPI DUP1 PUSH4 0x42842E0E GT PUSH2 0x16A JUMPI DUP1 PUSH4 0x42842E0E EQ PUSH2 0x3E9 JUMPI DUP1 PUSH4 0x42966C68 EQ PUSH2 0x409 JUMPI DUP1 PUSH4 0x4CD88B76 EQ PUSH2 0x429 JUMPI DUP1 PUSH4 0x4F1EF286 EQ PUSH2 0x449 JUMPI DUP1 PUSH4 0x4F6CCCE7 EQ PUSH2 0x45C JUMPI PUSH1 0x0 DUP1 REVERT JUMPDEST DUP1 PUSH4 0x2F745C59 EQ PUSH2 0x374 JUMPI DUP1 PUSH4 0x36568ABE EQ PUSH2 0x394 JUMPI DUP1 PUSH4 0x3659CFE6 EQ PUSH2 0x3B4 JUMPI DUP1 PUSH4 0x3F4BA83A EQ PUSH2 0x3D4 JUMPI PUSH1 0x0 DUP1 REVERT JUMPDEST DUP1 PUSH4 0x95EA7B3 GT PUSH2 0x1E2 JUMPI DUP1 PUSH4 0x95EA7B3 EQ PUSH2 0x2C5 JUMPI DUP1 PUSH4 0x18160DDD EQ PUSH2 0x2E5 JUMPI DUP1 PUSH4 0x23B872DD EQ PUSH2 0x304 JUMPI DUP1 PUSH4 0x248A9CA3 EQ PUSH2 0x324 JUMPI DUP1 PUSH4 0x2F2FF15D EQ PUSH2 0x354 JUMPI PUSH1 0x0 DUP1 REVERT JUMPDEST DUP1 PUSH4 0x1FFC9A7 EQ PUSH2 0x214 JUMPI DUP1 PUSH4 0x53F9040 EQ PUSH2 0x249 JUMPI DUP1 PUSH4 0x6FDDE03 EQ PUSH2 0x26B JUMPI DUP1 PUSH4 0x81812FC EQ PUSH2 0x28D JUMPI JUMPDEST PUSH1 0x0 DUP1 REVERT JUMPDEST CALLVALUE DUP1 ISZERO PUSH2 0x220 JUMPI PUSH1 0x0 DUP1 REVERT JUMPDEST POP PUSH2 0x234 PUSH2 0x22F CALLDATASIZE PUSH1 0x4 PUSH2 0x29A2 JUMP JUMPDEST PUSH2 0x6BE JUMP JUMPDEST PUSH1 0x40 MLOAD SWAP1 ISZERO ISZERO DUP2 MSTORE PUSH1 0x20 ADD JUMPDEST PUSH1 0x40 MLOAD DUP1 SWAP2 SUB SWAP1 RETURN JUMPDEST CALLVALUE DUP1 ISZERO PUSH2 0x255 JUMPI PUSH1 0x0 DUP1 REVERT JUMPDEST POP PUSH2 0x269 PUSH2 0x264 CALLDATASIZE PUSH1 0x4 PUSH2 0x29BF JUMP JUMPDEST PUSH2 0x6CF JUMP JUMPDEST STOP JUMPDEST CALLVALUE DUP1 ISZERO PUSH2 0x277 JUMPI PUSH1 0x0 DUP1 REVERT JUMPDEST POP PUSH2 0x280 PUSH2 0x7DA JUMP JUMPDEST PUSH1 0x40 MLOAD PUSH2 0x240 SWAP2 SWAP1 PUSH2 0x2A28 JUMP JUMPDEST CALLVALUE DUP1 ISZERO PUSH2 0x299 JUMPI PUSH1 0x0 DUP1 REVERT JUMPDEST POP PUSH2 0x2AD PUSH2 0x2A8 CALLDATASIZE PUSH1 0x4 PUSH2 0x29BF JUMP JUMPDEST PUSH2 0x86C JUMP JUMPDEST PUSH1 0x40 MLOAD PUSH1 0x1 PUSH1 0x1 PUSH1 0xA0 SHL SUB SWAP1 SWAP2 AND DUP2 MSTORE PUSH1 0x20 ADD PUSH2 0x240 JUMP JUMPDEST CALLVALUE DUP1 ISZERO PUSH2 0x2D1 JUMPI PUSH1 0x0 DUP1 REVERT JUMPDEST POP PUSH2 0x269 PUSH2 0x2E0 CALLDATASIZE PUSH1 0x4 PUSH2 0x2A57 JUMP JUMPDEST PUSH2 0x893 JUMP JUMPDEST CALLVALUE DUP1 ISZERO PUSH2 0x2F1 JUMPI PUSH1 0x0 DUP1 REVERT JUMPDEST POP PUSH1 0x99 SLOAD JUMPDEST PUSH1 0x40 MLOAD SWAP1 DUP2 MSTORE PUSH1 0x20 ADD PUSH2 0x240 JUMP JUMPDEST CALLVALUE DUP1 ISZERO PUSH2 0x310 JUMPI PUSH1 0x0 DUP1 REVERT JUMPDEST POP PUSH2 0x269 PUSH2 0x31F CALLDATASIZE PUSH1 0x4 PUSH2 0x2A81 JUMP JUMPDEST PUSH2 0x9A8 JUMP JUMPDEST CALLVALUE DUP1 ISZERO PUSH2 0x330 JUMPI PUSH1 0x0 DUP1 REVERT JUMPDEST POP PUSH2 0x2F6 PUSH2 0x33F CALLDATASIZE PUSH1 0x4 PUSH2 0x29BF JUMP JUMPDEST PUSH1 0x0 SWAP1 DUP2 MSTORE PUSH1 0xFB PUSH1 0x20 MSTORE PUSH1 0x40 SWAP1 KECCAK256 PUSH1 0x1 ADD SLOAD SWAP1 JUMP JUMPDEST CALLVALUE DUP1 ISZERO PUSH2 0x360 JUMPI PUSH1 0x0 DUP1 REVERT JUMPDEST POP PUSH2 0x269 PUSH2 0x36F CALLDATASIZE PUSH1 0x4 PUSH2 0x2ABD JUMP JUMPDEST PUSH2 0x9D9 JUMP JUMPDEST CALLVALUE DUP1 ISZERO PUSH2 0x380 JUMPI PUSH1 0x0 DUP1 REVERT JUMPDEST POP PUSH2 0x2F6 PUSH2 0x38F CALLDATASIZE PUSH1 0x4 PUSH2 0x2A57 JUMP JUMPDEST PUSH2 0x9FE JUMP JUMPDEST CALLVALUE DUP1 ISZERO PUSH2 0x3A0 JUMPI PUSH1 0x0 DUP1 REVERT JUMPDEST POP PUSH2 0x269 PUSH2 0x3AF CALLDATASIZE PUSH1 0x4 PUSH2 0x2ABD JUMP JUMPDEST PUSH2 0xA94 JUMP JUMPDEST CALLVALUE DUP1 ISZERO PUSH2 0x3C0 JUMPI PUSH1 0x0 DUP1 REVERT JUMPDEST POP PUSH2 0x269 PUSH2 0x3CF CALLDATASIZE PUSH1 0x4 PUSH2 0x2AE9 JUMP JUMPDEST PUSH2 0xB12 JUMP JUMPDEST CALLVALUE DUP1 ISZERO PUSH2 0x3E0 JUMPI PUSH1 0x0 DUP1 REVERT JUMPDEST POP PUSH2 0x269 PUSH2 0xBF1 JUMP JUMPDEST CALLVALUE DUP1 ISZERO PUSH2 0x3F5 JUMPI PUSH1 0x0 DUP1 REVERT JUMPDEST POP PUSH2 0x269 PUSH2 0x404 CALLDATASIZE PUSH1 0x4 PUSH2 0x2A81 JUMP JUMPDEST PUSH2 0xC11 JUMP JUMPDEST CALLVALUE DUP1 ISZERO PUSH2 0x415 JUMPI PUSH1 0x0 DUP1 REVERT JUMPDEST POP PUSH2 0x269 PUSH2 0x424 CALLDATASIZE PUSH1 0x4 PUSH2 0x29BF JUMP JUMPDEST PUSH2 0xC2C JUMP JUMPDEST CALLVALUE DUP1 ISZERO PUSH2 0x435 JUMPI PUSH1 0x0 DUP1 REVERT JUMPDEST POP PUSH2 0x269 PUSH2 0x444 CALLDATASIZE PUSH1 0x4 PUSH2 0x2BA7 JUMP JUMPDEST PUSH2 0xC7A JUMP JUMPDEST PUSH2 0x269 PUSH2 0x457 CALLDATASIZE PUSH1 0x4 PUSH2 0x2C0B JUMP JUMPDEST PUSH2 0xDF3 JUMP JUMPDEST CALLVALUE DUP1 ISZERO PUSH2 0x468 JUMPI PUSH1 0x0 DUP1 REVERT JUMPDEST POP PUSH2 0x2F6 PUSH2 0x477 CALLDATASIZE PUSH1 0x4 PUSH2 0x29BF JUMP JUMPDEST PUSH2 0xEBF JUMP JUMPDEST CALLVALUE DUP1 ISZERO PUSH2 0x488 JUMPI PUSH1 0x0 DUP1 REVERT JUMPDEST POP PUSH2 0x2F6 PUSH2 0xF52 JUMP JUMPDEST CALLVALUE DUP1 ISZERO PUSH2 0x49D JUMPI PUSH1 0x0 DUP1 REVERT JUMPDEST POP PUSH1 0xC9 SLOAD PUSH1 0xFF AND PUSH2 0x234 JUMP JUMPDEST CALLVALUE DUP1 ISZERO PUSH2 0x4B5 JUMPI PUSH1 0x0 DUP1 REVERT JUMPDEST POP PUSH2 0x2AD PUSH2 0x4C4 CALLDATASIZE PUSH1 0x4 PUSH2 0x29BF JUMP JUMPDEST PUSH2 0x1005 JUMP JUMPDEST CALLVALUE DUP1 ISZERO PUSH2 0x4D5 JUMPI PUSH1 0x0 DUP1 REVERT JUMPDEST POP PUSH2 0x269 PUSH2 0x4E4 CALLDATASIZE PUSH1 0x4 PUSH2 0x2C4F JUMP JUMPDEST PUSH2 0x1065 JUMP JUMPDEST CALLVALUE DUP1 ISZERO PUSH2 0x4F5 JUMPI PUSH1 0x0 DUP1 REVERT JUMPDEST POP PUSH2 0x2F6 PUSH2 0x504 CALLDATASIZE PUSH1 0x4 PUSH2 0x2AE9 JUMP JUMPDEST PUSH2 0x11CE JUMP JUMPDEST CALLVALUE DUP1 ISZERO PUSH2 0x515 JUMPI PUSH1 0x0 DUP1 REVERT JUMPDEST POP PUSH2 0x269 PUSH2 0x1254 JUMP JUMPDEST CALLVALUE DUP1 ISZERO PUSH2 0x52A JUMPI PUSH1 0x0 DUP1 REVERT JUMPDEST POP PUSH2 0x234 PUSH2 0x539 CALLDATASIZE PUSH1 0x4 PUSH2 0x2ABD JUMP JUMPDEST PUSH2 0x1274 JUMP JUMPDEST CALLVALUE DUP1 ISZERO PUSH2 0x54A JUMPI PUSH1 0x0 DUP1 REVERT JUMPDEST POP PUSH2 0x280 PUSH2 0x129F JUMP JUMPDEST CALLVALUE DUP1 ISZERO PUSH2 0x55F JUMPI PUSH1 0x0 DUP1 REVERT JUMPDEST POP PUSH2 0x269 PUSH2 0x56E CALLDATASIZE PUSH1 0x4 PUSH2 0x2A57 JUMP JUMPDEST PUSH2 0x12AE JUMP JUMPDEST CALLVALUE DUP1 ISZERO PUSH2 0x57F JUMPI PUSH1 0x0 DUP1 REVERT JUMPDEST POP PUSH2 0x2F6 PUSH1 0x0 DUP2 JUMP JUMPDEST CALLVALUE DUP1 ISZERO PUSH2 0x594 JUMPI PUSH1 0x0 DUP1 REVERT JUMPDEST POP PUSH2 0x269 PUSH2 0x5A3 CALLDATASIZE PUSH1 0x4 PUSH2 0x2CD9 JUMP JUMPDEST PUSH2 0x132C JUMP JUMPDEST CALLVALUE DUP1 ISZERO PUSH2 0x5B4 JUMPI PUSH1 0x0 DUP1 REVERT JUMPDEST POP PUSH2 0x269 PUSH2 0x5C3 CALLDATASIZE PUSH1 0x4 PUSH2 0x2D15 JUMP JUMPDEST PUSH2 0x1337 JUMP JUMPDEST CALLVALUE DUP1 ISZERO PUSH2 0x5D4 JUMPI PUSH1 0x0 DUP1 REVERT JUMPDEST POP PUSH2 0x280 PUSH2 0x5E3 CALLDATASIZE PUSH1 0x4 PUSH2 0x29BF JUMP JUMPDEST PUSH2 0x1369 JUMP JUMPDEST CALLVALUE DUP1 ISZERO PUSH2 0x5F4 JUMPI PUSH1 0x0 DUP1 REVERT JUMPDEST POP PUSH2 0x2F6 PUSH32 0x9F2DF0FED2C77648DE5860A4CC508CD0818C85B8B8A1AB4CEEEF8D981C8956A6 DUP2 JUMP JUMPDEST CALLVALUE DUP1 ISZERO PUSH2 0x628 JUMPI PUSH1 0x0 DUP1 REVERT JUMPDEST POP PUSH2 0x269 PUSH2 0x637 CALLDATASIZE PUSH1 0x4 PUSH2 0x2ABD JUMP JUMPDEST PUSH2 0x13D0 JUMP JUMPDEST CALLVALUE DUP1 ISZERO PUSH2 0x648 JUMPI PUSH1 0x0 DUP1 REVERT JUMPDEST POP PUSH2 0x2F6 PUSH1 0x0 DUP1 MLOAD PUSH1 0x20 PUSH2 0x32E5 DUP4 CODECOPY DUP2 MLOAD SWAP2 MSTORE DUP2 JUMP JUMPDEST CALLVALUE DUP1 ISZERO PUSH2 0x66A JUMPI PUSH1 0x0 DUP1 REVERT JUMPDEST POP PUSH2 0x234 PUSH2 0x679 CALLDATASIZE PUSH1 0x4 PUSH2 0x2D7D JUMP JUMPDEST PUSH1 0x1 PUSH1 0x1 PUSH1 0xA0 SHL SUB SWAP2 DUP3 AND PUSH1 0x0 SWAP1 DUP2 MSTORE PUSH1 0x6A PUSH1 0x20 SWAP1 DUP2 MSTORE PUSH1 0x40 DUP1 DUP4 KECCAK256 SWAP4 SWAP1 SWAP5 AND DUP3 MSTORE SWAP2 SWAP1 SWAP2 MSTORE KECCAK256 SLOAD PUSH1 0xFF AND SWAP1 JUMP JUMPDEST CALLVALUE DUP1 ISZERO PUSH2 0x6B3 JUMPI PUSH1 0x0 DUP1 REVERT JUMPDEST POP PUSH2 0x2F6 PUSH2 0x192 SLOAD DUP2 JUMP JUMPDEST PUSH1 0x0 PUSH2 0x6C9 DUP3 PUSH2 0x13F5 JUMP JUMPDEST SWAP3 SWAP2 POP POP JUMP JUMPDEST PUSH2 0x6D7 PUSH2 0x141A JUMP JUMPDEST PUSH2 0x3E8 DUP2 LT ISZERO DUP1 ISZERO PUSH2 0x6EB JUMPI POP PUSH2 0x7CF DUP2 GT ISZERO JUMPDEST PUSH2 0x735 JUMPI PUSH1 0x40 MLOAD PUSH3 0x461BCD PUSH1 0xE5 SHL DUP2 MSTORE PUSH1 0x20 PUSH1 0x4 DUP3 ADD MSTORE PUSH1 0x16 PUSH1 0x24 DUP3 ADD MSTORE PUSH22 0x496E76616C696420494420666F72206275796261636B PUSH1 0x50 SHL PUSH1 0x44 DUP3 ADD MSTORE PUSH1 0x64 ADD JUMPDEST PUSH1 0x40 MLOAD DUP1 SWAP2 SUB SWAP1 REVERT JUMPDEST CALLER PUSH2 0x73F DUP3 PUSH2 0x1005 JUMP JUMPDEST PUSH1 0x1 PUSH1 0x1 PUSH1 0xA0 SHL SUB AND EQ PUSH2 0x795 JUMPI PUSH1 0x40 MLOAD PUSH3 0x461BCD PUSH1 0xE5 SHL DUP2 MSTORE PUSH1 0x20 PUSH1 0x4 DUP3 ADD MSTORE PUSH1 0x17 PUSH1 0x24 DUP3 ADD MSTORE PUSH32 0x596F7520646F206E6F74206F776E2074686973204E4654000000000000000000 PUSH1 0x44 DUP3 ADD MSTORE PUSH1 0x64 ADD PUSH2 0x72C JUMP JUMPDEST PUSH2 0x79E DUP2 PUSH2 0x1462 JUMP JUMPDEST PUSH1 0x40 DUP1 MLOAD CALLER DUP2 MSTORE PUSH1 0x20 DUP2 ADD DUP4 SWAP1 MSTORE PUSH32 0xCC16F5DBB4873280815C1EE09DBD06736CFFCC184412CF7A71A0FDB75D397CA5 SWAP2 ADD PUSH1 0x40 MLOAD DUP1 SWAP2 SUB SWAP1 LOG1 POP JUMP JUMPDEST PUSH1 0x60 PUSH1 0x65 DUP1 SLOAD PUSH2 0x7E9 SWAP1 PUSH2 0x2DA7 JUMP JUMPDEST DUP1 PUSH1 0x1F ADD PUSH1 0x20 DUP1 SWAP2 DIV MUL PUSH1 0x20 ADD PUSH1 0x40 MLOAD SWAP1 DUP2 ADD PUSH1 0x40 MSTORE DUP1 SWAP3 SWAP2 SWAP1 DUP2 DUP2 MSTORE PUSH1 0x20 ADD DUP3 DUP1 SLOAD PUSH2 0x815 SWAP1 PUSH2 0x2DA7 JUMP JUMPDEST DUP1 ISZERO PUSH2 0x862 JUMPI DUP1 PUSH1 0x1F LT PUSH2 0x837 JUMPI PUSH2 0x100 DUP1 DUP4 SLOAD DIV MUL DUP4 MSTORE SWAP2 PUSH1 0x20 ADD SWAP2 PUSH2 0x862 JUMP JUMPDEST DUP3 ADD SWAP2 SWAP1 PUSH1 0x0 MSTORE PUSH1 0x20 PUSH1 0x0 KECCAK256 SWAP1 JUMPDEST DUP2 SLOAD DUP2 MSTORE SWAP1 PUSH1 0x1 ADD SWAP1 PUSH1 0x20 ADD DUP1 DUP4 GT PUSH2 0x845 JUMPI DUP3 SWAP1 SUB PUSH1 0x1F AND DUP3 ADD SWAP2 JUMPDEST POP POP POP POP POP SWAP1 POP SWAP1 JUMP JUMPDEST PUSH1 0x0 PUSH2 0x877 DUP3 PUSH2 0x1505 JUMP JUMPDEST POP PUSH1 0x0 SWAP1 DUP2 MSTORE PUSH1 0x69 PUSH1 0x20 MSTORE PUSH1 0x40 SWAP1 KECCAK256 SLOAD PUSH1 0x1 PUSH1 0x1 PUSH1 0xA0 SHL SUB AND SWAP1 JUMP JUMPDEST PUSH1 0x0 PUSH2 0x89E DUP3 PUSH2 0x1005 JUMP JUMPDEST SWAP1 POP DUP1 PUSH1 0x1 PUSH1 0x1 PUSH1 0xA0 SHL SUB AND DUP4 PUSH1 0x1 PUSH1 0x1 PUSH1 0xA0 SHL SUB AND SUB PUSH2 0x90B JUMPI PUSH1 0x40 MLOAD PUSH3 0x461BCD PUSH1 0xE5 SHL DUP2 MSTORE PUSH1 0x20 PUSH1 0x4 DUP3 ADD MSTORE PUSH1 0x21 PUSH1 0x24 DUP3 ADD MSTORE PUSH32 0x4552433732313A20617070726F76616C20746F2063757272656E74206F776E65 PUSH1 0x44 DUP3 ADD MSTORE PUSH1 0x39 PUSH1 0xF9 SHL PUSH1 0x64 DUP3 ADD MSTORE PUSH1 0x84 ADD PUSH2 0x72C JUMP JUMPDEST CALLER PUSH1 0x1 PUSH1 0x1 PUSH1 0xA0 SHL SUB DUP3 AND EQ DUP1 PUSH2 0x927 JUMPI POP PUSH2 0x927 DUP2 CALLER PUSH2 0x679 JUMP JUMPDEST PUSH2 0x999 JUMPI PUSH1 0x40 MLOAD PUSH3 0x461BCD PUSH1 0xE5 SHL DUP2 MSTORE PUSH1 0x20 PUSH1 0x4 DUP3 ADD MSTORE PUSH1 0x3D PUSH1 0x24 DUP3 ADD MSTORE PUSH32 0x4552433732313A20617070726F76652063616C6C6572206973206E6F7420746F PUSH1 0x44 DUP3 ADD MSTORE PUSH32 0x6B656E206F776E6572206F7220617070726F76656420666F7220616C6C000000 PUSH1 0x64 DUP3 ADD MSTORE PUSH1 0x84 ADD PUSH2 0x72C JUMP JUMPDEST PUSH2 0x9A3 DUP4 DUP4 PUSH2 0x1564 JUMP JUMPDEST POP POP POP JUMP JUMPDEST PUSH2 0x9B2 CALLER DUP3 PUSH2 0x15D2 JUMP JUMPDEST PUSH2 0x9CE JUMPI PUSH1 0x40 MLOAD PUSH3 0x461BCD PUSH1 0xE5 SHL DUP2 MSTORE PUSH1 0x4 ADD PUSH2 0x72C SWAP1 PUSH2 0x2DE1 JUMP JUMPDEST PUSH2 0x9A3 DUP4 DUP4 DUP4 PUSH2 0x1651 JUMP JUMPDEST PUSH1 0x0 DUP3 DUP2 MSTORE PUSH1 0xFB PUSH1 0x20 MSTORE PUSH1 0x40 SWAP1 KECCAK256 PUSH1 0x1 ADD SLOAD PUSH2 0x9F4 DUP2 PUSH2 0x17C2 JUMP JUMPDEST PUSH2 0x9A3 DUP4 DUP4 PUSH2 0x17CC JUMP JUMPDEST PUSH1 0x0 PUSH2 0xA09 DUP4 PUSH2 0x11CE JUMP JUMPDEST DUP3 LT PUSH2 0xA6B JUMPI PUSH1 0x40 MLOAD PUSH3 0x461BCD PUSH1 0xE5 SHL DUP2 MSTORE PUSH1 0x20 PUSH1 0x4 DUP3 ADD MSTORE PUSH1 0x2B PUSH1 0x24 DUP3 ADD MSTORE PUSH32 0x455243373231456E756D657261626C653A206F776E657220696E646578206F75 PUSH1 0x44 DUP3 ADD MSTORE PUSH11 0x74206F6620626F756E6473 PUSH1 0xA8 SHL PUSH1 0x64 DUP3 ADD MSTORE PUSH1 0x84 ADD PUSH2 0x72C JUMP JUMPDEST POP PUSH1 0x1 PUSH1 0x1 PUSH1 0xA0 SHL SUB SWAP2 SWAP1 SWAP2 AND PUSH1 0x0 SWAP1 DUP2 MSTORE PUSH1 0x97 PUSH1 0x20 SWAP1 DUP2 MSTORE PUSH1 0x40 DUP1 DUP4 KECCAK256 SWAP4 DUP4 MSTORE SWAP3 SWAP1 MSTORE KECCAK256 SLOAD SWAP1 JUMP JUMPDEST PUSH1 0x1 PUSH1 0x1 PUSH1 0xA0 SHL SUB DUP2 AND CALLER EQ PUSH2 0xB04 JUMPI PUSH1 0x40 MLOAD PUSH3 0x461BCD PUSH1 0xE5 SHL DUP2 MSTORE PUSH1 0x20 PUSH1 0x4 DUP3 ADD MSTORE PUSH1 0x2F PUSH1 0x24 DUP3 ADD MSTORE PUSH32 0x416363657373436F6E74726F6C3A2063616E206F6E6C792072656E6F756E6365 PUSH1 0x44 DUP3 ADD MSTORE PUSH15 0x103937B632B9903337B91039B2B633 PUSH1 0x89 SHL PUSH1 0x64 DUP3 ADD MSTORE PUSH1 0x84 ADD PUSH2 0x72C JUMP JUMPDEST PUSH2 0xB0E DUP3 DUP3 PUSH2 0x1852 JUMP JUMPDEST POP POP JUMP JUMPDEST PUSH1 0x1 PUSH1 0x1 PUSH1 0xA0 SHL SUB PUSH32 0x0 AND ADDRESS SUB PUSH2 0xB5A JUMPI PUSH1 0x40 MLOAD PUSH3 0x461BCD PUSH1 0xE5 SHL DUP2 MSTORE PUSH1 0x4 ADD PUSH2 0x72C SWAP1 PUSH2 0x2E2E JUMP JUMPDEST PUSH32 0x0 PUSH1 0x1 PUSH1 0x1 PUSH1 0xA0 SHL SUB AND PUSH2 0xBA3 PUSH1 0x0 DUP1 MLOAD PUSH1 0x20 PUSH2 0x32C5 DUP4 CODECOPY DUP2 MLOAD SWAP2 MSTORE SLOAD PUSH1 0x1 PUSH1 0x1 PUSH1 0xA0 SHL SUB AND SWAP1 JUMP JUMPDEST PUSH1 0x1 PUSH1 0x1 PUSH1 0xA0 SHL SUB AND EQ PUSH2 0xBC9 JUMPI PUSH1 0x40 MLOAD PUSH3 0x461BCD PUSH1 0xE5 SHL DUP2 MSTORE PUSH1 0x4 ADD PUSH2 0x72C SWAP1 PUSH2 0x2E7A JUMP JUMPDEST PUSH2 0xBD2 DUP2 PUSH2 0x18B9 JUMP JUMPDEST PUSH1 0x40 DUP1 MLOAD PUSH1 0x0 DUP1 DUP3 MSTORE PUSH1 0x20 DUP3 ADD SWAP1 SWAP3 MSTORE PUSH2 0xBEE SWAP2 DUP4 SWAP2 SWAP1 PUSH2 0x18C4 JUMP JUMPDEST POP JUMP JUMPDEST PUSH1 0x0 DUP1 MLOAD PUSH1 0x20 PUSH2 0x32E5 DUP4 CODECOPY DUP2 MLOAD SWAP2 MSTORE PUSH2 0xC09 DUP2 PUSH2 0x17C2 JUMP JUMPDEST PUSH2 0xBEE PUSH2 0x1A2F JUMP JUMPDEST PUSH2 0x9A3 DUP4 DUP4 DUP4 PUSH1 0x40 MLOAD DUP1 PUSH1 0x20 ADD PUSH1 0x40 MSTORE DUP1 PUSH1 0x0 DUP2 MSTORE POP PUSH2 0x1337 JUMP JUMPDEST PUSH2 0xC36 CALLER DUP3 PUSH2 0x15D2 JUMP JUMPDEST PUSH2 0xC71 JUMPI PUSH1 0x40 MLOAD PUSH3 0x461BCD PUSH1 0xE5 SHL DUP2 MSTORE PUSH1 0x20 PUSH1 0x4 DUP3 ADD MSTORE PUSH1 0xC PUSH1 0x24 DUP3 ADD MSTORE PUSH12 0x139BDD08185C1C1C9BDD9959 PUSH1 0xA2 SHL PUSH1 0x44 DUP3 ADD MSTORE PUSH1 0x64 ADD PUSH2 0x72C JUMP JUMPDEST PUSH2 0xBEE DUP2 PUSH2 0x1462 JUMP JUMPDEST PUSH1 0x0 SLOAD PUSH2 0x100 SWAP1 DIV PUSH1 0xFF AND ISZERO DUP1 DUP1 ISZERO PUSH2 0xC9A JUMPI POP PUSH1 0x0 SLOAD PUSH1 0x1 PUSH1 0xFF SWAP1 SWAP2 AND LT JUMPDEST DUP1 PUSH2 0xCB4 JUMPI POP ADDRESS EXTCODESIZE ISZERO DUP1 ISZERO PUSH2 0xCB4 JUMPI POP PUSH1 0x0 SLOAD PUSH1 0xFF AND PUSH1 0x1 EQ JUMPDEST PUSH2 0xD17 JUMPI PUSH1 0x40 MLOAD PUSH3 0x461BCD PUSH1 0xE5 SHL DUP2 MSTORE PUSH1 0x20 PUSH1 0x4 DUP3 ADD MSTORE PUSH1 0x2E PUSH1 0x24 DUP3 ADD MSTORE PUSH32 0x496E697469616C697A61626C653A20636F6E747261637420697320616C726561 PUSH1 0x44 DUP3 ADD MSTORE PUSH14 0x191E481A5B9A5D1A585B1A5E9959 PUSH1 0x92 SHL PUSH1 0x64 DUP3 ADD MSTORE PUSH1 0x84 ADD PUSH2 0x72C JUMP JUMPDEST PUSH1 0x0 DUP1 SLOAD PUSH1 0xFF NOT AND PUSH1 0x1 OR SWAP1 SSTORE DUP1 ISZERO PUSH2 0xD3A JUMPI PUSH1 0x0 DUP1 SLOAD PUSH2 0xFF00 NOT AND PUSH2 0x100 OR SWAP1 SSTORE JUMPDEST PUSH2 0xD44 DUP4 DUP4 PUSH2 0x1A81 JUMP JUMPDEST PUSH2 0xD4C PUSH2 0x1AB2 JUMP JUMPDEST PUSH2 0xD54 PUSH2 0x1AE1 JUMP JUMPDEST PUSH2 0xD5C PUSH2 0x1AE1 JUMP JUMPDEST PUSH2 0xD67 PUSH1 0x0 CALLER PUSH2 0x1B08 JUMP JUMPDEST PUSH2 0xD7F PUSH1 0x0 DUP1 MLOAD PUSH1 0x20 PUSH2 0x32E5 DUP4 CODECOPY DUP2 MLOAD SWAP2 MSTORE CALLER PUSH2 0x1B08 JUMP JUMPDEST PUSH2 0xDA9 PUSH32 0x9F2DF0FED2C77648DE5860A4CC508CD0818C85B8B8A1AB4CEEEF8D981C8956A6 CALLER PUSH2 0x1B08 JUMP JUMPDEST DUP1 ISZERO PUSH2 0x9A3 JUMPI PUSH1 0x0 DUP1 SLOAD PUSH2 0xFF00 NOT AND SWAP1 SSTORE PUSH1 0x40 MLOAD PUSH1 0x1 DUP2 MSTORE PUSH32 0x7F26B83FF96E1F2B6A682F133852F6798A09C465DA95921460CEFB3847402498 SWAP1 PUSH1 0x20 ADD PUSH1 0x40 MLOAD DUP1 SWAP2 SUB SWAP1 LOG1 POP POP POP JUMP JUMPDEST PUSH1 0x1 PUSH1 0x1 PUSH1 0xA0 SHL SUB PUSH32 0x0 AND ADDRESS SUB PUSH2 0xE3B JUMPI PUSH1 0x40 MLOAD PUSH3 0x461BCD PUSH1 0xE5 SHL DUP2 MSTORE PUSH1 0x4 ADD PUSH2 0x72C SWAP1 PUSH2 0x2E2E JUMP JUMPDEST PUSH32 0x0 PUSH1 0x1 PUSH1 0x1 PUSH1 0xA0 SHL SUB AND PUSH2 0xE84 PUSH1 0x0 DUP1 MLOAD PUSH1 0x20 PUSH2 0x32C5 DUP4 CODECOPY DUP2 MLOAD SWAP2 MSTORE SLOAD PUSH1 0x1 PUSH1 0x1 PUSH1 0xA0 SHL SUB AND SWAP1 JUMP JUMPDEST PUSH1 0x1 PUSH1 0x1 PUSH1 0xA0 SHL SUB AND EQ PUSH2 0xEAA JUMPI PUSH1 0x40 MLOAD PUSH3 0x461BCD PUSH1 0xE5 SHL DUP2 MSTORE PUSH1 0x4 ADD PUSH2 0x72C SWAP1 PUSH2 0x2E7A JUMP JUMPDEST PUSH2 0xEB3 DUP3 PUSH2 0x18B9 JUMP JUMPDEST PUSH2 0xB0E DUP3 DUP3 PUSH1 0x1 PUSH2 0x18C4 JUMP JUMPDEST PUSH1 0x0 PUSH2 0xECA PUSH1 0x99 SLOAD SWAP1 JUMP JUMPDEST DUP3 LT PUSH2 0xF2D JUMPI PUSH1 0x40 MLOAD PUSH3 0x461BCD PUSH1 0xE5 SHL DUP2 MSTORE PUSH1 0x20 PUSH1 0x4 DUP3 ADD MSTORE PUSH1 0x2C PUSH1 0x24 DUP3 ADD MSTORE PUSH32 0x455243373231456E756D657261626C653A20676C6F62616C20696E646578206F PUSH1 0x44 DUP3 ADD MSTORE PUSH12 0x7574206F6620626F756E6473 PUSH1 0xA0 SHL PUSH1 0x64 DUP3 ADD MSTORE PUSH1 0x84 ADD PUSH2 0x72C JUMP JUMPDEST PUSH1 0x99 DUP3 DUP2 SLOAD DUP2 LT PUSH2 0xF40 JUMPI PUSH2 0xF40 PUSH2 0x2EC6 JUMP JUMPDEST SWAP1 PUSH1 0x0 MSTORE PUSH1 0x20 PUSH1 0x0 KECCAK256 ADD SLOAD SWAP1 POP SWAP2 SWAP1 POP JUMP JUMPDEST PUSH1 0x0 ADDRESS PUSH1 0x1 PUSH1 0x1 PUSH1 0xA0 SHL SUB PUSH32 0x0 AND EQ PUSH2 0xFF2 JUMPI PUSH1 0x40 MLOAD PUSH3 0x461BCD PUSH1 0xE5 SHL DUP2 MSTORE PUSH1 0x20 PUSH1 0x4 DUP3 ADD MSTORE PUSH1 0x38 PUSH1 0x24 DUP3 ADD MSTORE PUSH32 0x555550535570677261646561626C653A206D757374206E6F742062652063616C PUSH1 0x44 DUP3 ADD MSTORE PUSH32 0x6C6564207468726F7567682064656C656761746563616C6C0000000000000000 PUSH1 0x64 DUP3 ADD MSTORE PUSH1 0x84 ADD PUSH2 0x72C JUMP JUMPDEST POP PUSH1 0x0 DUP1 MLOAD PUSH1 0x20 PUSH2 0x32C5 DUP4 CODECOPY DUP2 MLOAD SWAP2 MSTORE SWAP1 JUMP JUMPDEST PUSH1 0x0 DUP2 DUP2 MSTORE PUSH1 0x67 PUSH1 0x20 MSTORE PUSH1 0x40 DUP2 KECCAK256 SLOAD PUSH1 0x1 PUSH1 0x1 PUSH1 0xA0 SHL SUB AND DUP1 PUSH2 0x6C9 JUMPI PUSH1 0x40 MLOAD PUSH3 0x461BCD PUSH1 0xE5 SHL DUP2 MSTORE PUSH1 0x20 PUSH1 0x4 DUP3 ADD MSTORE PUSH1 0x18 PUSH1 0x24 DUP3 ADD MSTORE PUSH24 0x115490CDCC8C4E881A5B9D985B1A59081D1BDAD95B881251 PUSH1 0x42 SHL PUSH1 0x44 DUP3 ADD MSTORE PUSH1 0x64 ADD PUSH2 0x72C JUMP JUMPDEST PUSH2 0x106D PUSH2 0x141A JUMP JUMPDEST PUSH2 0x3E7 DUP4 GT ISZERO PUSH2 0x10B7 JUMPI PUSH1 0x40 MLOAD PUSH3 0x461BCD PUSH1 0xE5 SHL DUP2 MSTORE PUSH1 0x20 PUSH1 0x4 DUP3 ADD MSTORE PUSH1 0x15 PUSH1 0x24 DUP3 ADD MSTORE PUSH21 0x546F6B656E204944206F7574206F662072616E6765 PUSH1 0x58 SHL PUSH1 0x44 DUP3 ADD MSTORE PUSH1 0x64 ADD PUSH2 0x72C JUMP JUMPDEST DUP1 PUSH2 0x1104 JUMPI PUSH1 0x40 MLOAD PUSH3 0x461BCD PUSH1 0xE5 SHL DUP2 MSTORE PUSH1 0x20 PUSH1 0x4 DUP3 ADD MSTORE PUSH1 0x1C PUSH1 0x24 DUP3 ADD MSTORE PUSH32 0x50726F6F66732061727261792063616E6E6F7420626520656D70747900000000 PUSH1 0x44 DUP3 ADD MSTORE PUSH1 0x64 ADD PUSH2 0x72C JUMP JUMPDEST PUSH2 0x1182 DUP3 DUP3 DUP1 DUP1 PUSH1 0x20 MUL PUSH1 0x20 ADD PUSH1 0x40 MLOAD SWAP1 DUP2 ADD PUSH1 0x40 MSTORE DUP1 SWAP4 SWAP3 SWAP2 SWAP1 DUP2 DUP2 MSTORE PUSH1 0x20 ADD DUP4 DUP4 PUSH1 0x20 MUL DUP1 DUP3 DUP5 CALLDATACOPY PUSH1 0x0 SWAP3 ADD SWAP2 SWAP1 SWAP2 MSTORE POP POP PUSH2 0x192 SLOAD PUSH1 0x40 MLOAD PUSH12 0xFFFFFFFFFFFFFFFFFFFFFFFF NOT PUSH1 0x60 DUP12 SWAP1 SHL AND PUSH1 0x20 DUP3 ADD MSTORE PUSH1 0x34 DUP2 ADD DUP10 SWAP1 MSTORE SWAP1 SWAP3 POP PUSH1 0x54 ADD SWAP1 POP PUSH1 0x40 MLOAD PUSH1 0x20 DUP2 DUP4 SUB SUB DUP2 MSTORE SWAP1 PUSH1 0x40 MSTORE DUP1 MLOAD SWAP1 PUSH1 0x20 ADD KECCAK256 PUSH2 0x1B12 JUMP JUMPDEST PUSH2 0x11BE JUMPI PUSH1 0x40 MLOAD PUSH3 0x461BCD PUSH1 0xE5 SHL DUP2 MSTORE PUSH1 0x20 PUSH1 0x4 DUP3 ADD MSTORE PUSH1 0xD PUSH1 0x24 DUP3 ADD MSTORE PUSH13 0x24B73B30B634B210383937B7B3 PUSH1 0x99 SHL PUSH1 0x44 DUP3 ADD MSTORE PUSH1 0x64 ADD PUSH2 0x72C JUMP JUMPDEST PUSH2 0x11C8 DUP5 DUP5 PUSH2 0x1B28 JUMP JUMPDEST POP POP POP POP JUMP JUMPDEST PUSH1 0x0 PUSH1 0x1 PUSH1 0x1 PUSH1 0xA0 SHL SUB DUP3 AND PUSH2 0x1238 JUMPI PUSH1 0x40 MLOAD PUSH3 0x461BCD PUSH1 0xE5 SHL DUP2 MSTORE PUSH1 0x20 PUSH1 0x4 DUP3 ADD MSTORE PUSH1 0x29 PUSH1 0x24 DUP3 ADD MSTORE PUSH32 0x4552433732313A2061646472657373207A65726F206973206E6F742061207661 PUSH1 0x44 DUP3 ADD MSTORE PUSH9 0x3634B21037BBB732B9 PUSH1 0xB9 SHL PUSH1 0x64 DUP3 ADD MSTORE PUSH1 0x84 ADD PUSH2 0x72C JUMP JUMPDEST POP PUSH1 0x1 PUSH1 0x1 PUSH1 0xA0 SHL SUB AND PUSH1 0x0 SWAP1 DUP2 MSTORE PUSH1 0x68 PUSH1 0x20 MSTORE PUSH1 0x40 SWAP1 KECCAK256 SLOAD SWAP1 JUMP JUMPDEST PUSH1 0x0 DUP1 MLOAD PUSH1 0x20 PUSH2 0x32E5 DUP4 CODECOPY DUP2 MLOAD SWAP2 MSTORE PUSH2 0x126C DUP2 PUSH2 0x17C2 JUMP JUMPDEST PUSH2 0xBEE PUSH2 0x1B42 JUMP JUMPDEST PUSH1 0x0 SWAP2 DUP3 MSTORE PUSH1 0xFB PUSH1 0x20 SWAP1 DUP2 MSTORE PUSH1 0x40 DUP1 DUP5 KECCAK256 PUSH1 0x1 PUSH1 0x1 PUSH1 0xA0 SHL SUB SWAP4 SWAP1 SWAP4 AND DUP5 MSTORE SWAP2 SWAP1 MSTORE SWAP1 KECCAK256 SLOAD PUSH1 0xFF AND SWAP1 JUMP JUMPDEST PUSH1 0x60 PUSH1 0x66 DUP1 SLOAD PUSH2 0x7E9 SWAP1 PUSH2 0x2DA7 JUMP JUMPDEST PUSH32 0x9F2DF0FED2C77648DE5860A4CC508CD0818C85B8B8A1AB4CEEEF8D981C8956A6 PUSH2 0x12D8 DUP2 PUSH2 0x17C2 JUMP JUMPDEST PUSH2 0x3E7 DUP3 GT ISZERO PUSH2 0x1322 JUMPI PUSH1 0x40 MLOAD PUSH3 0x461BCD PUSH1 0xE5 SHL DUP2 MSTORE PUSH1 0x20 PUSH1 0x4 DUP3 ADD MSTORE PUSH1 0x15 PUSH1 0x24 DUP3 ADD MSTORE PUSH21 0x546F6B656E204944206F7574206F662072616E6765 PUSH1 0x58 SHL PUSH1 0x44 DUP3 ADD MSTORE PUSH1 0x64 ADD PUSH2 0x72C JUMP JUMPDEST PUSH2 0x9A3 DUP4 DUP4 PUSH2 0x1B28 JUMP JUMPDEST PUSH2 0xB0E CALLER DUP4 DUP4 PUSH2 0x1B7F JUMP JUMPDEST PUSH2 0x1341 CALLER DUP4 PUSH2 0x15D2 JUMP JUMPDEST PUSH2 0x135D JUMPI PUSH1 0x40 MLOAD PUSH3 0x461BCD PUSH1 0xE5 SHL DUP2 MSTORE PUSH1 0x4 ADD PUSH2 0x72C SWAP1 PUSH2 0x2DE1 JUMP JUMPDEST PUSH2 0x11C8 DUP5 DUP5 DUP5 DUP5 PUSH2 0x1C4D JUMP JUMPDEST PUSH1 0x60 PUSH2 0x1374 DUP3 PUSH2 0x1505 JUMP JUMPDEST PUSH1 0x0 PUSH2 0x137E PUSH2 0x1C80 JUMP JUMPDEST SWAP1 POP PUSH1 0x0 DUP2 MLOAD GT PUSH2 0x139E JUMPI PUSH1 0x40 MLOAD DUP1 PUSH1 0x20 ADD PUSH1 0x40 MSTORE DUP1 PUSH1 0x0 DUP2 MSTORE POP PUSH2 0x13C9 JUMP JUMPDEST DUP1 PUSH2 0x13A8 DUP5 PUSH2 0x1CA0 JUMP JUMPDEST PUSH1 0x40 MLOAD PUSH1 0x20 ADD PUSH2 0x13B9 SWAP3 SWAP2 SWAP1 PUSH2 0x2EDC JUMP JUMPDEST PUSH1 0x40 MLOAD PUSH1 0x20 DUP2 DUP4 SUB SUB DUP2 MSTORE SWAP1 PUSH1 0x40 MSTORE JUMPDEST SWAP4 SWAP3 POP POP POP JUMP JUMPDEST PUSH1 0x0 DUP3 DUP2 MSTORE PUSH1 0xFB PUSH1 0x20 MSTORE PUSH1 0x40 SWAP1 KECCAK256 PUSH1 0x1 ADD SLOAD PUSH2 0x13EB DUP2 PUSH2 0x17C2 JUMP JUMPDEST PUSH2 0x9A3 DUP4 DUP4 PUSH2 0x1852 JUMP JUMPDEST PUSH1 0x0 PUSH1 0x1 PUSH1 0x1 PUSH1 0xE0 SHL SUB NOT DUP3 AND PUSH4 0x7965DB0B PUSH1 0xE0 SHL EQ DUP1 PUSH2 0x6C9 JUMPI POP PUSH2 0x6C9 DUP3 PUSH2 0x1D33 JUMP JUMPDEST PUSH1 0xC9 SLOAD PUSH1 0xFF AND ISZERO PUSH2 0x1460 JUMPI PUSH1 0x40 MLOAD PUSH3 0x461BCD PUSH1 0xE5 SHL DUP2 MSTORE PUSH1 0x20 PUSH1 0x4 DUP3 ADD MSTORE PUSH1 0x10 PUSH1 0x24 DUP3 ADD MSTORE PUSH16 0x14185D5CD8589B194E881C185D5CD959 PUSH1 0x82 SHL PUSH1 0x44 DUP3 ADD MSTORE PUSH1 0x64 ADD PUSH2 0x72C JUMP JUMPDEST JUMP JUMPDEST PUSH1 0x0 PUSH2 0x146D DUP3 PUSH2 0x1005 JUMP JUMPDEST SWAP1 POP PUSH2 0x147D DUP2 PUSH1 0x0 DUP5 PUSH1 0x1 PUSH2 0x1D58 JUMP JUMPDEST PUSH2 0x1486 DUP3 PUSH2 0x1005 JUMP JUMPDEST PUSH1 0x0 DUP4 DUP2 MSTORE PUSH1 0x69 PUSH1 0x20 SWAP1 DUP2 MSTORE PUSH1 0x40 DUP1 DUP4 KECCAK256 DUP1 SLOAD PUSH1 0x1 PUSH1 0x1 PUSH1 0xA0 SHL SUB NOT SWAP1 DUP2 AND SWAP1 SWAP2 SSTORE PUSH1 0x1 PUSH1 0x1 PUSH1 0xA0 SHL SUB DUP6 AND DUP1 DUP6 MSTORE PUSH1 0x68 DUP5 MSTORE DUP3 DUP6 KECCAK256 DUP1 SLOAD PUSH1 0x0 NOT ADD SWAP1 SSTORE DUP8 DUP6 MSTORE PUSH1 0x67 SWAP1 SWAP4 MSTORE DUP2 DUP5 KECCAK256 DUP1 SLOAD SWAP1 SWAP2 AND SWAP1 SSTORE MLOAD SWAP3 SWAP4 POP DUP5 SWAP3 PUSH32 0xDDF252AD1BE2C89B69C2B068FC378DAA952BA7F163C4A11628F55A4DF523B3EF SWAP1 DUP4 SWAP1 LOG4 POP POP JUMP JUMPDEST PUSH1 0x0 DUP2 DUP2 MSTORE PUSH1 0x67 PUSH1 0x20 MSTORE PUSH1 0x40 SWAP1 KECCAK256 SLOAD PUSH1 0x1 PUSH1 0x1 PUSH1 0xA0 SHL SUB AND PUSH2 0xBEE JUMPI PUSH1 0x40 MLOAD PUSH3 0x461BCD PUSH1 0xE5 SHL DUP2 MSTORE PUSH1 0x20 PUSH1 0x4 DUP3 ADD MSTORE PUSH1 0x18 PUSH1 0x24 DUP3 ADD MSTORE PUSH24 0x115490CDCC8C4E881A5B9D985B1A59081D1BDAD95B881251 PUSH1 0x42 SHL PUSH1 0x44 DUP3 ADD MSTORE PUSH1 0x64 ADD PUSH2 0x72C JUMP JUMPDEST PUSH1 0x0 DUP2 DUP2 MSTORE PUSH1 0x69 PUSH1 0x20 MSTORE PUSH1 0x40 SWAP1 KECCAK256 DUP1 SLOAD PUSH1 0x1 PUSH1 0x1 PUSH1 0xA0 SHL SUB NOT AND PUSH1 0x1 PUSH1 0x1 PUSH1 0xA0 SHL SUB DUP5 AND SWAP1 DUP2 OR SWAP1 SWAP2 SSTORE DUP2 SWAP1 PUSH2 0x1599 DUP3 PUSH2 0x1005 JUMP JUMPDEST PUSH1 0x1 PUSH1 0x1 PUSH1 0xA0 SHL SUB AND PUSH32 0x8C5BE1E5EBEC7D5BD14F71427D1E84F3DD0314C0F7B2291E5B200AC8C7C3B925 PUSH1 0x40 MLOAD PUSH1 0x40 MLOAD DUP1 SWAP2 SUB SWAP1 LOG4 POP POP JUMP JUMPDEST PUSH1 0x0 DUP1 PUSH2 0x15DE DUP4 PUSH2 0x1005 JUMP JUMPDEST SWAP1 POP DUP1 PUSH1 0x1 PUSH1 0x1 PUSH1 0xA0 SHL SUB AND DUP5 PUSH1 0x1 PUSH1 0x1 PUSH1 0xA0 SHL SUB AND EQ DUP1 PUSH2 0x1625 JUMPI POP PUSH1 0x1 PUSH1 0x1 PUSH1 0xA0 SHL SUB DUP1 DUP3 AND PUSH1 0x0 SWAP1 DUP2 MSTORE PUSH1 0x6A PUSH1 0x20 SWAP1 DUP2 MSTORE PUSH1 0x40 DUP1 DUP4 KECCAK256 SWAP4 DUP9 AND DUP4 MSTORE SWAP3 SWAP1 MSTORE KECCAK256 SLOAD PUSH1 0xFF AND JUMPDEST DUP1 PUSH2 0x1649 JUMPI POP DUP4 PUSH1 0x1 PUSH1 0x1 PUSH1 0xA0 SHL SUB AND PUSH2 0x163E DUP5 PUSH2 0x86C JUMP JUMPDEST PUSH1 0x1 PUSH1 0x1 PUSH1 0xA0 SHL SUB AND EQ JUMPDEST SWAP5 SWAP4 POP POP POP POP JUMP JUMPDEST DUP3 PUSH1 0x1 PUSH1 0x1 PUSH1 0xA0 SHL SUB AND PUSH2 0x1664 DUP3 PUSH2 0x1005 JUMP JUMPDEST PUSH1 0x1 PUSH1 0x1 PUSH1 0xA0 SHL SUB AND EQ PUSH2 0x168A JUMPI PUSH1 0x40 MLOAD PUSH3 0x461BCD PUSH1 0xE5 SHL DUP2 MSTORE PUSH1 0x4 ADD PUSH2 0x72C SWAP1 PUSH2 0x2F0B JUMP JUMPDEST PUSH1 0x1 PUSH1 0x1 PUSH1 0xA0 SHL SUB DUP3 AND PUSH2 0x16EC JUMPI PUSH1 0x40 MLOAD PUSH3 0x461BCD PUSH1 0xE5 SHL DUP2 MSTORE PUSH1 0x20 PUSH1 0x4 DUP3 ADD MSTORE PUSH1 0x24 DUP1 DUP3 ADD MSTORE PUSH32 0x4552433732313A207472616E7366657220746F20746865207A65726F20616464 PUSH1 0x44 DUP3 ADD MSTORE PUSH4 0x72657373 PUSH1 0xE0 SHL PUSH1 0x64 DUP3 ADD MSTORE PUSH1 0x84 ADD PUSH2 0x72C JUMP JUMPDEST PUSH2 0x16F9 DUP4 DUP4 DUP4 PUSH1 0x1 PUSH2 0x1D58 JUMP JUMPDEST DUP3 PUSH1 0x1 PUSH1 0x1 PUSH1 0xA0 SHL SUB AND PUSH2 0x170C DUP3 PUSH2 0x1005 JUMP JUMPDEST PUSH1 0x1 PUSH1 0x1 PUSH1 0xA0 SHL SUB AND EQ PUSH2 0x1732 JUMPI PUSH1 0x40 MLOAD PUSH3 0x461BCD PUSH1 0xE5 SHL DUP2 MSTORE PUSH1 0x4 ADD PUSH2 0x72C SWAP1 PUSH2 0x2F0B JUMP JUMPDEST PUSH1 0x0 DUP2 DUP2 MSTORE PUSH1 0x69 PUSH1 0x20 SWAP1 DUP2 MSTORE PUSH1 0x40 DUP1 DUP4 KECCAK256 DUP1 SLOAD PUSH1 0x1 PUSH1 0x1 PUSH1 0xA0 SHL SUB NOT SWAP1 DUP2 AND SWAP1 SWAP2 SSTORE PUSH1 0x1 PUSH1 0x1 PUSH1 0xA0 SHL SUB DUP8 DUP2 AND DUP1 DUP7 MSTORE PUSH1 0x68 DUP6 MSTORE DUP4 DUP7 KECCAK256 DUP1 SLOAD PUSH1 0x0 NOT ADD SWAP1 SSTORE SWAP1 DUP8 AND DUP1 DUP7 MSTORE DUP4 DUP7 KECCAK256 DUP1 SLOAD PUSH1 0x1 ADD SWAP1 SSTORE DUP7 DUP7 MSTORE PUSH1 0x67 SWAP1 SWAP5 MSTORE DUP3 DUP6 KECCAK256 DUP1 SLOAD SWAP1 SWAP3 AND DUP5 OR SWAP1 SWAP2 SSTORE SWAP1 MLOAD DUP5 SWAP4 PUSH32 0xDDF252AD1BE2C89B69C2B068FC378DAA952BA7F163C4A11628F55A4DF523B3EF SWAP2 LOG4 POP POP POP JUMP JUMPDEST PUSH2 0xBEE DUP2 CALLER PUSH2 0x1E8C JUMP JUMPDEST PUSH2 0x17D6 DUP3 DUP3 PUSH2 0x1274 JUMP JUMPDEST PUSH2 0xB0E JUMPI PUSH1 0x0 DUP3 DUP2 MSTORE PUSH1 0xFB PUSH1 0x20 SWAP1 DUP2 MSTORE PUSH1 0x40 DUP1 DUP4 KECCAK256 PUSH1 0x1 PUSH1 0x1 PUSH1 0xA0 SHL SUB DUP6 AND DUP5 MSTORE SWAP1 SWAP2 MSTORE SWAP1 KECCAK256 DUP1 SLOAD PUSH1 0xFF NOT AND PUSH1 0x1 OR SWAP1 SSTORE PUSH2 0x180E CALLER SWAP1 JUMP JUMPDEST PUSH1 0x1 PUSH1 0x1 PUSH1 0xA0 SHL SUB AND DUP2 PUSH1 0x1 PUSH1 0x1 PUSH1 0xA0 SHL SUB AND DUP4 PUSH32 0x2F8788117E7EFF1D82E926EC794901D17C78024A50270940304540A733656F0D PUSH1 0x40 MLOAD PUSH1 0x40 MLOAD DUP1 SWAP2 SUB SWAP1 LOG4 POP POP JUMP JUMPDEST PUSH2 0x185C DUP3 DUP3 PUSH2 0x1274 JUMP JUMPDEST ISZERO PUSH2 0xB0E JUMPI PUSH1 0x0 DUP3 DUP2 MSTORE PUSH1 0xFB PUSH1 0x20 SWAP1 DUP2 MSTORE PUSH1 0x40 DUP1 DUP4 KECCAK256 PUSH1 0x1 PUSH1 0x1 PUSH1 0xA0 SHL SUB DUP6 AND DUP1 DUP6 MSTORE SWAP3 MSTORE DUP1 DUP4 KECCAK256 DUP1 SLOAD PUSH1 0xFF NOT AND SWAP1 SSTORE MLOAD CALLER SWAP3 DUP6 SWAP2 PUSH32 0xF6391F5C32D9C69D2A47EA670B442974B53935D1EDC7FD64EB21E047A839171B SWAP2 SWAP1 LOG4 POP POP JUMP JUMPDEST PUSH1 0x0 PUSH2 0xB0E DUP2 PUSH2 0x17C2 JUMP JUMPDEST PUSH32 0x4910FDFA16FED3260ED0E7147F7CC6DA11A60208B5B9406D12A635614FFD9143 SLOAD PUSH1 0xFF AND ISZERO PUSH2 0x18F7 JUMPI PUSH2 0x9A3 DUP4 PUSH2 0x1EE5 JUMP JUMPDEST DUP3 PUSH1 0x1 PUSH1 0x1 PUSH1 0xA0 SHL SUB AND PUSH4 0x52D1902D PUSH1 0x40 MLOAD DUP2 PUSH4 0xFFFFFFFF AND PUSH1 0xE0 SHL DUP2 MSTORE PUSH1 0x4 ADD PUSH1 0x20 PUSH1 0x40 MLOAD DUP1 DUP4 SUB DUP2 DUP7 GAS STATICCALL SWAP3 POP POP POP DUP1 ISZERO PUSH2 0x1951 JUMPI POP PUSH1 0x40 DUP1 MLOAD PUSH1 0x1F RETURNDATASIZE SWAP1 DUP2 ADD PUSH1 0x1F NOT AND DUP3 ADD SWAP1 SWAP3 MSTORE PUSH2 0x194E SWAP2 DUP2 ADD SWAP1 PUSH2 0x2F50 JUMP JUMPDEST PUSH1 0x1 JUMPDEST PUSH2 0x19B4 JUMPI PUSH1 0x40 MLOAD PUSH3 0x461BCD PUSH1 0xE5 SHL DUP2 MSTORE PUSH1 0x20 PUSH1 0x4 DUP3 ADD MSTORE PUSH1 0x2E PUSH1 0x24 DUP3 ADD MSTORE PUSH32 0x45524331393637557067726164653A206E657720696D706C656D656E74617469 PUSH1 0x44 DUP3 ADD MSTORE PUSH14 0x6F6E206973206E6F742055555053 PUSH1 0x90 SHL PUSH1 0x64 DUP3 ADD MSTORE PUSH1 0x84 ADD PUSH2 0x72C JUMP JUMPDEST PUSH1 0x0 DUP1 MLOAD PUSH1 0x20 PUSH2 0x32C5 DUP4 CODECOPY DUP2 MLOAD SWAP2 MSTORE DUP2 EQ PUSH2 0x1A23 JUMPI PUSH1 0x40 MLOAD PUSH3 0x461BCD PUSH1 0xE5 SHL DUP2 MSTORE PUSH1 0x20 PUSH1 0x4 DUP3 ADD MSTORE PUSH1 0x29 PUSH1 0x24 DUP3 ADD MSTORE PUSH32 0x45524331393637557067726164653A20756E737570706F727465642070726F78 PUSH1 0x44 DUP3 ADD MSTORE PUSH9 0x1A58589B1955555251 PUSH1 0xBA SHL PUSH1 0x64 DUP3 ADD MSTORE PUSH1 0x84 ADD PUSH2 0x72C JUMP JUMPDEST POP PUSH2 0x9A3 DUP4 DUP4 DUP4 PUSH2 0x1F81 JUMP JUMPDEST PUSH2 0x1A37 PUSH2 0x1FA6 JUMP JUMPDEST PUSH1 0xC9 DUP1 SLOAD PUSH1 0xFF NOT AND SWAP1 SSTORE PUSH32 0x5DB9EE0A495BF2E6FF9C91A7834C1BA4FDD244A5E8AA4E537BD38AEAE4B073AA CALLER JUMPDEST PUSH1 0x40 MLOAD PUSH1 0x1 PUSH1 0x1 PUSH1 0xA0 SHL SUB SWAP1 SWAP2 AND DUP2 MSTORE PUSH1 0x20 ADD PUSH1 0x40 MLOAD DUP1 SWAP2 SUB SWAP1 LOG1 JUMP JUMPDEST PUSH1 0x0 SLOAD PUSH2 0x100 SWAP1 DIV PUSH1 0xFF AND PUSH2 0x1AA8 JUMPI PUSH1 0x40 MLOAD PUSH3 0x461BCD PUSH1 0xE5 SHL DUP2 MSTORE PUSH1 0x4 ADD PUSH2 0x72C SWAP1 PUSH2 0x2F69 JUMP JUMPDEST PUSH2 0xB0E DUP3 DUP3 PUSH2 0x1FEF JUMP JUMPDEST PUSH1 0x0 SLOAD PUSH2 0x100 SWAP1 DIV PUSH1 0xFF AND PUSH2 0x1AD9 JUMPI PUSH1 0x40 MLOAD PUSH3 0x461BCD PUSH1 0xE5 SHL DUP2 MSTORE PUSH1 0x4 ADD PUSH2 0x72C SWAP1 PUSH2 0x2F69 JUMP JUMPDEST PUSH2 0x1460 PUSH2 0x202F JUMP JUMPDEST PUSH1 0x0 SLOAD PUSH2 0x100 SWAP1 DIV PUSH1 0xFF AND PUSH2 0x1460 JUMPI PUSH1 0x40 MLOAD PUSH3 0x461BCD PUSH1 0xE5 SHL DUP2 MSTORE PUSH1 0x4 ADD PUSH2 0x72C SWAP1 PUSH2 0x2F69 JUMP JUMPDEST PUSH2 0xB0E DUP3 DUP3 PUSH2 0x17CC JUMP JUMPDEST PUSH1 0x0 DUP3 PUSH2 0x1B1F DUP6 DUP5 PUSH2 0x2062 JUMP JUMPDEST EQ SWAP5 SWAP4 POP POP POP POP JUMP JUMPDEST PUSH2 0xB0E DUP3 DUP3 PUSH1 0x40 MLOAD DUP1 PUSH1 0x20 ADD PUSH1 0x40 MSTORE DUP1 PUSH1 0x0 DUP2 MSTORE POP PUSH2 0x20AF JUMP JUMPDEST PUSH2 0x1B4A PUSH2 0x141A JUMP JUMPDEST PUSH1 0xC9 DUP1 SLOAD PUSH1 0xFF NOT AND PUSH1 0x1 OR SWAP1 SSTORE PUSH32 0x62E78CEA01BEE320CD4E420270B5EA74000D11B0C9F74754EBDBFC544B05A258 PUSH2 0x1A64 CALLER SWAP1 JUMP JUMPDEST DUP2 PUSH1 0x1 PUSH1 0x1 PUSH1 0xA0 SHL SUB AND DUP4 PUSH1 0x1 PUSH1 0x1 PUSH1 0xA0 SHL SUB AND SUB PUSH2 0x1BE0 JUMPI PUSH1 0x40 MLOAD PUSH3 0x461BCD PUSH1 0xE5 SHL DUP2 MSTORE PUSH1 0x20 PUSH1 0x4 DUP3 ADD MSTORE PUSH1 0x19 PUSH1 0x24 DUP3 ADD MSTORE PUSH32 0x4552433732313A20617070726F766520746F2063616C6C657200000000000000 PUSH1 0x44 DUP3 ADD MSTORE PUSH1 0x64 ADD PUSH2 0x72C JUMP JUMPDEST PUSH1 0x1 PUSH1 0x1 PUSH1 0xA0 SHL SUB DUP4 DUP2 AND PUSH1 0x0 DUP2 DUP2 MSTORE PUSH1 0x6A PUSH1 0x20 SWAP1 DUP2 MSTORE PUSH1 0x40 DUP1 DUP4 KECCAK256 SWAP5 DUP8 AND DUP1 DUP5 MSTORE SWAP5 DUP3 MSTORE SWAP2 DUP3 SWAP1 KECCAK256 DUP1 SLOAD PUSH1 0xFF NOT AND DUP7 ISZERO ISZERO SWAP1 DUP2 OR SWAP1 SWAP2 SSTORE SWAP2 MLOAD SWAP2 DUP3 MSTORE PUSH32 0x17307EAB39AB6107E8899845AD3D59BD9653F200F220920489CA2B5937696C31 SWAP2 ADD PUSH1 0x40 MLOAD DUP1 SWAP2 SUB SWAP1 LOG3 POP POP POP JUMP JUMPDEST PUSH2 0x1C58 DUP5 DUP5 DUP5 PUSH2 0x1651 JUMP JUMPDEST PUSH2 0x1C64 DUP5 DUP5 DUP5 DUP5 PUSH2 0x20E2 JUMP JUMPDEST PUSH2 0x11C8 JUMPI PUSH1 0x40 MLOAD PUSH3 0x461BCD PUSH1 0xE5 SHL DUP2 MSTORE PUSH1 0x4 ADD PUSH2 0x72C SWAP1 PUSH2 0x2FB4 JUMP JUMPDEST PUSH1 0x60 PUSH1 0x40 MLOAD DUP1 PUSH1 0x60 ADD PUSH1 0x40 MSTORE DUP1 PUSH1 0x36 DUP2 MSTORE PUSH1 0x20 ADD PUSH2 0x328F PUSH1 0x36 SWAP2 CODECOPY SWAP1 POP SWAP1 JUMP JUMPDEST PUSH1 0x60 PUSH1 0x0 PUSH2 0x1CAD DUP4 PUSH2 0x21E3 JUMP JUMPDEST PUSH1 0x1 ADD SWAP1 POP PUSH1 0x0 DUP2 PUSH8 0xFFFFFFFFFFFFFFFF DUP2 GT ISZERO PUSH2 0x1CCD JUMPI PUSH2 0x1CCD PUSH2 0x2B04 JUMP JUMPDEST PUSH1 0x40 MLOAD SWAP1 DUP1 DUP3 MSTORE DUP1 PUSH1 0x1F ADD PUSH1 0x1F NOT AND PUSH1 0x20 ADD DUP3 ADD PUSH1 0x40 MSTORE DUP1 ISZERO PUSH2 0x1CF7 JUMPI PUSH1 0x20 DUP3 ADD DUP2 DUP1 CALLDATASIZE DUP4 CALLDATACOPY ADD SWAP1 POP JUMPDEST POP SWAP1 POP DUP2 DUP2 ADD PUSH1 0x20 ADD JUMPDEST PUSH1 0x0 NOT ADD PUSH16 0x181899199A1A9B1B9C1CB0B131B232B3 PUSH1 0x81 SHL PUSH1 0xA DUP7 MOD BYTE DUP2 MSTORE8 PUSH1 0xA DUP6 DIV SWAP5 POP DUP5 PUSH2 0x1D01 JUMPI POP SWAP4 SWAP3 POP POP POP JUMP JUMPDEST PUSH1 0x0 PUSH1 0x1 PUSH1 0x1 PUSH1 0xE0 SHL SUB NOT DUP3 AND PUSH4 0x780E9D63 PUSH1 0xE0 SHL EQ DUP1 PUSH2 0x6C9 JUMPI POP PUSH2 0x6C9 DUP3 PUSH2 0x22BB JUMP JUMPDEST PUSH1 0x1 DUP2 GT ISZERO PUSH2 0x1DC7 JUMPI PUSH1 0x40 MLOAD PUSH3 0x461BCD PUSH1 0xE5 SHL DUP2 MSTORE PUSH1 0x20 PUSH1 0x4 DUP3 ADD MSTORE PUSH1 0x35 PUSH1 0x24 DUP3 ADD MSTORE PUSH32 0x455243373231456E756D657261626C653A20636F6E7365637574697665207472 PUSH1 0x44 DUP3 ADD MSTORE PUSH21 0x185B9CD9995C9CC81B9BDD081CDD5C1C1BDC9D1959 PUSH1 0x5A SHL PUSH1 0x64 DUP3 ADD MSTORE PUSH1 0x84 ADD PUSH2 0x72C JUMP JUMPDEST DUP2 PUSH1 0x1 PUSH1 0x1 PUSH1 0xA0 SHL SUB DUP6 AND PUSH2 0x1E23 JUMPI PUSH2 0x1E1E DUP2 PUSH1 0x99 DUP1 SLOAD PUSH1 0x0 DUP4 DUP2 MSTORE PUSH1 0x9A PUSH1 0x20 MSTORE PUSH1 0x40 DUP2 KECCAK256 DUP3 SWAP1 SSTORE PUSH1 0x1 DUP3 ADD DUP4 SSTORE SWAP2 SWAP1 SWAP2 MSTORE PUSH32 0x72A152DDFB8E864297C917AF52EA6C1C68AEAD0FEE1A62673FCC7E0C94979D00 ADD SSTORE JUMP JUMPDEST PUSH2 0x1E46 JUMP JUMPDEST DUP4 PUSH1 0x1 PUSH1 0x1 PUSH1 0xA0 SHL SUB AND DUP6 PUSH1 0x1 PUSH1 0x1 PUSH1 0xA0 SHL SUB AND EQ PUSH2 0x1E46 JUMPI PUSH2 0x1E46 DUP6 DUP3 PUSH2 0x230B JUMP JUMPDEST PUSH1 0x1 PUSH1 0x1 PUSH1 0xA0 SHL SUB DUP5 AND PUSH2 0x1E62 JUMPI PUSH2 0x1E5D DUP2 PUSH2 0x23A8 JUMP JUMPDEST PUSH2 0x1E85 JUMP JUMPDEST DUP5 PUSH1 0x1 PUSH1 0x1 PUSH1 0xA0 SHL SUB AND DUP5 PUSH1 0x1 PUSH1 0x1 PUSH1 0xA0 SHL SUB AND EQ PUSH2 0x1E85 JUMPI PUSH2 0x1E85 DUP5 DUP3 PUSH2 0x2457 JUMP JUMPDEST POP POP POP POP POP JUMP JUMPDEST PUSH2 0x1E96 DUP3 DUP3 PUSH2 0x1274 JUMP JUMPDEST PUSH2 0xB0E JUMPI PUSH2 0x1EA3 DUP2 PUSH2 0x249B JUMP JUMPDEST PUSH2 0x1EAE DUP4 PUSH1 0x20 PUSH2 0x24AD JUMP JUMPDEST PUSH1 0x40 MLOAD PUSH1 0x20 ADD PUSH2 0x1EBF SWAP3 SWAP2 SWAP1 PUSH2 0x3006 JUMP JUMPDEST PUSH1 0x40 DUP1 MLOAD PUSH1 0x1F NOT DUP2 DUP5 SUB ADD DUP2 MSTORE SWAP1 DUP3 SWAP1 MSTORE PUSH3 0x461BCD PUSH1 0xE5 SHL DUP3 MSTORE PUSH2 0x72C SWAP2 PUSH1 0x4 ADD PUSH2 0x2A28 JUMP JUMPDEST PUSH1 0x1 PUSH1 0x1 PUSH1 0xA0 SHL SUB DUP2 AND EXTCODESIZE PUSH2 0x1F52 JUMPI PUSH1 0x40 MLOAD PUSH3 0x461BCD PUSH1 0xE5 SHL DUP2 MSTORE PUSH1 0x20 PUSH1 0x4 DUP3 ADD MSTORE PUSH1 0x2D PUSH1 0x24 DUP3 ADD MSTORE PUSH32 0x455243313936373A206E657720696D706C656D656E746174696F6E206973206E PUSH1 0x44 DUP3 ADD MSTORE PUSH13 0x1BDD08184818DBDB9D1C9858DD PUSH1 0x9A SHL PUSH1 0x64 DUP3 ADD MSTORE PUSH1 0x84 ADD PUSH2 0x72C JUMP JUMPDEST PUSH1 0x0 DUP1 MLOAD PUSH1 0x20 PUSH2 0x32C5 DUP4 CODECOPY DUP2 MLOAD SWAP2 MSTORE DUP1 SLOAD PUSH1 0x1 PUSH1 0x1 PUSH1 0xA0 SHL SUB NOT AND PUSH1 0x1 PUSH1 0x1 PUSH1 0xA0 SHL SUB SWAP3 SWAP1 SWAP3 AND SWAP2 SWAP1 SWAP2 OR SWAP1 SSTORE JUMP JUMPDEST PUSH2 0x1F8A DUP4 PUSH2 0x2649 JUMP JUMPDEST PUSH1 0x0 DUP3 MLOAD GT DUP1 PUSH2 0x1F97 JUMPI POP DUP1 JUMPDEST ISZERO PUSH2 0x9A3 JUMPI PUSH2 0x11C8 DUP4 DUP4 PUSH2 0x2689 JUMP JUMPDEST PUSH1 0xC9 SLOAD PUSH1 0xFF AND PUSH2 0x1460 JUMPI PUSH1 0x40 MLOAD PUSH3 0x461BCD PUSH1 0xE5 SHL DUP2 MSTORE PUSH1 0x20 PUSH1 0x4 DUP3 ADD MSTORE PUSH1 0x14 PUSH1 0x24 DUP3 ADD MSTORE PUSH20 0x14185D5CD8589B194E881B9BDD081C185D5CD959 PUSH1 0x62 SHL PUSH1 0x44 DUP3 ADD MSTORE PUSH1 0x64 ADD PUSH2 0x72C JUMP JUMPDEST PUSH1 0x0 SLOAD PUSH2 0x100 SWAP1 DIV PUSH1 0xFF AND PUSH2 0x2016 JUMPI PUSH1 0x40 MLOAD PUSH3 0x461BCD PUSH1 0xE5 SHL DUP2 MSTORE PUSH1 0x4 ADD PUSH2 0x72C SWAP1 PUSH2 0x2F69 JUMP JUMPDEST PUSH1 0x65 PUSH2 0x2022 DUP4 DUP3 PUSH2 0x30C9 JUMP JUMPDEST POP PUSH1 0x66 PUSH2 0x9A3 DUP3 DUP3 PUSH2 0x30C9 JUMP JUMPDEST PUSH1 0x0 SLOAD PUSH2 0x100 SWAP1 DIV PUSH1 0xFF AND PUSH2 0x2056 JUMPI PUSH1 0x40 MLOAD PUSH3 0x461BCD PUSH1 0xE5 SHL DUP2 MSTORE PUSH1 0x4 ADD PUSH2 0x72C SWAP1 PUSH2 0x2F69 JUMP JUMPDEST PUSH1 0xC9 DUP1 SLOAD PUSH1 0xFF NOT AND SWAP1 SSTORE JUMP JUMPDEST PUSH1 0x0 DUP2 DUP2 JUMPDEST DUP5 MLOAD DUP2 LT ISZERO PUSH2 0x20A7 JUMPI PUSH2 0x2093 DUP3 DUP7 DUP4 DUP2 MLOAD DUP2 LT PUSH2 0x2086 JUMPI PUSH2 0x2086 PUSH2 0x2EC6 JUMP JUMPDEST PUSH1 0x20 MUL PUSH1 0x20 ADD ADD MLOAD PUSH2 0x26AE JUMP JUMPDEST SWAP2 POP DUP1 PUSH2 0x209F DUP2 PUSH2 0x319F JUMP JUMPDEST SWAP2 POP POP PUSH2 0x2067 JUMP JUMPDEST POP SWAP4 SWAP3 POP POP POP JUMP JUMPDEST PUSH2 0x20B9 DUP4 DUP4 PUSH2 0x26DD JUMP JUMPDEST PUSH2 0x20C6 PUSH1 0x0 DUP5 DUP5 DUP5 PUSH2 0x20E2 JUMP JUMPDEST PUSH2 0x9A3 JUMPI PUSH1 0x40 MLOAD PUSH3 0x461BCD PUSH1 0xE5 SHL DUP2 MSTORE PUSH1 0x4 ADD PUSH2 0x72C SWAP1 PUSH2 0x2FB4 JUMP JUMPDEST PUSH1 0x0 PUSH1 0x1 PUSH1 0x1 PUSH1 0xA0 SHL SUB DUP5 AND EXTCODESIZE ISZERO PUSH2 0x21D8 JUMPI PUSH1 0x40 MLOAD PUSH4 0xA85BD01 PUSH1 0xE1 SHL DUP2 MSTORE PUSH1 0x1 PUSH1 0x1 PUSH1 0xA0 SHL SUB DUP6 AND SWAP1 PUSH4 0x150B7A02 SWAP1 PUSH2 0x2126 SWAP1 CALLER SWAP1 DUP10 SWAP1 DUP9 SWAP1 DUP9 SWAP1 PUSH1 0x4 ADD PUSH2 0x31B8 JUMP JUMPDEST PUSH1 0x20 PUSH1 0x40 MLOAD DUP1 DUP4 SUB DUP2 PUSH1 0x0 DUP8 GAS CALL SWAP3 POP POP POP DUP1 ISZERO PUSH2 0x2161 JUMPI POP PUSH1 0x40 DUP1 MLOAD PUSH1 0x1F RETURNDATASIZE SWAP1 DUP2 ADD PUSH1 0x1F NOT AND DUP3 ADD SWAP1 SWAP3 MSTORE PUSH2 0x215E SWAP2 DUP2 ADD SWAP1 PUSH2 0x31EB JUMP JUMPDEST PUSH1 0x1 JUMPDEST PUSH2 0x21BE JUMPI RETURNDATASIZE DUP1 DUP1 ISZERO PUSH2 0x218F JUMPI PUSH1 0x40 MLOAD SWAP2 POP PUSH1 0x1F NOT PUSH1 0x3F RETURNDATASIZE ADD AND DUP3 ADD PUSH1 0x40 MSTORE RETURNDATASIZE DUP3 MSTORE RETURNDATASIZE PUSH1 0x0 PUSH1 0x20 DUP5 ADD RETURNDATACOPY PUSH2 0x2194 JUMP JUMPDEST PUSH1 0x60 SWAP2 POP JUMPDEST POP DUP1 MLOAD PUSH1 0x0 SUB PUSH2 0x21B6 JUMPI PUSH1 0x40 MLOAD PUSH3 0x461BCD PUSH1 0xE5 SHL DUP2 MSTORE PUSH1 0x4 ADD PUSH2 0x72C SWAP1 PUSH2 0x2FB4 JUMP JUMPDEST DUP1 MLOAD DUP2 PUSH1 0x20 ADD REVERT JUMPDEST PUSH1 0x1 PUSH1 0x1 PUSH1 0xE0 SHL SUB NOT AND PUSH4 0xA85BD01 PUSH1 0xE1 SHL EQ SWAP1 POP PUSH2 0x1649 JUMP JUMPDEST POP PUSH1 0x1 SWAP5 SWAP4 POP POP POP POP JUMP JUMPDEST PUSH1 0x0 DUP1 PUSH19 0x184F03E93FF9F4DAA797ED6E38ED64BF6A1F01 PUSH1 0x40 SHL DUP4 LT PUSH2 0x2222 JUMPI PUSH19 0x184F03E93FF9F4DAA797ED6E38ED64BF6A1F01 PUSH1 0x40 SHL DUP4 DIV SWAP3 POP PUSH1 0x40 ADD JUMPDEST PUSH14 0x4EE2D6D415B85ACEF8100000000 DUP4 LT PUSH2 0x224E JUMPI PUSH14 0x4EE2D6D415B85ACEF8100000000 DUP4 DIV SWAP3 POP PUSH1 0x20 ADD JUMPDEST PUSH7 0x2386F26FC10000 DUP4 LT PUSH2 0x226C JUMPI PUSH7 0x2386F26FC10000 DUP4 DIV SWAP3 POP PUSH1 0x10 ADD JUMPDEST PUSH4 0x5F5E100 DUP4 LT PUSH2 0x2284 JUMPI PUSH4 0x5F5E100 DUP4 DIV SWAP3 POP PUSH1 0x8 ADD JUMPDEST PUSH2 0x2710 DUP4 LT PUSH2 0x2298 JUMPI PUSH2 0x2710 DUP4 DIV SWAP3 POP PUSH1 0x4 ADD JUMPDEST PUSH1 0x64 DUP4 LT PUSH2 0x22AA JUMPI PUSH1 0x64 DUP4 DIV SWAP3 POP PUSH1 0x2 ADD JUMPDEST PUSH1 0xA DUP4 LT PUSH2 0x6C9 JUMPI PUSH1 0x1 ADD SWAP3 SWAP2 POP POP JUMP JUMPDEST PUSH1 0x0 PUSH1 0x1 PUSH1 0x1 PUSH1 0xE0 SHL SUB NOT DUP3 AND PUSH4 0x80AC58CD PUSH1 0xE0 SHL EQ DUP1 PUSH2 0x22EC JUMPI POP PUSH1 0x1 PUSH1 0x1 PUSH1 0xE0 SHL SUB NOT DUP3 AND PUSH4 0x5B5E139F PUSH1 0xE0 SHL EQ JUMPDEST DUP1 PUSH2 0x6C9 JUMPI POP PUSH4 0x1FFC9A7 PUSH1 0xE0 SHL PUSH1 0x1 PUSH1 0x1 PUSH1 0xE0 SHL SUB NOT DUP4 AND EQ PUSH2 0x6C9 JUMP JUMPDEST PUSH1 0x0 PUSH1 0x1 PUSH2 0x2318 DUP5 PUSH2 0x11CE JUMP JUMPDEST PUSH2 0x2322 SWAP2 SWAP1 PUSH2 0x3208 JUMP JUMPDEST PUSH1 0x0 DUP4 DUP2 MSTORE PUSH1 0x98 PUSH1 0x20 MSTORE PUSH1 0x40 SWAP1 KECCAK256 SLOAD SWAP1 SWAP2 POP DUP1 DUP3 EQ PUSH2 0x2375 JUMPI PUSH1 0x1 PUSH1 0x1 PUSH1 0xA0 SHL SUB DUP5 AND PUSH1 0x0 SWAP1 DUP2 MSTORE PUSH1 0x97 PUSH1 0x20 SWAP1 DUP2 MSTORE PUSH1 0x40 DUP1 DUP4 KECCAK256 DUP6 DUP5 MSTORE DUP3 MSTORE DUP1 DUP4 KECCAK256 SLOAD DUP5 DUP5 MSTORE DUP2 DUP5 KECCAK256 DUP2 SWAP1 SSTORE DUP4 MSTORE PUSH1 0x98 SWAP1 SWAP2 MSTORE SWAP1 KECCAK256 DUP2 SWAP1 SSTORE JUMPDEST POP PUSH1 0x0 SWAP2 DUP3 MSTORE PUSH1 0x98 PUSH1 0x20 SWAP1 DUP2 MSTORE PUSH1 0x40 DUP1 DUP5 KECCAK256 DUP5 SWAP1 SSTORE PUSH1 0x1 PUSH1 0x1 PUSH1 0xA0 SHL SUB SWAP1 SWAP5 AND DUP4 MSTORE PUSH1 0x97 DUP2 MSTORE DUP4 DUP4 KECCAK256 SWAP2 DUP4 MSTORE MSTORE SWAP1 DUP2 KECCAK256 SSTORE JUMP JUMPDEST PUSH1 0x99 SLOAD PUSH1 0x0 SWAP1 PUSH2 0x23BA SWAP1 PUSH1 0x1 SWAP1 PUSH2 0x3208 JUMP JUMPDEST PUSH1 0x0 DUP4 DUP2 MSTORE PUSH1 0x9A PUSH1 0x20 MSTORE PUSH1 0x40 DUP2 KECCAK256 SLOAD PUSH1 0x99 DUP1 SLOAD SWAP4 SWAP5 POP SWAP1 SWAP3 DUP5 SWAP1 DUP2 LT PUSH2 0x23E2 JUMPI PUSH2 0x23E2 PUSH2 0x2EC6 JUMP JUMPDEST SWAP1 PUSH1 0x0 MSTORE PUSH1 0x20 PUSH1 0x0 KECCAK256 ADD SLOAD SWAP1 POP DUP1 PUSH1 0x99 DUP4 DUP2 SLOAD DUP2 LT PUSH2 0x2403 JUMPI PUSH2 0x2403 PUSH2 0x2EC6 JUMP JUMPDEST PUSH1 0x0 SWAP2 DUP3 MSTORE PUSH1 0x20 DUP1 DUP4 KECCAK256 SWAP1 SWAP2 ADD SWAP3 SWAP1 SWAP3 SSTORE DUP3 DUP2 MSTORE PUSH1 0x9A SWAP1 SWAP2 MSTORE PUSH1 0x40 DUP1 DUP3 KECCAK256 DUP5 SWAP1 SSTORE DUP6 DUP3 MSTORE DUP2 KECCAK256 SSTORE PUSH1 0x99 DUP1 SLOAD DUP1 PUSH2 0x243B JUMPI PUSH2 0x243B PUSH2 0x321B JUMP JUMPDEST PUSH1 0x1 SWAP1 SUB DUP2 DUP2 SWAP1 PUSH1 0x0 MSTORE PUSH1 0x20 PUSH1 0x0 KECCAK256 ADD PUSH1 0x0 SWAP1 SSTORE SWAP1 SSTORE POP POP POP POP JUMP JUMPDEST PUSH1 0x0 PUSH2 0x2462 DUP4 PUSH2 0x11CE JUMP JUMPDEST PUSH1 0x1 PUSH1 0x1 PUSH1 0xA0 SHL SUB SWAP1 SWAP4 AND PUSH1 0x0 SWAP1 DUP2 MSTORE PUSH1 0x97 PUSH1 0x20 SWAP1 DUP2 MSTORE PUSH1 0x40 DUP1 DUP4 KECCAK256 DUP7 DUP5 MSTORE DUP3 MSTORE DUP1 DUP4 KECCAK256 DUP6 SWAP1 SSTORE SWAP4 DUP3 MSTORE PUSH1 0x98 SWAP1 MSTORE SWAP2 SWAP1 SWAP2 KECCAK256 SWAP2 SWAP1 SWAP2 SSTORE POP JUMP JUMPDEST PUSH1 0x60 PUSH2 0x6C9 PUSH1 0x1 PUSH1 0x1 PUSH1 0xA0 SHL SUB DUP4 AND PUSH1 0x14 JUMPDEST PUSH1 0x60 PUSH1 0x0 PUSH2 0x24BC DUP4 PUSH1 0x2 PUSH2 0x3231 JUMP JUMPDEST PUSH2 0x24C7 SWAP1 PUSH1 0x2 PUSH2 0x3248 JUMP JUMPDEST PUSH8 0xFFFFFFFFFFFFFFFF DUP2 GT ISZERO PUSH2 0x24DF JUMPI PUSH2 0x24DF PUSH2 0x2B04 JUMP JUMPDEST PUSH1 0x40 MLOAD SWAP1 DUP1 DUP3 MSTORE DUP1 PUSH1 0x1F ADD PUSH1 0x1F NOT AND PUSH1 0x20 ADD DUP3 ADD PUSH1 0x40 MSTORE DUP1 ISZERO PUSH2 0x2509 JUMPI PUSH1 0x20 DUP3 ADD DUP2 DUP1 CALLDATASIZE DUP4 CALLDATACOPY ADD SWAP1 POP JUMPDEST POP SWAP1 POP PUSH1 0x3 PUSH1 0xFC SHL DUP2 PUSH1 0x0 DUP2 MLOAD DUP2 LT PUSH2 0x2524 JUMPI PUSH2 0x2524 PUSH2 0x2EC6 JUMP JUMPDEST PUSH1 0x20 ADD ADD SWAP1 PUSH1 0x1 PUSH1 0x1 PUSH1 0xF8 SHL SUB NOT AND SWAP1 DUP2 PUSH1 0x0 BYTE SWAP1 MSTORE8 POP PUSH1 0xF PUSH1 0xFB SHL DUP2 PUSH1 0x1 DUP2 MLOAD DUP2 LT PUSH2 0x2553 JUMPI PUSH2 0x2553 PUSH2 0x2EC6 JUMP JUMPDEST PUSH1 0x20 ADD ADD SWAP1 PUSH1 0x1 PUSH1 0x1 PUSH1 0xF8 SHL SUB NOT AND SWAP1 DUP2 PUSH1 0x0 BYTE SWAP1 MSTORE8 POP PUSH1 0x0 PUSH2 0x2577 DUP5 PUSH1 0x2 PUSH2 0x3231 JUMP JUMPDEST PUSH2 0x2582 SWAP1 PUSH1 0x1 PUSH2 0x3248 JUMP JUMPDEST SWAP1 POP JUMPDEST PUSH1 0x1 DUP2 GT ISZERO PUSH2 0x25FA JUMPI PUSH16 0x181899199A1A9B1B9C1CB0B131B232B3 PUSH1 0x81 SHL DUP6 PUSH1 0xF AND PUSH1 0x10 DUP2 LT PUSH2 0x25B6 JUMPI PUSH2 0x25B6 PUSH2 0x2EC6 JUMP JUMPDEST BYTE PUSH1 0xF8 SHL DUP3 DUP3 DUP2 MLOAD DUP2 LT PUSH2 0x25CC JUMPI PUSH2 0x25CC PUSH2 0x2EC6 JUMP JUMPDEST PUSH1 0x20 ADD ADD SWAP1 PUSH1 0x1 PUSH1 0x1 PUSH1 0xF8 SHL SUB NOT AND SWAP1 DUP2 PUSH1 0x0 BYTE SWAP1 MSTORE8 POP PUSH1 0x4 SWAP5 SWAP1 SWAP5 SHR SWAP4 PUSH2 0x25F3 DUP2 PUSH2 0x325B JUMP JUMPDEST SWAP1 POP PUSH2 0x2585 JUMP JUMPDEST POP DUP4 ISZERO PUSH2 0x13C9 JUMPI PUSH1 0x40 MLOAD PUSH3 0x461BCD PUSH1 0xE5 SHL DUP2 MSTORE PUSH1 0x20 PUSH1 0x4 DUP3 ADD DUP2 SWAP1 MSTORE PUSH1 0x24 DUP3 ADD MSTORE PUSH32 0x537472696E67733A20686578206C656E67746820696E73756666696369656E74 PUSH1 0x44 DUP3 ADD MSTORE PUSH1 0x64 ADD PUSH2 0x72C JUMP JUMPDEST PUSH2 0x2652 DUP2 PUSH2 0x1EE5 JUMP JUMPDEST PUSH1 0x40 MLOAD PUSH1 0x1 PUSH1 0x1 PUSH1 0xA0 SHL SUB DUP3 AND SWAP1 PUSH32 0xBC7CD75A20EE27FD9ADEBAB32041F755214DBC6BFFA90CC0225B39DA2E5C2D3B SWAP1 PUSH1 0x0 SWAP1 LOG2 POP JUMP JUMPDEST PUSH1 0x60 PUSH2 0x13C9 DUP4 DUP4 PUSH1 0x40 MLOAD DUP1 PUSH1 0x60 ADD PUSH1 0x40 MSTORE DUP1 PUSH1 0x27 DUP2 MSTORE PUSH1 0x20 ADD PUSH2 0x3305 PUSH1 0x27 SWAP2 CODECOPY PUSH2 0x2876 JUMP JUMPDEST PUSH1 0x0 DUP2 DUP4 LT PUSH2 0x26CA JUMPI PUSH1 0x0 DUP3 DUP2 MSTORE PUSH1 0x20 DUP5 SWAP1 MSTORE PUSH1 0x40 SWAP1 KECCAK256 PUSH2 0x13C9 JUMP JUMPDEST PUSH1 0x0 DUP4 DUP2 MSTORE PUSH1 0x20 DUP4 SWAP1 MSTORE PUSH1 0x40 SWAP1 KECCAK256 PUSH2 0x13C9 JUMP JUMPDEST PUSH1 0x1 PUSH1 0x1 PUSH1 0xA0 SHL SUB DUP3 AND PUSH2 0x2733 JUMPI PUSH1 0x40 MLOAD PUSH3 0x461BCD PUSH1 0xE5 SHL DUP2 MSTORE PUSH1 0x20 PUSH1 0x4 DUP3 ADD DUP2 SWAP1 MSTORE PUSH1 0x24 DUP3 ADD MSTORE PUSH32 0x4552433732313A206D696E7420746F20746865207A65726F2061646472657373 PUSH1 0x44 DUP3 ADD MSTORE PUSH1 0x64 ADD PUSH2 0x72C JUMP JUMPDEST PUSH1 0x0 DUP2 DUP2 MSTORE PUSH1 0x67 PUSH1 0x20 MSTORE PUSH1 0x40 SWAP1 KECCAK256 SLOAD PUSH1 0x1 PUSH1 0x1 PUSH1 0xA0 SHL SUB AND ISZERO PUSH2 0x2798 JUMPI PUSH1 0x40 MLOAD PUSH3 0x461BCD PUSH1 0xE5 SHL DUP2 MSTORE PUSH1 0x20 PUSH1 0x4 DUP3 ADD MSTORE PUSH1 0x1C PUSH1 0x24 DUP3 ADD MSTORE PUSH32 0x4552433732313A20746F6B656E20616C7265616479206D696E74656400000000 PUSH1 0x44 DUP3 ADD MSTORE PUSH1 0x64 ADD PUSH2 0x72C JUMP JUMPDEST PUSH2 0x27A6 PUSH1 0x0 DUP4 DUP4 PUSH1 0x1 PUSH2 0x1D58 JUMP JUMPDEST PUSH1 0x0 DUP2 DUP2 MSTORE PUSH1 0x67 PUSH1 0x20 MSTORE PUSH1 0x40 SWAP1 KECCAK256 SLOAD PUSH1 0x1 PUSH1 0x1 PUSH1 0xA0 SHL SUB AND ISZERO PUSH2 0x280B JUMPI PUSH1 0x40 MLOAD PUSH3 0x461BCD PUSH1 0xE5 SHL DUP2 MSTORE PUSH1 0x20 PUSH1 0x4 DUP3 ADD MSTORE PUSH1 0x1C PUSH1 0x24 DUP3 ADD MSTORE PUSH32 0x4552433732313A20746F6B656E20616C7265616479206D696E74656400000000 PUSH1 0x44 DUP3 ADD MSTORE PUSH1 0x64 ADD PUSH2 0x72C JUMP JUMPDEST PUSH1 0x1 PUSH1 0x1 PUSH1 0xA0 SHL SUB DUP3 AND PUSH1 0x0 DUP2 DUP2 MSTORE PUSH1 0x68 PUSH1 0x20 SWAP1 DUP2 MSTORE PUSH1 0x40 DUP1 DUP4 KECCAK256 DUP1 SLOAD PUSH1 0x1 ADD SWAP1 SSTORE DUP5 DUP4 MSTORE PUSH1 0x67 SWAP1 SWAP2 MSTORE DUP1 DUP3 KECCAK256 DUP1 SLOAD PUSH1 0x1 PUSH1 0x1 PUSH1 0xA0 SHL SUB NOT AND DUP5 OR SWAP1 SSTORE MLOAD DUP4 SWAP3 SWAP2 SWAP1 PUSH32 0xDDF252AD1BE2C89B69C2B068FC378DAA952BA7F163C4A11628F55A4DF523B3EF SWAP1 DUP3 SWAP1 LOG4 POP POP JUMP JUMPDEST PUSH1 0x60 PUSH1 0x0 DUP1 DUP6 PUSH1 0x1 PUSH1 0x1 PUSH1 0xA0 SHL SUB AND DUP6 PUSH1 0x40 MLOAD PUSH2 0x2893 SWAP2 SWAP1 PUSH2 0x3272 JUMP JUMPDEST PUSH1 0x0 PUSH1 0x40 MLOAD DUP1 DUP4 SUB DUP2 DUP6 GAS DELEGATECALL SWAP2 POP POP RETURNDATASIZE DUP1 PUSH1 0x0 DUP2 EQ PUSH2 0x28CE JUMPI PUSH1 0x40 MLOAD SWAP2 POP PUSH1 0x1F NOT PUSH1 0x3F RETURNDATASIZE ADD AND DUP3 ADD PUSH1 0x40 MSTORE RETURNDATASIZE DUP3 MSTORE RETURNDATASIZE PUSH1 0x0 PUSH1 0x20 DUP5 ADD RETURNDATACOPY PUSH2 0x28D3 JUMP JUMPDEST PUSH1 0x60 SWAP2 POP JUMPDEST POP SWAP2 POP SWAP2 POP PUSH2 0x28E4 DUP7 DUP4 DUP4 DUP8 PUSH2 0x28EE JUMP JUMPDEST SWAP7 SWAP6 POP POP POP POP POP POP JUMP JUMPDEST PUSH1 0x60 DUP4 ISZERO PUSH2 0x295D JUMPI DUP3 MLOAD PUSH1 0x0 SUB PUSH2 0x2956 JUMPI PUSH1 0x1 PUSH1 0x1 PUSH1 0xA0 SHL SUB DUP6 AND EXTCODESIZE PUSH2 0x2956 JUMPI PUSH1 0x40 MLOAD PUSH3 0x461BCD PUSH1 0xE5 SHL DUP2 MSTORE PUSH1 0x20 PUSH1 0x4 DUP3 ADD MSTORE PUSH1 0x1D PUSH1 0x24 DUP3 ADD MSTORE PUSH32 0x416464726573733A2063616C6C20746F206E6F6E2D636F6E7472616374000000 PUSH1 0x44 DUP3 ADD MSTORE PUSH1 0x64 ADD PUSH2 0x72C JUMP JUMPDEST POP DUP2 PUSH2 0x1649 JUMP JUMPDEST PUSH2 0x1649 DUP4 DUP4 DUP2 MLOAD ISZERO PUSH2 0x2972 JUMPI DUP2 MLOAD DUP1 DUP4 PUSH1 0x20 ADD REVERT JUMPDEST DUP1 PUSH1 0x40 MLOAD PUSH3 0x461BCD PUSH1 0xE5 SHL DUP2 MSTORE PUSH1 0x4 ADD PUSH2 0x72C SWAP2 SWAP1 PUSH2 0x2A28 JUMP JUMPDEST PUSH1 0x1 PUSH1 0x1 PUSH1 0xE0 SHL SUB NOT DUP2 AND DUP2 EQ PUSH2 0xBEE JUMPI PUSH1 0x0 DUP1 REVERT JUMPDEST PUSH1 0x0 PUSH1 0x20 DUP3 DUP5 SUB SLT ISZERO PUSH2 0x29B4 JUMPI PUSH1 0x0 DUP1 REVERT JUMPDEST DUP2 CALLDATALOAD PUSH2 0x13C9 DUP2 PUSH2 0x298C JUMP JUMPDEST PUSH1 0x0 PUSH1 0x20 DUP3 DUP5 SUB SLT ISZERO PUSH2 0x29D1 JUMPI PUSH1 0x0 DUP1 REVERT JUMPDEST POP CALLDATALOAD SWAP2 SWAP1 POP JUMP JUMPDEST PUSH1 0x0 JUMPDEST DUP4 DUP2 LT ISZERO PUSH2 0x29F3 JUMPI DUP2 DUP2 ADD MLOAD DUP4 DUP3 ADD MSTORE PUSH1 0x20 ADD PUSH2 0x29DB JUMP JUMPDEST POP POP PUSH1 0x0 SWAP2 ADD MSTORE JUMP JUMPDEST PUSH1 0x0 DUP2 MLOAD DUP1 DUP5 MSTORE PUSH2 0x2A14 DUP2 PUSH1 0x20 DUP7 ADD PUSH1 0x20 DUP7 ADD PUSH2 0x29D8 JUMP JUMPDEST PUSH1 0x1F ADD PUSH1 0x1F NOT AND SWAP3 SWAP1 SWAP3 ADD PUSH1 0x20 ADD SWAP3 SWAP2 POP POP JUMP JUMPDEST PUSH1 0x20 DUP2 MSTORE PUSH1 0x0 PUSH2 0x13C9 PUSH1 0x20 DUP4 ADD DUP5 PUSH2 0x29FC JUMP JUMPDEST DUP1 CALLDATALOAD PUSH1 0x1 PUSH1 0x1 PUSH1 0xA0 SHL SUB DUP2 AND DUP2 EQ PUSH2 0x2A52 JUMPI PUSH1 0x0 DUP1 REVERT JUMPDEST SWAP2 SWAP1 POP JUMP JUMPDEST PUSH1 0x0 DUP1 PUSH1 0x40 DUP4 DUP6 SUB SLT ISZERO PUSH2 0x2A6A JUMPI PUSH1 0x0 DUP1 REVERT JUMPDEST PUSH2 0x2A73 DUP4 PUSH2 0x2A3B JUMP JUMPDEST SWAP5 PUSH1 0x20 SWAP4 SWAP1 SWAP4 ADD CALLDATALOAD SWAP4 POP POP POP JUMP JUMPDEST PUSH1 0x0 DUP1 PUSH1 0x0 PUSH1 0x60 DUP5 DUP7 SUB SLT ISZERO PUSH2 0x2A96 JUMPI PUSH1 0x0 DUP1 REVERT JUMPDEST PUSH2 0x2A9F DUP5 PUSH2 0x2A3B JUMP JUMPDEST SWAP3 POP PUSH2 0x2AAD PUSH1 0x20 DUP6 ADD PUSH2 0x2A3B JUMP JUMPDEST SWAP2 POP PUSH1 0x40 DUP5 ADD CALLDATALOAD SWAP1 POP SWAP3 POP SWAP3 POP SWAP3 JUMP JUMPDEST PUSH1 0x0 DUP1 PUSH1 0x40 DUP4 DUP6 SUB SLT ISZERO PUSH2 0x2AD0 JUMPI PUSH1 0x0 DUP1 REVERT JUMPDEST DUP3 CALLDATALOAD SWAP2 POP PUSH2 0x2AE0 PUSH1 0x20 DUP5 ADD PUSH2 0x2A3B JUMP JUMPDEST SWAP1 POP SWAP3 POP SWAP3 SWAP1 POP JUMP JUMPDEST PUSH1 0x0 PUSH1 0x20 DUP3 DUP5 SUB SLT ISZERO PUSH2 0x2AFB JUMPI PUSH1 0x0 DUP1 REVERT JUMPDEST PUSH2 0x13C9 DUP3 PUSH2 0x2A3B JUMP JUMPDEST PUSH4 0x4E487B71 PUSH1 0xE0 SHL PUSH1 0x0 MSTORE PUSH1 0x41 PUSH1 0x4 MSTORE PUSH1 0x24 PUSH1 0x0 REVERT JUMPDEST PUSH1 0x0 DUP3 PUSH1 0x1F DUP4 ADD SLT PUSH2 0x2B2B JUMPI PUSH1 0x0 DUP1 REVERT JUMPDEST DUP2 CALLDATALOAD PUSH8 0xFFFFFFFFFFFFFFFF DUP1 DUP3 GT ISZERO PUSH2 0x2B46 JUMPI PUSH2 0x2B46 PUSH2 0x2B04 JUMP JUMPDEST PUSH1 0x40 MLOAD PUSH1 0x1F DUP4 ADD PUSH1 0x1F NOT SWAP1 DUP2 AND PUSH1 0x3F ADD AND DUP2 ADD SWAP1 DUP3 DUP3 GT DUP2 DUP4 LT OR ISZERO PUSH2 0x2B6E JUMPI PUSH2 0x2B6E PUSH2 0x2B04 JUMP JUMPDEST DUP2 PUSH1 0x40 MSTORE DUP4 DUP2 MSTORE DUP7 PUSH1 0x20 DUP6 DUP9 ADD ADD GT ISZERO PUSH2 0x2B87 JUMPI PUSH1 0x0 DUP1 REVERT JUMPDEST DUP4 PUSH1 0x20 DUP8 ADD PUSH1 0x20 DUP4 ADD CALLDATACOPY PUSH1 0x0 PUSH1 0x20 DUP6 DUP4 ADD ADD MSTORE DUP1 SWAP5 POP POP POP POP POP SWAP3 SWAP2 POP POP JUMP JUMPDEST PUSH1 0x0 DUP1 PUSH1 0x40 DUP4 DUP6 SUB SLT ISZERO PUSH2 0x2BBA JUMPI PUSH1 0x0 DUP1 REVERT JUMPDEST DUP3 CALLDATALOAD PUSH8 0xFFFFFFFFFFFFFFFF DUP1 DUP3 GT ISZERO PUSH2 0x2BD2 JUMPI PUSH1 0x0 DUP1 REVERT JUMPDEST PUSH2 0x2BDE DUP7 DUP4 DUP8 ADD PUSH2 0x2B1A JUMP JUMPDEST SWAP4 POP PUSH1 0x20 DUP6 ADD CALLDATALOAD SWAP2 POP DUP1 DUP3 GT ISZERO PUSH2 0x2BF4 JUMPI PUSH1 0x0 DUP1 REVERT JUMPDEST POP PUSH2 0x2C01 DUP6 DUP3 DUP7 ADD PUSH2 0x2B1A JUMP JUMPDEST SWAP2 POP POP SWAP3 POP SWAP3 SWAP1 POP JUMP JUMPDEST PUSH1 0x0 DUP1 PUSH1 0x40 DUP4 DUP6 SUB SLT ISZERO PUSH2 0x2C1E JUMPI PUSH1 0x0 DUP1 REVERT JUMPDEST PUSH2 0x2C27 DUP4 PUSH2 0x2A3B JUMP JUMPDEST SWAP2 POP PUSH1 0x20 DUP4 ADD CALLDATALOAD PUSH8 0xFFFFFFFFFFFFFFFF DUP2 GT ISZERO PUSH2 0x2C43 JUMPI PUSH1 0x0 DUP1 REVERT JUMPDEST PUSH2 0x2C01 DUP6 DUP3 DUP7 ADD PUSH2 0x2B1A JUMP JUMPDEST PUSH1 0x0 DUP1 PUSH1 0x0 DUP1 PUSH1 0x60 DUP6 DUP8 SUB SLT ISZERO PUSH2 0x2C65 JUMPI PUSH1 0x0 DUP1 REVERT JUMPDEST PUSH2 0x2C6E DUP6 PUSH2 0x2A3B JUMP JUMPDEST SWAP4 POP PUSH1 0x20 DUP6 ADD CALLDATALOAD SWAP3 POP PUSH1 0x40 DUP6 ADD CALLDATALOAD PUSH8 0xFFFFFFFFFFFFFFFF DUP1 DUP3 GT ISZERO PUSH2 0x2C92 JUMPI PUSH1 0x0 DUP1 REVERT JUMPDEST DUP2 DUP8 ADD SWAP2 POP DUP8 PUSH1 0x1F DUP4 ADD SLT PUSH2 0x2CA6 JUMPI PUSH1 0x0 DUP1 REVERT JUMPDEST DUP2 CALLDATALOAD DUP2 DUP2 GT ISZERO PUSH2 0x2CB5 JUMPI PUSH1 0x0 DUP1 REVERT JUMPDEST DUP9 PUSH1 0x20 DUP3 PUSH1 0x5 SHL DUP6 ADD ADD GT ISZERO PUSH2 0x2CCA JUMPI PUSH1 0x0 DUP1 REVERT JUMPDEST SWAP6 SWAP9 SWAP5 SWAP8 POP POP PUSH1 0x20 ADD SWAP5 POP POP POP JUMP JUMPDEST PUSH1 0x0 DUP1 PUSH1 0x40 DUP4 DUP6 SUB SLT ISZERO PUSH2 0x2CEC JUMPI PUSH1 0x0 DUP1 REVERT JUMPDEST PUSH2 0x2CF5 DUP4 PUSH2 0x2A3B JUMP JUMPDEST SWAP2 POP PUSH1 0x20 DUP4 ADD CALLDATALOAD DUP1 ISZERO ISZERO DUP2 EQ PUSH2 0x2D0A JUMPI PUSH1 0x0 DUP1 REVERT JUMPDEST DUP1 SWAP2 POP POP SWAP3 POP SWAP3 SWAP1 POP JUMP JUMPDEST PUSH1 0x0 DUP1 PUSH1 0x0 DUP1 PUSH1 0x80 DUP6 DUP8 SUB SLT ISZERO PUSH2 0x2D2B JUMPI PUSH1 0x0 DUP1 REVERT JUMPDEST PUSH2 0x2D34 DUP6 PUSH2 0x2A3B JUMP JUMPDEST SWAP4 POP PUSH2 0x2D42 PUSH1 0x20 DUP7 ADD PUSH2 0x2A3B JUMP JUMPDEST SWAP3 POP PUSH1 0x40 DUP6 ADD CALLDATALOAD SWAP2 POP PUSH1 0x60 DUP6 ADD CALLDATALOAD PUSH8 0xFFFFFFFFFFFFFFFF DUP2 GT ISZERO PUSH2 0x2D65 JUMPI PUSH1 0x0 DUP1 REVERT JUMPDEST PUSH2 0x2D71 DUP8 DUP3 DUP9 ADD PUSH2 0x2B1A JUMP JUMPDEST SWAP2 POP POP SWAP3 SWAP6 SWAP2 SWAP5 POP SWAP3 POP JUMP JUMPDEST PUSH1 0x0 DUP1 PUSH1 0x40 DUP4 DUP6 SUB SLT ISZERO PUSH2 0x2D90 JUMPI PUSH1 0x0 DUP1 REVERT JUMPDEST PUSH2 0x2D99 DUP4 PUSH2 0x2A3B JUMP JUMPDEST SWAP2 POP PUSH2 0x2AE0 PUSH1 0x20 DUP5 ADD PUSH2 0x2A3B JUMP JUMPDEST PUSH1 0x1 DUP2 DUP2 SHR SWAP1 DUP3 AND DUP1 PUSH2 0x2DBB JUMPI PUSH1 0x7F DUP3 AND SWAP2 POP JUMPDEST PUSH1 0x20 DUP3 LT DUP2 SUB PUSH2 0x2DDB JUMPI PUSH4 0x4E487B71 PUSH1 0xE0 SHL PUSH1 0x0 MSTORE PUSH1 0x22 PUSH1 0x4 MSTORE PUSH1 0x24 PUSH1 0x0 REVERT JUMPDEST POP SWAP2 SWAP1 POP JUMP JUMPDEST PUSH1 0x20 DUP1 DUP3 MSTORE PUSH1 0x2D SWAP1 DUP3 ADD MSTORE PUSH32 0x4552433732313A2063616C6C6572206973206E6F7420746F6B656E206F776E65 PUSH1 0x40 DUP3 ADD MSTORE PUSH13 0x1C881BDC88185C1C1C9BDD9959 PUSH1 0x9A SHL PUSH1 0x60 DUP3 ADD MSTORE PUSH1 0x80 ADD SWAP1 JUMP JUMPDEST PUSH1 0x20 DUP1 DUP3 MSTORE PUSH1 0x2C SWAP1 DUP3 ADD MSTORE PUSH32 0x46756E6374696F6E206D7573742062652063616C6C6564207468726F75676820 PUSH1 0x40 DUP3 ADD MSTORE PUSH12 0x19195B1959D85D1958D85B1B PUSH1 0xA2 SHL PUSH1 0x60 DUP3 ADD MSTORE PUSH1 0x80 ADD SWAP1 JUMP JUMPDEST PUSH1 0x20 DUP1 DUP3 MSTORE PUSH1 0x2C SWAP1 DUP3 ADD MSTORE PUSH32 0x46756E6374696F6E206D7573742062652063616C6C6564207468726F75676820 PUSH1 0x40 DUP3 ADD MSTORE PUSH12 0x6163746976652070726F7879 PUSH1 0xA0 SHL PUSH1 0x60 DUP3 ADD MSTORE PUSH1 0x80 ADD SWAP1 JUMP JUMPDEST PUSH4 0x4E487B71 PUSH1 0xE0 SHL PUSH1 0x0 MSTORE PUSH1 0x32 PUSH1 0x4 MSTORE PUSH1 0x24 PUSH1 0x0 REVERT JUMPDEST PUSH1 0x0 DUP4 MLOAD PUSH2 0x2EEE DUP2 DUP5 PUSH1 0x20 DUP9 ADD PUSH2 0x29D8 JUMP JUMPDEST DUP4 MLOAD SWAP1 DUP4 ADD SWAP1 PUSH2 0x2F02 DUP2 DUP4 PUSH1 0x20 DUP9 ADD PUSH2 0x29D8 JUMP JUMPDEST ADD SWAP5 SWAP4 POP POP POP POP JUMP JUMPDEST PUSH1 0x20 DUP1 DUP3 MSTORE PUSH1 0x25 SWAP1 DUP3 ADD MSTORE PUSH32 0x4552433732313A207472616E736665722066726F6D20696E636F727265637420 PUSH1 0x40 DUP3 ADD MSTORE PUSH5 0x37BBB732B9 PUSH1 0xD9 SHL PUSH1 0x60 DUP3 ADD MSTORE PUSH1 0x80 ADD SWAP1 JUMP JUMPDEST PUSH1 0x0 PUSH1 0x20 DUP3 DUP5 SUB SLT ISZERO PUSH2 0x2F62 JUMPI PUSH1 0x0 DUP1 REVERT JUMPDEST POP MLOAD SWAP2 SWAP1 POP JUMP JUMPDEST PUSH1 0x20 DUP1 DUP3 MSTORE PUSH1 0x2B SWAP1 DUP3 ADD MSTORE PUSH32 0x496E697469616C697A61626C653A20636F6E7472616374206973206E6F742069 PUSH1 0x40 DUP3 ADD MSTORE PUSH11 0x6E697469616C697A696E67 PUSH1 0xA8 SHL PUSH1 0x60 DUP3 ADD MSTORE PUSH1 0x80 ADD SWAP1 JUMP JUMPDEST PUSH1 0x20 DUP1 DUP3 MSTORE PUSH1 0x32 SWAP1 DUP3 ADD MSTORE PUSH32 0x4552433732313A207472616E7366657220746F206E6F6E204552433732315265 PUSH1 0x40 DUP3 ADD MSTORE PUSH18 0x31B2B4BB32B91034B6B83632B6B2B73A32B9 PUSH1 0x71 SHL PUSH1 0x60 DUP3 ADD MSTORE PUSH1 0x80 ADD SWAP1 JUMP JUMPDEST PUSH32 0x416363657373436F6E74726F6C3A206163636F756E7420000000000000000000 DUP2 MSTORE PUSH1 0x0 DUP4 MLOAD PUSH2 0x303E DUP2 PUSH1 0x17 DUP6 ADD PUSH1 0x20 DUP9 ADD PUSH2 0x29D8 JUMP JUMPDEST PUSH17 0x1034B99036B4B9B9B4B733903937B6329 PUSH1 0x7D SHL PUSH1 0x17 SWAP2 DUP5 ADD SWAP2 DUP3 ADD MSTORE DUP4 MLOAD PUSH2 0x306F DUP2 PUSH1 0x28 DUP5 ADD PUSH1 0x20 DUP9 ADD PUSH2 0x29D8 JUMP JUMPDEST ADD PUSH1 0x28 ADD SWAP5 SWAP4 POP POP POP POP JUMP JUMPDEST PUSH1 0x1F DUP3 GT ISZERO PUSH2 0x9A3 JUMPI PUSH1 0x0 DUP2 DUP2 MSTORE PUSH1 0x20 DUP2 KECCAK256 PUSH1 0x1F DUP6 ADD PUSH1 0x5 SHR DUP2 ADD PUSH1 0x20 DUP7 LT ISZERO PUSH2 0x30A2 JUMPI POP DUP1 JUMPDEST PUSH1 0x1F DUP6 ADD PUSH1 0x5 SHR DUP3 ADD SWAP2 POP JUMPDEST DUP2 DUP2 LT ISZERO PUSH2 0x30C1 JUMPI DUP3 DUP2 SSTORE PUSH1 0x1 ADD PUSH2 0x30AE JUMP JUMPDEST POP POP POP POP POP POP JUMP JUMPDEST DUP2 MLOAD PUSH8 0xFFFFFFFFFFFFFFFF DUP2 GT ISZERO PUSH2 0x30E3 JUMPI PUSH2 0x30E3 PUSH2 0x2B04 JUMP JUMPDEST PUSH2 0x30F7 DUP2 PUSH2 0x30F1 DUP5 SLOAD PUSH2 0x2DA7 JUMP JUMPDEST DUP5 PUSH2 0x307B JUMP JUMPDEST PUSH1 0x20 DUP1 PUSH1 0x1F DUP4 GT PUSH1 0x1 DUP2 EQ PUSH2 0x312C JUMPI PUSH1 0x0 DUP5 ISZERO PUSH2 0x3114 JUMPI POP DUP6 DUP4 ADD MLOAD JUMPDEST PUSH1 0x0 NOT PUSH1 0x3 DUP7 SWAP1 SHL SHR NOT AND PUSH1 0x1 DUP6 SWAP1 SHL OR DUP6 SSTORE PUSH2 0x30C1 JUMP JUMPDEST PUSH1 0x0 DUP6 DUP2 MSTORE PUSH1 0x20 DUP2 KECCAK256 PUSH1 0x1F NOT DUP7 AND SWAP2 JUMPDEST DUP3 DUP2 LT ISZERO PUSH2 0x315B JUMPI DUP9 DUP7 ADD MLOAD DUP3 SSTORE SWAP5 DUP5 ADD SWAP5 PUSH1 0x1 SWAP1 SWAP2 ADD SWAP1 DUP5 ADD PUSH2 0x313C JUMP JUMPDEST POP DUP6 DUP3 LT ISZERO PUSH2 0x3179 JUMPI DUP8 DUP6 ADD MLOAD PUSH1 0x0 NOT PUSH1 0x3 DUP9 SWAP1 SHL PUSH1 0xF8 AND SHR NOT AND DUP2 SSTORE JUMPDEST POP POP POP POP POP PUSH1 0x1 SWAP1 DUP2 SHL ADD SWAP1 SSTORE POP JUMP JUMPDEST PUSH4 0x4E487B71 PUSH1 0xE0 SHL PUSH1 0x0 MSTORE PUSH1 0x11 PUSH1 0x4 MSTORE PUSH1 0x24 PUSH1 0x0 REVERT JUMPDEST PUSH1 0x0 PUSH1 0x1 DUP3 ADD PUSH2 0x31B1 JUMPI PUSH2 0x31B1 PUSH2 0x3189 JUMP JUMPDEST POP PUSH1 0x1 ADD SWAP1 JUMP JUMPDEST PUSH1 0x1 PUSH1 0x1 PUSH1 0xA0 SHL SUB DUP6 DUP2 AND DUP3 MSTORE DUP5 AND PUSH1 0x20 DUP3 ADD MSTORE PUSH1 0x40 DUP2 ADD DUP4 SWAP1 MSTORE PUSH1 0x80 PUSH1 0x60 DUP3 ADD DUP2 SWAP1 MSTORE PUSH1 0x0 SWAP1 PUSH2 0x28E4 SWAP1 DUP4 ADD DUP5 PUSH2 0x29FC JUMP JUMPDEST PUSH1 0x0 PUSH1 0x20 DUP3 DUP5 SUB SLT ISZERO PUSH2 0x31FD JUMPI PUSH1 0x0 DUP1 REVERT JUMPDEST DUP2 MLOAD PUSH2 0x13C9 DUP2 PUSH2 0x298C JUMP JUMPDEST DUP2 DUP2 SUB DUP2 DUP2 GT ISZERO PUSH2 0x6C9 JUMPI PUSH2 0x6C9 PUSH2 0x3189 JUMP JUMPDEST PUSH4 0x4E487B71 PUSH1 0xE0 SHL PUSH1 0x0 MSTORE PUSH1 0x31 PUSH1 0x4 MSTORE PUSH1 0x24 PUSH1 0x0 REVERT JUMPDEST DUP1 DUP3 MUL DUP2 ISZERO DUP3 DUP3 DIV DUP5 EQ OR PUSH2 0x6C9 JUMPI PUSH2 0x6C9 PUSH2 0x3189 JUMP JUMPDEST DUP1 DUP3 ADD DUP1 DUP3 GT ISZERO PUSH2 0x6C9 JUMPI PUSH2 0x6C9 PUSH2 0x3189 JUMP JUMPDEST PUSH1 0x0 DUP2 PUSH2 0x326A JUMPI PUSH2 0x326A PUSH2 0x3189 JUMP JUMPDEST POP PUSH1 0x0 NOT ADD SWAP1 JUMP JUMPDEST PUSH1 0x0 DUP3 MLOAD PUSH2 0x3284 DUP2 DUP5 PUSH1 0x20 DUP8 ADD PUSH2 0x29D8 JUMP JUMPDEST SWAP2 SWAP1 SWAP2 ADD SWAP3 SWAP2 POP POP JUMP INVALID PUSH10 0x7066733A2F2F516D5457 PUSH23 0x6D35357A6E5458364E6D676F706455704A5838434A734E PUSH27 0x68474A5934624A566D4D766F4A503568412F360894A13BA1A32106 PUSH8 0xC828492DB98DCA3E KECCAK256 PUSH23 0xCC3735A920A3CA505D382BBC65D7A28E3265B37A647492 SWAP16 CALLER PUSH6 0x21B332C1681B SWAP4 EXTCODEHASH PUSH13 0xB9F3376673440D862A41646472 PUSH6 0x73733A206C6F PUSH24 0x2D6C6576656C2064656C65676174652063616C6C20666169 PUSH13 0x6564A26469706673582212203A SWAP4 0xC6 CALLDATACOPY LOG0 PUSH31 0xBF683973F9CBA61E02FCC06B4B2F1E4B0F07B000AE115BDB52C864736F6C63 NUMBER STOP ADDMOD SGT STOP CALLER "},"methodIdentifiers":{"DEFAULT_ADMIN_ROLE()":"a217fddf","MINTER_ROLE()":"d5391393","PAUSER_ROLE()":"e63ab1e9","approve(address,uint256)":"095ea7b3","balanceOf(address)":"70a08231","burn(uint256)":"42966c68","buyBack(uint256)":"053f9040","getApproved(uint256)":"081812fc","getRoleAdmin(bytes32)":"248a9ca3","grantRole(bytes32,address)":"2f2ff15d","hasRole(bytes32,address)":"91d14854","initialize(string,string)":"4cd88b76","isApprovedForAll(address,address)":"e985e9c5","name()":"06fdde03","ownerOf(uint256)":"6352211e","pause()":"8456cb59","paused()":"5c975abb","proxiableUUID()":"52d1902d","renounceRole(bytes32,address)":"36568abe","revokeRole(bytes32,address)":"d547741f","root()":"ebf0c717","safeMint(address,uint256)":"a1448194","safeMintWhiteList(address,uint256,bytes32[])":"662c2d96","safeTransferFrom(address,address,uint256)":"42842e0e","safeTransferFrom(address,address,uint256,bytes)":"b88d4fde","setApprovalForAll(address,bool)":"a22cb465","supportsInterface(bytes4)":"01ffc9a7","symbol()":"95d89b41","tokenByIndex(uint256)":"4f6ccce7","tokenOfOwnerByIndex(address,uint256)":"2f745c59","tokenURI(uint256)":"c87b56dd","totalSupply()":"18160ddd","transferFrom(address,address,uint256)":"23b872dd","unpause()":"3f4ba83a","upgradeTo(address)":"3659cfe6","upgradeToAndCall(address,bytes)":"4f1ef286"}},"storageLayout":{"storage":[{"astId":912,"contract":"contracts/CuyCollectionNft.sol:CuyCollectionNft","label":"_initialized","offset":0,"slot":"0","type":"t_uint8"},{"astId":915,"contract":"contracts/CuyCollectionNft.sol:CuyCollectionNft","label":"_initializing","offset":1,"slot":"0","type":"t_bool"},{"astId":4001,"contract":"contracts/CuyCollectionNft.sol:CuyCollectionNft","label":"__gap","offset":0,"slot":"1","type":"t_array(t_uint256)50_storage"},{"astId":4384,"contract":"contracts/CuyCollectionNft.sol:CuyCollectionNft","label":"__gap","offset":0,"slot":"51","type":"t_array(t_uint256)50_storage"},{"astId":2141,"contract":"contracts/CuyCollectionNft.sol:CuyCollectionNft","label":"_name","offset":0,"slot":"101","type":"t_string_storage"},{"astId":2143,"contract":"contracts/CuyCollectionNft.sol:CuyCollectionNft","label":"_symbol","offset":0,"slot":"102","type":"t_string_storage"},{"astId":2147,"contract":"contracts/CuyCollectionNft.sol:CuyCollectionNft","label":"_owners","offset":0,"slot":"103","type":"t_mapping(t_uint256,t_address)"},{"astId":2151,"contract":"contracts/CuyCollectionNft.sol:CuyCollectionNft","label":"_balances","offset":0,"slot":"104","type":"t_mapping(t_address,t_uint256)"},{"astId":2155,"contract":"contracts/CuyCollectionNft.sol:CuyCollectionNft","label":"_tokenApprovals","offset":0,"slot":"105","type":"t_mapping(t_uint256,t_address)"},{"astId":2161,"contract":"contracts/CuyCollectionNft.sol:CuyCollectionNft","label":"_operatorApprovals","offset":0,"slot":"106","type":"t_mapping(t_address,t_mapping(t_address,t_bool))"},{"astId":3063,"contract":"contracts/CuyCollectionNft.sol:CuyCollectionNft","label":"__gap","offset":0,"slot":"107","type":"t_array(t_uint256)44_storage"},{"astId":3228,"contract":"contracts/CuyCollectionNft.sol:CuyCollectionNft","label":"_ownedTokens","offset":0,"slot":"151","type":"t_mapping(t_address,t_mapping(t_uint256,t_uint256))"},{"astId":3232,"contract":"contracts/CuyCollectionNft.sol:CuyCollectionNft","label":"_ownedTokensIndex","offset":0,"slot":"152","type":"t_mapping(t_uint256,t_uint256)"},{"astId":3235,"contract":"contracts/CuyCollectionNft.sol:CuyCollectionNft","label":"_allTokens","offset":0,"slot":"153","type":"t_array(t_uint256)dyn_storage"},{"astId":3239,"contract":"contracts/CuyCollectionNft.sol:CuyCollectionNft","label":"_allTokensIndex","offset":0,"slot":"154","type":"t_mapping(t_uint256,t_uint256)"},{"astId":3571,"contract":"contracts/CuyCollectionNft.sol:CuyCollectionNft","label":"__gap","offset":0,"slot":"155","type":"t_array(t_uint256)46_storage"},{"astId":1231,"contract":"contracts/CuyCollectionNft.sol:CuyCollectionNft","label":"_paused","offset":0,"slot":"201","type":"t_bool"},{"astId":1336,"contract":"contracts/CuyCollectionNft.sol:CuyCollectionNft","label":"__gap","offset":0,"slot":"202","type":"t_array(t_uint256)49_storage"},{"astId":39,"contract":"contracts/CuyCollectionNft.sol:CuyCollectionNft","label":"_roles","offset":0,"slot":"251","type":"t_mapping(t_bytes32,t_struct(RoleData)34_storage)"},{"astId":334,"contract":"contracts/CuyCollectionNft.sol:CuyCollectionNft","label":"__gap","offset":0,"slot":"252","type":"t_array(t_uint256)49_storage"},{"astId":894,"contract":"contracts/CuyCollectionNft.sol:CuyCollectionNft","label":"__gap","offset":0,"slot":"301","type":"t_array(t_uint256)50_storage"},{"astId":1209,"contract":"contracts/CuyCollectionNft.sol:CuyCollectionNft","label":"__gap","offset":0,"slot":"351","type":"t_array(t_uint256)50_storage"},{"astId":6134,"contract":"contracts/CuyCollectionNft.sol:CuyCollectionNft","label":"_tokenIdCounter","offset":0,"slot":"401","type":"t_struct(Counter)5374_storage"},{"astId":6146,"contract":"contracts/CuyCollectionNft.sol:CuyCollectionNft","label":"root","offset":0,"slot":"402","type":"t_bytes32"}],"types":{"t_address":{"encoding":"inplace","label":"address","numberOfBytes":"20"},"t_array(t_uint256)44_storage":{"base":"t_uint256","encoding":"inplace","label":"uint256[44]","numberOfBytes":"1408"},"t_array(t_uint256)46_storage":{"base":"t_uint256","encoding":"inplace","label":"uint256[46]","numberOfBytes":"1472"},"t_array(t_uint256)49_storage":{"base":"t_uint256","encoding":"inplace","label":"uint256[49]","numberOfBytes":"1568"},"t_array(t_uint256)50_storage":{"base":"t_uint256","encoding":"inplace","label":"uint256[50]","numberOfBytes":"1600"},"t_array(t_uint256)dyn_storage":{"base":"t_uint256","encoding":"dynamic_array","label":"uint256[]","numberOfBytes":"32"},"t_bool":{"encoding":"inplace","label":"bool","numberOfBytes":"1"},"t_bytes32":{"encoding":"inplace","label":"bytes32","numberOfBytes":"32"},"t_mapping(t_address,t_bool)":{"encoding":"mapping","key":"t_address","label":"mapping(address => bool)","numberOfBytes":"32","value":"t_bool"},"t_mapping(t_address,t_mapping(t_address,t_bool))":{"encoding":"mapping","key":"t_address","label":"mapping(address => mapping(address => bool))","numberOfBytes":"32","value":"t_mapping(t_address,t_bool)"},"t_mapping(t_address,t_mapping(t_uint256,t_uint256))":{"encoding":"mapping","key":"t_address","label":"mapping(address => mapping(uint256 => uint256))","numberOfBytes":"32","value":"t_mapping(t_uint256,t_uint256)"},"t_mapping(t_address,t_uint256)":{"encoding":"mapping","key":"t_address","label":"mapping(address => uint256)","numberOfBytes":"32","value":"t_uint256"},"t_mapping(t_bytes32,t_struct(RoleData)34_storage)":{"encoding":"mapping","key":"t_bytes32","label":"mapping(bytes32 => struct AccessControlUpgradeable.RoleData)","numberOfBytes":"32","value":"t_struct(RoleData)34_storage"},"t_mapping(t_uint256,t_address)":{"encoding":"mapping","key":"t_uint256","label":"mapping(uint256 => address)","numberOfBytes":"32","value":"t_address"},"t_mapping(t_uint256,t_uint256)":{"encoding":"mapping","key":"t_uint256","label":"mapping(uint256 => uint256)","numberOfBytes":"32","value":"t_uint256"},"t_string_storage":{"encoding":"bytes","label":"string","numberOfBytes":"32"},"t_struct(Counter)5374_storage":{"encoding":"inplace","label":"struct Counters.Counter","members":[{"astId":5373,"contract":"contracts/CuyCollectionNft.sol:CuyCollectionNft","label":"_value","offset":0,"slot":"0","type":"t_uint256"}],"numberOfBytes":"32"},"t_struct(RoleData)34_storage":{"encoding":"inplace","label":"struct AccessControlUpgradeable.RoleData","members":[{"astId":31,"contract":"contracts/CuyCollectionNft.sol:CuyCollectionNft","label":"members","offset":0,"slot":"0","type":"t_mapping(t_address,t_bool)"},{"astId":33,"contract":"contracts/CuyCollectionNft.sol:CuyCollectionNft","label":"adminRole","offset":0,"slot":"1","type":"t_bytes32"}],"numberOfBytes":"64"},"t_uint256":{"encoding":"inplace","label":"uint256","numberOfBytes":"32"},"t_uint8":{"encoding":"inplace","label":"uint8","numberOfBytes":"1"}}}}}}