{"contracts/CuyCollectionNft.sol":{"CuyCollectionNft":{"abi":[{"inputs":[{"internalType":"string","name":"_name","type":"string"},{"internalType":"string","name":"_symbol","type":"string"},{"internalType":"address","name":"_bbtknContract","type":"address"}],"stateMutability":"nonpayable","type":"constructor"},{"anonymous":false,"inputs":[{"indexed":true,"internalType":"address","name":"owner","type":"address"},{"indexed":true,"internalType":"address","name":"approved","type":"address"},{"indexed":true,"internalType":"uint256","name":"tokenId","type":"uint256"}],"name":"Approval","type":"event"},{"anonymous":false,"inputs":[{"indexed":true,"internalType":"address","name":"owner","type":"address"},{"indexed":true,"internalType":"address","name":"operator","type":"address"},{"indexed":false,"internalType":"bool","name":"approved","type":"bool"}],"name":"ApprovalForAll","type":"event"},{"anonymous":false,"inputs":[{"indexed":false,"internalType":"address","name":"account","type":"address"},{"indexed":false,"internalType":"uint256","name":"id","type":"uint256"}],"name":"Burn","type":"event"},{"anonymous":false,"inputs":[{"indexed":false,"internalType":"address","name":"account","type":"address"}],"name":"Paused","type":"event"},{"anonymous":false,"inputs":[{"indexed":true,"internalType":"bytes32","name":"role","type":"bytes32"},{"indexed":true,"internalType":"bytes32","name":"previousAdminRole","type":"bytes32"},{"indexed":true,"internalType":"bytes32","name":"newAdminRole","type":"bytes32"}],"name":"RoleAdminChanged","type":"event"},{"anonymous":false,"inputs":[{"indexed":true,"internalType":"bytes32","name":"role","type":"bytes32"},{"indexed":true,"internalType":"address","name":"account","type":"address"},{"indexed":true,"internalType":"address","name":"sender","type":"address"}],"name":"RoleGranted","type":"event"},{"anonymous":false,"inputs":[{"indexed":true,"internalType":"bytes32","name":"role","type":"bytes32"},{"indexed":true,"internalType":"address","name":"account","type":"address"},{"indexed":true,"internalType":"address","name":"sender","type":"address"}],"name":"RoleRevoked","type":"event"},{"anonymous":false,"inputs":[{"indexed":true,"internalType":"address","name":"from","type":"address"},{"indexed":true,"internalType":"address","name":"to","type":"address"},{"indexed":true,"internalType":"uint256","name":"tokenId","type":"uint256"}],"name":"Transfer","type":"event"},{"anonymous":false,"inputs":[{"indexed":false,"internalType":"address","name":"account","type":"address"}],"name":"Unpaused","type":"event"},{"inputs":[],"name":"DEFAULT_ADMIN_ROLE","outputs":[{"internalType":"bytes32","name":"","type":"bytes32"}],"stateMutability":"view","type":"function"},{"inputs":[],"name":"MINTER_ROLE","outputs":[{"internalType":"bytes32","name":"","type":"bytes32"}],"stateMutability":"view","type":"function"},{"inputs":[],"name":"PAUSER_ROLE","outputs":[{"internalType":"bytes32","name":"","type":"bytes32"}],"stateMutability":"view","type":"function"},{"inputs":[{"internalType":"address","name":"to","type":"address"},{"internalType":"uint256","name":"tokenId","type":"uint256"}],"name":"approve","outputs":[],"stateMutability":"nonpayable","type":"function"},{"inputs":[{"internalType":"address","name":"owner","type":"address"}],"name":"balanceOf","outputs":[{"internalType":"uint256","name":"","type":"uint256"}],"stateMutability":"view","type":"function"},{"inputs":[],"name":"bbtknContract","outputs":[{"internalType":"contract BBTKN","name":"","type":"address"}],"stateMutability":"view","type":"function"},{"inputs":[{"internalType":"uint256","name":"tokenId","type":"uint256"}],"name":"burn","outputs":[],"stateMutability":"nonpayable","type":"function"},{"inputs":[{"internalType":"uint256","name":"id","type":"uint256"}],"name":"buyBack","outputs":[],"stateMutability":"nonpayable","type":"function"},{"inputs":[{"internalType":"uint256","name":"tokenId","type":"uint256"}],"name":"getApproved","outputs":[{"internalType":"address","name":"","type":"address"}],"stateMutability":"view","type":"function"},{"inputs":[{"internalType":"bytes32","name":"role","type":"bytes32"}],"name":"getRoleAdmin","outputs":[{"internalType":"bytes32","name":"","type":"bytes32"}],"stateMutability":"view","type":"function"},{"inputs":[{"internalType":"bytes32","name":"role","type":"bytes32"},{"internalType":"address","name":"account","type":"address"}],"name":"grantRole","outputs":[],"stateMutability":"nonpayable","type":"function"},{"inputs":[{"internalType":"bytes32","name":"role","type":"bytes32"},{"internalType":"address","name":"account","type":"address"}],"name":"hasRole","outputs":[{"internalType":"bool","name":"","type":"bool"}],"stateMutability":"view","type":"function"},{"inputs":[{"internalType":"address","name":"owner","type":"address"},{"internalType":"address","name":"operator","type":"address"}],"name":"isApprovedForAll","outputs":[{"internalType":"bool","name":"","type":"bool"}],"stateMutability":"view","type":"function"},{"inputs":[],"name":"name","outputs":[{"internalType":"string","name":"","type":"string"}],"stateMutability":"view","type":"function"},{"inputs":[{"internalType":"uint256","name":"tokenId","type":"uint256"}],"name":"ownerOf","outputs":[{"internalType":"address","name":"","type":"address"}],"stateMutability":"view","type":"function"},{"inputs":[],"name":"pause","outputs":[],"stateMutability":"nonpayable","type":"function"},{"inputs":[],"name":"paused","outputs":[{"internalType":"bool","name":"","type":"bool"}],"stateMutability":"view","type":"function"},{"inputs":[{"internalType":"bytes32","name":"role","type":"bytes32"},{"internalType":"address","name":"account","type":"address"}],"name":"renounceRole","outputs":[],"stateMutability":"nonpayable","type":"function"},{"inputs":[{"internalType":"bytes32","name":"role","type":"bytes32"},{"internalType":"address","name":"account","type":"address"}],"name":"revokeRole","outputs":[],"stateMutability":"nonpayable","type":"function"},{"inputs":[],"name":"root","outputs":[{"internalType":"bytes32","name":"","type":"bytes32"}],"stateMutability":"view","type":"function"},{"inputs":[{"internalType":"address","name":"to","type":"address"},{"internalType":"uint256","name":"tokenId","type":"uint256"}],"name":"safeMint","outputs":[],"stateMutability":"nonpayable","type":"function"},{"inputs":[{"internalType":"address","name":"to","type":"address"},{"internalType":"uint256","name":"tokenId","type":"uint256"},{"internalType":"bytes32[]","name":"proofs","type":"bytes32[]"}],"name":"safeMintWhiteList","outputs":[],"stateMutability":"nonpayable","type":"function"},{"inputs":[{"internalType":"address","name":"from","type":"address"},{"internalType":"address","name":"to","type":"address"},{"internalType":"uint256","name":"tokenId","type":"uint256"}],"name":"safeTransferFrom","outputs":[],"stateMutability":"nonpayable","type":"function"},{"inputs":[{"internalType":"address","name":"from","type":"address"},{"internalType":"address","name":"to","type":"address"},{"internalType":"uint256","name":"tokenId","type":"uint256"},{"internalType":"bytes","name":"data","type":"bytes"}],"name":"safeTransferFrom","outputs":[],"stateMutability":"nonpayable","type":"function"},{"inputs":[{"internalType":"address","name":"operator","type":"address"},{"internalType":"bool","name":"approved","type":"bool"}],"name":"setApprovalForAll","outputs":[],"stateMutability":"nonpayable","type":"function"},{"inputs":[{"internalType":"bytes4","name":"interfaceId","type":"bytes4"}],"name":"supportsInterface","outputs":[{"internalType":"bool","name":"","type":"bool"}],"stateMutability":"view","type":"function"},{"inputs":[],"name":"symbol","outputs":[{"internalType":"string","name":"","type":"string"}],"stateMutability":"view","type":"function"},{"inputs":[{"internalType":"uint256","name":"tokenId","type":"uint256"}],"name":"tokenURI","outputs":[{"internalType":"string","name":"","type":"string"}],"stateMutability":"view","type":"function"},{"inputs":[{"internalType":"address","name":"from","type":"address"},{"internalType":"address","name":"to","type":"address"},{"internalType":"uint256","name":"tokenId","type":"uint256"}],"name":"transferFrom","outputs":[],"stateMutability":"nonpayable","type":"function"},{"inputs":[],"name":"unpause","outputs":[],"stateMutability":"nonpayable","type":"function"}],"evm":{"bytecode":{"linkReferences":{},"object":"60806040523480156200001157600080fd5b50604051620025d4380380620025d4833981016040819052620000349162000258565b8282600062000044838262000374565b50600162000053828262000374565b50506006805460ff19169055506200006d600033620000ee565b620000997f65d7a28e3265b37a6474929f336521b332c1681b933f6cb9f3376673440d862a33620000ee565b620000c57f9f2df0fed2c77648de5860a4cc508cd0818c85b8b8a1ab4ceeef8d981c8956a633620000ee565b600980546001600160a01b0319166001600160a01b039290921691909117905550620004409050565b60008281526007602090815260408083206001600160a01b038516845290915290205460ff166200018f5760008281526007602090815260408083206001600160a01b03851684529091529020805460ff191660011790556200014e3390565b6001600160a01b0316816001600160a01b0316837f2f8788117e7eff1d82e926ec794901d17c78024a50270940304540a733656f0d60405160405180910390a45b5050565b634e487b7160e01b600052604160045260246000fd5b600082601f830112620001bb57600080fd5b81516001600160401b0380821115620001d857620001d862000193565b604051601f8301601f19908116603f0116810190828211818310171562000203576200020362000193565b816040528381526020925086838588010111156200022057600080fd5b600091505b8382101562000244578582018301518183018401529082019062000225565b600093810190920192909252949350505050565b6000806000606084860312156200026e57600080fd5b83516001600160401b03808211156200028657600080fd5b6200029487838801620001a9565b94506020860151915080821115620002ab57600080fd5b50620002ba86828701620001a9565b604086015190935090506001600160a01b0381168114620002da57600080fd5b809150509250925092565b600181811c90821680620002fa57607f821691505b6020821081036200031b57634e487b7160e01b600052602260045260246000fd5b50919050565b601f8211156200036f57600081815260208120601f850160051c810160208610156200034a5750805b601f850160051c820191505b818110156200036b5782815560010162000356565b5050505b505050565b81516001600160401b0381111562000390576200039062000193565b620003a881620003a18454620002e5565b8462000321565b602080601f831160018114620003e05760008415620003c75750858301515b600019600386901b1c1916600185901b1785556200036b565b600085815260208120601f198616915b828110156200041157888601518255948401946001909101908401620003f0565b5085821015620004305787850151600019600388901b60f8161c191681555b5050505050600190811b01905550565b61218480620004506000396000f3fe608060405234801561001057600080fd5b50600436106101da5760003560e01c8063662c2d9611610104578063a22cb465116100a2578063d547741f11610071578063d547741f146103fc578063e63ab1e91461040f578063e985e9c514610436578063ebf0c7171461047257600080fd5b8063a22cb4651461039c578063b88d4fde146103af578063c87b56dd146103c2578063d5391393146103d557600080fd5b806391d14854116100de57806391d148541461036657806395d89b4114610379578063a144819414610381578063a217fddf1461039457600080fd5b8063662c2d961461033857806370a082311461034b5780638456cb591461035e57600080fd5b80632f2ff15d1161017c57806342966c681161014b57806342966c68146102f45780634d5a9a2c146103075780635c975abb1461031a5780636352211e1461032557600080fd5b80632f2ff15d146102b357806336568abe146102c65780633f4ba83a146102d957806342842e0e146102e157600080fd5b8063081812fc116101b8578063081812fc14610231578063095ea7b31461025c57806323b872dd1461026f578063248a9ca31461028257600080fd5b806301ffc9a7146101df578063053f90401461020757806306fdde031461021c575b600080fd5b6101f26101ed366004611b32565b61047b565b60405190151581526020015b60405180910390f35b61021a610215366004611b4f565b61048c565b005b6102246105fc565b6040516101fe9190611bb8565b61024461023f366004611b4f565b61068e565b6040516001600160a01b0390911681526020016101fe565b61021a61026a366004611be7565b6106b5565b61021a61027d366004611c11565b6107ca565b6102a5610290366004611b4f565b60009081526007602052604090206001015490565b6040519081526020016101fe565b61021a6102c1366004611c4d565b6107fb565b61021a6102d4366004611c4d565b610820565b61021a61089e565b61021a6102ef366004611c11565b6108d3565b61021a610302366004611b4f565b6108ee565b600954610244906001600160a01b031681565b60065460ff166101f2565b610244610333366004611b4f565b610944565b61021a610346366004611c79565b6109a4565b6102a5610359366004611d03565b610b0c565b61021a610b92565b6101f2610374366004611c4d565b610bc4565b610224610bef565b61021a61038f366004611be7565b610bfe565b6102a5600081565b61021a6103aa366004611d1e565b610c84565b61021a6103bd366004611d70565b610c8f565b6102246103d0366004611b4f565b610cc1565b6102a57f9f2df0fed2c77648de5860a4cc508cd0818c85b8b8a1ab4ceeef8d981c8956a681565b61021a61040a366004611c4d565b610d28565b6102a57f65d7a28e3265b37a6474929f336521b332c1681b933f6cb9f3376673440d862a81565b6101f2610444366004611e4c565b6001600160a01b03918216600090815260056020908152604080832093909416825291909152205460ff1690565b6102a560085481565b600061048682610d4d565b92915050565b610494610d72565b6103e881101580156104a857506107cf8111155b6104f25760405162461bcd60e51b8152602060048201526016602482015275496e76616c696420494420666f72206275796261636b60501b60448201526064015b60405180910390fd5b336104fc82610944565b6001600160a01b0316146105525760405162461bcd60e51b815260206004820152601760248201527f596f7520646f206e6f74206f776e2074686973204e465400000000000000000060448201526064016104e9565b61055b81610dba565b60408051338152602081018390527fcc16f5dbb4873280815c1ee09dbd06736cffcc184412cf7a71a0fdb75d397ca5910160405180910390a16009546040516340c10f1960e01b815233600482015261271060248201526001600160a01b03909116906340c10f1990604401600060405180830381600087803b1580156105e157600080fd5b505af11580156105f5573d6000803e3d6000fd5b5050505050565b60606000805461060b90611e76565b80601f016020809104026020016040519081016040528092919081815260200182805461063790611e76565b80156106845780601f1061065957610100808354040283529160200191610684565b820191906000526020600020905b81548152906001019060200180831161066757829003601f168201915b5050505050905090565b600061069982610e4f565b506000908152600460205260409020546001600160a01b031690565b60006106c082610944565b9050806001600160a01b0316836001600160a01b03160361072d5760405162461bcd60e51b815260206004820152602160248201527f4552433732313a20617070726f76616c20746f2063757272656e74206f776e656044820152603960f91b60648201526084016104e9565b336001600160a01b038216148061074957506107498133610444565b6107bb5760405162461bcd60e51b815260206004820152603d60248201527f4552433732313a20617070726f76652063616c6c6572206973206e6f7420746f60448201527f6b656e206f776e6572206f7220617070726f76656420666f7220616c6c00000060648201526084016104e9565b6107c58383610eae565b505050565b6107d43382610f1c565b6107f05760405162461bcd60e51b81526004016104e990611eb0565b6107c5838383610f9b565b600082815260076020526040902060010154610816816110ff565b6107c58383611109565b6001600160a01b03811633146108905760405162461bcd60e51b815260206004820152602f60248201527f416363657373436f6e74726f6c3a2063616e206f6e6c792072656e6f756e636560448201526e103937b632b9903337b91039b2b63360891b60648201526084016104e9565b61089a828261118f565b5050565b7f65d7a28e3265b37a6474929f336521b332c1681b933f6cb9f3376673440d862a6108c8816110ff565b6108d06111f6565b50565b6107c583838360405180602001604052806000815250610c8f565b6108f6610d72565b6109003382610f1c565b61093b5760405162461bcd60e51b815260206004820152600c60248201526b139bdd08185c1c1c9bdd995960a21b60448201526064016104e9565b6108d081610dba565b6000818152600260205260408120546001600160a01b0316806104865760405162461bcd60e51b8152602060048201526018602482015277115490cdcc8c4e881a5b9d985b1a59081d1bdad95b88125160421b60448201526064016104e9565b6109ac610d72565b6103e78311156109f65760405162461bcd60e51b8152602060048201526015602482015274546f6b656e204944206f7574206f662072616e676560581b60448201526064016104e9565b80610a435760405162461bcd60e51b815260206004820152601c60248201527f50726f6f66732061727261792063616e6e6f7420626520656d7074790000000060448201526064016104e9565b610ac0828280806020026020016040519081016040528093929190818152602001838360200280828437600092019190915250506008546040516bffffffffffffffffffffffff1960608b901b16602082015260348101899052909250605401905060405160208183030381529060405280519060200120611248565b610afc5760405162461bcd60e51b815260206004820152600d60248201526c24b73b30b634b210383937b7b360991b60448201526064016104e9565b610b06848461125e565b50505050565b60006001600160a01b038216610b765760405162461bcd60e51b815260206004820152602960248201527f4552433732313a2061646472657373207a65726f206973206e6f7420612076616044820152683634b21037bbb732b960b91b60648201526084016104e9565b506001600160a01b031660009081526003602052604090205490565b7f65d7a28e3265b37a6474929f336521b332c1681b933f6cb9f3376673440d862a610bbc816110ff565b6108d0611278565b60009182526007602090815260408084206001600160a01b0393909316845291905290205460ff1690565b60606001805461060b90611e76565b7f9f2df0fed2c77648de5860a4cc508cd0818c85b8b8a1ab4ceeef8d981c8956a6610c28816110ff565b610c30610d72565b6103e7821115610c7a5760405162461bcd60e51b8152602060048201526015602482015274546f6b656e204944206f7574206f662072616e676560581b60448201526064016104e9565b6107c5838361125e565b61089a3383836112b5565b610c993383610f1c565b610cb55760405162461bcd60e51b81526004016104e990611eb0565b610b0684848484611383565b6060610ccc82610e4f565b6000610cd66113b6565b90506000815111610cf65760405180602001604052806000815250610d21565b80610d00846113d6565b604051602001610d11929190611efd565b6040516020818303038152906040525b9392505050565b600082815260076020526040902060010154610d43816110ff565b6107c5838361118f565b60006001600160e01b03198216637965db0b60e01b1480610486575061048682611469565b60065460ff1615610db85760405162461bcd60e51b815260206004820152601060248201526f14185d5cd8589b194e881c185d5cd95960821b60448201526064016104e9565b565b6000610dc582610944565b9050610dd082610944565b600083815260046020908152604080832080546001600160a01b03199081169091556001600160a01b0385168085526003845282852080546000190190558785526002909352818420805490911690555192935084927fddf252ad1be2c89b69c2b068fc378daa952ba7f163c4a11628f55a4df523b3ef908390a45050565b6000818152600260205260409020546001600160a01b03166108d05760405162461bcd60e51b8152602060048201526018602482015277115490cdcc8c4e881a5b9d985b1a59081d1bdad95b88125160421b60448201526064016104e9565b600081815260046020526040902080546001600160a01b0319166001600160a01b0384169081179091558190610ee382610944565b6001600160a01b03167f8c5be1e5ebec7d5bd14f71427d1e84f3dd0314c0f7b2291e5b200ac8c7c3b92560405160405180910390a45050565b600080610f2883610944565b9050806001600160a01b0316846001600160a01b03161480610f6f57506001600160a01b0380821660009081526005602090815260408083209388168352929052205460ff165b80610f935750836001600160a01b0316610f888461068e565b6001600160a01b0316145b949350505050565b826001600160a01b0316610fae82610944565b6001600160a01b031614610fd45760405162461bcd60e51b81526004016104e990611f2c565b6001600160a01b0382166110365760405162461bcd60e51b8152602060048201526024808201527f4552433732313a207472616e7366657220746f20746865207a65726f206164646044820152637265737360e01b60648201526084016104e9565b826001600160a01b031661104982610944565b6001600160a01b03161461106f5760405162461bcd60e51b81526004016104e990611f2c565b600081815260046020908152604080832080546001600160a01b03199081169091556001600160a01b0387811680865260038552838620805460001901905590871680865283862080546001019055868652600290945282852080549092168417909155905184937fddf252ad1be2c89b69c2b068fc378daa952ba7f163c4a11628f55a4df523b3ef91a4505050565b6108d081336114b9565b6111138282610bc4565b61089a5760008281526007602090815260408083206001600160a01b03851684529091529020805460ff1916600117905561114b3390565b6001600160a01b0316816001600160a01b0316837f2f8788117e7eff1d82e926ec794901d17c78024a50270940304540a733656f0d60405160405180910390a45050565b6111998282610bc4565b1561089a5760008281526007602090815260408083206001600160a01b0385168085529252808320805460ff1916905551339285917ff6391f5c32d9c69d2a47ea670b442974b53935d1edc7fd64eb21e047a839171b9190a45050565b6111fe611512565b6006805460ff191690557f5db9ee0a495bf2e6ff9c91a7834c1ba4fdd244a5e8aa4e537bd38aeae4b073aa335b6040516001600160a01b03909116815260200160405180910390a1565b600082611255858461155b565b14949350505050565b61089a8282604051806020016040528060008152506115a8565b611280610d72565b6006805460ff191660011790557f62e78cea01bee320cd4e420270b5ea74000d11b0c9f74754ebdbfc544b05a25861122b3390565b816001600160a01b0316836001600160a01b0316036113165760405162461bcd60e51b815260206004820152601960248201527f4552433732313a20617070726f766520746f2063616c6c65720000000000000060448201526064016104e9565b6001600160a01b03838116600081815260056020908152604080832094871680845294825291829020805460ff191686151590811790915591519182527f17307eab39ab6107e8899845ad3d59bd9653f200f220920489ca2b5937696c31910160405180910390a3505050565b61138e848484610f9b565b61139a848484846115db565b610b065760405162461bcd60e51b81526004016104e990611f71565b606060405180606001604052806036815260200161211960369139905090565b606060006113e3836116dc565b600101905060008167ffffffffffffffff81111561140357611403611d5a565b6040519080825280601f01601f19166020018201604052801561142d576020820181803683370190505b5090508181016020015b600019016f181899199a1a9b1b9c1cb0b131b232b360811b600a86061a8153600a850494508461143757509392505050565b60006001600160e01b031982166380ac58cd60e01b148061149a57506001600160e01b03198216635b5e139f60e01b145b8061048657506301ffc9a760e01b6001600160e01b0319831614610486565b6114c38282610bc4565b61089a576114d0816117b4565b6114db8360206117c6565b6040516020016114ec929190611fc3565b60408051601f198184030181529082905262461bcd60e51b82526104e991600401611bb8565b60065460ff16610db85760405162461bcd60e51b815260206004820152601460248201527314185d5cd8589b194e881b9bdd081c185d5cd95960621b60448201526064016104e9565b600081815b84518110156115a05761158c8286838151811061157f5761157f612038565b6020026020010151611962565b91508061159881612064565b915050611560565b509392505050565b6115b28383611991565b6115bf60008484846115db565b6107c55760405162461bcd60e51b81526004016104e990611f71565b60006001600160a01b0384163b156116d157604051630a85bd0160e11b81526001600160a01b0385169063150b7a029061161f90339089908890889060040161207d565b6020604051808303816000875af192505050801561165a575060408051601f3d908101601f19168201909252611657918101906120ba565b60015b6116b7573d808015611688576040519150601f19603f3d011682016040523d82523d6000602084013e61168d565b606091505b5080516000036116af5760405162461bcd60e51b81526004016104e990611f71565b805181602001fd5b6001600160e01b031916630a85bd0160e11b149050610f93565b506001949350505050565b60008072184f03e93ff9f4daa797ed6e38ed64bf6a1f0160401b831061171b5772184f03e93ff9f4daa797ed6e38ed64bf6a1f0160401b830492506040015b6d04ee2d6d415b85acef81000000008310611747576d04ee2d6d415b85acef8100000000830492506020015b662386f26fc10000831061176557662386f26fc10000830492506010015b6305f5e100831061177d576305f5e100830492506008015b612710831061179157612710830492506004015b606483106117a3576064830492506002015b600a83106104865760010192915050565b60606104866001600160a01b03831660145b606060006117d58360026120d7565b6117e09060026120ee565b67ffffffffffffffff8111156117f8576117f8611d5a565b6040519080825280601f01601f191660200182016040528015611822576020820181803683370190505b509050600360fc1b8160008151811061183d5761183d612038565b60200101906001600160f81b031916908160001a905350600f60fb1b8160018151811061186c5761186c612038565b60200101906001600160f81b031916908160001a90535060006118908460026120d7565b61189b9060016120ee565b90505b6001811115611913576f181899199a1a9b1b9c1cb0b131b232b360811b85600f16601081106118cf576118cf612038565b1a60f81b8282815181106118e5576118e5612038565b60200101906001600160f81b031916908160001a90535060049490941c9361190c81612101565b905061189e565b508315610d215760405162461bcd60e51b815260206004820181905260248201527f537472696e67733a20686578206c656e67746820696e73756666696369656e7460448201526064016104e9565b600081831061197e576000828152602084905260409020610d21565b6000838152602083905260409020610d21565b6001600160a01b0382166119e75760405162461bcd60e51b815260206004820181905260248201527f4552433732313a206d696e7420746f20746865207a65726f206164647265737360448201526064016104e9565b6000818152600260205260409020546001600160a01b031615611a4c5760405162461bcd60e51b815260206004820152601c60248201527f4552433732313a20746f6b656e20616c7265616479206d696e7465640000000060448201526064016104e9565b6000818152600260205260409020546001600160a01b031615611ab15760405162461bcd60e51b815260206004820152601c60248201527f4552433732313a20746f6b656e20616c7265616479206d696e7465640000000060448201526064016104e9565b6001600160a01b038216600081815260036020908152604080832080546001019055848352600290915280822080546001600160a01b0319168417905551839291907fddf252ad1be2c89b69c2b068fc378daa952ba7f163c4a11628f55a4df523b3ef908290a45050565b6001600160e01b0319811681146108d057600080fd5b600060208284031215611b4457600080fd5b8135610d2181611b1c565b600060208284031215611b6157600080fd5b5035919050565b60005b83811015611b83578181015183820152602001611b6b565b50506000910152565b60008151808452611ba4816020860160208601611b68565b601f01601f19169290920160200192915050565b602081526000610d216020830184611b8c565b80356001600160a01b0381168114611be257600080fd5b919050565b60008060408385031215611bfa57600080fd5b611c0383611bcb565b946020939093013593505050565b600080600060608486031215611c2657600080fd5b611c2f84611bcb565b9250611c3d60208501611bcb565b9150604084013590509250925092565b60008060408385031215611c6057600080fd5b82359150611c7060208401611bcb565b90509250929050565b60008060008060608587031215611c8f57600080fd5b611c9885611bcb565b935060208501359250604085013567ffffffffffffffff80821115611cbc57600080fd5b818701915087601f830112611cd057600080fd5b813581811115611cdf57600080fd5b8860208260051b8501011115611cf457600080fd5b95989497505060200194505050565b600060208284031215611d1557600080fd5b610d2182611bcb565b60008060408385031215611d3157600080fd5b611d3a83611bcb565b915060208301358015158114611d4f57600080fd5b809150509250929050565b634e487b7160e01b600052604160045260246000fd5b60008060008060808587031215611d8657600080fd5b611d8f85611bcb565b9350611d9d60208601611bcb565b925060408501359150606085013567ffffffffffffffff80821115611dc157600080fd5b818701915087601f830112611dd557600080fd5b813581811115611de757611de7611d5a565b604051601f8201601f19908116603f01168101908382118183101715611e0f57611e0f611d5a565b816040528281528a6020848701011115611e2857600080fd5b82602086016020830137600060208483010152809550505050505092959194509250565b60008060408385031215611e5f57600080fd5b611e6883611bcb565b9150611c7060208401611bcb565b600181811c90821680611e8a57607f821691505b602082108103611eaa57634e487b7160e01b600052602260045260246000fd5b50919050565b6020808252602d908201527f4552433732313a2063616c6c6572206973206e6f7420746f6b656e206f776e6560408201526c1c881bdc88185c1c1c9bdd9959609a1b606082015260800190565b60008351611f0f818460208801611b68565b835190830190611f23818360208801611b68565b01949350505050565b60208082526025908201527f4552433732313a207472616e736665722066726f6d20696e636f72726563742060408201526437bbb732b960d91b606082015260800190565b60208082526032908201527f4552433732313a207472616e7366657220746f206e6f6e20455243373231526560408201527131b2b4bb32b91034b6b83632b6b2b73a32b960711b606082015260800190565b7f416363657373436f6e74726f6c3a206163636f756e7420000000000000000000815260008351611ffb816017850160208801611b68565b7001034b99036b4b9b9b4b733903937b6329607d1b601791840191820152835161202c816028840160208801611b68565b01602801949350505050565b634e487b7160e01b600052603260045260246000fd5b634e487b7160e01b600052601160045260246000fd5b6000600182016120765761207661204e565b5060010190565b6001600160a01b03858116825284166020820152604081018390526080606082018190526000906120b090830184611b8c565b9695505050505050565b6000602082840312156120cc57600080fd5b8151610d2181611b1c565b80820281158282048414176104865761048661204e565b808201808211156104865761048661204e565b6000816121105761211061204e565b50600019019056fe697066733a2f2f516d5457766d35357a6e5458364e6d676f706455704a5838434a734e7a68474a5934624a566d4d766f4a503568412fa2646970667358221220b5aa9f9cabb9d01215e21508b4adb8d45b210835b30f8e484e002079b2f095ee64736f6c63430008130033","opcodes":"PUSH1 0x80 PUSH1 0x40 MSTORE CALLVALUE DUP1 ISZERO PUSH3 0x11 JUMPI PUSH1 0x0 DUP1 REVERT JUMPDEST POP PUSH1 0x40 MLOAD PUSH3 0x25D4 CODESIZE SUB DUP1 PUSH3 0x25D4 DUP4 CODECOPY DUP2 ADD PUSH1 0x40 DUP2 SWAP1 MSTORE PUSH3 0x34 SWAP2 PUSH3 0x258 JUMP JUMPDEST DUP3 DUP3 PUSH1 0x0 PUSH3 0x44 DUP4 DUP3 PUSH3 0x374 JUMP JUMPDEST POP PUSH1 0x1 PUSH3 0x53 DUP3 DUP3 PUSH3 0x374 JUMP JUMPDEST POP POP PUSH1 0x6 DUP1 SLOAD PUSH1 0xFF NOT AND SWAP1 SSTORE POP PUSH3 0x6D PUSH1 0x0 CALLER PUSH3 0xEE JUMP JUMPDEST PUSH3 0x99 PUSH32 0x65D7A28E3265B37A6474929F336521B332C1681B933F6CB9F3376673440D862A CALLER PUSH3 0xEE JUMP JUMPDEST PUSH3 0xC5 PUSH32 0x9F2DF0FED2C77648DE5860A4CC508CD0818C85B8B8A1AB4CEEEF8D981C8956A6 CALLER PUSH3 0xEE JUMP JUMPDEST PUSH1 0x9 DUP1 SLOAD PUSH1 0x1 PUSH1 0x1 PUSH1 0xA0 SHL SUB NOT AND PUSH1 0x1 PUSH1 0x1 PUSH1 0xA0 SHL SUB SWAP3 SWAP1 SWAP3 AND SWAP2 SWAP1 SWAP2 OR SWAP1 SSTORE POP PUSH3 0x440 SWAP1 POP JUMP JUMPDEST PUSH1 0x0 DUP3 DUP2 MSTORE PUSH1 0x7 PUSH1 0x20 SWAP1 DUP2 MSTORE PUSH1 0x40 DUP1 DUP4 KECCAK256 PUSH1 0x1 PUSH1 0x1 PUSH1 0xA0 SHL SUB DUP6 AND DUP5 MSTORE SWAP1 SWAP2 MSTORE SWAP1 KECCAK256 SLOAD PUSH1 0xFF AND PUSH3 0x18F JUMPI PUSH1 0x0 DUP3 DUP2 MSTORE PUSH1 0x7 PUSH1 0x20 SWAP1 DUP2 MSTORE PUSH1 0x40 DUP1 DUP4 KECCAK256 PUSH1 0x1 PUSH1 0x1 PUSH1 0xA0 SHL SUB DUP6 AND DUP5 MSTORE SWAP1 SWAP2 MSTORE SWAP1 KECCAK256 DUP1 SLOAD PUSH1 0xFF NOT AND PUSH1 0x1 OR SWAP1 SSTORE PUSH3 0x14E CALLER SWAP1 JUMP JUMPDEST PUSH1 0x1 PUSH1 0x1 PUSH1 0xA0 SHL SUB AND DUP2 PUSH1 0x1 PUSH1 0x1 PUSH1 0xA0 SHL SUB AND DUP4 PUSH32 0x2F8788117E7EFF1D82E926EC794901D17C78024A50270940304540A733656F0D PUSH1 0x40 MLOAD PUSH1 0x40 MLOAD DUP1 SWAP2 SUB SWAP1 LOG4 JUMPDEST POP POP JUMP JUMPDEST PUSH4 0x4E487B71 PUSH1 0xE0 SHL PUSH1 0x0 MSTORE PUSH1 0x41 PUSH1 0x4 MSTORE PUSH1 0x24 PUSH1 0x0 REVERT JUMPDEST PUSH1 0x0 DUP3 PUSH1 0x1F DUP4 ADD SLT PUSH3 0x1BB JUMPI PUSH1 0x0 DUP1 REVERT JUMPDEST DUP2 MLOAD PUSH1 0x1 PUSH1 0x1 PUSH1 0x40 SHL SUB DUP1 DUP3 GT ISZERO PUSH3 0x1D8 JUMPI PUSH3 0x1D8 PUSH3 0x193 JUMP JUMPDEST PUSH1 0x40 MLOAD PUSH1 0x1F DUP4 ADD PUSH1 0x1F NOT SWAP1 DUP2 AND PUSH1 0x3F ADD AND DUP2 ADD SWAP1 DUP3 DUP3 GT DUP2 DUP4 LT OR ISZERO PUSH3 0x203 JUMPI PUSH3 0x203 PUSH3 0x193 JUMP JUMPDEST DUP2 PUSH1 0x40 MSTORE DUP4 DUP2 MSTORE PUSH1 0x20 SWAP3 POP DUP7 DUP4 DUP6 DUP9 ADD ADD GT ISZERO PUSH3 0x220 JUMPI PUSH1 0x0 DUP1 REVERT JUMPDEST PUSH1 0x0 SWAP2 POP JUMPDEST DUP4 DUP3 LT ISZERO PUSH3 0x244 JUMPI DUP6 DUP3 ADD DUP4 ADD MLOAD DUP2 DUP4 ADD DUP5 ADD MSTORE SWAP1 DUP3 ADD SWAP1 PUSH3 0x225 JUMP JUMPDEST PUSH1 0x0 SWAP4 DUP2 ADD SWAP1 SWAP3 ADD SWAP3 SWAP1 SWAP3 MSTORE SWAP5 SWAP4 POP POP POP POP JUMP JUMPDEST PUSH1 0x0 DUP1 PUSH1 0x0 PUSH1 0x60 DUP5 DUP7 SUB SLT ISZERO PUSH3 0x26E JUMPI PUSH1 0x0 DUP1 REVERT JUMPDEST DUP4 MLOAD PUSH1 0x1 PUSH1 0x1 PUSH1 0x40 SHL SUB DUP1 DUP3 GT ISZERO PUSH3 0x286 JUMPI PUSH1 0x0 DUP1 REVERT JUMPDEST PUSH3 0x294 DUP8 DUP4 DUP9 ADD PUSH3 0x1A9 JUMP JUMPDEST SWAP5 POP PUSH1 0x20 DUP7 ADD MLOAD SWAP2 POP DUP1 DUP3 GT ISZERO PUSH3 0x2AB JUMPI PUSH1 0x0 DUP1 REVERT JUMPDEST POP PUSH3 0x2BA DUP7 DUP3 DUP8 ADD PUSH3 0x1A9 JUMP JUMPDEST PUSH1 0x40 DUP7 ADD MLOAD SWAP1 SWAP4 POP SWAP1 POP PUSH1 0x1 PUSH1 0x1 PUSH1 0xA0 SHL SUB DUP2 AND DUP2 EQ PUSH3 0x2DA JUMPI PUSH1 0x0 DUP1 REVERT JUMPDEST DUP1 SWAP2 POP POP SWAP3 POP SWAP3 POP SWAP3 JUMP JUMPDEST PUSH1 0x1 DUP2 DUP2 SHR SWAP1 DUP3 AND DUP1 PUSH3 0x2FA JUMPI PUSH1 0x7F DUP3 AND SWAP2 POP JUMPDEST PUSH1 0x20 DUP3 LT DUP2 SUB PUSH3 0x31B JUMPI PUSH4 0x4E487B71 PUSH1 0xE0 SHL PUSH1 0x0 MSTORE PUSH1 0x22 PUSH1 0x4 MSTORE PUSH1 0x24 PUSH1 0x0 REVERT JUMPDEST POP SWAP2 SWAP1 POP JUMP JUMPDEST PUSH1 0x1F DUP3 GT ISZERO PUSH3 0x36F JUMPI PUSH1 0x0 DUP2 DUP2 MSTORE PUSH1 0x20 DUP2 KECCAK256 PUSH1 0x1F DUP6 ADD PUSH1 0x5 SHR DUP2 ADD PUSH1 0x20 DUP7 LT ISZERO PUSH3 0x34A JUMPI POP DUP1 JUMPDEST PUSH1 0x1F DUP6 ADD PUSH1 0x5 SHR DUP3 ADD SWAP2 POP JUMPDEST DUP2 DUP2 LT ISZERO PUSH3 0x36B JUMPI DUP3 DUP2 SSTORE PUSH1 0x1 ADD PUSH3 0x356 JUMP JUMPDEST POP POP POP JUMPDEST POP POP POP JUMP JUMPDEST DUP2 MLOAD PUSH1 0x1 PUSH1 0x1 PUSH1 0x40 SHL SUB DUP2 GT ISZERO PUSH3 0x390 JUMPI PUSH3 0x390 PUSH3 0x193 JUMP JUMPDEST PUSH3 0x3A8 DUP2 PUSH3 0x3A1 DUP5 SLOAD PUSH3 0x2E5 JUMP JUMPDEST DUP5 PUSH3 0x321 JUMP JUMPDEST PUSH1 0x20 DUP1 PUSH1 0x1F DUP4 GT PUSH1 0x1 DUP2 EQ PUSH3 0x3E0 JUMPI PUSH1 0x0 DUP5 ISZERO PUSH3 0x3C7 JUMPI POP DUP6 DUP4 ADD MLOAD JUMPDEST PUSH1 0x0 NOT PUSH1 0x3 DUP7 SWAP1 SHL SHR NOT AND PUSH1 0x1 DUP6 SWAP1 SHL OR DUP6 SSTORE PUSH3 0x36B JUMP JUMPDEST PUSH1 0x0 DUP6 DUP2 MSTORE PUSH1 0x20 DUP2 KECCAK256 PUSH1 0x1F NOT DUP7 AND SWAP2 JUMPDEST DUP3 DUP2 LT ISZERO PUSH3 0x411 JUMPI DUP9 DUP7 ADD MLOAD DUP3 SSTORE SWAP5 DUP5 ADD SWAP5 PUSH1 0x1 SWAP1 SWAP2 ADD SWAP1 DUP5 ADD PUSH3 0x3F0 JUMP JUMPDEST POP DUP6 DUP3 LT ISZERO PUSH3 0x430 JUMPI DUP8 DUP6 ADD MLOAD PUSH1 0x0 NOT PUSH1 0x3 DUP9 SWAP1 SHL PUSH1 0xF8 AND SHR NOT AND DUP2 SSTORE JUMPDEST POP POP POP POP POP PUSH1 0x1 SWAP1 DUP2 SHL ADD SWAP1 SSTORE POP JUMP JUMPDEST PUSH2 0x2184 DUP1 PUSH3 0x450 PUSH1 0x0 CODECOPY PUSH1 0x0 RETURN INVALID PUSH1 0x80 PUSH1 0x40 MSTORE CALLVALUE DUP1 ISZERO PUSH2 0x10 JUMPI PUSH1 0x0 DUP1 REVERT JUMPDEST POP PUSH1 0x4 CALLDATASIZE LT PUSH2 0x1DA JUMPI PUSH1 0x0 CALLDATALOAD PUSH1 0xE0 SHR DUP1 PUSH4 0x662C2D96 GT PUSH2 0x104 JUMPI DUP1 PUSH4 0xA22CB465 GT PUSH2 0xA2 JUMPI DUP1 PUSH4 0xD547741F GT PUSH2 0x71 JUMPI DUP1 PUSH4 0xD547741F EQ PUSH2 0x3FC JUMPI DUP1 PUSH4 0xE63AB1E9 EQ PUSH2 0x40F JUMPI DUP1 PUSH4 0xE985E9C5 EQ PUSH2 0x436 JUMPI DUP1 PUSH4 0xEBF0C717 EQ PUSH2 0x472 JUMPI PUSH1 0x0 DUP1 REVERT JUMPDEST DUP1 PUSH4 0xA22CB465 EQ PUSH2 0x39C JUMPI DUP1 PUSH4 0xB88D4FDE EQ PUSH2 0x3AF JUMPI DUP1 PUSH4 0xC87B56DD EQ PUSH2 0x3C2 JUMPI DUP1 PUSH4 0xD5391393 EQ PUSH2 0x3D5 JUMPI PUSH1 0x0 DUP1 REVERT JUMPDEST DUP1 PUSH4 0x91D14854 GT PUSH2 0xDE JUMPI DUP1 PUSH4 0x91D14854 EQ PUSH2 0x366 JUMPI DUP1 PUSH4 0x95D89B41 EQ PUSH2 0x379 JUMPI DUP1 PUSH4 0xA1448194 EQ PUSH2 0x381 JUMPI DUP1 PUSH4 0xA217FDDF EQ PUSH2 0x394 JUMPI PUSH1 0x0 DUP1 REVERT JUMPDEST DUP1 PUSH4 0x662C2D96 EQ PUSH2 0x338 JUMPI DUP1 PUSH4 0x70A08231 EQ PUSH2 0x34B JUMPI DUP1 PUSH4 0x8456CB59 EQ PUSH2 0x35E JUMPI PUSH1 0x0 DUP1 REVERT JUMPDEST DUP1 PUSH4 0x2F2FF15D GT PUSH2 0x17C JUMPI DUP1 PUSH4 0x42966C68 GT PUSH2 0x14B JUMPI DUP1 PUSH4 0x42966C68 EQ PUSH2 0x2F4 JUMPI DUP1 PUSH4 0x4D5A9A2C EQ PUSH2 0x307 JUMPI DUP1 PUSH4 0x5C975ABB EQ PUSH2 0x31A JUMPI DUP1 PUSH4 0x6352211E EQ PUSH2 0x325 JUMPI PUSH1 0x0 DUP1 REVERT JUMPDEST DUP1 PUSH4 0x2F2FF15D EQ PUSH2 0x2B3 JUMPI DUP1 PUSH4 0x36568ABE EQ PUSH2 0x2C6 JUMPI DUP1 PUSH4 0x3F4BA83A EQ PUSH2 0x2D9 JUMPI DUP1 PUSH4 0x42842E0E EQ PUSH2 0x2E1 JUMPI PUSH1 0x0 DUP1 REVERT JUMPDEST DUP1 PUSH4 0x81812FC GT PUSH2 0x1B8 JUMPI DUP1 PUSH4 0x81812FC EQ PUSH2 0x231 JUMPI DUP1 PUSH4 0x95EA7B3 EQ PUSH2 0x25C JUMPI DUP1 PUSH4 0x23B872DD EQ PUSH2 0x26F JUMPI DUP1 PUSH4 0x248A9CA3 EQ PUSH2 0x282 JUMPI PUSH1 0x0 DUP1 REVERT JUMPDEST DUP1 PUSH4 0x1FFC9A7 EQ PUSH2 0x1DF JUMPI DUP1 PUSH4 0x53F9040 EQ PUSH2 0x207 JUMPI DUP1 PUSH4 0x6FDDE03 EQ PUSH2 0x21C JUMPI JUMPDEST PUSH1 0x0 DUP1 REVERT JUMPDEST PUSH2 0x1F2 PUSH2 0x1ED CALLDATASIZE PUSH1 0x4 PUSH2 0x1B32 JUMP JUMPDEST PUSH2 0x47B JUMP JUMPDEST PUSH1 0x40 MLOAD SWAP1 ISZERO ISZERO DUP2 MSTORE PUSH1 0x20 ADD JUMPDEST PUSH1 0x40 MLOAD DUP1 SWAP2 SUB SWAP1 RETURN JUMPDEST PUSH2 0x21A PUSH2 0x215 CALLDATASIZE PUSH1 0x4 PUSH2 0x1B4F JUMP JUMPDEST PUSH2 0x48C JUMP JUMPDEST STOP JUMPDEST PUSH2 0x224 PUSH2 0x5FC JUMP JUMPDEST PUSH1 0x40 MLOAD PUSH2 0x1FE SWAP2 SWAP1 PUSH2 0x1BB8 JUMP JUMPDEST PUSH2 0x244 PUSH2 0x23F CALLDATASIZE PUSH1 0x4 PUSH2 0x1B4F JUMP JUMPDEST PUSH2 0x68E JUMP JUMPDEST PUSH1 0x40 MLOAD PUSH1 0x1 PUSH1 0x1 PUSH1 0xA0 SHL SUB SWAP1 SWAP2 AND DUP2 MSTORE PUSH1 0x20 ADD PUSH2 0x1FE JUMP JUMPDEST PUSH2 0x21A PUSH2 0x26A CALLDATASIZE PUSH1 0x4 PUSH2 0x1BE7 JUMP JUMPDEST PUSH2 0x6B5 JUMP JUMPDEST PUSH2 0x21A PUSH2 0x27D CALLDATASIZE PUSH1 0x4 PUSH2 0x1C11 JUMP JUMPDEST PUSH2 0x7CA JUMP JUMPDEST PUSH2 0x2A5 PUSH2 0x290 CALLDATASIZE PUSH1 0x4 PUSH2 0x1B4F JUMP JUMPDEST PUSH1 0x0 SWAP1 DUP2 MSTORE PUSH1 0x7 PUSH1 0x20 MSTORE PUSH1 0x40 SWAP1 KECCAK256 PUSH1 0x1 ADD SLOAD SWAP1 JUMP JUMPDEST PUSH1 0x40 MLOAD SWAP1 DUP2 MSTORE PUSH1 0x20 ADD PUSH2 0x1FE JUMP JUMPDEST PUSH2 0x21A PUSH2 0x2C1 CALLDATASIZE PUSH1 0x4 PUSH2 0x1C4D JUMP JUMPDEST PUSH2 0x7FB JUMP JUMPDEST PUSH2 0x21A PUSH2 0x2D4 CALLDATASIZE PUSH1 0x4 PUSH2 0x1C4D JUMP JUMPDEST PUSH2 0x820 JUMP JUMPDEST PUSH2 0x21A PUSH2 0x89E JUMP JUMPDEST PUSH2 0x21A PUSH2 0x2EF CALLDATASIZE PUSH1 0x4 PUSH2 0x1C11 JUMP JUMPDEST PUSH2 0x8D3 JUMP JUMPDEST PUSH2 0x21A PUSH2 0x302 CALLDATASIZE PUSH1 0x4 PUSH2 0x1B4F JUMP JUMPDEST PUSH2 0x8EE JUMP JUMPDEST PUSH1 0x9 SLOAD PUSH2 0x244 SWAP1 PUSH1 0x1 PUSH1 0x1 PUSH1 0xA0 SHL SUB AND DUP2 JUMP JUMPDEST PUSH1 0x6 SLOAD PUSH1 0xFF AND PUSH2 0x1F2 JUMP JUMPDEST PUSH2 0x244 PUSH2 0x333 CALLDATASIZE PUSH1 0x4 PUSH2 0x1B4F JUMP JUMPDEST PUSH2 0x944 JUMP JUMPDEST PUSH2 0x21A PUSH2 0x346 CALLDATASIZE PUSH1 0x4 PUSH2 0x1C79 JUMP JUMPDEST PUSH2 0x9A4 JUMP JUMPDEST PUSH2 0x2A5 PUSH2 0x359 CALLDATASIZE PUSH1 0x4 PUSH2 0x1D03 JUMP JUMPDEST PUSH2 0xB0C JUMP JUMPDEST PUSH2 0x21A PUSH2 0xB92 JUMP JUMPDEST PUSH2 0x1F2 PUSH2 0x374 CALLDATASIZE PUSH1 0x4 PUSH2 0x1C4D JUMP JUMPDEST PUSH2 0xBC4 JUMP JUMPDEST PUSH2 0x224 PUSH2 0xBEF JUMP JUMPDEST PUSH2 0x21A PUSH2 0x38F CALLDATASIZE PUSH1 0x4 PUSH2 0x1BE7 JUMP JUMPDEST PUSH2 0xBFE JUMP JUMPDEST PUSH2 0x2A5 PUSH1 0x0 DUP2 JUMP JUMPDEST PUSH2 0x21A PUSH2 0x3AA CALLDATASIZE PUSH1 0x4 PUSH2 0x1D1E JUMP JUMPDEST PUSH2 0xC84 JUMP JUMPDEST PUSH2 0x21A PUSH2 0x3BD CALLDATASIZE PUSH1 0x4 PUSH2 0x1D70 JUMP JUMPDEST PUSH2 0xC8F JUMP JUMPDEST PUSH2 0x224 PUSH2 0x3D0 CALLDATASIZE PUSH1 0x4 PUSH2 0x1B4F JUMP JUMPDEST PUSH2 0xCC1 JUMP JUMPDEST PUSH2 0x2A5 PUSH32 0x9F2DF0FED2C77648DE5860A4CC508CD0818C85B8B8A1AB4CEEEF8D981C8956A6 DUP2 JUMP JUMPDEST PUSH2 0x21A PUSH2 0x40A CALLDATASIZE PUSH1 0x4 PUSH2 0x1C4D JUMP JUMPDEST PUSH2 0xD28 JUMP JUMPDEST PUSH2 0x2A5 PUSH32 0x65D7A28E3265B37A6474929F336521B332C1681B933F6CB9F3376673440D862A DUP2 JUMP JUMPDEST PUSH2 0x1F2 PUSH2 0x444 CALLDATASIZE PUSH1 0x4 PUSH2 0x1E4C JUMP JUMPDEST PUSH1 0x1 PUSH1 0x1 PUSH1 0xA0 SHL SUB SWAP2 DUP3 AND PUSH1 0x0 SWAP1 DUP2 MSTORE PUSH1 0x5 PUSH1 0x20 SWAP1 DUP2 MSTORE PUSH1 0x40 DUP1 DUP4 KECCAK256 SWAP4 SWAP1 SWAP5 AND DUP3 MSTORE SWAP2 SWAP1 SWAP2 MSTORE KECCAK256 SLOAD PUSH1 0xFF AND SWAP1 JUMP JUMPDEST PUSH2 0x2A5 PUSH1 0x8 SLOAD DUP2 JUMP JUMPDEST PUSH1 0x0 PUSH2 0x486 DUP3 PUSH2 0xD4D JUMP JUMPDEST SWAP3 SWAP2 POP POP JUMP JUMPDEST PUSH2 0x494 PUSH2 0xD72 JUMP JUMPDEST PUSH2 0x3E8 DUP2 LT ISZERO DUP1 ISZERO PUSH2 0x4A8 JUMPI POP PUSH2 0x7CF DUP2 GT ISZERO JUMPDEST PUSH2 0x4F2 JUMPI PUSH1 0x40 MLOAD PUSH3 0x461BCD PUSH1 0xE5 SHL DUP2 MSTORE PUSH1 0x20 PUSH1 0x4 DUP3 ADD MSTORE PUSH1 0x16 PUSH1 0x24 DUP3 ADD MSTORE PUSH22 0x496E76616C696420494420666F72206275796261636B PUSH1 0x50 SHL PUSH1 0x44 DUP3 ADD MSTORE PUSH1 0x64 ADD JUMPDEST PUSH1 0x40 MLOAD DUP1 SWAP2 SUB SWAP1 REVERT JUMPDEST CALLER PUSH2 0x4FC DUP3 PUSH2 0x944 JUMP JUMPDEST PUSH1 0x1 PUSH1 0x1 PUSH1 0xA0 SHL SUB AND EQ PUSH2 0x552 JUMPI PUSH1 0x40 MLOAD PUSH3 0x461BCD PUSH1 0xE5 SHL DUP2 MSTORE PUSH1 0x20 PUSH1 0x4 DUP3 ADD MSTORE PUSH1 0x17 PUSH1 0x24 DUP3 ADD MSTORE PUSH32 0x596F7520646F206E6F74206F776E2074686973204E4654000000000000000000 PUSH1 0x44 DUP3 ADD MSTORE PUSH1 0x64 ADD PUSH2 0x4E9 JUMP JUMPDEST PUSH2 0x55B DUP2 PUSH2 0xDBA JUMP JUMPDEST PUSH1 0x40 DUP1 MLOAD CALLER DUP2 MSTORE PUSH1 0x20 DUP2 ADD DUP4 SWAP1 MSTORE PUSH32 0xCC16F5DBB4873280815C1EE09DBD06736CFFCC184412CF7A71A0FDB75D397CA5 SWAP2 ADD PUSH1 0x40 MLOAD DUP1 SWAP2 SUB SWAP1 LOG1 PUSH1 0x9 SLOAD PUSH1 0x40 MLOAD PUSH4 0x40C10F19 PUSH1 0xE0 SHL DUP2 MSTORE CALLER PUSH1 0x4 DUP3 ADD MSTORE PUSH2 0x2710 PUSH1 0x24 DUP3 ADD MSTORE PUSH1 0x1 PUSH1 0x1 PUSH1 0xA0 SHL SUB SWAP1 SWAP2 AND SWAP1 PUSH4 0x40C10F19 SWAP1 PUSH1 0x44 ADD PUSH1 0x0 PUSH1 0x40 MLOAD DUP1 DUP4 SUB DUP2 PUSH1 0x0 DUP8 DUP1 EXTCODESIZE ISZERO DUP1 ISZERO PUSH2 0x5E1 JUMPI PUSH1 0x0 DUP1 REVERT JUMPDEST POP GAS CALL ISZERO DUP1 ISZERO PUSH2 0x5F5 JUMPI RETURNDATASIZE PUSH1 0x0 DUP1 RETURNDATACOPY RETURNDATASIZE PUSH1 0x0 REVERT JUMPDEST POP POP POP POP POP JUMP JUMPDEST PUSH1 0x60 PUSH1 0x0 DUP1 SLOAD PUSH2 0x60B SWAP1 PUSH2 0x1E76 JUMP JUMPDEST DUP1 PUSH1 0x1F ADD PUSH1 0x20 DUP1 SWAP2 DIV MUL PUSH1 0x20 ADD PUSH1 0x40 MLOAD SWAP1 DUP2 ADD PUSH1 0x40 MSTORE DUP1 SWAP3 SWAP2 SWAP1 DUP2 DUP2 MSTORE PUSH1 0x20 ADD DUP3 DUP1 SLOAD PUSH2 0x637 SWAP1 PUSH2 0x1E76 JUMP JUMPDEST DUP1 ISZERO PUSH2 0x684 JUMPI DUP1 PUSH1 0x1F LT PUSH2 0x659 JUMPI PUSH2 0x100 DUP1 DUP4 SLOAD DIV MUL DUP4 MSTORE SWAP2 PUSH1 0x20 ADD SWAP2 PUSH2 0x684 JUMP JUMPDEST DUP3 ADD SWAP2 SWAP1 PUSH1 0x0 MSTORE PUSH1 0x20 PUSH1 0x0 KECCAK256 SWAP1 JUMPDEST DUP2 SLOAD DUP2 MSTORE SWAP1 PUSH1 0x1 ADD SWAP1 PUSH1 0x20 ADD DUP1 DUP4 GT PUSH2 0x667 JUMPI DUP3 SWAP1 SUB PUSH1 0x1F AND DUP3 ADD SWAP2 JUMPDEST POP POP POP POP POP SWAP1 POP SWAP1 JUMP JUMPDEST PUSH1 0x0 PUSH2 0x699 DUP3 PUSH2 0xE4F JUMP JUMPDEST POP PUSH1 0x0 SWAP1 DUP2 MSTORE PUSH1 0x4 PUSH1 0x20 MSTORE PUSH1 0x40 SWAP1 KECCAK256 SLOAD PUSH1 0x1 PUSH1 0x1 PUSH1 0xA0 SHL SUB AND SWAP1 JUMP JUMPDEST PUSH1 0x0 PUSH2 0x6C0 DUP3 PUSH2 0x944 JUMP JUMPDEST SWAP1 POP DUP1 PUSH1 0x1 PUSH1 0x1 PUSH1 0xA0 SHL SUB AND DUP4 PUSH1 0x1 PUSH1 0x1 PUSH1 0xA0 SHL SUB AND SUB PUSH2 0x72D JUMPI PUSH1 0x40 MLOAD PUSH3 0x461BCD PUSH1 0xE5 SHL DUP2 MSTORE PUSH1 0x20 PUSH1 0x4 DUP3 ADD MSTORE PUSH1 0x21 PUSH1 0x24 DUP3 ADD MSTORE PUSH32 0x4552433732313A20617070726F76616C20746F2063757272656E74206F776E65 PUSH1 0x44 DUP3 ADD MSTORE PUSH1 0x39 PUSH1 0xF9 SHL PUSH1 0x64 DUP3 ADD MSTORE PUSH1 0x84 ADD PUSH2 0x4E9 JUMP JUMPDEST CALLER PUSH1 0x1 PUSH1 0x1 PUSH1 0xA0 SHL SUB DUP3 AND EQ DUP1 PUSH2 0x749 JUMPI POP PUSH2 0x749 DUP2 CALLER PUSH2 0x444 JUMP JUMPDEST PUSH2 0x7BB JUMPI PUSH1 0x40 MLOAD PUSH3 0x461BCD PUSH1 0xE5 SHL DUP2 MSTORE PUSH1 0x20 PUSH1 0x4 DUP3 ADD MSTORE PUSH1 0x3D PUSH1 0x24 DUP3 ADD MSTORE PUSH32 0x4552433732313A20617070726F76652063616C6C6572206973206E6F7420746F PUSH1 0x44 DUP3 ADD MSTORE PUSH32 0x6B656E206F776E6572206F7220617070726F76656420666F7220616C6C000000 PUSH1 0x64 DUP3 ADD MSTORE PUSH1 0x84 ADD PUSH2 0x4E9 JUMP JUMPDEST PUSH2 0x7C5 DUP4 DUP4 PUSH2 0xEAE JUMP JUMPDEST POP POP POP JUMP JUMPDEST PUSH2 0x7D4 CALLER DUP3 PUSH2 0xF1C JUMP JUMPDEST PUSH2 0x7F0 JUMPI PUSH1 0x40 MLOAD PUSH3 0x461BCD PUSH1 0xE5 SHL DUP2 MSTORE PUSH1 0x4 ADD PUSH2 0x4E9 SWAP1 PUSH2 0x1EB0 JUMP JUMPDEST PUSH2 0x7C5 DUP4 DUP4 DUP4 PUSH2 0xF9B JUMP JUMPDEST PUSH1 0x0 DUP3 DUP2 MSTORE PUSH1 0x7 PUSH1 0x20 MSTORE PUSH1 0x40 SWAP1 KECCAK256 PUSH1 0x1 ADD SLOAD PUSH2 0x816 DUP2 PUSH2 0x10FF JUMP JUMPDEST PUSH2 0x7C5 DUP4 DUP4 PUSH2 0x1109 JUMP JUMPDEST PUSH1 0x1 PUSH1 0x1 PUSH1 0xA0 SHL SUB DUP2 AND CALLER EQ PUSH2 0x890 JUMPI PUSH1 0x40 MLOAD PUSH3 0x461BCD PUSH1 0xE5 SHL DUP2 MSTORE PUSH1 0x20 PUSH1 0x4 DUP3 ADD MSTORE PUSH1 0x2F PUSH1 0x24 DUP3 ADD MSTORE PUSH32 0x416363657373436F6E74726F6C3A2063616E206F6E6C792072656E6F756E6365 PUSH1 0x44 DUP3 ADD MSTORE PUSH15 0x103937B632B9903337B91039B2B633 PUSH1 0x89 SHL PUSH1 0x64 DUP3 ADD MSTORE PUSH1 0x84 ADD PUSH2 0x4E9 JUMP JUMPDEST PUSH2 0x89A DUP3 DUP3 PUSH2 0x118F JUMP JUMPDEST POP POP JUMP JUMPDEST PUSH32 0x65D7A28E3265B37A6474929F336521B332C1681B933F6CB9F3376673440D862A PUSH2 0x8C8 DUP2 PUSH2 0x10FF JUMP JUMPDEST PUSH2 0x8D0 PUSH2 0x11F6 JUMP JUMPDEST POP JUMP JUMPDEST PUSH2 0x7C5 DUP4 DUP4 DUP4 PUSH1 0x40 MLOAD DUP1 PUSH1 0x20 ADD PUSH1 0x40 MSTORE DUP1 PUSH1 0x0 DUP2 MSTORE POP PUSH2 0xC8F JUMP JUMPDEST PUSH2 0x8F6 PUSH2 0xD72 JUMP JUMPDEST PUSH2 0x900 CALLER DUP3 PUSH2 0xF1C JUMP JUMPDEST PUSH2 0x93B JUMPI PUSH1 0x40 MLOAD PUSH3 0x461BCD PUSH1 0xE5 SHL DUP2 MSTORE PUSH1 0x20 PUSH1 0x4 DUP3 ADD MSTORE PUSH1 0xC PUSH1 0x24 DUP3 ADD MSTORE PUSH12 0x139BDD08185C1C1C9BDD9959 PUSH1 0xA2 SHL PUSH1 0x44 DUP3 ADD MSTORE PUSH1 0x64 ADD PUSH2 0x4E9 JUMP JUMPDEST PUSH2 0x8D0 DUP2 PUSH2 0xDBA JUMP JUMPDEST PUSH1 0x0 DUP2 DUP2 MSTORE PUSH1 0x2 PUSH1 0x20 MSTORE PUSH1 0x40 DUP2 KECCAK256 SLOAD PUSH1 0x1 PUSH1 0x1 PUSH1 0xA0 SHL SUB AND DUP1 PUSH2 0x486 JUMPI PUSH1 0x40 MLOAD PUSH3 0x461BCD PUSH1 0xE5 SHL DUP2 MSTORE PUSH1 0x20 PUSH1 0x4 DUP3 ADD MSTORE PUSH1 0x18 PUSH1 0x24 DUP3 ADD MSTORE PUSH24 0x115490CDCC8C4E881A5B9D985B1A59081D1BDAD95B881251 PUSH1 0x42 SHL PUSH1 0x44 DUP3 ADD MSTORE PUSH1 0x64 ADD PUSH2 0x4E9 JUMP JUMPDEST PUSH2 0x9AC PUSH2 0xD72 JUMP JUMPDEST PUSH2 0x3E7 DUP4 GT ISZERO PUSH2 0x9F6 JUMPI PUSH1 0x40 MLOAD PUSH3 0x461BCD PUSH1 0xE5 SHL DUP2 MSTORE PUSH1 0x20 PUSH1 0x4 DUP3 ADD MSTORE PUSH1 0x15 PUSH1 0x24 DUP3 ADD MSTORE PUSH21 0x546F6B656E204944206F7574206F662072616E6765 PUSH1 0x58 SHL PUSH1 0x44 DUP3 ADD MSTORE PUSH1 0x64 ADD PUSH2 0x4E9 JUMP JUMPDEST DUP1 PUSH2 0xA43 JUMPI PUSH1 0x40 MLOAD PUSH3 0x461BCD PUSH1 0xE5 SHL DUP2 MSTORE PUSH1 0x20 PUSH1 0x4 DUP3 ADD MSTORE PUSH1 0x1C PUSH1 0x24 DUP3 ADD MSTORE PUSH32 0x50726F6F66732061727261792063616E6E6F7420626520656D70747900000000 PUSH1 0x44 DUP3 ADD MSTORE PUSH1 0x64 ADD PUSH2 0x4E9 JUMP JUMPDEST PUSH2 0xAC0 DUP3 DUP3 DUP1 DUP1 PUSH1 0x20 MUL PUSH1 0x20 ADD PUSH1 0x40 MLOAD SWAP1 DUP2 ADD PUSH1 0x40 MSTORE DUP1 SWAP4 SWAP3 SWAP2 SWAP1 DUP2 DUP2 MSTORE PUSH1 0x20 ADD DUP4 DUP4 PUSH1 0x20 MUL DUP1 DUP3 DUP5 CALLDATACOPY PUSH1 0x0 SWAP3 ADD SWAP2 SWAP1 SWAP2 MSTORE POP POP PUSH1 0x8 SLOAD PUSH1 0x40 MLOAD PUSH12 0xFFFFFFFFFFFFFFFFFFFFFFFF NOT PUSH1 0x60 DUP12 SWAP1 SHL AND PUSH1 0x20 DUP3 ADD MSTORE PUSH1 0x34 DUP2 ADD DUP10 SWAP1 MSTORE SWAP1 SWAP3 POP PUSH1 0x54 ADD SWAP1 POP PUSH1 0x40 MLOAD PUSH1 0x20 DUP2 DUP4 SUB SUB DUP2 MSTORE SWAP1 PUSH1 0x40 MSTORE DUP1 MLOAD SWAP1 PUSH1 0x20 ADD KECCAK256 PUSH2 0x1248 JUMP JUMPDEST PUSH2 0xAFC JUMPI PUSH1 0x40 MLOAD PUSH3 0x461BCD PUSH1 0xE5 SHL DUP2 MSTORE PUSH1 0x20 PUSH1 0x4 DUP3 ADD MSTORE PUSH1 0xD PUSH1 0x24 DUP3 ADD MSTORE PUSH13 0x24B73B30B634B210383937B7B3 PUSH1 0x99 SHL PUSH1 0x44 DUP3 ADD MSTORE PUSH1 0x64 ADD PUSH2 0x4E9 JUMP JUMPDEST PUSH2 0xB06 DUP5 DUP5 PUSH2 0x125E JUMP JUMPDEST POP POP POP POP JUMP JUMPDEST PUSH1 0x0 PUSH1 0x1 PUSH1 0x1 PUSH1 0xA0 SHL SUB DUP3 AND PUSH2 0xB76 JUMPI PUSH1 0x40 MLOAD PUSH3 0x461BCD PUSH1 0xE5 SHL DUP2 MSTORE PUSH1 0x20 PUSH1 0x4 DUP3 ADD MSTORE PUSH1 0x29 PUSH1 0x24 DUP3 ADD MSTORE PUSH32 0x4552433732313A2061646472657373207A65726F206973206E6F742061207661 PUSH1 0x44 DUP3 ADD MSTORE PUSH9 0x3634B21037BBB732B9 PUSH1 0xB9 SHL PUSH1 0x64 DUP3 ADD MSTORE PUSH1 0x84 ADD PUSH2 0x4E9 JUMP JUMPDEST POP PUSH1 0x1 PUSH1 0x1 PUSH1 0xA0 SHL SUB AND PUSH1 0x0 SWAP1 DUP2 MSTORE PUSH1 0x3 PUSH1 0x20 MSTORE PUSH1 0x40 SWAP1 KECCAK256 SLOAD SWAP1 JUMP JUMPDEST PUSH32 0x65D7A28E3265B37A6474929F336521B332C1681B933F6CB9F3376673440D862A PUSH2 0xBBC DUP2 PUSH2 0x10FF JUMP JUMPDEST PUSH2 0x8D0 PUSH2 0x1278 JUMP JUMPDEST PUSH1 0x0 SWAP2 DUP3 MSTORE PUSH1 0x7 PUSH1 0x20 SWAP1 DUP2 MSTORE PUSH1 0x40 DUP1 DUP5 KECCAK256 PUSH1 0x1 PUSH1 0x1 PUSH1 0xA0 SHL SUB SWAP4 SWAP1 SWAP4 AND DUP5 MSTORE SWAP2 SWAP1 MSTORE SWAP1 KECCAK256 SLOAD PUSH1 0xFF AND SWAP1 JUMP JUMPDEST PUSH1 0x60 PUSH1 0x1 DUP1 SLOAD PUSH2 0x60B SWAP1 PUSH2 0x1E76 JUMP JUMPDEST PUSH32 0x9F2DF0FED2C77648DE5860A4CC508CD0818C85B8B8A1AB4CEEEF8D981C8956A6 PUSH2 0xC28 DUP2 PUSH2 0x10FF JUMP JUMPDEST PUSH2 0xC30 PUSH2 0xD72 JUMP JUMPDEST PUSH2 0x3E7 DUP3 GT ISZERO PUSH2 0xC7A JUMPI PUSH1 0x40 MLOAD PUSH3 0x461BCD PUSH1 0xE5 SHL DUP2 MSTORE PUSH1 0x20 PUSH1 0x4 DUP3 ADD MSTORE PUSH1 0x15 PUSH1 0x24 DUP3 ADD MSTORE PUSH21 0x546F6B656E204944206F7574206F662072616E6765 PUSH1 0x58 SHL PUSH1 0x44 DUP3 ADD MSTORE PUSH1 0x64 ADD PUSH2 0x4E9 JUMP JUMPDEST PUSH2 0x7C5 DUP4 DUP4 PUSH2 0x125E JUMP JUMPDEST PUSH2 0x89A CALLER DUP4 DUP4 PUSH2 0x12B5 JUMP JUMPDEST PUSH2 0xC99 CALLER DUP4 PUSH2 0xF1C JUMP JUMPDEST PUSH2 0xCB5 JUMPI PUSH1 0x40 MLOAD PUSH3 0x461BCD PUSH1 0xE5 SHL DUP2 MSTORE PUSH1 0x4 ADD PUSH2 0x4E9 SWAP1 PUSH2 0x1EB0 JUMP JUMPDEST PUSH2 0xB06 DUP5 DUP5 DUP5 DUP5 PUSH2 0x1383 JUMP JUMPDEST PUSH1 0x60 PUSH2 0xCCC DUP3 PUSH2 0xE4F JUMP JUMPDEST PUSH1 0x0 PUSH2 0xCD6 PUSH2 0x13B6 JUMP JUMPDEST SWAP1 POP PUSH1 0x0 DUP2 MLOAD GT PUSH2 0xCF6 JUMPI PUSH1 0x40 MLOAD DUP1 PUSH1 0x20 ADD PUSH1 0x40 MSTORE DUP1 PUSH1 0x0 DUP2 MSTORE POP PUSH2 0xD21 JUMP JUMPDEST DUP1 PUSH2 0xD00 DUP5 PUSH2 0x13D6 JUMP JUMPDEST PUSH1 0x40 MLOAD PUSH1 0x20 ADD PUSH2 0xD11 SWAP3 SWAP2 SWAP1 PUSH2 0x1EFD JUMP JUMPDEST PUSH1 0x40 MLOAD PUSH1 0x20 DUP2 DUP4 SUB SUB DUP2 MSTORE SWAP1 PUSH1 0x40 MSTORE JUMPDEST SWAP4 SWAP3 POP POP POP JUMP JUMPDEST PUSH1 0x0 DUP3 DUP2 MSTORE PUSH1 0x7 PUSH1 0x20 MSTORE PUSH1 0x40 SWAP1 KECCAK256 PUSH1 0x1 ADD SLOAD PUSH2 0xD43 DUP2 PUSH2 0x10FF JUMP JUMPDEST PUSH2 0x7C5 DUP4 DUP4 PUSH2 0x118F JUMP JUMPDEST PUSH1 0x0 PUSH1 0x1 PUSH1 0x1 PUSH1 0xE0 SHL SUB NOT DUP3 AND PUSH4 0x7965DB0B PUSH1 0xE0 SHL EQ DUP1 PUSH2 0x486 JUMPI POP PUSH2 0x486 DUP3 PUSH2 0x1469 JUMP JUMPDEST PUSH1 0x6 SLOAD PUSH1 0xFF AND ISZERO PUSH2 0xDB8 JUMPI PUSH1 0x40 MLOAD PUSH3 0x461BCD PUSH1 0xE5 SHL DUP2 MSTORE PUSH1 0x20 PUSH1 0x4 DUP3 ADD MSTORE PUSH1 0x10 PUSH1 0x24 DUP3 ADD MSTORE PUSH16 0x14185D5CD8589B194E881C185D5CD959 PUSH1 0x82 SHL PUSH1 0x44 DUP3 ADD MSTORE PUSH1 0x64 ADD PUSH2 0x4E9 JUMP JUMPDEST JUMP JUMPDEST PUSH1 0x0 PUSH2 0xDC5 DUP3 PUSH2 0x944 JUMP JUMPDEST SWAP1 POP PUSH2 0xDD0 DUP3 PUSH2 0x944 JUMP JUMPDEST PUSH1 0x0 DUP4 DUP2 MSTORE PUSH1 0x4 PUSH1 0x20 SWAP1 DUP2 MSTORE PUSH1 0x40 DUP1 DUP4 KECCAK256 DUP1 SLOAD PUSH1 0x1 PUSH1 0x1 PUSH1 0xA0 SHL SUB NOT SWAP1 DUP2 AND SWAP1 SWAP2 SSTORE PUSH1 0x1 PUSH1 0x1 PUSH1 0xA0 SHL SUB DUP6 AND DUP1 DUP6 MSTORE PUSH1 0x3 DUP5 MSTORE DUP3 DUP6 KECCAK256 DUP1 SLOAD PUSH1 0x0 NOT ADD SWAP1 SSTORE DUP8 DUP6 MSTORE PUSH1 0x2 SWAP1 SWAP4 MSTORE DUP2 DUP5 KECCAK256 DUP1 SLOAD SWAP1 SWAP2 AND SWAP1 SSTORE MLOAD SWAP3 SWAP4 POP DUP5 SWAP3 PUSH32 0xDDF252AD1BE2C89B69C2B068FC378DAA952BA7F163C4A11628F55A4DF523B3EF SWAP1 DUP4 SWAP1 LOG4 POP POP JUMP JUMPDEST PUSH1 0x0 DUP2 DUP2 MSTORE PUSH1 0x2 PUSH1 0x20 MSTORE PUSH1 0x40 SWAP1 KECCAK256 SLOAD PUSH1 0x1 PUSH1 0x1 PUSH1 0xA0 SHL SUB AND PUSH2 0x8D0 JUMPI PUSH1 0x40 MLOAD PUSH3 0x461BCD PUSH1 0xE5 SHL DUP2 MSTORE PUSH1 0x20 PUSH1 0x4 DUP3 ADD MSTORE PUSH1 0x18 PUSH1 0x24 DUP3 ADD MSTORE PUSH24 0x115490CDCC8C4E881A5B9D985B1A59081D1BDAD95B881251 PUSH1 0x42 SHL PUSH1 0x44 DUP3 ADD MSTORE PUSH1 0x64 ADD PUSH2 0x4E9 JUMP JUMPDEST PUSH1 0x0 DUP2 DUP2 MSTORE PUSH1 0x4 PUSH1 0x20 MSTORE PUSH1 0x40 SWAP1 KECCAK256 DUP1 SLOAD PUSH1 0x1 PUSH1 0x1 PUSH1 0xA0 SHL SUB NOT AND PUSH1 0x1 PUSH1 0x1 PUSH1 0xA0 SHL SUB DUP5 AND SWAP1 DUP2 OR SWAP1 SWAP2 SSTORE DUP2 SWAP1 PUSH2 0xEE3 DUP3 PUSH2 0x944 JUMP JUMPDEST PUSH1 0x1 PUSH1 0x1 PUSH1 0xA0 SHL SUB AND PUSH32 0x8C5BE1E5EBEC7D5BD14F71427D1E84F3DD0314C0F7B2291E5B200AC8C7C3B925 PUSH1 0x40 MLOAD PUSH1 0x40 MLOAD DUP1 SWAP2 SUB SWAP1 LOG4 POP POP JUMP JUMPDEST PUSH1 0x0 DUP1 PUSH2 0xF28 DUP4 PUSH2 0x944 JUMP JUMPDEST SWAP1 POP DUP1 PUSH1 0x1 PUSH1 0x1 PUSH1 0xA0 SHL SUB AND DUP5 PUSH1 0x1 PUSH1 0x1 PUSH1 0xA0 SHL SUB AND EQ DUP1 PUSH2 0xF6F JUMPI POP PUSH1 0x1 PUSH1 0x1 PUSH1 0xA0 SHL SUB DUP1 DUP3 AND PUSH1 0x0 SWAP1 DUP2 MSTORE PUSH1 0x5 PUSH1 0x20 SWAP1 DUP2 MSTORE PUSH1 0x40 DUP1 DUP4 KECCAK256 SWAP4 DUP9 AND DUP4 MSTORE SWAP3 SWAP1 MSTORE KECCAK256 SLOAD PUSH1 0xFF AND JUMPDEST DUP1 PUSH2 0xF93 JUMPI POP DUP4 PUSH1 0x1 PUSH1 0x1 PUSH1 0xA0 SHL SUB AND PUSH2 0xF88 DUP5 PUSH2 0x68E JUMP JUMPDEST PUSH1 0x1 PUSH1 0x1 PUSH1 0xA0 SHL SUB AND EQ JUMPDEST SWAP5 SWAP4 POP POP POP POP JUMP JUMPDEST DUP3 PUSH1 0x1 PUSH1 0x1 PUSH1 0xA0 SHL SUB AND PUSH2 0xFAE DUP3 PUSH2 0x944 JUMP JUMPDEST PUSH1 0x1 PUSH1 0x1 PUSH1 0xA0 SHL SUB AND EQ PUSH2 0xFD4 JUMPI PUSH1 0x40 MLOAD PUSH3 0x461BCD PUSH1 0xE5 SHL DUP2 MSTORE PUSH1 0x4 ADD PUSH2 0x4E9 SWAP1 PUSH2 0x1F2C JUMP JUMPDEST PUSH1 0x1 PUSH1 0x1 PUSH1 0xA0 SHL SUB DUP3 AND PUSH2 0x1036 JUMPI PUSH1 0x40 MLOAD PUSH3 0x461BCD PUSH1 0xE5 SHL DUP2 MSTORE PUSH1 0x20 PUSH1 0x4 DUP3 ADD MSTORE PUSH1 0x24 DUP1 DUP3 ADD MSTORE PUSH32 0x4552433732313A207472616E7366657220746F20746865207A65726F20616464 PUSH1 0x44 DUP3 ADD MSTORE PUSH4 0x72657373 PUSH1 0xE0 SHL PUSH1 0x64 DUP3 ADD MSTORE PUSH1 0x84 ADD PUSH2 0x4E9 JUMP JUMPDEST DUP3 PUSH1 0x1 PUSH1 0x1 PUSH1 0xA0 SHL SUB AND PUSH2 0x1049 DUP3 PUSH2 0x944 JUMP JUMPDEST PUSH1 0x1 PUSH1 0x1 PUSH1 0xA0 SHL SUB AND EQ PUSH2 0x106F JUMPI PUSH1 0x40 MLOAD PUSH3 0x461BCD PUSH1 0xE5 SHL DUP2 MSTORE PUSH1 0x4 ADD PUSH2 0x4E9 SWAP1 PUSH2 0x1F2C JUMP JUMPDEST PUSH1 0x0 DUP2 DUP2 MSTORE PUSH1 0x4 PUSH1 0x20 SWAP1 DUP2 MSTORE PUSH1 0x40 DUP1 DUP4 KECCAK256 DUP1 SLOAD PUSH1 0x1 PUSH1 0x1 PUSH1 0xA0 SHL SUB NOT SWAP1 DUP2 AND SWAP1 SWAP2 SSTORE PUSH1 0x1 PUSH1 0x1 PUSH1 0xA0 SHL SUB DUP8 DUP2 AND DUP1 DUP7 MSTORE PUSH1 0x3 DUP6 MSTORE DUP4 DUP7 KECCAK256 DUP1 SLOAD PUSH1 0x0 NOT ADD SWAP1 SSTORE SWAP1 DUP8 AND DUP1 DUP7 MSTORE DUP4 DUP7 KECCAK256 DUP1 SLOAD PUSH1 0x1 ADD SWAP1 SSTORE DUP7 DUP7 MSTORE PUSH1 0x2 SWAP1 SWAP5 MSTORE DUP3 DUP6 KECCAK256 DUP1 SLOAD SWAP1 SWAP3 AND DUP5 OR SWAP1 SWAP2 SSTORE SWAP1 MLOAD DUP5 SWAP4 PUSH32 0xDDF252AD1BE2C89B69C2B068FC378DAA952BA7F163C4A11628F55A4DF523B3EF SWAP2 LOG4 POP POP POP JUMP JUMPDEST PUSH2 0x8D0 DUP2 CALLER PUSH2 0x14B9 JUMP JUMPDEST PUSH2 0x1113 DUP3 DUP3 PUSH2 0xBC4 JUMP JUMPDEST PUSH2 0x89A JUMPI PUSH1 0x0 DUP3 DUP2 MSTORE PUSH1 0x7 PUSH1 0x20 SWAP1 DUP2 MSTORE PUSH1 0x40 DUP1 DUP4 KECCAK256 PUSH1 0x1 PUSH1 0x1 PUSH1 0xA0 SHL SUB DUP6 AND DUP5 MSTORE SWAP1 SWAP2 MSTORE SWAP1 KECCAK256 DUP1 SLOAD PUSH1 0xFF NOT AND PUSH1 0x1 OR SWAP1 SSTORE PUSH2 0x114B CALLER SWAP1 JUMP JUMPDEST PUSH1 0x1 PUSH1 0x1 PUSH1 0xA0 SHL SUB AND DUP2 PUSH1 0x1 PUSH1 0x1 PUSH1 0xA0 SHL SUB AND DUP4 PUSH32 0x2F8788117E7EFF1D82E926EC794901D17C78024A50270940304540A733656F0D PUSH1 0x40 MLOAD PUSH1 0x40 MLOAD DUP1 SWAP2 SUB SWAP1 LOG4 POP POP JUMP JUMPDEST PUSH2 0x1199 DUP3 DUP3 PUSH2 0xBC4 JUMP JUMPDEST ISZERO PUSH2 0x89A JUMPI PUSH1 0x0 DUP3 DUP2 MSTORE PUSH1 0x7 PUSH1 0x20 SWAP1 DUP2 MSTORE PUSH1 0x40 DUP1 DUP4 KECCAK256 PUSH1 0x1 PUSH1 0x1 PUSH1 0xA0 SHL SUB DUP6 AND DUP1 DUP6 MSTORE SWAP3 MSTORE DUP1 DUP4 KECCAK256 DUP1 SLOAD PUSH1 0xFF NOT AND SWAP1 SSTORE MLOAD CALLER SWAP3 DUP6 SWAP2 PUSH32 0xF6391F5C32D9C69D2A47EA670B442974B53935D1EDC7FD64EB21E047A839171B SWAP2 SWAP1 LOG4 POP POP JUMP JUMPDEST PUSH2 0x11FE PUSH2 0x1512 JUMP JUMPDEST PUSH1 0x6 DUP1 SLOAD PUSH1 0xFF NOT AND SWAP1 SSTORE PUSH32 0x5DB9EE0A495BF2E6FF9C91A7834C1BA4FDD244A5E8AA4E537BD38AEAE4B073AA CALLER JUMPDEST PUSH1 0x40 MLOAD PUSH1 0x1 PUSH1 0x1 PUSH1 0xA0 SHL SUB SWAP1 SWAP2 AND DUP2 MSTORE PUSH1 0x20 ADD PUSH1 0x40 MLOAD DUP1 SWAP2 SUB SWAP1 LOG1 JUMP JUMPDEST PUSH1 0x0 DUP3 PUSH2 0x1255 DUP6 DUP5 PUSH2 0x155B JUMP JUMPDEST EQ SWAP5 SWAP4 POP POP POP POP JUMP JUMPDEST PUSH2 0x89A DUP3 DUP3 PUSH1 0x40 MLOAD DUP1 PUSH1 0x20 ADD PUSH1 0x40 MSTORE DUP1 PUSH1 0x0 DUP2 MSTORE POP PUSH2 0x15A8 JUMP JUMPDEST PUSH2 0x1280 PUSH2 0xD72 JUMP JUMPDEST PUSH1 0x6 DUP1 SLOAD PUSH1 0xFF NOT AND PUSH1 0x1 OR SWAP1 SSTORE PUSH32 0x62E78CEA01BEE320CD4E420270B5EA74000D11B0C9F74754EBDBFC544B05A258 PUSH2 0x122B CALLER SWAP1 JUMP JUMPDEST DUP2 PUSH1 0x1 PUSH1 0x1 PUSH1 0xA0 SHL SUB AND DUP4 PUSH1 0x1 PUSH1 0x1 PUSH1 0xA0 SHL SUB AND SUB PUSH2 0x1316 JUMPI PUSH1 0x40 MLOAD PUSH3 0x461BCD PUSH1 0xE5 SHL DUP2 MSTORE PUSH1 0x20 PUSH1 0x4 DUP3 ADD MSTORE PUSH1 0x19 PUSH1 0x24 DUP3 ADD MSTORE PUSH32 0x4552433732313A20617070726F766520746F2063616C6C657200000000000000 PUSH1 0x44 DUP3 ADD MSTORE PUSH1 0x64 ADD PUSH2 0x4E9 JUMP JUMPDEST PUSH1 0x1 PUSH1 0x1 PUSH1 0xA0 SHL SUB DUP4 DUP2 AND PUSH1 0x0 DUP2 DUP2 MSTORE PUSH1 0x5 PUSH1 0x20 SWAP1 DUP2 MSTORE PUSH1 0x40 DUP1 DUP4 KECCAK256 SWAP5 DUP8 AND DUP1 DUP5 MSTORE SWAP5 DUP3 MSTORE SWAP2 DUP3 SWAP1 KECCAK256 DUP1 SLOAD PUSH1 0xFF NOT AND DUP7 ISZERO ISZERO SWAP1 DUP2 OR SWAP1 SWAP2 SSTORE SWAP2 MLOAD SWAP2 DUP3 MSTORE PUSH32 0x17307EAB39AB6107E8899845AD3D59BD9653F200F220920489CA2B5937696C31 SWAP2 ADD PUSH1 0x40 MLOAD DUP1 SWAP2 SUB SWAP1 LOG3 POP POP POP JUMP JUMPDEST PUSH2 0x138E DUP5 DUP5 DUP5 PUSH2 0xF9B JUMP JUMPDEST PUSH2 0x139A DUP5 DUP5 DUP5 DUP5 PUSH2 0x15DB JUMP JUMPDEST PUSH2 0xB06 JUMPI PUSH1 0x40 MLOAD PUSH3 0x461BCD PUSH1 0xE5 SHL DUP2 MSTORE PUSH1 0x4 ADD PUSH2 0x4E9 SWAP1 PUSH2 0x1F71 JUMP JUMPDEST PUSH1 0x60 PUSH1 0x40 MLOAD DUP1 PUSH1 0x60 ADD PUSH1 0x40 MSTORE DUP1 PUSH1 0x36 DUP2 MSTORE PUSH1 0x20 ADD PUSH2 0x2119 PUSH1 0x36 SWAP2 CODECOPY SWAP1 POP SWAP1 JUMP JUMPDEST PUSH1 0x60 PUSH1 0x0 PUSH2 0x13E3 DUP4 PUSH2 0x16DC JUMP JUMPDEST PUSH1 0x1 ADD SWAP1 POP PUSH1 0x0 DUP2 PUSH8 0xFFFFFFFFFFFFFFFF DUP2 GT ISZERO PUSH2 0x1403 JUMPI PUSH2 0x1403 PUSH2 0x1D5A JUMP JUMPDEST PUSH1 0x40 MLOAD SWAP1 DUP1 DUP3 MSTORE DUP1 PUSH1 0x1F ADD PUSH1 0x1F NOT AND PUSH1 0x20 ADD DUP3 ADD PUSH1 0x40 MSTORE DUP1 ISZERO PUSH2 0x142D JUMPI PUSH1 0x20 DUP3 ADD DUP2 DUP1 CALLDATASIZE DUP4 CALLDATACOPY ADD SWAP1 POP JUMPDEST POP SWAP1 POP DUP2 DUP2 ADD PUSH1 0x20 ADD JUMPDEST PUSH1 0x0 NOT ADD PUSH16 0x181899199A1A9B1B9C1CB0B131B232B3 PUSH1 0x81 SHL PUSH1 0xA DUP7 MOD BYTE DUP2 MSTORE8 PUSH1 0xA DUP6 DIV SWAP5 POP DUP5 PUSH2 0x1437 JUMPI POP SWAP4 SWAP3 POP POP POP JUMP JUMPDEST PUSH1 0x0 PUSH1 0x1 PUSH1 0x1 PUSH1 0xE0 SHL SUB NOT DUP3 AND PUSH4 0x80AC58CD PUSH1 0xE0 SHL EQ DUP1 PUSH2 0x149A JUMPI POP PUSH1 0x1 PUSH1 0x1 PUSH1 0xE0 SHL SUB NOT DUP3 AND PUSH4 0x5B5E139F PUSH1 0xE0 SHL EQ JUMPDEST DUP1 PUSH2 0x486 JUMPI POP PUSH4 0x1FFC9A7 PUSH1 0xE0 SHL PUSH1 0x1 PUSH1 0x1 PUSH1 0xE0 SHL SUB NOT DUP4 AND EQ PUSH2 0x486 JUMP JUMPDEST PUSH2 0x14C3 DUP3 DUP3 PUSH2 0xBC4 JUMP JUMPDEST PUSH2 0x89A JUMPI PUSH2 0x14D0 DUP2 PUSH2 0x17B4 JUMP JUMPDEST PUSH2 0x14DB DUP4 PUSH1 0x20 PUSH2 0x17C6 JUMP JUMPDEST PUSH1 0x40 MLOAD PUSH1 0x20 ADD PUSH2 0x14EC SWAP3 SWAP2 SWAP1 PUSH2 0x1FC3 JUMP JUMPDEST PUSH1 0x40 DUP1 MLOAD PUSH1 0x1F NOT DUP2 DUP5 SUB ADD DUP2 MSTORE SWAP1 DUP3 SWAP1 MSTORE PUSH3 0x461BCD PUSH1 0xE5 SHL DUP3 MSTORE PUSH2 0x4E9 SWAP2 PUSH1 0x4 ADD PUSH2 0x1BB8 JUMP JUMPDEST PUSH1 0x6 SLOAD PUSH1 0xFF AND PUSH2 0xDB8 JUMPI PUSH1 0x40 MLOAD PUSH3 0x461BCD PUSH1 0xE5 SHL DUP2 MSTORE PUSH1 0x20 PUSH1 0x4 DUP3 ADD MSTORE PUSH1 0x14 PUSH1 0x24 DUP3 ADD MSTORE PUSH20 0x14185D5CD8589B194E881B9BDD081C185D5CD959 PUSH1 0x62 SHL PUSH1 0x44 DUP3 ADD MSTORE PUSH1 0x64 ADD PUSH2 0x4E9 JUMP JUMPDEST PUSH1 0x0 DUP2 DUP2 JUMPDEST DUP5 MLOAD DUP2 LT ISZERO PUSH2 0x15A0 JUMPI PUSH2 0x158C DUP3 DUP7 DUP4 DUP2 MLOAD DUP2 LT PUSH2 0x157F JUMPI PUSH2 0x157F PUSH2 0x2038 JUMP JUMPDEST PUSH1 0x20 MUL PUSH1 0x20 ADD ADD MLOAD PUSH2 0x1962 JUMP JUMPDEST SWAP2 POP DUP1 PUSH2 0x1598 DUP2 PUSH2 0x2064 JUMP JUMPDEST SWAP2 POP POP PUSH2 0x1560 JUMP JUMPDEST POP SWAP4 SWAP3 POP POP POP JUMP JUMPDEST PUSH2 0x15B2 DUP4 DUP4 PUSH2 0x1991 JUMP JUMPDEST PUSH2 0x15BF PUSH1 0x0 DUP5 DUP5 DUP5 PUSH2 0x15DB JUMP JUMPDEST PUSH2 0x7C5 JUMPI PUSH1 0x40 MLOAD PUSH3 0x461BCD PUSH1 0xE5 SHL DUP2 MSTORE PUSH1 0x4 ADD PUSH2 0x4E9 SWAP1 PUSH2 0x1F71 JUMP JUMPDEST PUSH1 0x0 PUSH1 0x1 PUSH1 0x1 PUSH1 0xA0 SHL SUB DUP5 AND EXTCODESIZE ISZERO PUSH2 0x16D1 JUMPI PUSH1 0x40 MLOAD PUSH4 0xA85BD01 PUSH1 0xE1 SHL DUP2 MSTORE PUSH1 0x1 PUSH1 0x1 PUSH1 0xA0 SHL SUB DUP6 AND SWAP1 PUSH4 0x150B7A02 SWAP1 PUSH2 0x161F SWAP1 CALLER SWAP1 DUP10 SWAP1 DUP9 SWAP1 DUP9 SWAP1 PUSH1 0x4 ADD PUSH2 0x207D JUMP JUMPDEST PUSH1 0x20 PUSH1 0x40 MLOAD DUP1 DUP4 SUB DUP2 PUSH1 0x0 DUP8 GAS CALL SWAP3 POP POP POP DUP1 ISZERO PUSH2 0x165A JUMPI POP PUSH1 0x40 DUP1 MLOAD PUSH1 0x1F RETURNDATASIZE SWAP1 DUP2 ADD PUSH1 0x1F NOT AND DUP3 ADD SWAP1 SWAP3 MSTORE PUSH2 0x1657 SWAP2 DUP2 ADD SWAP1 PUSH2 0x20BA JUMP JUMPDEST PUSH1 0x1 JUMPDEST PUSH2 0x16B7 JUMPI RETURNDATASIZE DUP1 DUP1 ISZERO PUSH2 0x1688 JUMPI PUSH1 0x40 MLOAD SWAP2 POP PUSH1 0x1F NOT PUSH1 0x3F RETURNDATASIZE ADD AND DUP3 ADD PUSH1 0x40 MSTORE RETURNDATASIZE DUP3 MSTORE RETURNDATASIZE PUSH1 0x0 PUSH1 0x20 DUP5 ADD RETURNDATACOPY PUSH2 0x168D JUMP JUMPDEST PUSH1 0x60 SWAP2 POP JUMPDEST POP DUP1 MLOAD PUSH1 0x0 SUB PUSH2 0x16AF JUMPI PUSH1 0x40 MLOAD PUSH3 0x461BCD PUSH1 0xE5 SHL DUP2 MSTORE PUSH1 0x4 ADD PUSH2 0x4E9 SWAP1 PUSH2 0x1F71 JUMP JUMPDEST DUP1 MLOAD DUP2 PUSH1 0x20 ADD REVERT JUMPDEST PUSH1 0x1 PUSH1 0x1 PUSH1 0xE0 SHL SUB NOT AND PUSH4 0xA85BD01 PUSH1 0xE1 SHL EQ SWAP1 POP PUSH2 0xF93 JUMP JUMPDEST POP PUSH1 0x1 SWAP5 SWAP4 POP POP POP POP JUMP JUMPDEST PUSH1 0x0 DUP1 PUSH19 0x184F03E93FF9F4DAA797ED6E38ED64BF6A1F01 PUSH1 0x40 SHL DUP4 LT PUSH2 0x171B JUMPI PUSH19 0x184F03E93FF9F4DAA797ED6E38ED64BF6A1F01 PUSH1 0x40 SHL DUP4 DIV SWAP3 POP PUSH1 0x40 ADD JUMPDEST PUSH14 0x4EE2D6D415B85ACEF8100000000 DUP4 LT PUSH2 0x1747 JUMPI PUSH14 0x4EE2D6D415B85ACEF8100000000 DUP4 DIV SWAP3 POP PUSH1 0x20 ADD JUMPDEST PUSH7 0x2386F26FC10000 DUP4 LT PUSH2 0x1765 JUMPI PUSH7 0x2386F26FC10000 DUP4 DIV SWAP3 POP PUSH1 0x10 ADD JUMPDEST PUSH4 0x5F5E100 DUP4 LT PUSH2 0x177D JUMPI PUSH4 0x5F5E100 DUP4 DIV SWAP3 POP PUSH1 0x8 ADD JUMPDEST PUSH2 0x2710 DUP4 LT PUSH2 0x1791 JUMPI PUSH2 0x2710 DUP4 DIV SWAP3 POP PUSH1 0x4 ADD JUMPDEST PUSH1 0x64 DUP4 LT PUSH2 0x17A3 JUMPI PUSH1 0x64 DUP4 DIV SWAP3 POP PUSH1 0x2 ADD JUMPDEST PUSH1 0xA DUP4 LT PUSH2 0x486 JUMPI PUSH1 0x1 ADD SWAP3 SWAP2 POP POP JUMP JUMPDEST PUSH1 0x60 PUSH2 0x486 PUSH1 0x1 PUSH1 0x1 PUSH1 0xA0 SHL SUB DUP4 AND PUSH1 0x14 JUMPDEST PUSH1 0x60 PUSH1 0x0 PUSH2 0x17D5 DUP4 PUSH1 0x2 PUSH2 0x20D7 JUMP JUMPDEST PUSH2 0x17E0 SWAP1 PUSH1 0x2 PUSH2 0x20EE JUMP JUMPDEST PUSH8 0xFFFFFFFFFFFFFFFF DUP2 GT ISZERO PUSH2 0x17F8 JUMPI PUSH2 0x17F8 PUSH2 0x1D5A JUMP JUMPDEST PUSH1 0x40 MLOAD SWAP1 DUP1 DUP3 MSTORE DUP1 PUSH1 0x1F ADD PUSH1 0x1F NOT AND PUSH1 0x20 ADD DUP3 ADD PUSH1 0x40 MSTORE DUP1 ISZERO PUSH2 0x1822 JUMPI PUSH1 0x20 DUP3 ADD DUP2 DUP1 CALLDATASIZE DUP4 CALLDATACOPY ADD SWAP1 POP JUMPDEST POP SWAP1 POP PUSH1 0x3 PUSH1 0xFC SHL DUP2 PUSH1 0x0 DUP2 MLOAD DUP2 LT PUSH2 0x183D JUMPI PUSH2 0x183D PUSH2 0x2038 JUMP JUMPDEST PUSH1 0x20 ADD ADD SWAP1 PUSH1 0x1 PUSH1 0x1 PUSH1 0xF8 SHL SUB NOT AND SWAP1 DUP2 PUSH1 0x0 BYTE SWAP1 MSTORE8 POP PUSH1 0xF PUSH1 0xFB SHL DUP2 PUSH1 0x1 DUP2 MLOAD DUP2 LT PUSH2 0x186C JUMPI PUSH2 0x186C PUSH2 0x2038 JUMP JUMPDEST PUSH1 0x20 ADD ADD SWAP1 PUSH1 0x1 PUSH1 0x1 PUSH1 0xF8 SHL SUB NOT AND SWAP1 DUP2 PUSH1 0x0 BYTE SWAP1 MSTORE8 POP PUSH1 0x0 PUSH2 0x1890 DUP5 PUSH1 0x2 PUSH2 0x20D7 JUMP JUMPDEST PUSH2 0x189B SWAP1 PUSH1 0x1 PUSH2 0x20EE JUMP JUMPDEST SWAP1 POP JUMPDEST PUSH1 0x1 DUP2 GT ISZERO PUSH2 0x1913 JUMPI PUSH16 0x181899199A1A9B1B9C1CB0B131B232B3 PUSH1 0x81 SHL DUP6 PUSH1 0xF AND PUSH1 0x10 DUP2 LT PUSH2 0x18CF JUMPI PUSH2 0x18CF PUSH2 0x2038 JUMP JUMPDEST BYTE PUSH1 0xF8 SHL DUP3 DUP3 DUP2 MLOAD DUP2 LT PUSH2 0x18E5 JUMPI PUSH2 0x18E5 PUSH2 0x2038 JUMP JUMPDEST PUSH1 0x20 ADD ADD SWAP1 PUSH1 0x1 PUSH1 0x1 PUSH1 0xF8 SHL SUB NOT AND SWAP1 DUP2 PUSH1 0x0 BYTE SWAP1 MSTORE8 POP PUSH1 0x4 SWAP5 SWAP1 SWAP5 SHR SWAP4 PUSH2 0x190C DUP2 PUSH2 0x2101 JUMP JUMPDEST SWAP1 POP PUSH2 0x189E JUMP JUMPDEST POP DUP4 ISZERO PUSH2 0xD21 JUMPI PUSH1 0x40 MLOAD PUSH3 0x461BCD PUSH1 0xE5 SHL DUP2 MSTORE PUSH1 0x20 PUSH1 0x4 DUP3 ADD DUP2 SWAP1 MSTORE PUSH1 0x24 DUP3 ADD MSTORE PUSH32 0x537472696E67733A20686578206C656E67746820696E73756666696369656E74 PUSH1 0x44 DUP3 ADD MSTORE PUSH1 0x64 ADD PUSH2 0x4E9 JUMP JUMPDEST PUSH1 0x0 DUP2 DUP4 LT PUSH2 0x197E JUMPI PUSH1 0x0 DUP3 DUP2 MSTORE PUSH1 0x20 DUP5 SWAP1 MSTORE PUSH1 0x40 SWAP1 KECCAK256 PUSH2 0xD21 JUMP JUMPDEST PUSH1 0x0 DUP4 DUP2 MSTORE PUSH1 0x20 DUP4 SWAP1 MSTORE PUSH1 0x40 SWAP1 KECCAK256 PUSH2 0xD21 JUMP JUMPDEST PUSH1 0x1 PUSH1 0x1 PUSH1 0xA0 SHL SUB DUP3 AND PUSH2 0x19E7 JUMPI PUSH1 0x40 MLOAD PUSH3 0x461BCD PUSH1 0xE5 SHL DUP2 MSTORE PUSH1 0x20 PUSH1 0x4 DUP3 ADD DUP2 SWAP1 MSTORE PUSH1 0x24 DUP3 ADD MSTORE PUSH32 0x4552433732313A206D696E7420746F20746865207A65726F2061646472657373 PUSH1 0x44 DUP3 ADD MSTORE PUSH1 0x64 ADD PUSH2 0x4E9 JUMP JUMPDEST PUSH1 0x0 DUP2 DUP2 MSTORE PUSH1 0x2 PUSH1 0x20 MSTORE PUSH1 0x40 SWAP1 KECCAK256 SLOAD PUSH1 0x1 PUSH1 0x1 PUSH1 0xA0 SHL SUB AND ISZERO PUSH2 0x1A4C JUMPI PUSH1 0x40 MLOAD PUSH3 0x461BCD PUSH1 0xE5 SHL DUP2 MSTORE PUSH1 0x20 PUSH1 0x4 DUP3 ADD MSTORE PUSH1 0x1C PUSH1 0x24 DUP3 ADD MSTORE PUSH32 0x4552433732313A20746F6B656E20616C7265616479206D696E74656400000000 PUSH1 0x44 DUP3 ADD MSTORE PUSH1 0x64 ADD PUSH2 0x4E9 JUMP JUMPDEST PUSH1 0x0 DUP2 DUP2 MSTORE PUSH1 0x2 PUSH1 0x20 MSTORE PUSH1 0x40 SWAP1 KECCAK256 SLOAD PUSH1 0x1 PUSH1 0x1 PUSH1 0xA0 SHL SUB AND ISZERO PUSH2 0x1AB1 JUMPI PUSH1 0x40 MLOAD PUSH3 0x461BCD PUSH1 0xE5 SHL DUP2 MSTORE PUSH1 0x20 PUSH1 0x4 DUP3 ADD MSTORE PUSH1 0x1C PUSH1 0x24 DUP3 ADD MSTORE PUSH32 0x4552433732313A20746F6B656E20616C7265616479206D696E74656400000000 PUSH1 0x44 DUP3 ADD MSTORE PUSH1 0x64 ADD PUSH2 0x4E9 JUMP JUMPDEST PUSH1 0x1 PUSH1 0x1 PUSH1 0xA0 SHL SUB DUP3 AND PUSH1 0x0 DUP2 DUP2 MSTORE PUSH1 0x3 PUSH1 0x20 SWAP1 DUP2 MSTORE PUSH1 0x40 DUP1 DUP4 KECCAK256 DUP1 SLOAD PUSH1 0x1 ADD SWAP1 SSTORE DUP5 DUP4 MSTORE PUSH1 0x2 SWAP1 SWAP2 MSTORE DUP1 DUP3 KECCAK256 DUP1 SLOAD PUSH1 0x1 PUSH1 0x1 PUSH1 0xA0 SHL SUB NOT AND DUP5 OR SWAP1 SSTORE MLOAD DUP4 SWAP3 SWAP2 SWAP1 PUSH32 0xDDF252AD1BE2C89B69C2B068FC378DAA952BA7F163C4A11628F55A4DF523B3EF SWAP1 DUP3 SWAP1 LOG4 POP POP JUMP JUMPDEST PUSH1 0x1 PUSH1 0x1 PUSH1 0xE0 SHL SUB NOT DUP2 AND DUP2 EQ PUSH2 0x8D0 JUMPI PUSH1 0x0 DUP1 REVERT JUMPDEST PUSH1 0x0 PUSH1 0x20 DUP3 DUP5 SUB SLT ISZERO PUSH2 0x1B44 JUMPI PUSH1 0x0 DUP1 REVERT JUMPDEST DUP2 CALLDATALOAD PUSH2 0xD21 DUP2 PUSH2 0x1B1C JUMP JUMPDEST PUSH1 0x0 PUSH1 0x20 DUP3 DUP5 SUB SLT ISZERO PUSH2 0x1B61 JUMPI PUSH1 0x0 DUP1 REVERT JUMPDEST POP CALLDATALOAD SWAP2 SWAP1 POP JUMP JUMPDEST PUSH1 0x0 JUMPDEST DUP4 DUP2 LT ISZERO PUSH2 0x1B83 JUMPI DUP2 DUP2 ADD MLOAD DUP4 DUP3 ADD MSTORE PUSH1 0x20 ADD PUSH2 0x1B6B JUMP JUMPDEST POP POP PUSH1 0x0 SWAP2 ADD MSTORE JUMP JUMPDEST PUSH1 0x0 DUP2 MLOAD DUP1 DUP5 MSTORE PUSH2 0x1BA4 DUP2 PUSH1 0x20 DUP7 ADD PUSH1 0x20 DUP7 ADD PUSH2 0x1B68 JUMP JUMPDEST PUSH1 0x1F ADD PUSH1 0x1F NOT AND SWAP3 SWAP1 SWAP3 ADD PUSH1 0x20 ADD SWAP3 SWAP2 POP POP JUMP JUMPDEST PUSH1 0x20 DUP2 MSTORE PUSH1 0x0 PUSH2 0xD21 PUSH1 0x20 DUP4 ADD DUP5 PUSH2 0x1B8C JUMP JUMPDEST DUP1 CALLDATALOAD PUSH1 0x1 PUSH1 0x1 PUSH1 0xA0 SHL SUB DUP2 AND DUP2 EQ PUSH2 0x1BE2 JUMPI PUSH1 0x0 DUP1 REVERT JUMPDEST SWAP2 SWAP1 POP JUMP JUMPDEST PUSH1 0x0 DUP1 PUSH1 0x40 DUP4 DUP6 SUB SLT ISZERO PUSH2 0x1BFA JUMPI PUSH1 0x0 DUP1 REVERT JUMPDEST PUSH2 0x1C03 DUP4 PUSH2 0x1BCB JUMP JUMPDEST SWAP5 PUSH1 0x20 SWAP4 SWAP1 SWAP4 ADD CALLDATALOAD SWAP4 POP POP POP JUMP JUMPDEST PUSH1 0x0 DUP1 PUSH1 0x0 PUSH1 0x60 DUP5 DUP7 SUB SLT ISZERO PUSH2 0x1C26 JUMPI PUSH1 0x0 DUP1 REVERT JUMPDEST PUSH2 0x1C2F DUP5 PUSH2 0x1BCB JUMP JUMPDEST SWAP3 POP PUSH2 0x1C3D PUSH1 0x20 DUP6 ADD PUSH2 0x1BCB JUMP JUMPDEST SWAP2 POP PUSH1 0x40 DUP5 ADD CALLDATALOAD SWAP1 POP SWAP3 POP SWAP3 POP SWAP3 JUMP JUMPDEST PUSH1 0x0 DUP1 PUSH1 0x40 DUP4 DUP6 SUB SLT ISZERO PUSH2 0x1C60 JUMPI PUSH1 0x0 DUP1 REVERT JUMPDEST DUP3 CALLDATALOAD SWAP2 POP PUSH2 0x1C70 PUSH1 0x20 DUP5 ADD PUSH2 0x1BCB JUMP JUMPDEST SWAP1 POP SWAP3 POP SWAP3 SWAP1 POP JUMP JUMPDEST PUSH1 0x0 DUP1 PUSH1 0x0 DUP1 PUSH1 0x60 DUP6 DUP8 SUB SLT ISZERO PUSH2 0x1C8F JUMPI PUSH1 0x0 DUP1 REVERT JUMPDEST PUSH2 0x1C98 DUP6 PUSH2 0x1BCB JUMP JUMPDEST SWAP4 POP PUSH1 0x20 DUP6 ADD CALLDATALOAD SWAP3 POP PUSH1 0x40 DUP6 ADD CALLDATALOAD PUSH8 0xFFFFFFFFFFFFFFFF DUP1 DUP3 GT ISZERO PUSH2 0x1CBC JUMPI PUSH1 0x0 DUP1 REVERT JUMPDEST DUP2 DUP8 ADD SWAP2 POP DUP8 PUSH1 0x1F DUP4 ADD SLT PUSH2 0x1CD0 JUMPI PUSH1 0x0 DUP1 REVERT JUMPDEST DUP2 CALLDATALOAD DUP2 DUP2 GT ISZERO PUSH2 0x1CDF JUMPI PUSH1 0x0 DUP1 REVERT JUMPDEST DUP9 PUSH1 0x20 DUP3 PUSH1 0x5 SHL DUP6 ADD ADD GT ISZERO PUSH2 0x1CF4 JUMPI PUSH1 0x0 DUP1 REVERT JUMPDEST SWAP6 SWAP9 SWAP5 SWAP8 POP POP PUSH1 0x20 ADD SWAP5 POP POP POP JUMP JUMPDEST PUSH1 0x0 PUSH1 0x20 DUP3 DUP5 SUB SLT ISZERO PUSH2 0x1D15 JUMPI PUSH1 0x0 DUP1 REVERT JUMPDEST PUSH2 0xD21 DUP3 PUSH2 0x1BCB JUMP JUMPDEST PUSH1 0x0 DUP1 PUSH1 0x40 DUP4 DUP6 SUB SLT ISZERO PUSH2 0x1D31 JUMPI PUSH1 0x0 DUP1 REVERT JUMPDEST PUSH2 0x1D3A DUP4 PUSH2 0x1BCB JUMP JUMPDEST SWAP2 POP PUSH1 0x20 DUP4 ADD CALLDATALOAD DUP1 ISZERO ISZERO DUP2 EQ PUSH2 0x1D4F JUMPI PUSH1 0x0 DUP1 REVERT JUMPDEST DUP1 SWAP2 POP POP SWAP3 POP SWAP3 SWAP1 POP JUMP JUMPDEST PUSH4 0x4E487B71 PUSH1 0xE0 SHL PUSH1 0x0 MSTORE PUSH1 0x41 PUSH1 0x4 MSTORE PUSH1 0x24 PUSH1 0x0 REVERT JUMPDEST PUSH1 0x0 DUP1 PUSH1 0x0 DUP1 PUSH1 0x80 DUP6 DUP8 SUB SLT ISZERO PUSH2 0x1D86 JUMPI PUSH1 0x0 DUP1 REVERT JUMPDEST PUSH2 0x1D8F DUP6 PUSH2 0x1BCB JUMP JUMPDEST SWAP4 POP PUSH2 0x1D9D PUSH1 0x20 DUP7 ADD PUSH2 0x1BCB JUMP JUMPDEST SWAP3 POP PUSH1 0x40 DUP6 ADD CALLDATALOAD SWAP2 POP PUSH1 0x60 DUP6 ADD CALLDATALOAD PUSH8 0xFFFFFFFFFFFFFFFF DUP1 DUP3 GT ISZERO PUSH2 0x1DC1 JUMPI PUSH1 0x0 DUP1 REVERT JUMPDEST DUP2 DUP8 ADD SWAP2 POP DUP8 PUSH1 0x1F DUP4 ADD SLT PUSH2 0x1DD5 JUMPI PUSH1 0x0 DUP1 REVERT JUMPDEST DUP2 CALLDATALOAD DUP2 DUP2 GT ISZERO PUSH2 0x1DE7 JUMPI PUSH2 0x1DE7 PUSH2 0x1D5A JUMP JUMPDEST PUSH1 0x40 MLOAD PUSH1 0x1F DUP3 ADD PUSH1 0x1F NOT SWAP1 DUP2 AND PUSH1 0x3F ADD AND DUP2 ADD SWAP1 DUP4 DUP3 GT DUP2 DUP4 LT OR ISZERO PUSH2 0x1E0F JUMPI PUSH2 0x1E0F PUSH2 0x1D5A JUMP JUMPDEST DUP2 PUSH1 0x40 MSTORE DUP3 DUP2 MSTORE DUP11 PUSH1 0x20 DUP5 DUP8 ADD ADD GT ISZERO PUSH2 0x1E28 JUMPI PUSH1 0x0 DUP1 REVERT JUMPDEST DUP3 PUSH1 0x20 DUP7 ADD PUSH1 0x20 DUP4 ADD CALLDATACOPY PUSH1 0x0 PUSH1 0x20 DUP5 DUP4 ADD ADD MSTORE DUP1 SWAP6 POP POP POP POP POP POP SWAP3 SWAP6 SWAP2 SWAP5 POP SWAP3 POP JUMP JUMPDEST PUSH1 0x0 DUP1 PUSH1 0x40 DUP4 DUP6 SUB SLT ISZERO PUSH2 0x1E5F JUMPI PUSH1 0x0 DUP1 REVERT JUMPDEST PUSH2 0x1E68 DUP4 PUSH2 0x1BCB JUMP JUMPDEST SWAP2 POP PUSH2 0x1C70 PUSH1 0x20 DUP5 ADD PUSH2 0x1BCB JUMP JUMPDEST PUSH1 0x1 DUP2 DUP2 SHR SWAP1 DUP3 AND DUP1 PUSH2 0x1E8A JUMPI PUSH1 0x7F DUP3 AND SWAP2 POP JUMPDEST PUSH1 0x20 DUP3 LT DUP2 SUB PUSH2 0x1EAA JUMPI PUSH4 0x4E487B71 PUSH1 0xE0 SHL PUSH1 0x0 MSTORE PUSH1 0x22 PUSH1 0x4 MSTORE PUSH1 0x24 PUSH1 0x0 REVERT JUMPDEST POP SWAP2 SWAP1 POP JUMP JUMPDEST PUSH1 0x20 DUP1 DUP3 MSTORE PUSH1 0x2D SWAP1 DUP3 ADD MSTORE PUSH32 0x4552433732313A2063616C6C6572206973206E6F7420746F6B656E206F776E65 PUSH1 0x40 DUP3 ADD MSTORE PUSH13 0x1C881BDC88185C1C1C9BDD9959 PUSH1 0x9A SHL PUSH1 0x60 DUP3 ADD MSTORE PUSH1 0x80 ADD SWAP1 JUMP JUMPDEST PUSH1 0x0 DUP4 MLOAD PUSH2 0x1F0F DUP2 DUP5 PUSH1 0x20 DUP9 ADD PUSH2 0x1B68 JUMP JUMPDEST DUP4 MLOAD SWAP1 DUP4 ADD SWAP1 PUSH2 0x1F23 DUP2 DUP4 PUSH1 0x20 DUP9 ADD PUSH2 0x1B68 JUMP JUMPDEST ADD SWAP5 SWAP4 POP POP POP POP JUMP JUMPDEST PUSH1 0x20 DUP1 DUP3 MSTORE PUSH1 0x25 SWAP1 DUP3 ADD MSTORE PUSH32 0x4552433732313A207472616E736665722066726F6D20696E636F727265637420 PUSH1 0x40 DUP3 ADD MSTORE PUSH5 0x37BBB732B9 PUSH1 0xD9 SHL PUSH1 0x60 DUP3 ADD MSTORE PUSH1 0x80 ADD SWAP1 JUMP JUMPDEST PUSH1 0x20 DUP1 DUP3 MSTORE PUSH1 0x32 SWAP1 DUP3 ADD MSTORE PUSH32 0x4552433732313A207472616E7366657220746F206E6F6E204552433732315265 PUSH1 0x40 DUP3 ADD MSTORE PUSH18 0x31B2B4BB32B91034B6B83632B6B2B73A32B9 PUSH1 0x71 SHL PUSH1 0x60 DUP3 ADD MSTORE PUSH1 0x80 ADD SWAP1 JUMP JUMPDEST PUSH32 0x416363657373436F6E74726F6C3A206163636F756E7420000000000000000000 DUP2 MSTORE PUSH1 0x0 DUP4 MLOAD PUSH2 0x1FFB DUP2 PUSH1 0x17 DUP6 ADD PUSH1 0x20 DUP9 ADD PUSH2 0x1B68 JUMP JUMPDEST PUSH17 0x1034B99036B4B9B9B4B733903937B6329 PUSH1 0x7D SHL PUSH1 0x17 SWAP2 DUP5 ADD SWAP2 DUP3 ADD MSTORE DUP4 MLOAD PUSH2 0x202C DUP2 PUSH1 0x28 DUP5 ADD PUSH1 0x20 DUP9 ADD PUSH2 0x1B68 JUMP JUMPDEST ADD PUSH1 0x28 ADD SWAP5 SWAP4 POP POP POP POP JUMP JUMPDEST PUSH4 0x4E487B71 PUSH1 0xE0 SHL PUSH1 0x0 MSTORE PUSH1 0x32 PUSH1 0x4 MSTORE PUSH1 0x24 PUSH1 0x0 REVERT JUMPDEST PUSH4 0x4E487B71 PUSH1 0xE0 SHL PUSH1 0x0 MSTORE PUSH1 0x11 PUSH1 0x4 MSTORE PUSH1 0x24 PUSH1 0x0 REVERT JUMPDEST PUSH1 0x0 PUSH1 0x1 DUP3 ADD PUSH2 0x2076 JUMPI PUSH2 0x2076 PUSH2 0x204E JUMP JUMPDEST POP PUSH1 0x1 ADD SWAP1 JUMP JUMPDEST PUSH1 0x1 PUSH1 0x1 PUSH1 0xA0 SHL SUB DUP6 DUP2 AND DUP3 MSTORE DUP5 AND PUSH1 0x20 DUP3 ADD MSTORE PUSH1 0x40 DUP2 ADD DUP4 SWAP1 MSTORE PUSH1 0x80 PUSH1 0x60 DUP3 ADD DUP2 SWAP1 MSTORE PUSH1 0x0 SWAP1 PUSH2 0x20B0 SWAP1 DUP4 ADD DUP5 PUSH2 0x1B8C JUMP JUMPDEST SWAP7 SWAP6 POP POP POP POP POP POP JUMP JUMPDEST PUSH1 0x0 PUSH1 0x20 DUP3 DUP5 SUB SLT ISZERO PUSH2 0x20CC JUMPI PUSH1 0x0 DUP1 REVERT JUMPDEST DUP2 MLOAD PUSH2 0xD21 DUP2 PUSH2 0x1B1C JUMP JUMPDEST DUP1 DUP3 MUL DUP2 ISZERO DUP3 DUP3 DIV DUP5 EQ OR PUSH2 0x486 JUMPI PUSH2 0x486 PUSH2 0x204E JUMP JUMPDEST DUP1 DUP3 ADD DUP1 DUP3 GT ISZERO PUSH2 0x486 JUMPI PUSH2 0x486 PUSH2 0x204E JUMP JUMPDEST PUSH1 0x0 DUP2 PUSH2 0x2110 JUMPI PUSH2 0x2110 PUSH2 0x204E JUMP JUMPDEST POP PUSH1 0x0 NOT ADD SWAP1 JUMP INVALID PUSH10 0x7066733A2F2F516D5457 PUSH23 0x6D35357A6E5458364E6D676F706455704A5838434A734E PUSH27 0x68474A5934624A566D4D766F4A503568412FA26469706673582212 KECCAK256 0xB5 0xAA SWAP16 SWAP13 0xAB 0xB9 0xD0 SLT ISZERO 0xE2 ISZERO ADDMOD 0xB4 0xAD 0xB8 0xD4 JUMPDEST 0x21 ADDMOD CALLDATALOAD 0xB3 0xF DUP15 BASEFEE 0x4E STOP KECCAK256 PUSH26 0xB2F095EE64736F6C634300081300330000000000000000000000 "},"methodIdentifiers":{"DEFAULT_ADMIN_ROLE()":"a217fddf","MINTER_ROLE()":"d5391393","PAUSER_ROLE()":"e63ab1e9","approve(address,uint256)":"095ea7b3","balanceOf(address)":"70a08231","bbtknContract()":"4d5a9a2c","burn(uint256)":"42966c68","buyBack(uint256)":"053f9040","getApproved(uint256)":"081812fc","getRoleAdmin(bytes32)":"248a9ca3","grantRole(bytes32,address)":"2f2ff15d","hasRole(bytes32,address)":"91d14854","isApprovedForAll(address,address)":"e985e9c5","name()":"06fdde03","ownerOf(uint256)":"6352211e","pause()":"8456cb59","paused()":"5c975abb","renounceRole(bytes32,address)":"36568abe","revokeRole(bytes32,address)":"d547741f","root()":"ebf0c717","safeMint(address,uint256)":"a1448194","safeMintWhiteList(address,uint256,bytes32[])":"662c2d96","safeTransferFrom(address,address,uint256)":"42842e0e","safeTransferFrom(address,address,uint256,bytes)":"b88d4fde","setApprovalForAll(address,bool)":"a22cb465","supportsInterface(bytes4)":"01ffc9a7","symbol()":"95d89b41","tokenURI(uint256)":"c87b56dd","transferFrom(address,address,uint256)":"23b872dd","unpause()":"3f4ba83a"}},"storageLayout":{"storage":[{"astId":522,"contract":"contracts/CuyCollectionNft.sol:CuyCollectionNft","label":"_name","offset":0,"slot":"0","type":"t_string_storage"},{"astId":524,"contract":"contracts/CuyCollectionNft.sol:CuyCollectionNft","label":"_symbol","offset":0,"slot":"1","type":"t_string_storage"},{"astId":528,"contract":"contracts/CuyCollectionNft.sol:CuyCollectionNft","label":"_owners","offset":0,"slot":"2","type":"t_mapping(t_uint256,t_address)"},{"astId":532,"contract":"contracts/CuyCollectionNft.sol:CuyCollectionNft","label":"_balances","offset":0,"slot":"3","type":"t_mapping(t_address,t_uint256)"},{"astId":536,"contract":"contracts/CuyCollectionNft.sol:CuyCollectionNft","label":"_tokenApprovals","offset":0,"slot":"4","type":"t_mapping(t_uint256,t_address)"},{"astId":542,"contract":"contracts/CuyCollectionNft.sol:CuyCollectionNft","label":"_operatorApprovals","offset":0,"slot":"5","type":"t_mapping(t_address,t_mapping(t_address,t_bool))"},{"astId":406,"contract":"contracts/CuyCollectionNft.sol:CuyCollectionNft","label":"_paused","offset":0,"slot":"6","type":"t_bool"},{"astId":24,"contract":"contracts/CuyCollectionNft.sol:CuyCollectionNft","label":"_roles","offset":0,"slot":"7","type":"t_mapping(t_bytes32,t_struct(RoleData)19_storage)"},{"astId":3732,"contract":"contracts/CuyCollectionNft.sol:CuyCollectionNft","label":"root","offset":0,"slot":"8","type":"t_bytes32"},{"astId":3735,"contract":"contracts/CuyCollectionNft.sol:CuyCollectionNft","label":"bbtknContract","offset":0,"slot":"9","type":"t_contract(BBTKN)3714"}],"types":{"t_address":{"encoding":"inplace","label":"address","numberOfBytes":"20"},"t_bool":{"encoding":"inplace","label":"bool","numberOfBytes":"1"},"t_bytes32":{"encoding":"inplace","label":"bytes32","numberOfBytes":"32"},"t_contract(BBTKN)3714":{"encoding":"inplace","label":"contract BBTKN","numberOfBytes":"20"},"t_mapping(t_address,t_bool)":{"encoding":"mapping","key":"t_address","label":"mapping(address => bool)","numberOfBytes":"32","value":"t_bool"},"t_mapping(t_address,t_mapping(t_address,t_bool))":{"encoding":"mapping","key":"t_address","label":"mapping(address => mapping(address => bool))","numberOfBytes":"32","value":"t_mapping(t_address,t_bool)"},"t_mapping(t_address,t_uint256)":{"encoding":"mapping","key":"t_address","label":"mapping(address => uint256)","numberOfBytes":"32","value":"t_uint256"},"t_mapping(t_bytes32,t_struct(RoleData)19_storage)":{"encoding":"mapping","key":"t_bytes32","label":"mapping(bytes32 => struct AccessControl.RoleData)","numberOfBytes":"32","value":"t_struct(RoleData)19_storage"},"t_mapping(t_uint256,t_address)":{"encoding":"mapping","key":"t_uint256","label":"mapping(uint256 => address)","numberOfBytes":"32","value":"t_address"},"t_string_storage":{"encoding":"bytes","label":"string","numberOfBytes":"32"},"t_struct(RoleData)19_storage":{"encoding":"inplace","label":"struct AccessControl.RoleData","members":[{"astId":16,"contract":"contracts/CuyCollectionNft.sol:CuyCollectionNft","label":"members","offset":0,"slot":"0","type":"t_mapping(t_address,t_bool)"},{"astId":18,"contract":"contracts/CuyCollectionNft.sol:CuyCollectionNft","label":"adminRole","offset":0,"slot":"1","type":"t_bytes32"}],"numberOfBytes":"64"},"t_uint256":{"encoding":"inplace","label":"uint256","numberOfBytes":"32"}}}}}}