{
  "_format": "hh-sol-artifact-1",
  "contractName": "CuyCollectionNft",
  "sourceName": "contracts/CuyCollectionNft.sol",
  "abi": [
    {
      "inputs": [
        {
          "internalType": "string",
          "name": "_name",
          "type": "string"
        },
        {
          "internalType": "string",
          "name": "_symbol",
          "type": "string"
        },
        {
          "internalType": "address",
          "name": "_bbtknContract",
          "type": "address"
        }
      ],
      "stateMutability": "nonpayable",
      "type": "constructor"
    },
    {
      "anonymous": false,
      "inputs": [
        {
          "indexed": true,
          "internalType": "address",
          "name": "owner",
          "type": "address"
        },
        {
          "indexed": true,
          "internalType": "address",
          "name": "approved",
          "type": "address"
        },
        {
          "indexed": true,
          "internalType": "uint256",
          "name": "tokenId",
          "type": "uint256"
        }
      ],
      "name": "Approval",
      "type": "event"
    },
    {
      "anonymous": false,
      "inputs": [
        {
          "indexed": true,
          "internalType": "address",
          "name": "owner",
          "type": "address"
        },
        {
          "indexed": true,
          "internalType": "address",
          "name": "operator",
          "type": "address"
        },
        {
          "indexed": false,
          "internalType": "bool",
          "name": "approved",
          "type": "bool"
        }
      ],
      "name": "ApprovalForAll",
      "type": "event"
    },
    {
      "anonymous": false,
      "inputs": [
        {
          "indexed": false,
          "internalType": "address",
          "name": "account",
          "type": "address"
        },
        {
          "indexed": false,
          "internalType": "uint256",
          "name": "id",
          "type": "uint256"
        }
      ],
      "name": "Burn",
      "type": "event"
    },
    {
      "anonymous": false,
      "inputs": [
        {
          "indexed": false,
          "internalType": "address",
          "name": "account",
          "type": "address"
        }
      ],
      "name": "Paused",
      "type": "event"
    },
    {
      "anonymous": false,
      "inputs": [
        {
          "indexed": true,
          "internalType": "bytes32",
          "name": "role",
          "type": "bytes32"
        },
        {
          "indexed": true,
          "internalType": "bytes32",
          "name": "previousAdminRole",
          "type": "bytes32"
        },
        {
          "indexed": true,
          "internalType": "bytes32",
          "name": "newAdminRole",
          "type": "bytes32"
        }
      ],
      "name": "RoleAdminChanged",
      "type": "event"
    },
    {
      "anonymous": false,
      "inputs": [
        {
          "indexed": true,
          "internalType": "bytes32",
          "name": "role",
          "type": "bytes32"
        },
        {
          "indexed": true,
          "internalType": "address",
          "name": "account",
          "type": "address"
        },
        {
          "indexed": true,
          "internalType": "address",
          "name": "sender",
          "type": "address"
        }
      ],
      "name": "RoleGranted",
      "type": "event"
    },
    {
      "anonymous": false,
      "inputs": [
        {
          "indexed": true,
          "internalType": "bytes32",
          "name": "role",
          "type": "bytes32"
        },
        {
          "indexed": true,
          "internalType": "address",
          "name": "account",
          "type": "address"
        },
        {
          "indexed": true,
          "internalType": "address",
          "name": "sender",
          "type": "address"
        }
      ],
      "name": "RoleRevoked",
      "type": "event"
    },
    {
      "anonymous": false,
      "inputs": [
        {
          "indexed": true,
          "internalType": "address",
          "name": "from",
          "type": "address"
        },
        {
          "indexed": true,
          "internalType": "address",
          "name": "to",
          "type": "address"
        },
        {
          "indexed": true,
          "internalType": "uint256",
          "name": "tokenId",
          "type": "uint256"
        }
      ],
      "name": "Transfer",
      "type": "event"
    },
    {
      "anonymous": false,
      "inputs": [
        {
          "indexed": false,
          "internalType": "address",
          "name": "account",
          "type": "address"
        }
      ],
      "name": "Unpaused",
      "type": "event"
    },
    {
      "inputs": [],
      "name": "DEFAULT_ADMIN_ROLE",
      "outputs": [
        {
          "internalType": "bytes32",
          "name": "",
          "type": "bytes32"
        }
      ],
      "stateMutability": "view",
      "type": "function"
    },
    {
      "inputs": [],
      "name": "MINTER_ROLE",
      "outputs": [
        {
          "internalType": "bytes32",
          "name": "",
          "type": "bytes32"
        }
      ],
      "stateMutability": "view",
      "type": "function"
    },
    {
      "inputs": [],
      "name": "PAUSER_ROLE",
      "outputs": [
        {
          "internalType": "bytes32",
          "name": "",
          "type": "bytes32"
        }
      ],
      "stateMutability": "view",
      "type": "function"
    },
    {
      "inputs": [
        {
          "internalType": "address",
          "name": "to",
          "type": "address"
        },
        {
          "internalType": "uint256",
          "name": "tokenId",
          "type": "uint256"
        }
      ],
      "name": "approve",
      "outputs": [],
      "stateMutability": "nonpayable",
      "type": "function"
    },
    {
      "inputs": [
        {
          "internalType": "address",
          "name": "owner",
          "type": "address"
        }
      ],
      "name": "balanceOf",
      "outputs": [
        {
          "internalType": "uint256",
          "name": "",
          "type": "uint256"
        }
      ],
      "stateMutability": "view",
      "type": "function"
    },
    {
      "inputs": [],
      "name": "bbtknContract",
      "outputs": [
        {
          "internalType": "contract BBTKN",
          "name": "",
          "type": "address"
        }
      ],
      "stateMutability": "view",
      "type": "function"
    },
    {
      "inputs": [
        {
          "internalType": "uint256",
          "name": "tokenId",
          "type": "uint256"
        }
      ],
      "name": "burn",
      "outputs": [],
      "stateMutability": "nonpayable",
      "type": "function"
    },
    {
      "inputs": [
        {
          "internalType": "uint256",
          "name": "id",
          "type": "uint256"
        }
      ],
      "name": "buyBack",
      "outputs": [],
      "stateMutability": "nonpayable",
      "type": "function"
    },
    {
      "inputs": [
        {
          "internalType": "uint256",
          "name": "tokenId",
          "type": "uint256"
        }
      ],
      "name": "getApproved",
      "outputs": [
        {
          "internalType": "address",
          "name": "",
          "type": "address"
        }
      ],
      "stateMutability": "view",
      "type": "function"
    },
    {
      "inputs": [
        {
          "internalType": "bytes32",
          "name": "role",
          "type": "bytes32"
        }
      ],
      "name": "getRoleAdmin",
      "outputs": [
        {
          "internalType": "bytes32",
          "name": "",
          "type": "bytes32"
        }
      ],
      "stateMutability": "view",
      "type": "function"
    },
    {
      "inputs": [
        {
          "internalType": "bytes32",
          "name": "role",
          "type": "bytes32"
        },
        {
          "internalType": "address",
          "name": "account",
          "type": "address"
        }
      ],
      "name": "grantRole",
      "outputs": [],
      "stateMutability": "nonpayable",
      "type": "function"
    },
    {
      "inputs": [
        {
          "internalType": "bytes32",
          "name": "role",
          "type": "bytes32"
        },
        {
          "internalType": "address",
          "name": "account",
          "type": "address"
        }
      ],
      "name": "hasRole",
      "outputs": [
        {
          "internalType": "bool",
          "name": "",
          "type": "bool"
        }
      ],
      "stateMutability": "view",
      "type": "function"
    },
    {
      "inputs": [
        {
          "internalType": "address",
          "name": "owner",
          "type": "address"
        },
        {
          "internalType": "address",
          "name": "operator",
          "type": "address"
        }
      ],
      "name": "isApprovedForAll",
      "outputs": [
        {
          "internalType": "bool",
          "name": "",
          "type": "bool"
        }
      ],
      "stateMutability": "view",
      "type": "function"
    },
    {
      "inputs": [],
      "name": "name",
      "outputs": [
        {
          "internalType": "string",
          "name": "",
          "type": "string"
        }
      ],
      "stateMutability": "view",
      "type": "function"
    },
    {
      "inputs": [
        {
          "internalType": "uint256",
          "name": "tokenId",
          "type": "uint256"
        }
      ],
      "name": "ownerOf",
      "outputs": [
        {
          "internalType": "address",
          "name": "",
          "type": "address"
        }
      ],
      "stateMutability": "view",
      "type": "function"
    },
    {
      "inputs": [],
      "name": "pause",
      "outputs": [],
      "stateMutability": "nonpayable",
      "type": "function"
    },
    {
      "inputs": [],
      "name": "paused",
      "outputs": [
        {
          "internalType": "bool",
          "name": "",
          "type": "bool"
        }
      ],
      "stateMutability": "view",
      "type": "function"
    },
    {
      "inputs": [
        {
          "internalType": "bytes32",
          "name": "role",
          "type": "bytes32"
        },
        {
          "internalType": "address",
          "name": "account",
          "type": "address"
        }
      ],
      "name": "renounceRole",
      "outputs": [],
      "stateMutability": "nonpayable",
      "type": "function"
    },
    {
      "inputs": [
        {
          "internalType": "bytes32",
          "name": "role",
          "type": "bytes32"
        },
        {
          "internalType": "address",
          "name": "account",
          "type": "address"
        }
      ],
      "name": "revokeRole",
      "outputs": [],
      "stateMutability": "nonpayable",
      "type": "function"
    },
    {
      "inputs": [],
      "name": "root",
      "outputs": [
        {
          "internalType": "bytes32",
          "name": "",
          "type": "bytes32"
        }
      ],
      "stateMutability": "view",
      "type": "function"
    },
    {
      "inputs": [
        {
          "internalType": "address",
          "name": "to",
          "type": "address"
        },
        {
          "internalType": "uint256",
          "name": "tokenId",
          "type": "uint256"
        }
      ],
      "name": "safeMint",
      "outputs": [],
      "stateMutability": "nonpayable",
      "type": "function"
    },
    {
      "inputs": [
        {
          "internalType": "address",
          "name": "to",
          "type": "address"
        },
        {
          "internalType": "uint256",
          "name": "tokenId",
          "type": "uint256"
        },
        {
          "internalType": "bytes32[]",
          "name": "proofs",
          "type": "bytes32[]"
        }
      ],
      "name": "safeMintWhiteList",
      "outputs": [],
      "stateMutability": "nonpayable",
      "type": "function"
    },
    {
      "inputs": [
        {
          "internalType": "address",
          "name": "from",
          "type": "address"
        },
        {
          "internalType": "address",
          "name": "to",
          "type": "address"
        },
        {
          "internalType": "uint256",
          "name": "tokenId",
          "type": "uint256"
        }
      ],
      "name": "safeTransferFrom",
      "outputs": [],
      "stateMutability": "nonpayable",
      "type": "function"
    },
    {
      "inputs": [
        {
          "internalType": "address",
          "name": "from",
          "type": "address"
        },
        {
          "internalType": "address",
          "name": "to",
          "type": "address"
        },
        {
          "internalType": "uint256",
          "name": "tokenId",
          "type": "uint256"
        },
        {
          "internalType": "bytes",
          "name": "data",
          "type": "bytes"
        }
      ],
      "name": "safeTransferFrom",
      "outputs": [],
      "stateMutability": "nonpayable",
      "type": "function"
    },
    {
      "inputs": [
        {
          "internalType": "address",
          "name": "operator",
          "type": "address"
        },
        {
          "internalType": "bool",
          "name": "approved",
          "type": "bool"
        }
      ],
      "name": "setApprovalForAll",
      "outputs": [],
      "stateMutability": "nonpayable",
      "type": "function"
    },
    {
      "inputs": [
        {
          "internalType": "bytes4",
          "name": "interfaceId",
          "type": "bytes4"
        }
      ],
      "name": "supportsInterface",
      "outputs": [
        {
          "internalType": "bool",
          "name": "",
          "type": "bool"
        }
      ],
      "stateMutability": "view",
      "type": "function"
    },
    {
      "inputs": [],
      "name": "symbol",
      "outputs": [
        {
          "internalType": "string",
          "name": "",
          "type": "string"
        }
      ],
      "stateMutability": "view",
      "type": "function"
    },
    {
      "inputs": [
        {
          "internalType": "uint256",
          "name": "tokenId",
          "type": "uint256"
        }
      ],
      "name": "tokenURI",
      "outputs": [
        {
          "internalType": "string",
          "name": "",
          "type": "string"
        }
      ],
      "stateMutability": "view",
      "type": "function"
    },
    {
      "inputs": [
        {
          "internalType": "address",
          "name": "from",
          "type": "address"
        },
        {
          "internalType": "address",
          "name": "to",
          "type": "address"
        },
        {
          "internalType": "uint256",
          "name": "tokenId",
          "type": "uint256"
        }
      ],
      "name": "transferFrom",
      "outputs": [],
      "stateMutability": "nonpayable",
      "type": "function"
    },
    {
      "inputs": [],
      "name": "unpause",
      "outputs": [],
      "stateMutability": "nonpayable",
      "type": "function"
    }
  ],
  "bytecode": "0x60806040523480156200001157600080fd5b50604051620025d4380380620025d4833981016040819052620000349162000258565b8282600062000044838262000374565b50600162000053828262000374565b50506006805460ff19169055506200006d600033620000ee565b620000997f65d7a28e3265b37a6474929f336521b332c1681b933f6cb9f3376673440d862a33620000ee565b620000c57f9f2df0fed2c77648de5860a4cc508cd0818c85b8b8a1ab4ceeef8d981c8956a633620000ee565b600980546001600160a01b0319166001600160a01b039290921691909117905550620004409050565b60008281526007602090815260408083206001600160a01b038516845290915290205460ff166200018f5760008281526007602090815260408083206001600160a01b03851684529091529020805460ff191660011790556200014e3390565b6001600160a01b0316816001600160a01b0316837f2f8788117e7eff1d82e926ec794901d17c78024a50270940304540a733656f0d60405160405180910390a45b5050565b634e487b7160e01b600052604160045260246000fd5b600082601f830112620001bb57600080fd5b81516001600160401b0380821115620001d857620001d862000193565b604051601f8301601f19908116603f0116810190828211818310171562000203576200020362000193565b816040528381526020925086838588010111156200022057600080fd5b600091505b8382101562000244578582018301518183018401529082019062000225565b600093810190920192909252949350505050565b6000806000606084860312156200026e57600080fd5b83516001600160401b03808211156200028657600080fd5b6200029487838801620001a9565b94506020860151915080821115620002ab57600080fd5b50620002ba86828701620001a9565b604086015190935090506001600160a01b0381168114620002da57600080fd5b809150509250925092565b600181811c90821680620002fa57607f821691505b6020821081036200031b57634e487b7160e01b600052602260045260246000fd5b50919050565b601f8211156200036f57600081815260208120601f850160051c810160208610156200034a5750805b601f850160051c820191505b818110156200036b5782815560010162000356565b5050505b505050565b81516001600160401b0381111562000390576200039062000193565b620003a881620003a18454620002e5565b8462000321565b602080601f831160018114620003e05760008415620003c75750858301515b600019600386901b1c1916600185901b1785556200036b565b600085815260208120601f198616915b828110156200041157888601518255948401946001909101908401620003f0565b5085821015620004305787850151600019600388901b60f8161c191681555b5050505050600190811b01905550565b61218480620004506000396000f3fe608060405234801561001057600080fd5b50600436106101da5760003560e01c8063662c2d9611610104578063a22cb465116100a2578063d547741f11610071578063d547741f146103fc578063e63ab1e91461040f578063e985e9c514610436578063ebf0c7171461047257600080fd5b8063a22cb4651461039c578063b88d4fde146103af578063c87b56dd146103c2578063d5391393146103d557600080fd5b806391d14854116100de57806391d148541461036657806395d89b4114610379578063a144819414610381578063a217fddf1461039457600080fd5b8063662c2d961461033857806370a082311461034b5780638456cb591461035e57600080fd5b80632f2ff15d1161017c57806342966c681161014b57806342966c68146102f45780634d5a9a2c146103075780635c975abb1461031a5780636352211e1461032557600080fd5b80632f2ff15d146102b357806336568abe146102c65780633f4ba83a146102d957806342842e0e146102e157600080fd5b8063081812fc116101b8578063081812fc14610231578063095ea7b31461025c57806323b872dd1461026f578063248a9ca31461028257600080fd5b806301ffc9a7146101df578063053f90401461020757806306fdde031461021c575b600080fd5b6101f26101ed366004611b32565b61047b565b60405190151581526020015b60405180910390f35b61021a610215366004611b4f565b61048c565b005b6102246105fc565b6040516101fe9190611bb8565b61024461023f366004611b4f565b61068e565b6040516001600160a01b0390911681526020016101fe565b61021a61026a366004611be7565b6106b5565b61021a61027d366004611c11565b6107ca565b6102a5610290366004611b4f565b60009081526007602052604090206001015490565b6040519081526020016101fe565b61021a6102c1366004611c4d565b6107fb565b61021a6102d4366004611c4d565b610820565b61021a61089e565b61021a6102ef366004611c11565b6108d3565b61021a610302366004611b4f565b6108ee565b600954610244906001600160a01b031681565b60065460ff166101f2565b610244610333366004611b4f565b610944565b61021a610346366004611c79565b6109a4565b6102a5610359366004611d03565b610b0c565b61021a610b92565b6101f2610374366004611c4d565b610bc4565b610224610bef565b61021a61038f366004611be7565b610bfe565b6102a5600081565b61021a6103aa366004611d1e565b610c84565b61021a6103bd366004611d70565b610c8f565b6102246103d0366004611b4f565b610cc1565b6102a57f9f2df0fed2c77648de5860a4cc508cd0818c85b8b8a1ab4ceeef8d981c8956a681565b61021a61040a366004611c4d565b610d28565b6102a57f65d7a28e3265b37a6474929f336521b332c1681b933f6cb9f3376673440d862a81565b6101f2610444366004611e4c565b6001600160a01b03918216600090815260056020908152604080832093909416825291909152205460ff1690565b6102a560085481565b600061048682610d4d565b92915050565b610494610d72565b6103e881101580156104a857506107cf8111155b6104f25760405162461bcd60e51b8152602060048201526016602482015275496e76616c696420494420666f72206275796261636b60501b60448201526064015b60405180910390fd5b336104fc82610944565b6001600160a01b0316146105525760405162461bcd60e51b815260206004820152601760248201527f596f7520646f206e6f74206f776e2074686973204e465400000000000000000060448201526064016104e9565b61055b81610dba565b60408051338152602081018390527fcc16f5dbb4873280815c1ee09dbd06736cffcc184412cf7a71a0fdb75d397ca5910160405180910390a16009546040516340c10f1960e01b815233600482015261271060248201526001600160a01b03909116906340c10f1990604401600060405180830381600087803b1580156105e157600080fd5b505af11580156105f5573d6000803e3d6000fd5b5050505050565b60606000805461060b90611e76565b80601f016020809104026020016040519081016040528092919081815260200182805461063790611e76565b80156106845780601f1061065957610100808354040283529160200191610684565b820191906000526020600020905b81548152906001019060200180831161066757829003601f168201915b5050505050905090565b600061069982610e4f565b506000908152600460205260409020546001600160a01b031690565b60006106c082610944565b9050806001600160a01b0316836001600160a01b03160361072d5760405162461bcd60e51b815260206004820152602160248201527f4552433732313a20617070726f76616c20746f2063757272656e74206f776e656044820152603960f91b60648201526084016104e9565b336001600160a01b038216148061074957506107498133610444565b6107bb5760405162461bcd60e51b815260206004820152603d60248201527f4552433732313a20617070726f76652063616c6c6572206973206e6f7420746f60448201527f6b656e206f776e6572206f7220617070726f76656420666f7220616c6c00000060648201526084016104e9565b6107c58383610eae565b505050565b6107d43382610f1c565b6107f05760405162461bcd60e51b81526004016104e990611eb0565b6107c5838383610f9b565b600082815260076020526040902060010154610816816110ff565b6107c58383611109565b6001600160a01b03811633146108905760405162461bcd60e51b815260206004820152602f60248201527f416363657373436f6e74726f6c3a2063616e206f6e6c792072656e6f756e636560448201526e103937b632b9903337b91039b2b63360891b60648201526084016104e9565b61089a828261118f565b5050565b7f65d7a28e3265b37a6474929f336521b332c1681b933f6cb9f3376673440d862a6108c8816110ff565b6108d06111f6565b50565b6107c583838360405180602001604052806000815250610c8f565b6108f6610d72565b6109003382610f1c565b61093b5760405162461bcd60e51b815260206004820152600c60248201526b139bdd08185c1c1c9bdd995960a21b60448201526064016104e9565b6108d081610dba565b6000818152600260205260408120546001600160a01b0316806104865760405162461bcd60e51b8152602060048201526018602482015277115490cdcc8c4e881a5b9d985b1a59081d1bdad95b88125160421b60448201526064016104e9565b6109ac610d72565b6103e78311156109f65760405162461bcd60e51b8152602060048201526015602482015274546f6b656e204944206f7574206f662072616e676560581b60448201526064016104e9565b80610a435760405162461bcd60e51b815260206004820152601c60248201527f50726f6f66732061727261792063616e6e6f7420626520656d7074790000000060448201526064016104e9565b610ac0828280806020026020016040519081016040528093929190818152602001838360200280828437600092019190915250506008546040516bffffffffffffffffffffffff1960608b901b16602082015260348101899052909250605401905060405160208183030381529060405280519060200120611248565b610afc5760405162461bcd60e51b815260206004820152600d60248201526c24b73b30b634b210383937b7b360991b60448201526064016104e9565b610b06848461125e565b50505050565b60006001600160a01b038216610b765760405162461bcd60e51b815260206004820152602960248201527f4552433732313a2061646472657373207a65726f206973206e6f7420612076616044820152683634b21037bbb732b960b91b60648201526084016104e9565b506001600160a01b031660009081526003602052604090205490565b7f65d7a28e3265b37a6474929f336521b332c1681b933f6cb9f3376673440d862a610bbc816110ff565b6108d0611278565b60009182526007602090815260408084206001600160a01b0393909316845291905290205460ff1690565b60606001805461060b90611e76565b7f9f2df0fed2c77648de5860a4cc508cd0818c85b8b8a1ab4ceeef8d981c8956a6610c28816110ff565b610c30610d72565b6103e7821115610c7a5760405162461bcd60e51b8152602060048201526015602482015274546f6b656e204944206f7574206f662072616e676560581b60448201526064016104e9565b6107c5838361125e565b61089a3383836112b5565b610c993383610f1c565b610cb55760405162461bcd60e51b81526004016104e990611eb0565b610b0684848484611383565b6060610ccc82610e4f565b6000610cd66113b6565b90506000815111610cf65760405180602001604052806000815250610d21565b80610d00846113d6565b604051602001610d11929190611efd565b6040516020818303038152906040525b9392505050565b600082815260076020526040902060010154610d43816110ff565b6107c5838361118f565b60006001600160e01b03198216637965db0b60e01b1480610486575061048682611469565b60065460ff1615610db85760405162461bcd60e51b815260206004820152601060248201526f14185d5cd8589b194e881c185d5cd95960821b60448201526064016104e9565b565b6000610dc582610944565b9050610dd082610944565b600083815260046020908152604080832080546001600160a01b03199081169091556001600160a01b0385168085526003845282852080546000190190558785526002909352818420805490911690555192935084927fddf252ad1be2c89b69c2b068fc378daa952ba7f163c4a11628f55a4df523b3ef908390a45050565b6000818152600260205260409020546001600160a01b03166108d05760405162461bcd60e51b8152602060048201526018602482015277115490cdcc8c4e881a5b9d985b1a59081d1bdad95b88125160421b60448201526064016104e9565b600081815260046020526040902080546001600160a01b0319166001600160a01b0384169081179091558190610ee382610944565b6001600160a01b03167f8c5be1e5ebec7d5bd14f71427d1e84f3dd0314c0f7b2291e5b200ac8c7c3b92560405160405180910390a45050565b600080610f2883610944565b9050806001600160a01b0316846001600160a01b03161480610f6f57506001600160a01b0380821660009081526005602090815260408083209388168352929052205460ff165b80610f935750836001600160a01b0316610f888461068e565b6001600160a01b0316145b949350505050565b826001600160a01b0316610fae82610944565b6001600160a01b031614610fd45760405162461bcd60e51b81526004016104e990611f2c565b6001600160a01b0382166110365760405162461bcd60e51b8152602060048201526024808201527f4552433732313a207472616e7366657220746f20746865207a65726f206164646044820152637265737360e01b60648201526084016104e9565b826001600160a01b031661104982610944565b6001600160a01b03161461106f5760405162461bcd60e51b81526004016104e990611f2c565b600081815260046020908152604080832080546001600160a01b03199081169091556001600160a01b0387811680865260038552838620805460001901905590871680865283862080546001019055868652600290945282852080549092168417909155905184937fddf252ad1be2c89b69c2b068fc378daa952ba7f163c4a11628f55a4df523b3ef91a4505050565b6108d081336114b9565b6111138282610bc4565b61089a5760008281526007602090815260408083206001600160a01b03851684529091529020805460ff1916600117905561114b3390565b6001600160a01b0316816001600160a01b0316837f2f8788117e7eff1d82e926ec794901d17c78024a50270940304540a733656f0d60405160405180910390a45050565b6111998282610bc4565b1561089a5760008281526007602090815260408083206001600160a01b0385168085529252808320805460ff1916905551339285917ff6391f5c32d9c69d2a47ea670b442974b53935d1edc7fd64eb21e047a839171b9190a45050565b6111fe611512565b6006805460ff191690557f5db9ee0a495bf2e6ff9c91a7834c1ba4fdd244a5e8aa4e537bd38aeae4b073aa335b6040516001600160a01b03909116815260200160405180910390a1565b600082611255858461155b565b14949350505050565b61089a8282604051806020016040528060008152506115a8565b611280610d72565b6006805460ff191660011790557f62e78cea01bee320cd4e420270b5ea74000d11b0c9f74754ebdbfc544b05a25861122b3390565b816001600160a01b0316836001600160a01b0316036113165760405162461bcd60e51b815260206004820152601960248201527f4552433732313a20617070726f766520746f2063616c6c65720000000000000060448201526064016104e9565b6001600160a01b03838116600081815260056020908152604080832094871680845294825291829020805460ff191686151590811790915591519182527f17307eab39ab6107e8899845ad3d59bd9653f200f220920489ca2b5937696c31910160405180910390a3505050565b61138e848484610f9b565b61139a848484846115db565b610b065760405162461bcd60e51b81526004016104e990611f71565b606060405180606001604052806036815260200161211960369139905090565b606060006113e3836116dc565b600101905060008167ffffffffffffffff81111561140357611403611d5a565b6040519080825280601f01601f19166020018201604052801561142d576020820181803683370190505b5090508181016020015b600019016f181899199a1a9b1b9c1cb0b131b232b360811b600a86061a8153600a850494508461143757509392505050565b60006001600160e01b031982166380ac58cd60e01b148061149a57506001600160e01b03198216635b5e139f60e01b145b8061048657506301ffc9a760e01b6001600160e01b0319831614610486565b6114c38282610bc4565b61089a576114d0816117b4565b6114db8360206117c6565b6040516020016114ec929190611fc3565b60408051601f198184030181529082905262461bcd60e51b82526104e991600401611bb8565b60065460ff16610db85760405162461bcd60e51b815260206004820152601460248201527314185d5cd8589b194e881b9bdd081c185d5cd95960621b60448201526064016104e9565b600081815b84518110156115a05761158c8286838151811061157f5761157f612038565b6020026020010151611962565b91508061159881612064565b915050611560565b509392505050565b6115b28383611991565b6115bf60008484846115db565b6107c55760405162461bcd60e51b81526004016104e990611f71565b60006001600160a01b0384163b156116d157604051630a85bd0160e11b81526001600160a01b0385169063150b7a029061161f90339089908890889060040161207d565b6020604051808303816000875af192505050801561165a575060408051601f3d908101601f19168201909252611657918101906120ba565b60015b6116b7573d808015611688576040519150601f19603f3d011682016040523d82523d6000602084013e61168d565b606091505b5080516000036116af5760405162461bcd60e51b81526004016104e990611f71565b805181602001fd5b6001600160e01b031916630a85bd0160e11b149050610f93565b506001949350505050565b60008072184f03e93ff9f4daa797ed6e38ed64bf6a1f0160401b831061171b5772184f03e93ff9f4daa797ed6e38ed64bf6a1f0160401b830492506040015b6d04ee2d6d415b85acef81000000008310611747576d04ee2d6d415b85acef8100000000830492506020015b662386f26fc10000831061176557662386f26fc10000830492506010015b6305f5e100831061177d576305f5e100830492506008015b612710831061179157612710830492506004015b606483106117a3576064830492506002015b600a83106104865760010192915050565b60606104866001600160a01b03831660145b606060006117d58360026120d7565b6117e09060026120ee565b67ffffffffffffffff8111156117f8576117f8611d5a565b6040519080825280601f01601f191660200182016040528015611822576020820181803683370190505b509050600360fc1b8160008151811061183d5761183d612038565b60200101906001600160f81b031916908160001a905350600f60fb1b8160018151811061186c5761186c612038565b60200101906001600160f81b031916908160001a90535060006118908460026120d7565b61189b9060016120ee565b90505b6001811115611913576f181899199a1a9b1b9c1cb0b131b232b360811b85600f16601081106118cf576118cf612038565b1a60f81b8282815181106118e5576118e5612038565b60200101906001600160f81b031916908160001a90535060049490941c9361190c81612101565b905061189e565b508315610d215760405162461bcd60e51b815260206004820181905260248201527f537472696e67733a20686578206c656e67746820696e73756666696369656e7460448201526064016104e9565b600081831061197e576000828152602084905260409020610d21565b6000838152602083905260409020610d21565b6001600160a01b0382166119e75760405162461bcd60e51b815260206004820181905260248201527f4552433732313a206d696e7420746f20746865207a65726f206164647265737360448201526064016104e9565b6000818152600260205260409020546001600160a01b031615611a4c5760405162461bcd60e51b815260206004820152601c60248201527f4552433732313a20746f6b656e20616c7265616479206d696e7465640000000060448201526064016104e9565b6000818152600260205260409020546001600160a01b031615611ab15760405162461bcd60e51b815260206004820152601c60248201527f4552433732313a20746f6b656e20616c7265616479206d696e7465640000000060448201526064016104e9565b6001600160a01b038216600081815260036020908152604080832080546001019055848352600290915280822080546001600160a01b0319168417905551839291907fddf252ad1be2c89b69c2b068fc378daa952ba7f163c4a11628f55a4df523b3ef908290a45050565b6001600160e01b0319811681146108d057600080fd5b600060208284031215611b4457600080fd5b8135610d2181611b1c565b600060208284031215611b6157600080fd5b5035919050565b60005b83811015611b83578181015183820152602001611b6b565b50506000910152565b60008151808452611ba4816020860160208601611b68565b601f01601f19169290920160200192915050565b602081526000610d216020830184611b8c565b80356001600160a01b0381168114611be257600080fd5b919050565b60008060408385031215611bfa57600080fd5b611c0383611bcb565b946020939093013593505050565b600080600060608486031215611c2657600080fd5b611c2f84611bcb565b9250611c3d60208501611bcb565b9150604084013590509250925092565b60008060408385031215611c6057600080fd5b82359150611c7060208401611bcb565b90509250929050565b60008060008060608587031215611c8f57600080fd5b611c9885611bcb565b935060208501359250604085013567ffffffffffffffff80821115611cbc57600080fd5b818701915087601f830112611cd057600080fd5b813581811115611cdf57600080fd5b8860208260051b8501011115611cf457600080fd5b95989497505060200194505050565b600060208284031215611d1557600080fd5b610d2182611bcb565b60008060408385031215611d3157600080fd5b611d3a83611bcb565b915060208301358015158114611d4f57600080fd5b809150509250929050565b634e487b7160e01b600052604160045260246000fd5b60008060008060808587031215611d8657600080fd5b611d8f85611bcb565b9350611d9d60208601611bcb565b925060408501359150606085013567ffffffffffffffff80821115611dc157600080fd5b818701915087601f830112611dd557600080fd5b813581811115611de757611de7611d5a565b604051601f8201601f19908116603f01168101908382118183101715611e0f57611e0f611d5a565b816040528281528a6020848701011115611e2857600080fd5b82602086016020830137600060208483010152809550505050505092959194509250565b60008060408385031215611e5f57600080fd5b611e6883611bcb565b9150611c7060208401611bcb565b600181811c90821680611e8a57607f821691505b602082108103611eaa57634e487b7160e01b600052602260045260246000fd5b50919050565b6020808252602d908201527f4552433732313a2063616c6c6572206973206e6f7420746f6b656e206f776e6560408201526c1c881bdc88185c1c1c9bdd9959609a1b606082015260800190565b60008351611f0f818460208801611b68565b835190830190611f23818360208801611b68565b01949350505050565b60208082526025908201527f4552433732313a207472616e736665722066726f6d20696e636f72726563742060408201526437bbb732b960d91b606082015260800190565b60208082526032908201527f4552433732313a207472616e7366657220746f206e6f6e20455243373231526560408201527131b2b4bb32b91034b6b83632b6b2b73a32b960711b606082015260800190565b7f416363657373436f6e74726f6c3a206163636f756e7420000000000000000000815260008351611ffb816017850160208801611b68565b7001034b99036b4b9b9b4b733903937b6329607d1b601791840191820152835161202c816028840160208801611b68565b01602801949350505050565b634e487b7160e01b600052603260045260246000fd5b634e487b7160e01b600052601160045260246000fd5b6000600182016120765761207661204e565b5060010190565b6001600160a01b03858116825284166020820152604081018390526080606082018190526000906120b090830184611b8c565b9695505050505050565b6000602082840312156120cc57600080fd5b8151610d2181611b1c565b80820281158282048414176104865761048661204e565b808201808211156104865761048661204e565b6000816121105761211061204e565b50600019019056fe697066733a2f2f516d5457766d35357a6e5458364e6d676f706455704a5838434a734e7a68474a5934624a566d4d766f4a503568412fa2646970667358221220b5aa9f9cabb9d01215e21508b4adb8d45b210835b30f8e484e002079b2f095ee64736f6c63430008130033",
  "linkReferences": {},
  "deployedLinkReferences": {}
}