{
  "_format": "hh-sol-artifact-1",
  "contractName": "USDCoin",
  "sourceName": "contracts/USDCoin.sol",
  "abi": [
    {
      "anonymous": false,
      "inputs": [
        {
          "indexed": false,
          "internalType": "address",
          "name": "previousAdmin",
          "type": "address"
        },
        {
          "indexed": false,
          "internalType": "address",
          "name": "newAdmin",
          "type": "address"
        }
      ],
      "name": "AdminChanged",
      "type": "event"
    },
    {
      "anonymous": false,
      "inputs": [
        {
          "indexed": true,
          "internalType": "address",
          "name": "owner",
          "type": "address"
        },
        {
          "indexed": true,
          "internalType": "address",
          "name": "spender",
          "type": "address"
        },
        {
          "indexed": false,
          "internalType": "uint256",
          "name": "value",
          "type": "uint256"
        }
      ],
      "name": "Approval",
      "type": "event"
    },
    {
      "anonymous": false,
      "inputs": [
        {
          "indexed": true,
          "internalType": "address",
          "name": "beacon",
          "type": "address"
        }
      ],
      "name": "BeaconUpgraded",
      "type": "event"
    },
    {
      "anonymous": false,
      "inputs": [
        {
          "indexed": false,
          "internalType": "uint8",
          "name": "version",
          "type": "uint8"
        }
      ],
      "name": "Initialized",
      "type": "event"
    },
    {
      "anonymous": false,
      "inputs": [
        {
          "indexed": false,
          "internalType": "address",
          "name": "account",
          "type": "address"
        }
      ],
      "name": "Paused",
      "type": "event"
    },
    {
      "anonymous": false,
      "inputs": [
        {
          "indexed": true,
          "internalType": "bytes32",
          "name": "role",
          "type": "bytes32"
        },
        {
          "indexed": true,
          "internalType": "bytes32",
          "name": "previousAdminRole",
          "type": "bytes32"
        },
        {
          "indexed": true,
          "internalType": "bytes32",
          "name": "newAdminRole",
          "type": "bytes32"
        }
      ],
      "name": "RoleAdminChanged",
      "type": "event"
    },
    {
      "anonymous": false,
      "inputs": [
        {
          "indexed": true,
          "internalType": "bytes32",
          "name": "role",
          "type": "bytes32"
        },
        {
          "indexed": true,
          "internalType": "address",
          "name": "account",
          "type": "address"
        },
        {
          "indexed": true,
          "internalType": "address",
          "name": "sender",
          "type": "address"
        }
      ],
      "name": "RoleGranted",
      "type": "event"
    },
    {
      "anonymous": false,
      "inputs": [
        {
          "indexed": true,
          "internalType": "bytes32",
          "name": "role",
          "type": "bytes32"
        },
        {
          "indexed": true,
          "internalType": "address",
          "name": "account",
          "type": "address"
        },
        {
          "indexed": true,
          "internalType": "address",
          "name": "sender",
          "type": "address"
        }
      ],
      "name": "RoleRevoked",
      "type": "event"
    },
    {
      "anonymous": false,
      "inputs": [
        {
          "indexed": true,
          "internalType": "address",
          "name": "from",
          "type": "address"
        },
        {
          "indexed": true,
          "internalType": "address",
          "name": "to",
          "type": "address"
        },
        {
          "indexed": false,
          "internalType": "uint256",
          "name": "value",
          "type": "uint256"
        }
      ],
      "name": "Transfer",
      "type": "event"
    },
    {
      "anonymous": false,
      "inputs": [
        {
          "indexed": false,
          "internalType": "address",
          "name": "account",
          "type": "address"
        }
      ],
      "name": "Unpaused",
      "type": "event"
    },
    {
      "anonymous": false,
      "inputs": [
        {
          "indexed": true,
          "internalType": "address",
          "name": "implementation",
          "type": "address"
        }
      ],
      "name": "Upgraded",
      "type": "event"
    },
    {
      "inputs": [],
      "name": "DEFAULT_ADMIN_ROLE",
      "outputs": [
        {
          "internalType": "bytes32",
          "name": "",
          "type": "bytes32"
        }
      ],
      "stateMutability": "view",
      "type": "function"
    },
    {
      "inputs": [],
      "name": "MINTER_ROLE",
      "outputs": [
        {
          "internalType": "bytes32",
          "name": "",
          "type": "bytes32"
        }
      ],
      "stateMutability": "view",
      "type": "function"
    },
    {
      "inputs": [],
      "name": "PAUSER_ROLE",
      "outputs": [
        {
          "internalType": "bytes32",
          "name": "",
          "type": "bytes32"
        }
      ],
      "stateMutability": "view",
      "type": "function"
    },
    {
      "inputs": [
        {
          "internalType": "address",
          "name": "owner",
          "type": "address"
        },
        {
          "internalType": "address",
          "name": "spender",
          "type": "address"
        }
      ],
      "name": "allowance",
      "outputs": [
        {
          "internalType": "uint256",
          "name": "",
          "type": "uint256"
        }
      ],
      "stateMutability": "view",
      "type": "function"
    },
    {
      "inputs": [
        {
          "internalType": "address",
          "name": "spender",
          "type": "address"
        },
        {
          "internalType": "uint256",
          "name": "amount",
          "type": "uint256"
        }
      ],
      "name": "approve",
      "outputs": [
        {
          "internalType": "bool",
          "name": "",
          "type": "bool"
        }
      ],
      "stateMutability": "nonpayable",
      "type": "function"
    },
    {
      "inputs": [
        {
          "internalType": "address",
          "name": "account",
          "type": "address"
        }
      ],
      "name": "balanceOf",
      "outputs": [
        {
          "internalType": "uint256",
          "name": "",
          "type": "uint256"
        }
      ],
      "stateMutability": "view",
      "type": "function"
    },
    {
      "inputs": [],
      "name": "decimals",
      "outputs": [
        {
          "internalType": "uint8",
          "name": "",
          "type": "uint8"
        }
      ],
      "stateMutability": "view",
      "type": "function"
    },
    {
      "inputs": [
        {
          "internalType": "address",
          "name": "spender",
          "type": "address"
        },
        {
          "internalType": "uint256",
          "name": "subtractedValue",
          "type": "uint256"
        }
      ],
      "name": "decreaseAllowance",
      "outputs": [
        {
          "internalType": "bool",
          "name": "",
          "type": "bool"
        }
      ],
      "stateMutability": "nonpayable",
      "type": "function"
    },
    {
      "inputs": [
        {
          "internalType": "bytes32",
          "name": "role",
          "type": "bytes32"
        }
      ],
      "name": "getRoleAdmin",
      "outputs": [
        {
          "internalType": "bytes32",
          "name": "",
          "type": "bytes32"
        }
      ],
      "stateMutability": "view",
      "type": "function"
    },
    {
      "inputs": [
        {
          "internalType": "bytes32",
          "name": "role",
          "type": "bytes32"
        },
        {
          "internalType": "address",
          "name": "account",
          "type": "address"
        }
      ],
      "name": "grantRole",
      "outputs": [],
      "stateMutability": "nonpayable",
      "type": "function"
    },
    {
      "inputs": [
        {
          "internalType": "bytes32",
          "name": "role",
          "type": "bytes32"
        },
        {
          "internalType": "address",
          "name": "account",
          "type": "address"
        }
      ],
      "name": "hasRole",
      "outputs": [
        {
          "internalType": "bool",
          "name": "",
          "type": "bool"
        }
      ],
      "stateMutability": "view",
      "type": "function"
    },
    {
      "inputs": [
        {
          "internalType": "address",
          "name": "spender",
          "type": "address"
        },
        {
          "internalType": "uint256",
          "name": "addedValue",
          "type": "uint256"
        }
      ],
      "name": "increaseAllowance",
      "outputs": [
        {
          "internalType": "bool",
          "name": "",
          "type": "bool"
        }
      ],
      "stateMutability": "nonpayable",
      "type": "function"
    },
    {
      "inputs": [],
      "name": "initialize",
      "outputs": [],
      "stateMutability": "nonpayable",
      "type": "function"
    },
    {
      "inputs": [
        {
          "internalType": "address",
          "name": "to",
          "type": "address"
        },
        {
          "internalType": "uint256",
          "name": "amount",
          "type": "uint256"
        }
      ],
      "name": "mint",
      "outputs": [],
      "stateMutability": "nonpayable",
      "type": "function"
    },
    {
      "inputs": [],
      "name": "name",
      "outputs": [
        {
          "internalType": "string",
          "name": "",
          "type": "string"
        }
      ],
      "stateMutability": "view",
      "type": "function"
    },
    {
      "inputs": [],
      "name": "paused",
      "outputs": [
        {
          "internalType": "bool",
          "name": "",
          "type": "bool"
        }
      ],
      "stateMutability": "view",
      "type": "function"
    },
    {
      "inputs": [],
      "name": "proxiableUUID",
      "outputs": [
        {
          "internalType": "bytes32",
          "name": "",
          "type": "bytes32"
        }
      ],
      "stateMutability": "view",
      "type": "function"
    },
    {
      "inputs": [
        {
          "internalType": "bytes32",
          "name": "role",
          "type": "bytes32"
        },
        {
          "internalType": "address",
          "name": "account",
          "type": "address"
        }
      ],
      "name": "renounceRole",
      "outputs": [],
      "stateMutability": "nonpayable",
      "type": "function"
    },
    {
      "inputs": [
        {
          "internalType": "bytes32",
          "name": "role",
          "type": "bytes32"
        },
        {
          "internalType": "address",
          "name": "account",
          "type": "address"
        }
      ],
      "name": "revokeRole",
      "outputs": [],
      "stateMutability": "nonpayable",
      "type": "function"
    },
    {
      "inputs": [
        {
          "internalType": "bytes4",
          "name": "interfaceId",
          "type": "bytes4"
        }
      ],
      "name": "supportsInterface",
      "outputs": [
        {
          "internalType": "bool",
          "name": "",
          "type": "bool"
        }
      ],
      "stateMutability": "view",
      "type": "function"
    },
    {
      "inputs": [],
      "name": "symbol",
      "outputs": [
        {
          "internalType": "string",
          "name": "",
          "type": "string"
        }
      ],
      "stateMutability": "view",
      "type": "function"
    },
    {
      "inputs": [],
      "name": "totalSupply",
      "outputs": [
        {
          "internalType": "uint256",
          "name": "",
          "type": "uint256"
        }
      ],
      "stateMutability": "view",
      "type": "function"
    },
    {
      "inputs": [
        {
          "internalType": "address",
          "name": "to",
          "type": "address"
        },
        {
          "internalType": "uint256",
          "name": "amount",
          "type": "uint256"
        }
      ],
      "name": "transfer",
      "outputs": [
        {
          "internalType": "bool",
          "name": "",
          "type": "bool"
        }
      ],
      "stateMutability": "nonpayable",
      "type": "function"
    },
    {
      "inputs": [
        {
          "internalType": "address",
          "name": "from",
          "type": "address"
        },
        {
          "internalType": "address",
          "name": "to",
          "type": "address"
        },
        {
          "internalType": "uint256",
          "name": "amount",
          "type": "uint256"
        }
      ],
      "name": "transferFrom",
      "outputs": [
        {
          "internalType": "bool",
          "name": "",
          "type": "bool"
        }
      ],
      "stateMutability": "nonpayable",
      "type": "function"
    },
    {
      "inputs": [
        {
          "internalType": "address",
          "name": "newImplementation",
          "type": "address"
        }
      ],
      "name": "upgradeTo",
      "outputs": [],
      "stateMutability": "nonpayable",
      "type": "function"
    },
    {
      "inputs": [
        {
          "internalType": "address",
          "name": "newImplementation",
          "type": "address"
        },
        {
          "internalType": "bytes",
          "name": "data",
          "type": "bytes"
        }
      ],
      "name": "upgradeToAndCall",
      "outputs": [],
      "stateMutability": "payable",
      "type": "function"
    }
  ],
  "bytecode": "0x60a06040523060805234801561001457600080fd5b50608051611faa61004c600039600081816106a3015281816106e3015281816107d80152818161081801526108a70152611faa6000f3fe6080604052600436106101815760003560e01c806352d1902d116100d1578063a217fddf1161008a578063d539139311610064578063d53913931461043f578063d547741f14610473578063dd62ed3e14610493578063e63ab1e9146104b357600080fd5b8063a217fddf146103ea578063a457c2d7146103ff578063a9059cbb1461041f57600080fd5b806352d1902d1461033d5780635c975abb1461035257806370a082311461036a5780638129fc1c146103a057806391d14854146103b557806395d89b41146103d557600080fd5b80632f2ff15d1161013e5780633659cfe6116101185780633659cfe6146102ca57806339509351146102ea57806340c10f191461030a5780634f1ef2861461032a57600080fd5b80632f2ff15d1461026c578063313ce5671461028e57806336568abe146102aa57600080fd5b806301ffc9a71461018657806306fdde03146101bb578063095ea7b3146101dd57806318160ddd146101fd57806323b872dd1461021c578063248a9ca31461023c575b600080fd5b34801561019257600080fd5b506101a66101a1366004611893565b6104e7565b60405190151581526020015b60405180910390f35b3480156101c757600080fd5b506101d061051e565b6040516101b291906118e1565b3480156101e957600080fd5b506101a66101f8366004611930565b6105b0565b34801561020957600080fd5b506035545b6040519081526020016101b2565b34801561022857600080fd5b506101a661023736600461195a565b6105c8565b34801561024857600080fd5b5061020e610257366004611996565b600090815260fb602052604090206001015490565b34801561027857600080fd5b5061028c6102873660046119af565b6105ec565b005b34801561029a57600080fd5b50604051601281526020016101b2565b3480156102b657600080fd5b5061028c6102c53660046119af565b610616565b3480156102d657600080fd5b5061028c6102e53660046119db565b610699565b3480156102f657600080fd5b506101a6610305366004611930565b610778565b34801561031657600080fd5b5061028c610325366004611930565b61079a565b61028c610338366004611a0c565b6107ce565b34801561034957600080fd5b5061020e61089a565b34801561035e57600080fd5b5060655460ff166101a6565b34801561037657600080fd5b5061020e6103853660046119db565b6001600160a01b031660009081526033602052604090205490565b3480156103ac57600080fd5b5061028c61094d565b3480156103c157600080fd5b506101a66103d03660046119af565b610b34565b3480156103e157600080fd5b506101d0610b5f565b3480156103f657600080fd5b5061020e600081565b34801561040b57600080fd5b506101a661041a366004611930565b610b6e565b34801561042b57600080fd5b506101a661043a366004611930565b610be9565b34801561044b57600080fd5b5061020e7f9f2df0fed2c77648de5860a4cc508cd0818c85b8b8a1ab4ceeef8d981c8956a681565b34801561047f57600080fd5b5061028c61048e3660046119af565b610bf7565b34801561049f57600080fd5b5061020e6104ae366004611ace565b610c1c565b3480156104bf57600080fd5b5061020e7f65d7a28e3265b37a6474929f336521b332c1681b933f6cb9f3376673440d862a81565b60006001600160e01b03198216637965db0b60e01b148061051857506301ffc9a760e01b6001600160e01b03198316145b92915050565b60606036805461052d90611af8565b80601f016020809104026020016040519081016040528092919081815260200182805461055990611af8565b80156105a65780601f1061057b576101008083540402835291602001916105a6565b820191906000526020600020905b81548152906001019060200180831161058957829003601f168201915b5050505050905090565b6000336105be818585610c47565b5060019392505050565b6000336105d6858285610d6b565b6105e1858585610de5565b506001949350505050565b600082815260fb602052604090206001015461060781610f9b565b6106118383610fa5565b505050565b6001600160a01b038116331461068b5760405162461bcd60e51b815260206004820152602f60248201527f416363657373436f6e74726f6c3a2063616e206f6e6c792072656e6f756e636560448201526e103937b632b9903337b91039b2b63360891b60648201526084015b60405180910390fd5b610695828261102b565b5050565b6001600160a01b037f00000000000000000000000000000000000000000000000000000000000000001630036106e15760405162461bcd60e51b815260040161068290611b32565b7f00000000000000000000000000000000000000000000000000000000000000006001600160a01b031661072a600080516020611f2e833981519152546001600160a01b031690565b6001600160a01b0316146107505760405162461bcd60e51b815260040161068290611b7e565b61075981611092565b604080516000808252602082019092526107759183919061109d565b50565b6000336105be81858561078b8383610c1c565b6107959190611be0565b610c47565b7f9f2df0fed2c77648de5860a4cc508cd0818c85b8b8a1ab4ceeef8d981c8956a66107c481610f9b565b6106118383611208565b6001600160a01b037f00000000000000000000000000000000000000000000000000000000000000001630036108165760405162461bcd60e51b815260040161068290611b32565b7f00000000000000000000000000000000000000000000000000000000000000006001600160a01b031661085f600080516020611f2e833981519152546001600160a01b031690565b6001600160a01b0316146108855760405162461bcd60e51b815260040161068290611b7e565b61088e82611092565b6106958282600161109d565b6000306001600160a01b037f0000000000000000000000000000000000000000000000000000000000000000161461093a5760405162461bcd60e51b815260206004820152603860248201527f555550535570677261646561626c653a206d757374206e6f742062652063616c60448201527f6c6564207468726f7567682064656c656761746563616c6c00000000000000006064820152608401610682565b50600080516020611f2e83398151915290565b600054610100900460ff161580801561096d5750600054600160ff909116105b806109875750303b158015610987575060005460ff166001145b6109ea5760405162461bcd60e51b815260206004820152602e60248201527f496e697469616c697a61626c653a20636f6e747261637420697320616c72656160448201526d191e481a5b9a5d1a585b1a5e995960921b6064820152608401610682565b6000805460ff191660011790558015610a0d576000805461ff0019166101001790555b610a53604051806040016040528060088152602001672aa9a21021b7b4b760c11b815250604051806040016040528060048152602001635553444360e01b8152506112d5565b610a5b611306565b610a63611337565b610a6b611337565b610a8d33610a7b6012600a611cd7565b610a88906207a120611ce6565b611208565b610a9860003361135e565b610ac27f65d7a28e3265b37a6474929f336521b332c1681b933f6cb9f3376673440d862a3361135e565b610aec7f9f2df0fed2c77648de5860a4cc508cd0818c85b8b8a1ab4ceeef8d981c8956a63361135e565b8015610775576000805461ff0019169055604051600181527f7f26b83ff96e1f2b6a682f133852f6798a09c465da95921460cefb38474024989060200160405180910390a150565b600091825260fb602090815260408084206001600160a01b0393909316845291905290205460ff1690565b60606037805461052d90611af8565b60003381610b7c8286610c1c565b905083811015610bdc5760405162461bcd60e51b815260206004820152602560248201527f45524332303a2064656372656173656420616c6c6f77616e63652062656c6f77604482015264207a65726f60d81b6064820152608401610682565b6105e18286868403610c47565b6000336105be818585610de5565b600082815260fb6020526040902060010154610c1281610f9b565b610611838361102b565b6001600160a01b03918216600090815260346020908152604080832093909416825291909152205490565b6001600160a01b038316610ca95760405162461bcd60e51b8152602060048201526024808201527f45524332303a20617070726f76652066726f6d20746865207a65726f206164646044820152637265737360e01b6064820152608401610682565b6001600160a01b038216610d0a5760405162461bcd60e51b815260206004820152602260248201527f45524332303a20617070726f766520746f20746865207a65726f206164647265604482015261737360f01b6064820152608401610682565b6001600160a01b0383811660008181526034602090815260408083209487168084529482529182902085905590518481527f8c5be1e5ebec7d5bd14f71427d1e84f3dd0314c0f7b2291e5b200ac8c7c3b925910160405180910390a3505050565b6000610d778484610c1c565b90506000198114610ddf5781811015610dd25760405162461bcd60e51b815260206004820152601d60248201527f45524332303a20696e73756666696369656e7420616c6c6f77616e63650000006044820152606401610682565b610ddf8484848403610c47565b50505050565b6001600160a01b038316610e495760405162461bcd60e51b815260206004820152602560248201527f45524332303a207472616e736665722066726f6d20746865207a65726f206164604482015264647265737360d81b6064820152608401610682565b6001600160a01b038216610eab5760405162461bcd60e51b815260206004820152602360248201527f45524332303a207472616e7366657220746f20746865207a65726f206164647260448201526265737360e81b6064820152608401610682565b610eb6838383611368565b6001600160a01b03831660009081526033602052604090205481811015610f2e5760405162461bcd60e51b815260206004820152602660248201527f45524332303a207472616e7366657220616d6f756e7420657863656564732062604482015265616c616e636560d01b6064820152608401610682565b6001600160a01b0380851660008181526033602052604080822086860390559286168082529083902080548601905591517fddf252ad1be2c89b69c2b068fc378daa952ba7f163c4a11628f55a4df523b3ef90610f8e9086815260200190565b60405180910390a3610ddf565b61077581336113ce565b610faf8282610b34565b61069557600082815260fb602090815260408083206001600160a01b03851684529091529020805460ff19166001179055610fe73390565b6001600160a01b0316816001600160a01b0316837f2f8788117e7eff1d82e926ec794901d17c78024a50270940304540a733656f0d60405160405180910390a45050565b6110358282610b34565b1561069557600082815260fb602090815260408083206001600160a01b0385168085529252808320805460ff1916905551339285917ff6391f5c32d9c69d2a47ea670b442974b53935d1edc7fd64eb21e047a839171b9190a45050565b600061069581610f9b565b7f4910fdfa16fed3260ed0e7147f7cc6da11a60208b5b9406d12a635614ffd91435460ff16156110d05761061183611427565b826001600160a01b03166352d1902d6040518163ffffffff1660e01b8152600401602060405180830381865afa92505050801561112a575060408051601f3d908101601f1916820190925261112791810190611cfd565b60015b61118d5760405162461bcd60e51b815260206004820152602e60248201527f45524331393637557067726164653a206e657720696d706c656d656e7461746960448201526d6f6e206973206e6f74205555505360901b6064820152608401610682565b600080516020611f2e83398151915281146111fc5760405162461bcd60e51b815260206004820152602960248201527f45524331393637557067726164653a20756e737570706f727465642070726f786044820152681a58589b195555525160ba1b6064820152608401610682565b506106118383836114c3565b6001600160a01b03821661125e5760405162461bcd60e51b815260206004820152601f60248201527f45524332303a206d696e7420746f20746865207a65726f2061646472657373006044820152606401610682565b61126a60008383611368565b806035600082825461127c9190611be0565b90915550506001600160a01b0382166000818152603360209081526040808320805486019055518481527fddf252ad1be2c89b69c2b068fc378daa952ba7f163c4a11628f55a4df523b3ef910160405180910390a35050565b600054610100900460ff166112fc5760405162461bcd60e51b815260040161068290611d16565b61069582826114e8565b600054610100900460ff1661132d5760405162461bcd60e51b815260040161068290611d16565b611335611528565b565b600054610100900460ff166113355760405162461bcd60e51b815260040161068290611d16565b6106958282610fa5565b60655460ff16156106115760405162461bcd60e51b815260206004820152602a60248201527f45524332305061757361626c653a20746f6b656e207472616e736665722077686044820152691a5b19481c185d5cd95960b21b6064820152608401610682565b6113d88282610b34565b610695576113e58161155b565b6113f083602061156d565b604051602001611401929190611d61565b60408051601f198184030181529082905262461bcd60e51b8252610682916004016118e1565b6001600160a01b0381163b6114945760405162461bcd60e51b815260206004820152602d60248201527f455243313936373a206e657720696d706c656d656e746174696f6e206973206e60448201526c1bdd08184818dbdb9d1c9858dd609a1b6064820152608401610682565b600080516020611f2e83398151915280546001600160a01b0319166001600160a01b0392909216919091179055565b6114cc83611710565b6000825111806114d95750805b1561061157610ddf8383611750565b600054610100900460ff1661150f5760405162461bcd60e51b815260040161068290611d16565b603661151b8382611e24565b5060376106118282611e24565b600054610100900460ff1661154f5760405162461bcd60e51b815260040161068290611d16565b6065805460ff19169055565b60606105186001600160a01b03831660145b6060600061157c836002611ce6565b611587906002611be0565b67ffffffffffffffff81111561159f5761159f6119f6565b6040519080825280601f01601f1916602001820160405280156115c9576020820181803683370190505b509050600360fc1b816000815181106115e4576115e4611ee4565b60200101906001600160f81b031916908160001a905350600f60fb1b8160018151811061161357611613611ee4565b60200101906001600160f81b031916908160001a9053506000611637846002611ce6565b611642906001611be0565b90505b60018111156116ba576f181899199a1a9b1b9c1cb0b131b232b360811b85600f166010811061167657611676611ee4565b1a60f81b82828151811061168c5761168c611ee4565b60200101906001600160f81b031916908160001a90535060049490941c936116b381611efa565b9050611645565b5083156117095760405162461bcd60e51b815260206004820181905260248201527f537472696e67733a20686578206c656e67746820696e73756666696369656e746044820152606401610682565b9392505050565b61171981611427565b6040516001600160a01b038216907fbc7cd75a20ee27fd9adebab32041f755214dbc6bffa90cc0225b39da2e5c2d3b90600090a250565b60606117098383604051806060016040528060278152602001611f4e602791396060600080856001600160a01b03168560405161178d9190611f11565b600060405180830381855af49150503d80600081146117c8576040519150601f19603f3d011682016040523d82523d6000602084013e6117cd565b606091505b50915091506117de868383876117e8565b9695505050505050565b60608315611857578251600003611850576001600160a01b0385163b6118505760405162461bcd60e51b815260206004820152601d60248201527f416464726573733a2063616c6c20746f206e6f6e2d636f6e74726163740000006044820152606401610682565b5081611861565b6118618383611869565b949350505050565b8151156118795781518083602001fd5b8060405162461bcd60e51b815260040161068291906118e1565b6000602082840312156118a557600080fd5b81356001600160e01b03198116811461170957600080fd5b60005b838110156118d85781810151838201526020016118c0565b50506000910152565b60208152600082518060208401526119008160408501602087016118bd565b601f01601f19169190910160400192915050565b80356001600160a01b038116811461192b57600080fd5b919050565b6000806040838503121561194357600080fd5b61194c83611914565b946020939093013593505050565b60008060006060848603121561196f57600080fd5b61197884611914565b925061198660208501611914565b9150604084013590509250925092565b6000602082840312156119a857600080fd5b5035919050565b600080604083850312156119c257600080fd5b823591506119d260208401611914565b90509250929050565b6000602082840312156119ed57600080fd5b61170982611914565b634e487b7160e01b600052604160045260246000fd5b60008060408385031215611a1f57600080fd5b611a2883611914565b9150602083013567ffffffffffffffff80821115611a4557600080fd5b818501915085601f830112611a5957600080fd5b813581811115611a6b57611a6b6119f6565b604051601f8201601f19908116603f01168101908382118183101715611a9357611a936119f6565b81604052828152886020848701011115611aac57600080fd5b8260208601602083013760006020848301015280955050505050509250929050565b60008060408385031215611ae157600080fd5b611aea83611914565b91506119d260208401611914565b600181811c90821680611b0c57607f821691505b602082108103611b2c57634e487b7160e01b600052602260045260246000fd5b50919050565b6020808252602c908201527f46756e6374696f6e206d7573742062652063616c6c6564207468726f7567682060408201526b19195b1959d85d1958d85b1b60a21b606082015260800190565b6020808252602c908201527f46756e6374696f6e206d7573742062652063616c6c6564207468726f7567682060408201526b6163746976652070726f787960a01b606082015260800190565b634e487b7160e01b600052601160045260246000fd5b8082018082111561051857610518611bca565b600181815b80851115611c2e578160001904821115611c1457611c14611bca565b80851615611c2157918102915b93841c9390800290611bf8565b509250929050565b600082611c4557506001610518565b81611c5257506000610518565b8160018114611c685760028114611c7257611c8e565b6001915050610518565b60ff841115611c8357611c83611bca565b50506001821b610518565b5060208310610133831016604e8410600b8410161715611cb1575081810a610518565b611cbb8383611bf3565b8060001904821115611ccf57611ccf611bca565b029392505050565b600061170960ff841683611c36565b808202811582820484141761051857610518611bca565b600060208284031215611d0f57600080fd5b5051919050565b6020808252602b908201527f496e697469616c697a61626c653a20636f6e7472616374206973206e6f74206960408201526a6e697469616c697a696e6760a81b606082015260800190565b7f416363657373436f6e74726f6c3a206163636f756e7420000000000000000000815260008351611d998160178501602088016118bd565b7001034b99036b4b9b9b4b733903937b6329607d1b6017918401918201528351611dca8160288401602088016118bd565b01602801949350505050565b601f82111561061157600081815260208120601f850160051c81016020861015611dfd5750805b601f850160051c820191505b81811015611e1c57828155600101611e09565b505050505050565b815167ffffffffffffffff811115611e3e57611e3e6119f6565b611e5281611e4c8454611af8565b84611dd6565b602080601f831160018114611e875760008415611e6f5750858301515b600019600386901b1c1916600185901b178555611e1c565b600085815260208120601f198616915b82811015611eb657888601518255948401946001909101908401611e97565b5085821015611ed45787850151600019600388901b60f8161c191681555b5050505050600190811b01905550565b634e487b7160e01b600052603260045260246000fd5b600081611f0957611f09611bca565b506000190190565b60008251611f238184602087016118bd565b919091019291505056fe360894a13ba1a3210667c828492db98dca3e2076cc3735a920a3ca505d382bbc416464726573733a206c6f772d6c6576656c2064656c65676174652063616c6c206661696c6564a26469706673582212204bf67503e6cf980eb3110c7d0886a0ae61448d189ee76e562df5afa02705e05764736f6c63430008130033",
  "linkReferences": {},
  "deployedLinkReferences": {}
}