{
  "_format": "hh-sol-artifact-1",
  "contractName": "PublicSale",
  "sourceName": "contracts/PublicSale.sol",
  "abi": [
    {
      "anonymous": false,
      "inputs": [
        {
          "indexed": false,
          "internalType": "address",
          "name": "previousAdmin",
          "type": "address"
        },
        {
          "indexed": false,
          "internalType": "address",
          "name": "newAdmin",
          "type": "address"
        }
      ],
      "name": "AdminChanged",
      "type": "event"
    },
    {
      "anonymous": false,
      "inputs": [
        {
          "indexed": true,
          "internalType": "address",
          "name": "beacon",
          "type": "address"
        }
      ],
      "name": "BeaconUpgraded",
      "type": "event"
    },
    {
      "anonymous": false,
      "inputs": [
        {
          "indexed": false,
          "internalType": "uint8",
          "name": "version",
          "type": "uint8"
        }
      ],
      "name": "Initialized",
      "type": "event"
    },
    {
      "anonymous": false,
      "inputs": [
        {
          "indexed": false,
          "internalType": "address",
          "name": "account",
          "type": "address"
        }
      ],
      "name": "Paused",
      "type": "event"
    },
    {
      "anonymous": false,
      "inputs": [
        {
          "indexed": false,
          "internalType": "address",
          "name": "account",
          "type": "address"
        },
        {
          "indexed": false,
          "internalType": "uint256",
          "name": "id",
          "type": "uint256"
        }
      ],
      "name": "PurchaseNftWithId",
      "type": "event"
    },
    {
      "anonymous": false,
      "inputs": [
        {
          "indexed": true,
          "internalType": "bytes32",
          "name": "role",
          "type": "bytes32"
        },
        {
          "indexed": true,
          "internalType": "bytes32",
          "name": "previousAdminRole",
          "type": "bytes32"
        },
        {
          "indexed": true,
          "internalType": "bytes32",
          "name": "newAdminRole",
          "type": "bytes32"
        }
      ],
      "name": "RoleAdminChanged",
      "type": "event"
    },
    {
      "anonymous": false,
      "inputs": [
        {
          "indexed": true,
          "internalType": "bytes32",
          "name": "role",
          "type": "bytes32"
        },
        {
          "indexed": true,
          "internalType": "address",
          "name": "account",
          "type": "address"
        },
        {
          "indexed": true,
          "internalType": "address",
          "name": "sender",
          "type": "address"
        }
      ],
      "name": "RoleGranted",
      "type": "event"
    },
    {
      "anonymous": false,
      "inputs": [
        {
          "indexed": true,
          "internalType": "bytes32",
          "name": "role",
          "type": "bytes32"
        },
        {
          "indexed": true,
          "internalType": "address",
          "name": "account",
          "type": "address"
        },
        {
          "indexed": true,
          "internalType": "address",
          "name": "sender",
          "type": "address"
        }
      ],
      "name": "RoleRevoked",
      "type": "event"
    },
    {
      "anonymous": false,
      "inputs": [
        {
          "indexed": false,
          "internalType": "address",
          "name": "account",
          "type": "address"
        }
      ],
      "name": "Unpaused",
      "type": "event"
    },
    {
      "anonymous": false,
      "inputs": [
        {
          "indexed": true,
          "internalType": "address",
          "name": "implementation",
          "type": "address"
        }
      ],
      "name": "Upgraded",
      "type": "event"
    },
    {
      "inputs": [],
      "name": "DEFAULT_ADMIN_ROLE",
      "outputs": [
        {
          "internalType": "bytes32",
          "name": "",
          "type": "bytes32"
        }
      ],
      "stateMutability": "view",
      "type": "function"
    },
    {
      "inputs": [],
      "name": "EXECUTER_ROLE",
      "outputs": [
        {
          "internalType": "bytes32",
          "name": "",
          "type": "bytes32"
        }
      ],
      "stateMutability": "view",
      "type": "function"
    },
    {
      "inputs": [],
      "name": "PAUSER_ROLE",
      "outputs": [
        {
          "internalType": "bytes32",
          "name": "",
          "type": "bytes32"
        }
      ],
      "stateMutability": "view",
      "type": "function"
    },
    {
      "inputs": [],
      "name": "UPGRADER_ROLE",
      "outputs": [
        {
          "internalType": "bytes32",
          "name": "",
          "type": "bytes32"
        }
      ],
      "stateMutability": "view",
      "type": "function"
    },
    {
      "inputs": [],
      "name": "depositEthForARandomNft",
      "outputs": [],
      "stateMutability": "payable",
      "type": "function"
    },
    {
      "inputs": [
        {
          "internalType": "uint256",
          "name": "id",
          "type": "uint256"
        }
      ],
      "name": "getPriceForId",
      "outputs": [
        {
          "internalType": "uint256",
          "name": "",
          "type": "uint256"
        }
      ],
      "stateMutability": "view",
      "type": "function"
    },
    {
      "inputs": [
        {
          "internalType": "bytes32",
          "name": "role",
          "type": "bytes32"
        }
      ],
      "name": "getRoleAdmin",
      "outputs": [
        {
          "internalType": "bytes32",
          "name": "",
          "type": "bytes32"
        }
      ],
      "stateMutability": "view",
      "type": "function"
    },
    {
      "inputs": [
        {
          "internalType": "bytes32",
          "name": "role",
          "type": "bytes32"
        },
        {
          "internalType": "address",
          "name": "account",
          "type": "address"
        }
      ],
      "name": "grantRole",
      "outputs": [],
      "stateMutability": "nonpayable",
      "type": "function"
    },
    {
      "inputs": [
        {
          "internalType": "bytes32",
          "name": "role",
          "type": "bytes32"
        },
        {
          "internalType": "address",
          "name": "account",
          "type": "address"
        }
      ],
      "name": "hasRole",
      "outputs": [
        {
          "internalType": "bool",
          "name": "",
          "type": "bool"
        }
      ],
      "stateMutability": "view",
      "type": "function"
    },
    {
      "inputs": [],
      "name": "initialize",
      "outputs": [],
      "stateMutability": "nonpayable",
      "type": "function"
    },
    {
      "inputs": [],
      "name": "pause",
      "outputs": [],
      "stateMutability": "nonpayable",
      "type": "function"
    },
    {
      "inputs": [],
      "name": "paused",
      "outputs": [
        {
          "internalType": "bool",
          "name": "",
          "type": "bool"
        }
      ],
      "stateMutability": "view",
      "type": "function"
    },
    {
      "inputs": [],
      "name": "proxiableUUID",
      "outputs": [
        {
          "internalType": "bytes32",
          "name": "",
          "type": "bytes32"
        }
      ],
      "stateMutability": "view",
      "type": "function"
    },
    {
      "inputs": [
        {
          "internalType": "uint256",
          "name": "_id",
          "type": "uint256"
        }
      ],
      "name": "purchaseWithEtherAndId",
      "outputs": [
        {
          "internalType": "uint256",
          "name": "",
          "type": "uint256"
        }
      ],
      "stateMutability": "payable",
      "type": "function"
    },
    {
      "inputs": [
        {
          "internalType": "uint256",
          "name": "_id",
          "type": "uint256"
        }
      ],
      "name": "purchaseWithTokens",
      "outputs": [
        {
          "internalType": "uint256",
          "name": "",
          "type": "uint256"
        }
      ],
      "stateMutability": "view",
      "type": "function"
    },
    {
      "inputs": [
        {
          "internalType": "uint256",
          "name": "_id",
          "type": "uint256"
        }
      ],
      "name": "purchaseWithUSDC",
      "outputs": [
        {
          "internalType": "uint256",
          "name": "",
          "type": "uint256"
        }
      ],
      "stateMutability": "view",
      "type": "function"
    },
    {
      "inputs": [
        {
          "internalType": "bytes32",
          "name": "role",
          "type": "bytes32"
        },
        {
          "internalType": "address",
          "name": "account",
          "type": "address"
        }
      ],
      "name": "renounceRole",
      "outputs": [],
      "stateMutability": "nonpayable",
      "type": "function"
    },
    {
      "inputs": [
        {
          "internalType": "bytes32",
          "name": "role",
          "type": "bytes32"
        },
        {
          "internalType": "address",
          "name": "account",
          "type": "address"
        }
      ],
      "name": "revokeRole",
      "outputs": [],
      "stateMutability": "nonpayable",
      "type": "function"
    },
    {
      "inputs": [
        {
          "internalType": "bytes4",
          "name": "interfaceId",
          "type": "bytes4"
        }
      ],
      "name": "supportsInterface",
      "outputs": [
        {
          "internalType": "bool",
          "name": "",
          "type": "bool"
        }
      ],
      "stateMutability": "view",
      "type": "function"
    },
    {
      "inputs": [],
      "name": "unpause",
      "outputs": [],
      "stateMutability": "nonpayable",
      "type": "function"
    },
    {
      "inputs": [
        {
          "internalType": "address",
          "name": "newImplementation",
          "type": "address"
        }
      ],
      "name": "upgradeTo",
      "outputs": [],
      "stateMutability": "nonpayable",
      "type": "function"
    },
    {
      "inputs": [
        {
          "internalType": "address",
          "name": "newImplementation",
          "type": "address"
        },
        {
          "internalType": "bytes",
          "name": "data",
          "type": "bytes"
        }
      ],
      "name": "upgradeToAndCall",
      "outputs": [],
      "stateMutability": "payable",
      "type": "function"
    },
    {
      "stateMutability": "payable",
      "type": "receive"
    }
  ],
  "bytecode": "0x60a06040523060805234801561001457600080fd5b5060805161186261004c600039600081816105a8015281816105e8015281816107b0015281816107f0015261087f01526118626000f3fe6080604052600436106101395760003560e01c80635c975abb116100ab578063a217fddf1161006f578063a217fddf1461031a578063d547741f1461032f578063d587c0c3146102da578063da04d0131461034f578063e63ab1e914610383578063f72c0d8b146103a557600080fd5b80635c975abb146102985780638129fc1c146102b05780638456cb59146102c55780638af3d24a146102da57806391d14854146102fa57600080fd5b80633659cfe6116100fd5780633659cfe6146102135780633f4ba83a1461023357806341f99ecc1461024857806349487eaa146102685780634f1ef2861461027057806352d1902d1461028357600080fd5b806301ffc9a71461014d578063248a9ca3146101825780632b7a2cfc146101c05780632f2ff15d146101d357806336568abe146101f357600080fd5b36610148576101466103d9565b005b600080fd5b34801561015957600080fd5b5061016d61016836600461139c565b61042d565b60405190151581526020015b60405180910390f35b34801561018e57600080fd5b506101b261019d3660046113c6565b60009081526097602052604090206001015490565b604051908152602001610179565b6101b26101ce3660046113c6565b610464565b3480156101df57600080fd5b506101466101ee3660046113f6565b6104f6565b3480156101ff57600080fd5b5061014661020e3660046113f6565b610520565b34801561021f57600080fd5b5061014661022e366004611422565b61059e565b34801561023f57600080fd5b5061014661067d565b34801561025457600080fd5b506101b26102633660046113c6565b61069d565b6101466103d9565b61014661027e366004611453565b6107a6565b34801561028f57600080fd5b506101b2610872565b3480156102a457600080fd5b5060335460ff1661016d565b3480156102bc57600080fd5b50610146610925565b3480156102d157600080fd5b50610146610a8a565b3480156102e657600080fd5b506101b26102f53660046113c6565b610aaa565b34801561030657600080fd5b5061016d6103153660046113f6565b610ace565b34801561032657600080fd5b506101b2600081565b34801561033b57600080fd5b5061014661034a3660046113f6565b610af9565b34801561035b57600080fd5b506101b27ff6d4b94561d34a2e202535a880be5a411bcfa4d7aeb44117cc8d682e63ec475981565b34801561038f57600080fd5b506101b26000805160206117e683398151915281565b3480156103b157600080fd5b506101b27f189ab7a9244df0848122154315af71fe140f3db0fe014031783b0946b8c9d2e381565b34662386f26fc100001461042b5760405162461bcd60e51b8152602060048201526014602482015273125b9d985b1a5908195d1a195c88185b5bdd5b9d60621b60448201526064015b60405180910390fd5b565b60006001600160e01b03198216637965db0b60e01b148061045e57506301ffc9a760e01b6001600160e01b03198316145b92915050565b60006102bc821015801561047a57506103e78211155b6104965760405162461bcd60e51b815260040161042290611515565b662386f26fc100003410156104ed5760405162461bcd60e51b815260206004820152601760248201527f496e73756666696369656e742065746865722073656e740000000000000000006044820152606401610422565b61045e8261069d565b60008281526097602052604090206001015461051181610b1e565b61051b8383610b28565b505050565b6001600160a01b03811633146105905760405162461bcd60e51b815260206004820152602f60248201527f416363657373436f6e74726f6c3a2063616e206f6e6c792072656e6f756e636560448201526e103937b632b9903337b91039b2b63360891b6064820152608401610422565b61059a8282610bae565b5050565b6001600160a01b037f00000000000000000000000000000000000000000000000000000000000000001630036105e65760405162461bcd60e51b81526004016104229061153f565b7f00000000000000000000000000000000000000000000000000000000000000006001600160a01b031661062f6000805160206117c6833981519152546001600160a01b031690565b6001600160a01b0316146106555760405162461bcd60e51b81526004016104229061158b565b61065e81610c15565b6040805160008082526020820190925261067a91839190610c3f565b50565b6000805160206117e683398151915261069581610b1e565b61067a610daa565b60006102bb8211156106c15760405162461bcd60e51b815260040161042290611515565b60c782116106d95750683635c9adc5dea00000919050565b6101f382116106ff576106ed8260146115ed565b61045e90670de0b6b3a76400006115ed565b6102bb82116107895760006201518061071c636517650042611604565b6107269190611617565b90506000610736826107d06115ed565b61074890670de0b6b3a76400006115ed565b61075c9069021e19e0c9bab2400000611639565b905069130ee8e717904440000081116107755780610781565b69130ee8e71790444000005b949350505050565b60405162461bcd60e51b815260040161042290611515565b919050565b6001600160a01b037f00000000000000000000000000000000000000000000000000000000000000001630036107ee5760405162461bcd60e51b81526004016104229061153f565b7f00000000000000000000000000000000000000000000000000000000000000006001600160a01b03166108376000805160206117c6833981519152546001600160a01b031690565b6001600160a01b03161461085d5760405162461bcd60e51b81526004016104229061158b565b61086682610c15565b61059a82826001610c3f565b6000306001600160a01b037f000000000000000000000000000000000000000000000000000000000000000016146109125760405162461bcd60e51b815260206004820152603860248201527f555550535570677261646561626c653a206d757374206e6f742062652063616c60448201527f6c6564207468726f7567682064656c656761746563616c6c00000000000000006064820152608401610422565b506000805160206117c683398151915290565b600054610100900460ff16158080156109455750600054600160ff909116105b8061095f5750303b15801561095f575060005460ff166001145b6109c25760405162461bcd60e51b815260206004820152602e60248201527f496e697469616c697a61626c653a20636f6e747261637420697320616c72656160448201526d191e481a5b9a5d1a585b1a5e995960921b6064820152608401610422565b6000805460ff1916600117905580156109e5576000805461ff0019166101001790555b6109ed610dfc565b6109f5610e2b565b610a00600033610b28565b610a186000805160206117e683398151915233610b28565b610a427f189ab7a9244df0848122154315af71fe140f3db0fe014031783b0946b8c9d2e333610b28565b801561067a576000805461ff0019169055604051600181527f7f26b83ff96e1f2b6a682f133852f6798a09c465da95921460cefb38474024989060200160405180910390a150565b6000805160206117e6833981519152610aa281610b1e565b61067a610e52565b60006102bb8211156104ed5760405162461bcd60e51b815260040161042290611515565b60009182526097602090815260408084206001600160a01b0393909316845291905290205460ff1690565b600082815260976020526040902060010154610b1481610b1e565b61051b8383610bae565b61067a8133610e8f565b610b328282610ace565b61059a5760008281526097602090815260408083206001600160a01b03851684529091529020805460ff19166001179055610b6a3390565b6001600160a01b0316816001600160a01b0316837f2f8788117e7eff1d82e926ec794901d17c78024a50270940304540a733656f0d60405160405180910390a45050565b610bb88282610ace565b1561059a5760008281526097602090815260408083206001600160a01b0385168085529252808320805460ff1916905551339285917ff6391f5c32d9c69d2a47ea670b442974b53935d1edc7fd64eb21e047a839171b9190a45050565b7f189ab7a9244df0848122154315af71fe140f3db0fe014031783b0946b8c9d2e361059a81610b1e565b7f4910fdfa16fed3260ed0e7147f7cc6da11a60208b5b9406d12a635614ffd91435460ff1615610c725761051b83610ee8565b826001600160a01b03166352d1902d6040518163ffffffff1660e01b8152600401602060405180830381865afa925050508015610ccc575060408051601f3d908101601f19168201909252610cc99181019061164c565b60015b610d2f5760405162461bcd60e51b815260206004820152602e60248201527f45524331393637557067726164653a206e657720696d706c656d656e7461746960448201526d6f6e206973206e6f74205555505360901b6064820152608401610422565b6000805160206117c68339815191528114610d9e5760405162461bcd60e51b815260206004820152602960248201527f45524331393637557067726164653a20756e737570706f727465642070726f786044820152681a58589b195555525160ba1b6064820152608401610422565b5061051b838383610f84565b610db2610faf565b6033805460ff191690557f5db9ee0a495bf2e6ff9c91a7834c1ba4fdd244a5e8aa4e537bd38aeae4b073aa335b6040516001600160a01b03909116815260200160405180910390a1565b600054610100900460ff16610e235760405162461bcd60e51b815260040161042290611665565b61042b610ff8565b600054610100900460ff1661042b5760405162461bcd60e51b815260040161042290611665565b610e5a61102b565b6033805460ff191660011790557f62e78cea01bee320cd4e420270b5ea74000d11b0c9f74754ebdbfc544b05a258610ddf3390565b610e998282610ace565b61059a57610ea681611071565b610eb1836020611083565b604051602001610ec29291906116d4565b60408051601f198184030181529082905262461bcd60e51b825261042291600401611749565b6001600160a01b0381163b610f555760405162461bcd60e51b815260206004820152602d60248201527f455243313936373a206e657720696d706c656d656e746174696f6e206973206e60448201526c1bdd08184818dbdb9d1c9858dd609a1b6064820152608401610422565b6000805160206117c683398151915280546001600160a01b0319166001600160a01b0392909216919091179055565b610f8d83611226565b600082511180610f9a5750805b1561051b57610fa98383611266565b50505050565b60335460ff1661042b5760405162461bcd60e51b815260206004820152601460248201527314185d5cd8589b194e881b9bdd081c185d5cd95960621b6044820152606401610422565b600054610100900460ff1661101f5760405162461bcd60e51b815260040161042290611665565b6033805460ff19169055565b60335460ff161561042b5760405162461bcd60e51b815260206004820152601060248201526f14185d5cd8589b194e881c185d5cd95960821b6044820152606401610422565b606061045e6001600160a01b03831660145b606060006110928360026115ed565b61109d906002611639565b67ffffffffffffffff8111156110b5576110b561143d565b6040519080825280601f01601f1916602001820160405280156110df576020820181803683370190505b509050600360fc1b816000815181106110fa576110fa61177c565b60200101906001600160f81b031916908160001a905350600f60fb1b816001815181106111295761112961177c565b60200101906001600160f81b031916908160001a905350600061114d8460026115ed565b611158906001611639565b90505b60018111156111d0576f181899199a1a9b1b9c1cb0b131b232b360811b85600f166010811061118c5761118c61177c565b1a60f81b8282815181106111a2576111a261177c565b60200101906001600160f81b031916908160001a90535060049490941c936111c981611792565b905061115b565b50831561121f5760405162461bcd60e51b815260206004820181905260248201527f537472696e67733a20686578206c656e67746820696e73756666696369656e746044820152606401610422565b9392505050565b61122f81610ee8565b6040516001600160a01b038216907fbc7cd75a20ee27fd9adebab32041f755214dbc6bffa90cc0225b39da2e5c2d3b90600090a250565b606061121f8383604051806060016040528060278152602001611806602791396060600080856001600160a01b0316856040516112a391906117a9565b600060405180830381855af49150503d80600081146112de576040519150601f19603f3d011682016040523d82523d6000602084013e6112e3565b606091505b50915091506112f4868383876112fe565b9695505050505050565b6060831561136d578251600003611366576001600160a01b0385163b6113665760405162461bcd60e51b815260206004820152601d60248201527f416464726573733a2063616c6c20746f206e6f6e2d636f6e74726163740000006044820152606401610422565b5081610781565b61078183838151156113825781518083602001fd5b8060405162461bcd60e51b81526004016104229190611749565b6000602082840312156113ae57600080fd5b81356001600160e01b03198116811461121f57600080fd5b6000602082840312156113d857600080fd5b5035919050565b80356001600160a01b03811681146107a157600080fd5b6000806040838503121561140957600080fd5b82359150611419602084016113df565b90509250929050565b60006020828403121561143457600080fd5b61121f826113df565b634e487b7160e01b600052604160045260246000fd5b6000806040838503121561146657600080fd5b61146f836113df565b9150602083013567ffffffffffffffff8082111561148c57600080fd5b818501915085601f8301126114a057600080fd5b8135818111156114b2576114b261143d565b604051601f8201601f19908116603f011681019083821181831017156114da576114da61143d565b816040528281528860208487010111156114f357600080fd5b8260208601602083013760006020848301015280955050505050509250929050565b60208082526010908201526f496e76616c69642049442072616e676560801b604082015260600190565b6020808252602c908201527f46756e6374696f6e206d7573742062652063616c6c6564207468726f7567682060408201526b19195b1959d85d1958d85b1b60a21b606082015260800190565b6020808252602c908201527f46756e6374696f6e206d7573742062652063616c6c6564207468726f7567682060408201526b6163746976652070726f787960a01b606082015260800190565b634e487b7160e01b600052601160045260246000fd5b808202811582820484141761045e5761045e6115d7565b8181038181111561045e5761045e6115d7565b60008261163457634e487b7160e01b600052601260045260246000fd5b500490565b8082018082111561045e5761045e6115d7565b60006020828403121561165e57600080fd5b5051919050565b6020808252602b908201527f496e697469616c697a61626c653a20636f6e7472616374206973206e6f74206960408201526a6e697469616c697a696e6760a81b606082015260800190565b60005b838110156116cb5781810151838201526020016116b3565b50506000910152565b7f416363657373436f6e74726f6c3a206163636f756e742000000000000000000081526000835161170c8160178501602088016116b0565b7001034b99036b4b9b9b4b733903937b6329607d1b601791840191820152835161173d8160288401602088016116b0565b01602801949350505050565b60208152600082518060208401526117688160408501602087016116b0565b601f01601f19169190910160400192915050565b634e487b7160e01b600052603260045260246000fd5b6000816117a1576117a16115d7565b506000190190565b600082516117bb8184602087016116b0565b919091019291505056fe360894a13ba1a3210667c828492db98dca3e2076cc3735a920a3ca505d382bbc65d7a28e3265b37a6474929f336521b332c1681b933f6cb9f3376673440d862a416464726573733a206c6f772d6c6576656c2064656c65676174652063616c6c206661696c6564a2646970667358221220707633d61f1e23f9dd7c2815c934feed98d40dfacd6d304e15e52e2748bf643464736f6c63430008130033",
  "linkReferences": {},
  "deployedLinkReferences": {}
}