{
  "_format": "hh-sol-artifact-1",
  "contractName": "BBitesToken",
  "sourceName": "contracts/BBitesToken.sol",
  "abi": [
    {
      "anonymous": false,
      "inputs": [
        {
          "indexed": false,
          "internalType": "address",
          "name": "previousAdmin",
          "type": "address"
        },
        {
          "indexed": false,
          "internalType": "address",
          "name": "newAdmin",
          "type": "address"
        }
      ],
      "name": "AdminChanged",
      "type": "event"
    },
    {
      "anonymous": false,
      "inputs": [
        {
          "indexed": true,
          "internalType": "address",
          "name": "owner",
          "type": "address"
        },
        {
          "indexed": true,
          "internalType": "address",
          "name": "spender",
          "type": "address"
        },
        {
          "indexed": false,
          "internalType": "uint256",
          "name": "value",
          "type": "uint256"
        }
      ],
      "name": "Approval",
      "type": "event"
    },
    {
      "anonymous": false,
      "inputs": [
        {
          "indexed": true,
          "internalType": "address",
          "name": "beacon",
          "type": "address"
        }
      ],
      "name": "BeaconUpgraded",
      "type": "event"
    },
    {
      "anonymous": false,
      "inputs": [
        {
          "indexed": false,
          "internalType": "uint8",
          "name": "version",
          "type": "uint8"
        }
      ],
      "name": "Initialized",
      "type": "event"
    },
    {
      "anonymous": false,
      "inputs": [
        {
          "indexed": false,
          "internalType": "address",
          "name": "account",
          "type": "address"
        }
      ],
      "name": "Pause",
      "type": "event"
    },
    {
      "anonymous": false,
      "inputs": [
        {
          "indexed": false,
          "internalType": "address",
          "name": "account",
          "type": "address"
        }
      ],
      "name": "Paused",
      "type": "event"
    },
    {
      "anonymous": false,
      "inputs": [
        {
          "indexed": true,
          "internalType": "bytes32",
          "name": "role",
          "type": "bytes32"
        },
        {
          "indexed": true,
          "internalType": "bytes32",
          "name": "previousAdminRole",
          "type": "bytes32"
        },
        {
          "indexed": true,
          "internalType": "bytes32",
          "name": "newAdminRole",
          "type": "bytes32"
        }
      ],
      "name": "RoleAdminChanged",
      "type": "event"
    },
    {
      "anonymous": false,
      "inputs": [
        {
          "indexed": true,
          "internalType": "bytes32",
          "name": "role",
          "type": "bytes32"
        },
        {
          "indexed": true,
          "internalType": "address",
          "name": "account",
          "type": "address"
        },
        {
          "indexed": true,
          "internalType": "address",
          "name": "sender",
          "type": "address"
        }
      ],
      "name": "RoleGranted",
      "type": "event"
    },
    {
      "anonymous": false,
      "inputs": [
        {
          "indexed": true,
          "internalType": "bytes32",
          "name": "role",
          "type": "bytes32"
        },
        {
          "indexed": true,
          "internalType": "address",
          "name": "account",
          "type": "address"
        },
        {
          "indexed": true,
          "internalType": "address",
          "name": "sender",
          "type": "address"
        }
      ],
      "name": "RoleRevoked",
      "type": "event"
    },
    {
      "anonymous": false,
      "inputs": [
        {
          "indexed": true,
          "internalType": "address",
          "name": "minter",
          "type": "address"
        },
        {
          "indexed": true,
          "internalType": "address",
          "name": "to",
          "type": "address"
        },
        {
          "indexed": false,
          "internalType": "uint256",
          "name": "amount",
          "type": "uint256"
        }
      ],
      "name": "TokensMinted",
      "type": "event"
    },
    {
      "anonymous": false,
      "inputs": [
        {
          "indexed": true,
          "internalType": "address",
          "name": "from",
          "type": "address"
        },
        {
          "indexed": true,
          "internalType": "address",
          "name": "to",
          "type": "address"
        },
        {
          "indexed": false,
          "internalType": "uint256",
          "name": "value",
          "type": "uint256"
        }
      ],
      "name": "Transfer",
      "type": "event"
    },
    {
      "anonymous": false,
      "inputs": [
        {
          "indexed": false,
          "internalType": "address",
          "name": "account",
          "type": "address"
        }
      ],
      "name": "Unpause",
      "type": "event"
    },
    {
      "anonymous": false,
      "inputs": [
        {
          "indexed": false,
          "internalType": "address",
          "name": "account",
          "type": "address"
        }
      ],
      "name": "Unpaused",
      "type": "event"
    },
    {
      "anonymous": false,
      "inputs": [
        {
          "indexed": true,
          "internalType": "address",
          "name": "implementation",
          "type": "address"
        }
      ],
      "name": "Upgraded",
      "type": "event"
    },
    {
      "inputs": [],
      "name": "DEFAULT_ADMIN_ROLE",
      "outputs": [
        {
          "internalType": "bytes32",
          "name": "",
          "type": "bytes32"
        }
      ],
      "stateMutability": "view",
      "type": "function"
    },
    {
      "inputs": [],
      "name": "MINTER_ROLE",
      "outputs": [
        {
          "internalType": "bytes32",
          "name": "",
          "type": "bytes32"
        }
      ],
      "stateMutability": "view",
      "type": "function"
    },
    {
      "inputs": [],
      "name": "PAUSER_ROLE",
      "outputs": [
        {
          "internalType": "bytes32",
          "name": "",
          "type": "bytes32"
        }
      ],
      "stateMutability": "view",
      "type": "function"
    },
    {
      "inputs": [
        {
          "internalType": "address",
          "name": "owner",
          "type": "address"
        },
        {
          "internalType": "address",
          "name": "spender",
          "type": "address"
        }
      ],
      "name": "allowance",
      "outputs": [
        {
          "internalType": "uint256",
          "name": "",
          "type": "uint256"
        }
      ],
      "stateMutability": "view",
      "type": "function"
    },
    {
      "inputs": [
        {
          "internalType": "address",
          "name": "spender",
          "type": "address"
        },
        {
          "internalType": "uint256",
          "name": "amount",
          "type": "uint256"
        }
      ],
      "name": "approve",
      "outputs": [
        {
          "internalType": "bool",
          "name": "",
          "type": "bool"
        }
      ],
      "stateMutability": "nonpayable",
      "type": "function"
    },
    {
      "inputs": [
        {
          "internalType": "address",
          "name": "account",
          "type": "address"
        }
      ],
      "name": "balanceOf",
      "outputs": [
        {
          "internalType": "uint256",
          "name": "",
          "type": "uint256"
        }
      ],
      "stateMutability": "view",
      "type": "function"
    },
    {
      "inputs": [],
      "name": "decimals",
      "outputs": [
        {
          "internalType": "uint8",
          "name": "",
          "type": "uint8"
        }
      ],
      "stateMutability": "view",
      "type": "function"
    },
    {
      "inputs": [
        {
          "internalType": "address",
          "name": "spender",
          "type": "address"
        },
        {
          "internalType": "uint256",
          "name": "subtractedValue",
          "type": "uint256"
        }
      ],
      "name": "decreaseAllowance",
      "outputs": [
        {
          "internalType": "bool",
          "name": "",
          "type": "bool"
        }
      ],
      "stateMutability": "nonpayable",
      "type": "function"
    },
    {
      "inputs": [
        {
          "internalType": "bytes32",
          "name": "role",
          "type": "bytes32"
        }
      ],
      "name": "getRoleAdmin",
      "outputs": [
        {
          "internalType": "bytes32",
          "name": "",
          "type": "bytes32"
        }
      ],
      "stateMutability": "view",
      "type": "function"
    },
    {
      "inputs": [
        {
          "internalType": "bytes32",
          "name": "role",
          "type": "bytes32"
        },
        {
          "internalType": "address",
          "name": "account",
          "type": "address"
        }
      ],
      "name": "grantRole",
      "outputs": [],
      "stateMutability": "nonpayable",
      "type": "function"
    },
    {
      "inputs": [
        {
          "internalType": "bytes32",
          "name": "role",
          "type": "bytes32"
        },
        {
          "internalType": "address",
          "name": "account",
          "type": "address"
        }
      ],
      "name": "hasRole",
      "outputs": [
        {
          "internalType": "bool",
          "name": "",
          "type": "bool"
        }
      ],
      "stateMutability": "view",
      "type": "function"
    },
    {
      "inputs": [
        {
          "internalType": "address",
          "name": "spender",
          "type": "address"
        },
        {
          "internalType": "uint256",
          "name": "addedValue",
          "type": "uint256"
        }
      ],
      "name": "increaseAllowance",
      "outputs": [
        {
          "internalType": "bool",
          "name": "",
          "type": "bool"
        }
      ],
      "stateMutability": "nonpayable",
      "type": "function"
    },
    {
      "inputs": [],
      "name": "initialize",
      "outputs": [],
      "stateMutability": "nonpayable",
      "type": "function"
    },
    {
      "inputs": [
        {
          "internalType": "address",
          "name": "to",
          "type": "address"
        },
        {
          "internalType": "uint256",
          "name": "amount",
          "type": "uint256"
        }
      ],
      "name": "mint",
      "outputs": [],
      "stateMutability": "nonpayable",
      "type": "function"
    },
    {
      "inputs": [],
      "name": "name",
      "outputs": [
        {
          "internalType": "string",
          "name": "",
          "type": "string"
        }
      ],
      "stateMutability": "view",
      "type": "function"
    },
    {
      "inputs": [],
      "name": "pause",
      "outputs": [],
      "stateMutability": "nonpayable",
      "type": "function"
    },
    {
      "inputs": [],
      "name": "paused",
      "outputs": [
        {
          "internalType": "bool",
          "name": "",
          "type": "bool"
        }
      ],
      "stateMutability": "view",
      "type": "function"
    },
    {
      "inputs": [],
      "name": "proxiableUUID",
      "outputs": [
        {
          "internalType": "bytes32",
          "name": "",
          "type": "bytes32"
        }
      ],
      "stateMutability": "view",
      "type": "function"
    },
    {
      "inputs": [
        {
          "internalType": "bytes32",
          "name": "role",
          "type": "bytes32"
        },
        {
          "internalType": "address",
          "name": "account",
          "type": "address"
        }
      ],
      "name": "renounceRole",
      "outputs": [],
      "stateMutability": "nonpayable",
      "type": "function"
    },
    {
      "inputs": [
        {
          "internalType": "bytes32",
          "name": "role",
          "type": "bytes32"
        },
        {
          "internalType": "address",
          "name": "account",
          "type": "address"
        }
      ],
      "name": "revokeRole",
      "outputs": [],
      "stateMutability": "nonpayable",
      "type": "function"
    },
    {
      "inputs": [
        {
          "internalType": "bytes4",
          "name": "interfaceId",
          "type": "bytes4"
        }
      ],
      "name": "supportsInterface",
      "outputs": [
        {
          "internalType": "bool",
          "name": "",
          "type": "bool"
        }
      ],
      "stateMutability": "view",
      "type": "function"
    },
    {
      "inputs": [],
      "name": "symbol",
      "outputs": [
        {
          "internalType": "string",
          "name": "",
          "type": "string"
        }
      ],
      "stateMutability": "view",
      "type": "function"
    },
    {
      "inputs": [],
      "name": "totalSupply",
      "outputs": [
        {
          "internalType": "uint256",
          "name": "",
          "type": "uint256"
        }
      ],
      "stateMutability": "view",
      "type": "function"
    },
    {
      "inputs": [
        {
          "internalType": "address",
          "name": "to",
          "type": "address"
        },
        {
          "internalType": "uint256",
          "name": "amount",
          "type": "uint256"
        }
      ],
      "name": "transfer",
      "outputs": [
        {
          "internalType": "bool",
          "name": "",
          "type": "bool"
        }
      ],
      "stateMutability": "nonpayable",
      "type": "function"
    },
    {
      "inputs": [
        {
          "internalType": "address",
          "name": "from",
          "type": "address"
        },
        {
          "internalType": "address",
          "name": "to",
          "type": "address"
        },
        {
          "internalType": "uint256",
          "name": "amount",
          "type": "uint256"
        }
      ],
      "name": "transferFrom",
      "outputs": [
        {
          "internalType": "bool",
          "name": "",
          "type": "bool"
        }
      ],
      "stateMutability": "nonpayable",
      "type": "function"
    },
    {
      "inputs": [],
      "name": "unpause",
      "outputs": [],
      "stateMutability": "nonpayable",
      "type": "function"
    },
    {
      "inputs": [
        {
          "internalType": "address",
          "name": "newImplementation",
          "type": "address"
        }
      ],
      "name": "upgradeTo",
      "outputs": [],
      "stateMutability": "nonpayable",
      "type": "function"
    },
    {
      "inputs": [
        {
          "internalType": "address",
          "name": "newImplementation",
          "type": "address"
        },
        {
          "internalType": "bytes",
          "name": "data",
          "type": "bytes"
        }
      ],
      "name": "upgradeToAndCall",
      "outputs": [],
      "stateMutability": "payable",
      "type": "function"
    }
  ],
  "bytecode": "0x60a06040523060805234801561001457600080fd5b5060805161220061004c600039600081816106f101528181610731015281816108c301528181610903015261099201526122006000f3fe6080604052600436106101b75760003560e01c806352d1902d116100ec578063a217fddf1161008a578063d539139311610064578063d53913931461049f578063d547741f146104d3578063dd62ed3e146104f3578063e63ab1e91461051357600080fd5b8063a217fddf1461044a578063a457c2d71461045f578063a9059cbb1461047f57600080fd5b80638129fc1c116100c65780638129fc1c146103eb5780638456cb591461040057806391d148541461041557806395d89b411461043557600080fd5b806352d1902d146103885780635c975abb1461039d57806370a08231146103b557600080fd5b8063313ce56711610159578063395093511161013357806339509351146103205780633f4ba83a1461034057806340c10f19146103555780634f1ef2861461037557600080fd5b8063313ce567146102c457806336568abe146102e05780633659cfe61461030057600080fd5b806318160ddd1161019557806318160ddd1461023357806323b872dd14610252578063248a9ca3146102725780632f2ff15d146102a257600080fd5b806301ffc9a7146101bc57806306fdde03146101f1578063095ea7b314610213575b600080fd5b3480156101c857600080fd5b506101dc6101d7366004611ac9565b610535565b60405190151581526020015b60405180910390f35b3480156101fd57600080fd5b5061020661056c565b6040516101e89190611b17565b34801561021f57600080fd5b506101dc61022e366004611b66565b6105fe565b34801561023f57600080fd5b506035545b6040519081526020016101e8565b34801561025e57600080fd5b506101dc61026d366004611b90565b610616565b34801561027e57600080fd5b5061024461028d366004611bcc565b600090815260fb602052604090206001015490565b3480156102ae57600080fd5b506102c26102bd366004611be5565b61063a565b005b3480156102d057600080fd5b50604051601281526020016101e8565b3480156102ec57600080fd5b506102c26102fb366004611be5565b610664565b34801561030c57600080fd5b506102c261031b366004611c11565b6106e7565b34801561032c57600080fd5b506101dc61033b366004611b66565b6107c6565b34801561034c57600080fd5b506102c26107e8565b34801561036157600080fd5b506102c2610370366004611b66565b61083f565b6102c2610383366004611c42565b6108b9565b34801561039457600080fd5b50610244610985565b3480156103a957600080fd5b5060655460ff166101dc565b3480156103c157600080fd5b506102446103d0366004611c11565b6001600160a01b031660009081526033602052604090205490565b3480156103f757600080fd5b506102c2610a38565b34801561040c57600080fd5b506102c2610c04565b34801561042157600080fd5b506101dc610430366004611be5565b610c54565b34801561044157600080fd5b50610206610c7f565b34801561045657600080fd5b50610244600081565b34801561046b57600080fd5b506101dc61047a366004611b66565b610c8e565b34801561048b57600080fd5b506101dc61049a366004611b66565b610d09565b3480156104ab57600080fd5b506102447f9f2df0fed2c77648de5860a4cc508cd0818c85b8b8a1ab4ceeef8d981c8956a681565b3480156104df57600080fd5b506102c26104ee366004611be5565b610d17565b3480156104ff57600080fd5b5061024461050e366004611d04565b610d3c565b34801561051f57600080fd5b5061024460008051602061218483398151915281565b60006001600160e01b03198216637965db0b60e01b148061056657506301ffc9a760e01b6001600160e01b03198316145b92915050565b60606036805461057b90611d2e565b80601f01602080910402602001604051908101604052809291908181526020018280546105a790611d2e565b80156105f45780601f106105c9576101008083540402835291602001916105f4565b820191906000526020600020905b8154815290600101906020018083116105d757829003601f168201915b5050505050905090565b60003361060c818585610d67565b5060019392505050565b600033610624858285610e83565b61062f858585610efd565b506001949350505050565b600082815260fb6020526040902060010154610655816110b3565b61065f83836110bd565b505050565b6001600160a01b03811633146106d95760405162461bcd60e51b815260206004820152602f60248201527f416363657373436f6e74726f6c3a2063616e206f6e6c792072656e6f756e636560448201526e103937b632b9903337b91039b2b63360891b60648201526084015b60405180910390fd5b6106e38282611143565b5050565b6001600160a01b037f000000000000000000000000000000000000000000000000000000000000000016300361072f5760405162461bcd60e51b81526004016106d090611d68565b7f00000000000000000000000000000000000000000000000000000000000000006001600160a01b0316610778600080516020612164833981519152546001600160a01b031690565b6001600160a01b03161461079e5760405162461bcd60e51b81526004016106d090611db4565b6107a7816111aa565b604080516000808252602082019092526107c3918391906111b5565b50565b60003361060c8185856107d98383610d3c565b6107e39190611e16565b610d67565b600080516020612184833981519152610800816110b3565b610808611320565b6040513381527faeb196d352664784d1900b0e7414a8face7d29f4dae8c4b0cf68ed477423bbf4906020015b60405180910390a150565b7f9f2df0fed2c77648de5860a4cc508cd0818c85b8b8a1ab4ceeef8d981c8956a6610869816110b3565b6108738383611372565b6040518281526001600160a01b0384169033907fbf67ec129007be07f346d9d2933215293a6612ce7ff17d6b479a5a5cae72890c906020015b60405180910390a3505050565b6001600160a01b037f00000000000000000000000000000000000000000000000000000000000000001630036109015760405162461bcd60e51b81526004016106d090611d68565b7f00000000000000000000000000000000000000000000000000000000000000006001600160a01b031661094a600080516020612164833981519152546001600160a01b031690565b6001600160a01b0316146109705760405162461bcd60e51b81526004016106d090611db4565b610979826111aa565b6106e3828260016111b5565b6000306001600160a01b037f00000000000000000000000000000000000000000000000000000000000000001614610a255760405162461bcd60e51b815260206004820152603860248201527f555550535570677261646561626c653a206d757374206e6f742062652063616c60448201527f6c6564207468726f7567682064656c656761746563616c6c000000000000000060648201526084016106d0565b5060008051602061216483398151915290565b600054610100900460ff1615808015610a585750600054600160ff909116105b80610a725750303b158015610a72575060005460ff166001145b610ad55760405162461bcd60e51b815260206004820152602e60248201527f496e697469616c697a61626c653a20636f6e747261637420697320616c72656160448201526d191e481a5b9a5d1a585b1a5e995960921b60648201526084016106d0565b6000805460ff191660011790558015610af8576000805461ff0019166101001790555b610b436040518060400160405280600c81526020016b212134ba32b9902a37b5b2b760a11b8152506040518060400160405280600581526020016421212a25a760d91b81525061143f565b610b4b611470565b610b536114a1565b610b5e6000336114c8565b610b76600080516020612184833981519152336114c8565b610ba07f9f2df0fed2c77648de5860a4cc508cd0818c85b8b8a1ab4ceeef8d981c8956a6336114c8565b610bc233610bb06012600a611f0d565b610bbd90620f4240611f1c565b611372565b80156107c3576000805461ff0019169055604051600181527f7f26b83ff96e1f2b6a682f133852f6798a09c465da95921460cefb384740249890602001610834565b600080516020612184833981519152610c1c816110b3565b610c246114d2565b6040513381527f5ee71a369c8672edded508e624ffc9257fa1ae6886ef32905c18e60196bca39990602001610834565b600091825260fb602090815260408084206001600160a01b0393909316845291905290205460ff1690565b60606037805461057b90611d2e565b60003381610c9c8286610d3c565b905083811015610cfc5760405162461bcd60e51b815260206004820152602560248201527f45524332303a2064656372656173656420616c6c6f77616e63652062656c6f77604482015264207a65726f60d81b60648201526084016106d0565b61062f8286868403610d67565b60003361060c818585610efd565b600082815260fb6020526040902060010154610d32816110b3565b61065f8383611143565b6001600160a01b03918216600090815260346020908152604080832093909416825291909152205490565b6001600160a01b038316610dc95760405162461bcd60e51b8152602060048201526024808201527f45524332303a20617070726f76652066726f6d20746865207a65726f206164646044820152637265737360e01b60648201526084016106d0565b6001600160a01b038216610e2a5760405162461bcd60e51b815260206004820152602260248201527f45524332303a20617070726f766520746f20746865207a65726f206164647265604482015261737360f01b60648201526084016106d0565b6001600160a01b0383811660008181526034602090815260408083209487168084529482529182902085905590518481527f8c5be1e5ebec7d5bd14f71427d1e84f3dd0314c0f7b2291e5b200ac8c7c3b92591016108ac565b6000610e8f8484610d3c565b90506000198114610ef75781811015610eea5760405162461bcd60e51b815260206004820152601d60248201527f45524332303a20696e73756666696369656e7420616c6c6f77616e636500000060448201526064016106d0565b610ef78484848403610d67565b50505050565b6001600160a01b038316610f615760405162461bcd60e51b815260206004820152602560248201527f45524332303a207472616e736665722066726f6d20746865207a65726f206164604482015264647265737360d81b60648201526084016106d0565b6001600160a01b038216610fc35760405162461bcd60e51b815260206004820152602360248201527f45524332303a207472616e7366657220746f20746865207a65726f206164647260448201526265737360e81b60648201526084016106d0565b610fce83838361150f565b6001600160a01b038316600090815260336020526040902054818110156110465760405162461bcd60e51b815260206004820152602660248201527f45524332303a207472616e7366657220616d6f756e7420657863656564732062604482015265616c616e636560d01b60648201526084016106d0565b6001600160a01b0380851660008181526033602052604080822086860390559286168082529083902080548601905591517fddf252ad1be2c89b69c2b068fc378daa952ba7f163c4a11628f55a4df523b3ef906110a69086815260200190565b60405180910390a3610ef7565b6107c38133611575565b6110c78282610c54565b6106e357600082815260fb602090815260408083206001600160a01b03851684529091529020805460ff191660011790556110ff3390565b6001600160a01b0316816001600160a01b0316837f2f8788117e7eff1d82e926ec794901d17c78024a50270940304540a733656f0d60405160405180910390a45050565b61114d8282610c54565b156106e357600082815260fb602090815260408083206001600160a01b0385168085529252808320805460ff1916905551339285917ff6391f5c32d9c69d2a47ea670b442974b53935d1edc7fd64eb21e047a839171b9190a45050565b60006106e3816110b3565b7f4910fdfa16fed3260ed0e7147f7cc6da11a60208b5b9406d12a635614ffd91435460ff16156111e85761065f836115ce565b826001600160a01b03166352d1902d6040518163ffffffff1660e01b8152600401602060405180830381865afa925050508015611242575060408051601f3d908101601f1916820190925261123f91810190611f33565b60015b6112a55760405162461bcd60e51b815260206004820152602e60248201527f45524331393637557067726164653a206e657720696d706c656d656e7461746960448201526d6f6e206973206e6f74205555505360901b60648201526084016106d0565b60008051602061216483398151915281146113145760405162461bcd60e51b815260206004820152602960248201527f45524331393637557067726164653a20756e737570706f727465642070726f786044820152681a58589b195555525160ba1b60648201526084016106d0565b5061065f83838361166a565b61132861168f565b6065805460ff191690557f5db9ee0a495bf2e6ff9c91a7834c1ba4fdd244a5e8aa4e537bd38aeae4b073aa335b6040516001600160a01b03909116815260200160405180910390a1565b6001600160a01b0382166113c85760405162461bcd60e51b815260206004820152601f60248201527f45524332303a206d696e7420746f20746865207a65726f20616464726573730060448201526064016106d0565b6113d46000838361150f565b80603560008282546113e69190611e16565b90915550506001600160a01b0382166000818152603360209081526040808320805486019055518481527fddf252ad1be2c89b69c2b068fc378daa952ba7f163c4a11628f55a4df523b3ef910160405180910390a35050565b600054610100900460ff166114665760405162461bcd60e51b81526004016106d090611f4c565b6106e382826116d8565b600054610100900460ff166114975760405162461bcd60e51b81526004016106d090611f4c565b61149f611718565b565b600054610100900460ff1661149f5760405162461bcd60e51b81526004016106d090611f4c565b6106e382826110bd565b6114da61174b565b6065805460ff191660011790557f62e78cea01bee320cd4e420270b5ea74000d11b0c9f74754ebdbfc544b05a2586113553390565b60655460ff161561065f5760405162461bcd60e51b815260206004820152602a60248201527f45524332305061757361626c653a20746f6b656e207472616e736665722077686044820152691a5b19481c185d5cd95960b21b60648201526084016106d0565b61157f8282610c54565b6106e35761158c81611791565b6115978360206117a3565b6040516020016115a8929190611f97565b60408051601f198184030181529082905262461bcd60e51b82526106d091600401611b17565b6001600160a01b0381163b61163b5760405162461bcd60e51b815260206004820152602d60248201527f455243313936373a206e657720696d706c656d656e746174696f6e206973206e60448201526c1bdd08184818dbdb9d1c9858dd609a1b60648201526084016106d0565b60008051602061216483398151915280546001600160a01b0319166001600160a01b0392909216919091179055565b61167383611946565b6000825111806116805750805b1561065f57610ef78383611986565b60655460ff1661149f5760405162461bcd60e51b815260206004820152601460248201527314185d5cd8589b194e881b9bdd081c185d5cd95960621b60448201526064016106d0565b600054610100900460ff166116ff5760405162461bcd60e51b81526004016106d090611f4c565b603661170b838261205a565b50603761065f828261205a565b600054610100900460ff1661173f5760405162461bcd60e51b81526004016106d090611f4c565b6065805460ff19169055565b60655460ff161561149f5760405162461bcd60e51b815260206004820152601060248201526f14185d5cd8589b194e881c185d5cd95960821b60448201526064016106d0565b60606105666001600160a01b03831660145b606060006117b2836002611f1c565b6117bd906002611e16565b67ffffffffffffffff8111156117d5576117d5611c2c565b6040519080825280601f01601f1916602001820160405280156117ff576020820181803683370190505b509050600360fc1b8160008151811061181a5761181a61211a565b60200101906001600160f81b031916908160001a905350600f60fb1b816001815181106118495761184961211a565b60200101906001600160f81b031916908160001a905350600061186d846002611f1c565b611878906001611e16565b90505b60018111156118f0576f181899199a1a9b1b9c1cb0b131b232b360811b85600f16601081106118ac576118ac61211a565b1a60f81b8282815181106118c2576118c261211a565b60200101906001600160f81b031916908160001a90535060049490941c936118e981612130565b905061187b565b50831561193f5760405162461bcd60e51b815260206004820181905260248201527f537472696e67733a20686578206c656e67746820696e73756666696369656e7460448201526064016106d0565b9392505050565b61194f816115ce565b6040516001600160a01b038216907fbc7cd75a20ee27fd9adebab32041f755214dbc6bffa90cc0225b39da2e5c2d3b90600090a250565b606061193f83836040518060600160405280602781526020016121a4602791396060600080856001600160a01b0316856040516119c39190612147565b600060405180830381855af49150503d80600081146119fe576040519150601f19603f3d011682016040523d82523d6000602084013e611a03565b606091505b5091509150611a1486838387611a1e565b9695505050505050565b60608315611a8d578251600003611a86576001600160a01b0385163b611a865760405162461bcd60e51b815260206004820152601d60248201527f416464726573733a2063616c6c20746f206e6f6e2d636f6e747261637400000060448201526064016106d0565b5081611a97565b611a978383611a9f565b949350505050565b815115611aaf5781518083602001fd5b8060405162461bcd60e51b81526004016106d09190611b17565b600060208284031215611adb57600080fd5b81356001600160e01b03198116811461193f57600080fd5b60005b83811015611b0e578181015183820152602001611af6565b50506000910152565b6020815260008251806020840152611b36816040850160208701611af3565b601f01601f19169190910160400192915050565b80356001600160a01b0381168114611b6157600080fd5b919050565b60008060408385031215611b7957600080fd5b611b8283611b4a565b946020939093013593505050565b600080600060608486031215611ba557600080fd5b611bae84611b4a565b9250611bbc60208501611b4a565b9150604084013590509250925092565b600060208284031215611bde57600080fd5b5035919050565b60008060408385031215611bf857600080fd5b82359150611c0860208401611b4a565b90509250929050565b600060208284031215611c2357600080fd5b61193f82611b4a565b634e487b7160e01b600052604160045260246000fd5b60008060408385031215611c5557600080fd5b611c5e83611b4a565b9150602083013567ffffffffffffffff80821115611c7b57600080fd5b818501915085601f830112611c8f57600080fd5b813581811115611ca157611ca1611c2c565b604051601f8201601f19908116603f01168101908382118183101715611cc957611cc9611c2c565b81604052828152886020848701011115611ce257600080fd5b8260208601602083013760006020848301015280955050505050509250929050565b60008060408385031215611d1757600080fd5b611d2083611b4a565b9150611c0860208401611b4a565b600181811c90821680611d4257607f821691505b602082108103611d6257634e487b7160e01b600052602260045260246000fd5b50919050565b6020808252602c908201527f46756e6374696f6e206d7573742062652063616c6c6564207468726f7567682060408201526b19195b1959d85d1958d85b1b60a21b606082015260800190565b6020808252602c908201527f46756e6374696f6e206d7573742062652063616c6c6564207468726f7567682060408201526b6163746976652070726f787960a01b606082015260800190565b634e487b7160e01b600052601160045260246000fd5b8082018082111561056657610566611e00565b600181815b80851115611e64578160001904821115611e4a57611e4a611e00565b80851615611e5757918102915b93841c9390800290611e2e565b509250929050565b600082611e7b57506001610566565b81611e8857506000610566565b8160018114611e9e5760028114611ea857611ec4565b6001915050610566565b60ff841115611eb957611eb9611e00565b50506001821b610566565b5060208310610133831016604e8410600b8410161715611ee7575081810a610566565b611ef18383611e29565b8060001904821115611f0557611f05611e00565b029392505050565b600061193f60ff841683611e6c565b808202811582820484141761056657610566611e00565b600060208284031215611f4557600080fd5b5051919050565b6020808252602b908201527f496e697469616c697a61626c653a20636f6e7472616374206973206e6f74206960408201526a6e697469616c697a696e6760a81b606082015260800190565b7f416363657373436f6e74726f6c3a206163636f756e7420000000000000000000815260008351611fcf816017850160208801611af3565b7001034b99036b4b9b9b4b733903937b6329607d1b6017918401918201528351612000816028840160208801611af3565b01602801949350505050565b601f82111561065f57600081815260208120601f850160051c810160208610156120335750805b601f850160051c820191505b818110156120525782815560010161203f565b505050505050565b815167ffffffffffffffff81111561207457612074611c2c565b612088816120828454611d2e565b8461200c565b602080601f8311600181146120bd57600084156120a55750858301515b600019600386901b1c1916600185901b178555612052565b600085815260208120601f198616915b828110156120ec578886015182559484019460019091019084016120cd565b508582101561210a5787850151600019600388901b60f8161c191681555b5050505050600190811b01905550565b634e487b7160e01b600052603260045260246000fd5b60008161213f5761213f611e00565b506000190190565b60008251612159818460208701611af3565b919091019291505056fe360894a13ba1a3210667c828492db98dca3e2076cc3735a920a3ca505d382bbc65d7a28e3265b37a6474929f336521b332c1681b933f6cb9f3376673440d862a416464726573733a206c6f772d6c6576656c2064656c65676174652063616c6c206661696c6564a26469706673582212209153de4012b26e292f743fdab43f5fd3ac72a2fe4ffb628896fa83f893deca0264736f6c63430008130033",
  "linkReferences": {},
  "deployedLinkReferences": {}
}